{
	"nft-market.sol": {
		"Market": {
			"abi": [
				{
					"inputs": [
						{
							"internalType": "contract IERC20",
							"name": "_erc20",
							"type": "address"
						},
						{
							"internalType": "contract IERC721",
							"name": "_erc721",
							"type": "address"
						}
					],
					"stateMutability": "nonpayable",
					"type": "constructor"
				},
				{
					"anonymous": false,
					"inputs": [
						{
							"indexed": false,
							"internalType": "address",
							"name": "seller",
							"type": "address"
						},
						{
							"indexed": false,
							"internalType": "uint256",
							"name": "tokenId",
							"type": "uint256"
						}
					],
					"name": "CancelOrder",
					"type": "event"
				},
				{
					"anonymous": false,
					"inputs": [
						{
							"indexed": false,
							"internalType": "address",
							"name": "seller",
							"type": "address"
						},
						{
							"indexed": false,
							"internalType": "uint256",
							"name": "tokenId",
							"type": "uint256"
						},
						{
							"indexed": false,
							"internalType": "uint256",
							"name": "previousPrice",
							"type": "uint256"
						},
						{
							"indexed": false,
							"internalType": "uint256",
							"name": "price",
							"type": "uint256"
						}
					],
					"name": "ChangePrice",
					"type": "event"
				},
				{
					"anonymous": false,
					"inputs": [
						{
							"indexed": false,
							"internalType": "address",
							"name": "buyer",
							"type": "address"
						},
						{
							"indexed": false,
							"internalType": "address",
							"name": "seller",
							"type": "address"
						},
						{
							"indexed": false,
							"internalType": "uint256",
							"name": "tokenId",
							"type": "uint256"
						},
						{
							"indexed": false,
							"internalType": "uint256",
							"name": "price",
							"type": "uint256"
						}
					],
					"name": "Deal",
					"type": "event"
				},
				{
					"anonymous": false,
					"inputs": [
						{
							"indexed": false,
							"internalType": "address",
							"name": "seller",
							"type": "address"
						},
						{
							"indexed": false,
							"internalType": "uint256",
							"name": "tokenId",
							"type": "uint256"
						},
						{
							"indexed": false,
							"internalType": "uint256",
							"name": "startPrice",
							"type": "uint256"
						},
						{
							"indexed": false,
							"internalType": "uint256",
							"name": "startTime",
							"type": "uint256"
						},
						{
							"indexed": false,
							"internalType": "uint256",
							"name": "Endtime",
							"type": "uint256"
						}
					],
					"name": "NewAuctionOrder",
					"type": "event"
				},
				{
					"anonymous": false,
					"inputs": [
						{
							"indexed": false,
							"internalType": "address",
							"name": "seller",
							"type": "address"
						},
						{
							"indexed": false,
							"internalType": "uint256",
							"name": "tokenId",
							"type": "uint256"
						},
						{
							"indexed": false,
							"internalType": "uint256",
							"name": "price",
							"type": "uint256"
						}
					],
					"name": "NewNormalOrder",
					"type": "event"
				},
				{
					"anonymous": false,
					"inputs": [
						{
							"indexed": false,
							"internalType": "address",
							"name": "bidder",
							"type": "address"
						},
						{
							"indexed": false,
							"internalType": "uint256",
							"name": "tokenId",
							"type": "uint256"
						},
						{
							"indexed": false,
							"internalType": "uint256",
							"name": "price",
							"type": "uint256"
						}
					],
					"name": "SomeBidden",
					"type": "event"
				},
				{
					"inputs": [
						{
							"internalType": "uint256",
							"name": "_tokenID",
							"type": "uint256"
						}
					],
					"name": "auction",
					"outputs": [],
					"stateMutability": "payable",
					"type": "function"
				},
				{
					"inputs": [
						{
							"internalType": "uint256",
							"name": "_tokenId",
							"type": "uint256"
						}
					],
					"name": "buy",
					"outputs": [],
					"stateMutability": "nonpayable",
					"type": "function"
				},
				{
					"inputs": [
						{
							"internalType": "uint256",
							"name": "_tokenId",
							"type": "uint256"
						}
					],
					"name": "cancelOrder",
					"outputs": [],
					"stateMutability": "nonpayable",
					"type": "function"
				},
				{
					"inputs": [
						{
							"internalType": "uint256",
							"name": "_tokenId",
							"type": "uint256"
						},
						{
							"internalType": "uint256",
							"name": "_price",
							"type": "uint256"
						}
					],
					"name": "changePrice",
					"outputs": [],
					"stateMutability": "nonpayable",
					"type": "function"
				},
				{
					"inputs": [],
					"name": "erc20",
					"outputs": [
						{
							"internalType": "contract IERC20",
							"name": "",
							"type": "address"
						}
					],
					"stateMutability": "view",
					"type": "function"
				},
				{
					"inputs": [],
					"name": "erc721",
					"outputs": [
						{
							"internalType": "contract IERC721",
							"name": "",
							"type": "address"
						}
					],
					"stateMutability": "view",
					"type": "function"
				},
				{
					"inputs": [
						{
							"internalType": "uint256",
							"name": "_tokenID",
							"type": "uint256"
						}
					],
					"name": "finishAuction",
					"outputs": [],
					"stateMutability": "nonpayable",
					"type": "function"
				},
				{
					"inputs": [],
					"name": "getAllNFTs",
					"outputs": [
						{
							"components": [
								{
									"internalType": "address",
									"name": "seller",
									"type": "address"
								},
								{
									"internalType": "bool",
									"name": "isAuction",
									"type": "bool"
								},
								{
									"internalType": "uint256",
									"name": "startTime",
									"type": "uint256"
								},
								{
									"internalType": "uint256",
									"name": "endTime",
									"type": "uint256"
								},
								{
									"internalType": "uint256",
									"name": "highestBid",
									"type": "uint256"
								},
								{
									"internalType": "address",
									"name": "highestBidder",
									"type": "address"
								},
								{
									"internalType": "uint256",
									"name": "tokenId",
									"type": "uint256"
								},
								{
									"internalType": "uint256",
									"name": "price",
									"type": "uint256"
								}
							],
							"internalType": "struct Market.Order[]",
							"name": "",
							"type": "tuple[]"
						}
					],
					"stateMutability": "view",
					"type": "function"
				},
				{
					"inputs": [],
					"name": "getMyNFTs",
					"outputs": [
						{
							"components": [
								{
									"internalType": "address",
									"name": "seller",
									"type": "address"
								},
								{
									"internalType": "bool",
									"name": "isAuction",
									"type": "bool"
								},
								{
									"internalType": "uint256",
									"name": "startTime",
									"type": "uint256"
								},
								{
									"internalType": "uint256",
									"name": "endTime",
									"type": "uint256"
								},
								{
									"internalType": "uint256",
									"name": "highestBid",
									"type": "uint256"
								},
								{
									"internalType": "address",
									"name": "highestBidder",
									"type": "address"
								},
								{
									"internalType": "uint256",
									"name": "tokenId",
									"type": "uint256"
								},
								{
									"internalType": "uint256",
									"name": "price",
									"type": "uint256"
								}
							],
							"internalType": "struct Market.Order[]",
							"name": "",
							"type": "tuple[]"
						}
					],
					"stateMutability": "view",
					"type": "function"
				},
				{
					"inputs": [],
					"name": "getOrderLength",
					"outputs": [
						{
							"internalType": "uint256",
							"name": "",
							"type": "uint256"
						}
					],
					"stateMutability": "view",
					"type": "function"
				},
				{
					"inputs": [
						{
							"internalType": "uint256",
							"name": "",
							"type": "uint256"
						}
					],
					"name": "idToOrderIndex",
					"outputs": [
						{
							"internalType": "uint256",
							"name": "",
							"type": "uint256"
						}
					],
					"stateMutability": "view",
					"type": "function"
				},
				{
					"inputs": [
						{
							"internalType": "uint256",
							"name": "_tokenId",
							"type": "uint256"
						}
					],
					"name": "isListed",
					"outputs": [
						{
							"internalType": "bool",
							"name": "",
							"type": "bool"
						}
					],
					"stateMutability": "view",
					"type": "function"
				},
				{
					"inputs": [
						{
							"internalType": "address",
							"name": "_operator",
							"type": "address"
						},
						{
							"internalType": "address",
							"name": "_seller",
							"type": "address"
						},
						{
							"internalType": "uint256",
							"name": "_tokenId",
							"type": "uint256"
						},
						{
							"internalType": "bytes",
							"name": "_data",
							"type": "bytes"
						}
					],
					"name": "onERC721Received",
					"outputs": [
						{
							"internalType": "bytes4",
							"name": "",
							"type": "bytes4"
						}
					],
					"stateMutability": "nonpayable",
					"type": "function"
				},
				{
					"inputs": [
						{
							"internalType": "uint256",
							"name": "",
							"type": "uint256"
						}
					],
					"name": "orderOfId",
					"outputs": [
						{
							"internalType": "address",
							"name": "seller",
							"type": "address"
						},
						{
							"internalType": "bool",
							"name": "isAuction",
							"type": "bool"
						},
						{
							"internalType": "uint256",
							"name": "startTime",
							"type": "uint256"
						},
						{
							"internalType": "uint256",
							"name": "endTime",
							"type": "uint256"
						},
						{
							"internalType": "uint256",
							"name": "highestBid",
							"type": "uint256"
						},
						{
							"internalType": "address",
							"name": "highestBidder",
							"type": "address"
						},
						{
							"internalType": "uint256",
							"name": "tokenId",
							"type": "uint256"
						},
						{
							"internalType": "uint256",
							"name": "price",
							"type": "uint256"
						}
					],
					"stateMutability": "view",
					"type": "function"
				},
				{
					"inputs": [
						{
							"internalType": "uint256",
							"name": "",
							"type": "uint256"
						}
					],
					"name": "orders",
					"outputs": [
						{
							"internalType": "address",
							"name": "seller",
							"type": "address"
						},
						{
							"internalType": "bool",
							"name": "isAuction",
							"type": "bool"
						},
						{
							"internalType": "uint256",
							"name": "startTime",
							"type": "uint256"
						},
						{
							"internalType": "uint256",
							"name": "endTime",
							"type": "uint256"
						},
						{
							"internalType": "uint256",
							"name": "highestBid",
							"type": "uint256"
						},
						{
							"internalType": "address",
							"name": "highestBidder",
							"type": "address"
						},
						{
							"internalType": "uint256",
							"name": "tokenId",
							"type": "uint256"
						},
						{
							"internalType": "uint256",
							"name": "price",
							"type": "uint256"
						}
					],
					"stateMutability": "view",
					"type": "function"
				},
				{
					"inputs": [
						{
							"internalType": "bool",
							"name": "_isAuction",
							"type": "bool"
						},
						{
							"internalType": "uint256",
							"name": "_duration",
							"type": "uint256"
						}
					],
					"name": "setSellerPreferences",
					"outputs": [],
					"stateMutability": "nonpayable",
					"type": "function"
				},
				{
					"inputs": [
						{
							"internalType": "bytes",
							"name": "_bytes",
							"type": "bytes"
						},
						{
							"internalType": "uint256",
							"name": "_start",
							"type": "uint256"
						}
					],
					"name": "toUint256",
					"outputs": [
						{
							"internalType": "uint256",
							"name": "",
							"type": "uint256"
						}
					],
					"stateMutability": "pure",
					"type": "function"
				}
			],
			"devdoc": {
				"kind": "dev",
				"methods": {
					"onERC721Received(address,address,uint256,bytes)": {
						"details": "List a good using a ERC721 receiver hook",
						"params": {
							"_data": "contains the pricing data as the first 32 bytes",
							"_operator": "the caller of this function",
							"_seller": "the good seller",
							"_tokenId": "the good id to list"
						}
					}
				},
				"title": "NFTMarket contract that allows atomic swaps of ERC20 and ERC721",
				"version": 1
			},
			"evm": {
				"assembly": "    /* \"nft-market.sol\":331:12300  contract Market is IERC721Receiver {... */\n  mstore(0x40, 0x80)\n    /* \"nft-market.sol\":1983:2365  constructor(IERC20 _erc20, IERC721 _erc721) {... */\n  callvalue\n  dup1\n  iszero\n  tag_1\n  jumpi\n  0x00\n  dup1\n  revert\ntag_1:\n  pop\n  mload(0x40)\n  sub(codesize, bytecodeSize)\n  dup1\n  bytecodeSize\n  dup4\n  codecopy\n  dup2\n  dup2\n  add\n  0x40\n  mstore\n  dup2\n  add\n  swap1\n  tag_2\n  swap2\n  swap1\n  tag_3\n  jump\t// in\ntag_2:\n    /* \"nft-market.sol\":2087:2088  0 */\n  0x00\n    /* \"nft-market.sol\":2060:2089  address(_erc20) != address(0) */\n  0xffffffffffffffffffffffffffffffffffffffff\n  and\n    /* \"nft-market.sol\":2068:2074  _erc20 */\n  dup3\n    /* \"nft-market.sol\":2060:2089  address(_erc20) != address(0) */\n  0xffffffffffffffffffffffffffffffffffffffff\n  and\n  sub\n    /* \"nft-market.sol\":2038:2165  require(... */\n  tag_6\n  jumpi\n  mload(0x40)\n  0x08c379a000000000000000000000000000000000000000000000000000000000\n  dup2\n  mstore\n  0x04\n  add\n  tag_7\n  swap1\n  tag_8\n  jump\t// in\ntag_7:\n  mload(0x40)\n  dup1\n  swap2\n  sub\n  swap1\n  revert\ntag_6:\n    /* \"nft-market.sol\":2226:2227  0 */\n  0x00\n    /* \"nft-market.sol\":2198:2228  address(_erc721) != address(0) */\n  0xffffffffffffffffffffffffffffffffffffffff\n  and\n    /* \"nft-market.sol\":2206:2213  _erc721 */\n  dup2\n    /* \"nft-market.sol\":2198:2228  address(_erc721) != address(0) */\n  0xffffffffffffffffffffffffffffffffffffffff\n  and\n  sub\n    /* \"nft-market.sol\":2176:2305  require(... */\n  tag_9\n  jumpi\n  mload(0x40)\n  0x08c379a000000000000000000000000000000000000000000000000000000000\n  dup2\n  mstore\n  0x04\n  add\n  tag_10\n  swap1\n  tag_11\n  jump\t// in\ntag_10:\n  mload(0x40)\n  dup1\n  swap2\n  sub\n  swap1\n  revert\ntag_9:\n    /* \"nft-market.sol\":2324:2330  _erc20 */\n  dup2\n    /* \"nft-market.sol\":2316:2321  erc20 */\n  0x00\n  dup1\n    /* \"nft-market.sol\":2316:2330  erc20 = _erc20 */\n  0x0100\n  exp\n  dup2\n  sload\n  dup2\n  0xffffffffffffffffffffffffffffffffffffffff\n  mul\n  not\n  and\n  swap1\n  dup4\n  0xffffffffffffffffffffffffffffffffffffffff\n  and\n  mul\n  or\n  swap1\n  sstore\n  pop\n    /* \"nft-market.sol\":2350:2357  _erc721 */\n  dup1\n    /* \"nft-market.sol\":2341:2347  erc721 */\n  0x01\n  0x00\n    /* \"nft-market.sol\":2341:2357  erc721 = _erc721 */\n  0x0100\n  exp\n  dup2\n  sload\n  dup2\n  0xffffffffffffffffffffffffffffffffffffffff\n  mul\n  not\n  and\n  swap1\n  dup4\n  0xffffffffffffffffffffffffffffffffffffffff\n  and\n  mul\n  or\n  swap1\n  sstore\n  pop\n    /* \"nft-market.sol\":1983:2365  constructor(IERC20 _erc20, IERC721 _erc721) {... */\n  pop\n  pop\n    /* \"nft-market.sol\":331:12300  contract Market is IERC721Receiver {... */\n  jump(tag_12)\n    /* \"#utility.yul\":88:205   */\ntag_14:\n    /* \"#utility.yul\":197:198   */\n  0x00\n    /* \"#utility.yul\":194:195   */\n  dup1\n    /* \"#utility.yul\":187:199   */\n  revert\n    /* \"#utility.yul\":334:460   */\ntag_16:\n    /* \"#utility.yul\":371:378   */\n  0x00\n    /* \"#utility.yul\":411:453   */\n  0xffffffffffffffffffffffffffffffffffffffff\n    /* \"#utility.yul\":404:409   */\n  dup3\n    /* \"#utility.yul\":400:454   */\n  and\n    /* \"#utility.yul\":389:454   */\n  swap1\n  pop\n    /* \"#utility.yul\":334:460   */\n  swap2\n  swap1\n  pop\n  jump\t// out\n    /* \"#utility.yul\":466:562   */\ntag_17:\n    /* \"#utility.yul\":503:510   */\n  0x00\n    /* \"#utility.yul\":532:556   */\n  tag_35\n    /* \"#utility.yul\":550:555   */\n  dup3\n    /* \"#utility.yul\":532:556   */\n  tag_16\n  jump\t// in\ntag_35:\n    /* \"#utility.yul\":521:556   */\n  swap1\n  pop\n    /* \"#utility.yul\":466:562   */\n  swap2\n  swap1\n  pop\n  jump\t// out\n    /* \"#utility.yul\":568:677   */\ntag_18:\n    /* \"#utility.yul\":618:625   */\n  0x00\n    /* \"#utility.yul\":647:671   */\n  tag_37\n    /* \"#utility.yul\":665:670   */\n  dup3\n    /* \"#utility.yul\":647:671   */\n  tag_17\n  jump\t// in\ntag_37:\n    /* \"#utility.yul\":636:671   */\n  swap1\n  pop\n    /* \"#utility.yul\":568:677   */\n  swap2\n  swap1\n  pop\n  jump\t// out\n    /* \"#utility.yul\":683:831   */\ntag_19:\n    /* \"#utility.yul\":769:806   */\n  tag_39\n    /* \"#utility.yul\":800:805   */\n  dup2\n    /* \"#utility.yul\":769:806   */\n  tag_18\n  jump\t// in\ntag_39:\n    /* \"#utility.yul\":762:767   */\n  dup2\n    /* \"#utility.yul\":759:807   */\n  eq\n    /* \"#utility.yul\":749:825   */\n  tag_40\n  jumpi\n    /* \"#utility.yul\":821:822   */\n  0x00\n    /* \"#utility.yul\":818:819   */\n  dup1\n    /* \"#utility.yul\":811:823   */\n  revert\n    /* \"#utility.yul\":749:825   */\ntag_40:\n    /* \"#utility.yul\":683:831   */\n  pop\n  jump\t// out\n    /* \"#utility.yul\":837:1006   */\ntag_20:\n    /* \"#utility.yul\":907:912   */\n  0x00\n    /* \"#utility.yul\":938:944   */\n  dup2\n    /* \"#utility.yul\":932:945   */\n  mload\n    /* \"#utility.yul\":923:945   */\n  swap1\n  pop\n    /* \"#utility.yul\":954:1000   */\n  tag_42\n    /* \"#utility.yul\":994:999   */\n  dup2\n    /* \"#utility.yul\":954:1000   */\n  tag_19\n  jump\t// in\ntag_42:\n    /* \"#utility.yul\":837:1006   */\n  swap3\n  swap2\n  pop\n  pop\n  jump\t// out\n    /* \"#utility.yul\":1012:1123   */\ntag_21:\n    /* \"#utility.yul\":1064:1071   */\n  0x00\n    /* \"#utility.yul\":1093:1117   */\n  tag_44\n    /* \"#utility.yul\":1111:1116   */\n  dup3\n    /* \"#utility.yul\":1093:1117   */\n  tag_17\n  jump\t// in\ntag_44:\n    /* \"#utility.yul\":1082:1117   */\n  swap1\n  pop\n    /* \"#utility.yul\":1012:1123   */\n  swap2\n  swap1\n  pop\n  jump\t// out\n    /* \"#utility.yul\":1129:1281   */\ntag_22:\n    /* \"#utility.yul\":1217:1256   */\n  tag_46\n    /* \"#utility.yul\":1250:1255   */\n  dup2\n    /* \"#utility.yul\":1217:1256   */\n  tag_21\n  jump\t// in\ntag_46:\n    /* \"#utility.yul\":1210:1215   */\n  dup2\n    /* \"#utility.yul\":1207:1257   */\n  eq\n    /* \"#utility.yul\":1197:1275   */\n  tag_47\n  jumpi\n    /* \"#utility.yul\":1271:1272   */\n  0x00\n    /* \"#utility.yul\":1268:1269   */\n  dup1\n    /* \"#utility.yul\":1261:1273   */\n  revert\n    /* \"#utility.yul\":1197:1275   */\ntag_47:\n    /* \"#utility.yul\":1129:1281   */\n  pop\n  jump\t// out\n    /* \"#utility.yul\":1287:1460   */\ntag_23:\n    /* \"#utility.yul\":1359:1364   */\n  0x00\n    /* \"#utility.yul\":1390:1396   */\n  dup2\n    /* \"#utility.yul\":1384:1397   */\n  mload\n    /* \"#utility.yul\":1375:1397   */\n  swap1\n  pop\n    /* \"#utility.yul\":1406:1454   */\n  tag_49\n    /* \"#utility.yul\":1448:1453   */\n  dup2\n    /* \"#utility.yul\":1406:1454   */\n  tag_22\n  jump\t// in\ntag_49:\n    /* \"#utility.yul\":1287:1460   */\n  swap3\n  swap2\n  pop\n  pop\n  jump\t// out\n    /* \"#utility.yul\":1466:2029   */\ntag_3:\n    /* \"#utility.yul\":1573:1579   */\n  0x00\n    /* \"#utility.yul\":1581:1587   */\n  dup1\n    /* \"#utility.yul\":1630:1632   */\n  0x40\n    /* \"#utility.yul\":1618:1627   */\n  dup4\n    /* \"#utility.yul\":1609:1616   */\n  dup6\n    /* \"#utility.yul\":1605:1628   */\n  sub\n    /* \"#utility.yul\":1601:1633   */\n  slt\n    /* \"#utility.yul\":1598:1717   */\n  iszero\n  tag_51\n  jumpi\n    /* \"#utility.yul\":1636:1715   */\n  tag_52\n  tag_14\n  jump\t// in\ntag_52:\n    /* \"#utility.yul\":1598:1717   */\ntag_51:\n    /* \"#utility.yul\":1756:1757   */\n  0x00\n    /* \"#utility.yul\":1781:1858   */\n  tag_53\n    /* \"#utility.yul\":1850:1857   */\n  dup6\n    /* \"#utility.yul\":1841:1847   */\n  dup3\n    /* \"#utility.yul\":1830:1839   */\n  dup7\n    /* \"#utility.yul\":1826:1848   */\n  add\n    /* \"#utility.yul\":1781:1858   */\n  tag_20\n  jump\t// in\ntag_53:\n    /* \"#utility.yul\":1771:1858   */\n  swap3\n  pop\n    /* \"#utility.yul\":1727:1868   */\n  pop\n    /* \"#utility.yul\":1907:1909   */\n  0x20\n    /* \"#utility.yul\":1933:2012   */\n  tag_54\n    /* \"#utility.yul\":2004:2011   */\n  dup6\n    /* \"#utility.yul\":1995:2001   */\n  dup3\n    /* \"#utility.yul\":1984:1993   */\n  dup7\n    /* \"#utility.yul\":1980:2002   */\n  add\n    /* \"#utility.yul\":1933:2012   */\n  tag_23\n  jump\t// in\ntag_54:\n    /* \"#utility.yul\":1923:2012   */\n  swap2\n  pop\n    /* \"#utility.yul\":1878:2022   */\n  pop\n    /* \"#utility.yul\":1466:2029   */\n  swap3\n  pop\n  swap3\n  swap1\n  pop\n  jump\t// out\n    /* \"#utility.yul\":2035:2204   */\ntag_24:\n    /* \"#utility.yul\":2119:2130   */\n  0x00\n    /* \"#utility.yul\":2153:2159   */\n  dup3\n    /* \"#utility.yul\":2148:2151   */\n  dup3\n    /* \"#utility.yul\":2141:2160   */\n  mstore\n    /* \"#utility.yul\":2193:2197   */\n  0x20\n    /* \"#utility.yul\":2188:2191   */\n  dup3\n    /* \"#utility.yul\":2184:2198   */\n  add\n    /* \"#utility.yul\":2169:2198   */\n  swap1\n  pop\n    /* \"#utility.yul\":2035:2204   */\n  swap3\n  swap2\n  pop\n  pop\n  jump\t// out\n    /* \"#utility.yul\":2210:2445   */\ntag_25:\n    /* \"#utility.yul\":2350:2384   */\n  0x4d61726b65743a2049455243323020636f6e7472616374206164647265737320\n    /* \"#utility.yul\":2346:2347   */\n  0x00\n    /* \"#utility.yul\":2338:2344   */\n  dup3\n    /* \"#utility.yul\":2334:2348   */\n  add\n    /* \"#utility.yul\":2327:2385   */\n  mstore\n    /* \"#utility.yul\":2419:2437   */\n  0x6d757374206265206e6f6e2d6e756c6c00000000000000000000000000000000\n    /* \"#utility.yul\":2414:2416   */\n  0x20\n    /* \"#utility.yul\":2406:2412   */\n  dup3\n    /* \"#utility.yul\":2402:2417   */\n  add\n    /* \"#utility.yul\":2395:2438   */\n  mstore\n    /* \"#utility.yul\":2210:2445   */\n  pop\n  jump\t// out\n    /* \"#utility.yul\":2451:2817   */\ntag_26:\n    /* \"#utility.yul\":2593:2596   */\n  0x00\n    /* \"#utility.yul\":2614:2681   */\n  tag_58\n    /* \"#utility.yul\":2678:2680   */\n  0x30\n    /* \"#utility.yul\":2673:2676   */\n  dup4\n    /* \"#utility.yul\":2614:2681   */\n  tag_24\n  jump\t// in\ntag_58:\n    /* \"#utility.yul\":2607:2681   */\n  swap2\n  pop\n    /* \"#utility.yul\":2690:2783   */\n  tag_59\n    /* \"#utility.yul\":2779:2782   */\n  dup3\n    /* \"#utility.yul\":2690:2783   */\n  tag_25\n  jump\t// in\ntag_59:\n    /* \"#utility.yul\":2808:2810   */\n  0x40\n    /* \"#utility.yul\":2803:2806   */\n  dup3\n    /* \"#utility.yul\":2799:2811   */\n  add\n    /* \"#utility.yul\":2792:2811   */\n  swap1\n  pop\n    /* \"#utility.yul\":2451:2817   */\n  swap2\n  swap1\n  pop\n  jump\t// out\n    /* \"#utility.yul\":2823:3242   */\ntag_8:\n    /* \"#utility.yul\":2989:2993   */\n  0x00\n    /* \"#utility.yul\":3027:3029   */\n  0x20\n    /* \"#utility.yul\":3016:3025   */\n  dup3\n    /* \"#utility.yul\":3012:3030   */\n  add\n    /* \"#utility.yul\":3004:3030   */\n  swap1\n  pop\n    /* \"#utility.yul\":3076:3085   */\n  dup2\n    /* \"#utility.yul\":3070:3074   */\n  dup2\n    /* \"#utility.yul\":3066:3086   */\n  sub\n    /* \"#utility.yul\":3062:3063   */\n  0x00\n    /* \"#utility.yul\":3051:3060   */\n  dup4\n    /* \"#utility.yul\":3047:3064   */\n  add\n    /* \"#utility.yul\":3040:3087   */\n  mstore\n    /* \"#utility.yul\":3104:3235   */\n  tag_61\n    /* \"#utility.yul\":3230:3234   */\n  dup2\n    /* \"#utility.yul\":3104:3235   */\n  tag_26\n  jump\t// in\ntag_61:\n    /* \"#utility.yul\":3096:3235   */\n  swap1\n  pop\n    /* \"#utility.yul\":2823:3242   */\n  swap2\n  swap1\n  pop\n  jump\t// out\n    /* \"#utility.yul\":3248:3484   */\ntag_27:\n    /* \"#utility.yul\":3388:3422   */\n  0x4d61726b65743a204945524337323120636f6e74726163742061646472657373\n    /* \"#utility.yul\":3384:3385   */\n  0x00\n    /* \"#utility.yul\":3376:3382   */\n  dup3\n    /* \"#utility.yul\":3372:3386   */\n  add\n    /* \"#utility.yul\":3365:3423   */\n  mstore\n    /* \"#utility.yul\":3457:3476   */\n  0x206d757374206265206e6f6e2d6e756c6c000000000000000000000000000000\n    /* \"#utility.yul\":3452:3454   */\n  0x20\n    /* \"#utility.yul\":3444:3450   */\n  dup3\n    /* \"#utility.yul\":3440:3455   */\n  add\n    /* \"#utility.yul\":3433:3477   */\n  mstore\n    /* \"#utility.yul\":3248:3484   */\n  pop\n  jump\t// out\n    /* \"#utility.yul\":3490:3856   */\ntag_28:\n    /* \"#utility.yul\":3632:3635   */\n  0x00\n    /* \"#utility.yul\":3653:3720   */\n  tag_64\n    /* \"#utility.yul\":3717:3719   */\n  0x31\n    /* \"#utility.yul\":3712:3715   */\n  dup4\n    /* \"#utility.yul\":3653:3720   */\n  tag_24\n  jump\t// in\ntag_64:\n    /* \"#utility.yul\":3646:3720   */\n  swap2\n  pop\n    /* \"#utility.yul\":3729:3822   */\n  tag_65\n    /* \"#utility.yul\":3818:3821   */\n  dup3\n    /* \"#utility.yul\":3729:3822   */\n  tag_27\n  jump\t// in\ntag_65:\n    /* \"#utility.yul\":3847:3849   */\n  0x40\n    /* \"#utility.yul\":3842:3845   */\n  dup3\n    /* \"#utility.yul\":3838:3850   */\n  add\n    /* \"#utility.yul\":3831:3850   */\n  swap1\n  pop\n    /* \"#utility.yul\":3490:3856   */\n  swap2\n  swap1\n  pop\n  jump\t// out\n    /* \"#utility.yul\":3862:4281   */\ntag_11:\n    /* \"#utility.yul\":4028:4032   */\n  0x00\n    /* \"#utility.yul\":4066:4068   */\n  0x20\n    /* \"#utility.yul\":4055:4064   */\n  dup3\n    /* \"#utility.yul\":4051:4069   */\n  add\n    /* \"#utility.yul\":4043:4069   */\n  swap1\n  pop\n    /* \"#utility.yul\":4115:4124   */\n  dup2\n    /* \"#utility.yul\":4109:4113   */\n  dup2\n    /* \"#utility.yul\":4105:4125   */\n  sub\n    /* \"#utility.yul\":4101:4102   */\n  0x00\n    /* \"#utility.yul\":4090:4099   */\n  dup4\n    /* \"#utility.yul\":4086:4103   */\n  add\n    /* \"#utility.yul\":4079:4126   */\n  mstore\n    /* \"#utility.yul\":4143:4274   */\n  tag_67\n    /* \"#utility.yul\":4269:4273   */\n  dup2\n    /* \"#utility.yul\":4143:4274   */\n  tag_28\n  jump\t// in\ntag_67:\n    /* \"#utility.yul\":4135:4274   */\n  swap1\n  pop\n    /* \"#utility.yul\":3862:4281   */\n  swap2\n  swap1\n  pop\n  jump\t// out\n    /* \"nft-market.sol\":331:12300  contract Market is IERC721Receiver {... */\ntag_12:\n  dataSize(sub_0)\n  dup1\n  dataOffset(sub_0)\n  0x00\n  codecopy\n  0x00\n  return\nstop\n\nsub_0: assembly {\n        /* \"nft-market.sol\":331:12300  contract Market is IERC721Receiver {... */\n      mstore(0x40, 0x80)\n      jumpi(tag_1, lt(calldatasize, 0x04))\n      shr(0xe0, calldataload(0x00))\n      dup1\n      0xa85c38ef\n      gt\n      tag_19\n      jumpi\n      dup1\n      0xcf266ed0\n      gt\n      tag_20\n      jumpi\n      dup1\n      0xcf266ed0\n      eq\n      tag_14\n      jumpi\n      dup1\n      0xd96a094a\n      eq\n      tag_15\n      jumpi\n      dup1\n      0xda694df0\n      eq\n      tag_16\n      jumpi\n      dup1\n      0xe0391b09\n      eq\n      tag_17\n      jumpi\n      dup1\n      0xfcce4883\n      eq\n      tag_18\n      jumpi\n      jump(tag_1)\n    tag_20:\n      dup1\n      0xa85c38ef\n      eq\n      tag_10\n      jumpi\n      dup1\n      0xb3de019c\n      eq\n      tag_11\n      jumpi\n      dup1\n      0xb5cdf924\n      eq\n      tag_12\n      jumpi\n      dup1\n      0xbca6ce64\n      eq\n      tag_13\n      jumpi\n      jump(tag_1)\n    tag_19:\n      dup1\n      0x514fcac7\n      gt\n      tag_21\n      jumpi\n      dup1\n      0x514fcac7\n      eq\n      tag_6\n      jumpi\n      dup1\n      0x629cb2e4\n      eq\n      tag_7\n      jumpi\n      dup1\n      0x785e9e86\n      eq\n      tag_8\n      jumpi\n      dup1\n      0x9d4971b7\n      eq\n      tag_9\n      jumpi\n      jump(tag_1)\n    tag_21:\n      dup1\n      0x1200617f\n      eq\n      tag_2\n      jumpi\n      dup1\n      0x150b7a02\n      eq\n      tag_3\n      jumpi\n      dup1\n      0x21686b25\n      eq\n      tag_4\n      jumpi\n      dup1\n      0x394a9077\n      eq\n      tag_5\n      jumpi\n    tag_1:\n      0x00\n      dup1\n      revert\n        /* \"nft-market.sol\":2430:3466  function auction(uint256 _tokenID)external payable{... */\n    tag_2:\n      tag_22\n      0x04\n      dup1\n      calldatasize\n      sub\n      dup2\n      add\n      swap1\n      tag_23\n      swap2\n      swap1\n      tag_24\n      jump\t// in\n    tag_23:\n      tag_25\n      jump\t// in\n    tag_22:\n      stop\n        /* \"nft-market.sol\":8608:9393  function onERC721Received(... */\n    tag_3:\n      callvalue\n      dup1\n      iszero\n      tag_26\n      jumpi\n      0x00\n      dup1\n      revert\n    tag_26:\n      pop\n      tag_27\n      0x04\n      dup1\n      calldatasize\n      sub\n      dup2\n      add\n      swap1\n      tag_28\n      swap2\n      swap1\n      tag_29\n      jump\t// in\n    tag_28:\n      tag_30\n      jump\t// in\n    tag_27:\n      mload(0x40)\n      tag_31\n      swap2\n      swap1\n      tag_32\n      jump\t// in\n    tag_31:\n      mload(0x40)\n      dup1\n      swap2\n      sub\n      swap1\n      return\n        /* \"nft-market.sol\":7802:8099  function setSellerPreferences(bool _isAuction, uint256 _duration) public {... */\n    tag_4:\n      callvalue\n      dup1\n      iszero\n      tag_33\n      jumpi\n      0x00\n      dup1\n      revert\n    tag_33:\n      pop\n      tag_34\n      0x04\n      dup1\n      calldatasize\n      sub\n      dup2\n      add\n      swap1\n      tag_35\n      swap2\n      swap1\n      tag_36\n      jump\t// in\n    tag_35:\n      tag_37\n      jump\t// in\n    tag_34:\n      stop\n        /* \"nft-market.sol\":975:1017  mapping(uint256 => Order) public orderOfId */\n    tag_5:\n      callvalue\n      dup1\n      iszero\n      tag_38\n      jumpi\n      0x00\n      dup1\n      revert\n    tag_38:\n      pop\n      tag_39\n      0x04\n      dup1\n      calldatasize\n      sub\n      dup2\n      add\n      swap1\n      tag_40\n      swap2\n      swap1\n      tag_24\n      jump\t// in\n    tag_40:\n      tag_41\n      jump\t// in\n    tag_39:\n      mload(0x40)\n      tag_42\n      swap9\n      swap8\n      swap7\n      swap6\n      swap5\n      swap4\n      swap3\n      swap2\n      swap1\n      tag_43\n      jump\t// in\n    tag_42:\n      mload(0x40)\n      dup1\n      swap2\n      sub\n      swap1\n      return\n        /* \"nft-market.sol\":5521:5937  function cancelOrder(uint256 _tokenId) external {... */\n    tag_6:\n      callvalue\n      dup1\n      iszero\n      tag_44\n      jumpi\n      0x00\n      dup1\n      revert\n    tag_44:\n      pop\n      tag_45\n      0x04\n      dup1\n      calldatasize\n      sub\n      dup2\n      add\n      swap1\n      tag_46\n      swap2\n      swap1\n      tag_24\n      jump\t// in\n    tag_46:\n      tag_47\n      jump\t// in\n    tag_45:\n      stop\n        /* \"nft-market.sol\":6753:7360  function getMyNFTs() public view returns (Order[] memory) {... */\n    tag_7:\n      callvalue\n      dup1\n      iszero\n      tag_48\n      jumpi\n      0x00\n      dup1\n      revert\n    tag_48:\n      pop\n      tag_49\n      tag_50\n      jump\t// in\n    tag_49:\n      mload(0x40)\n      tag_51\n      swap2\n      swap1\n      tag_52\n      jump\t// in\n    tag_51:\n      mload(0x40)\n      dup1\n      swap2\n      sub\n      swap1\n      return\n        /* \"nft-market.sol\":373:392  IERC20 public erc20 */\n    tag_8:\n      callvalue\n      dup1\n      iszero\n      tag_53\n      jumpi\n      0x00\n      dup1\n      revert\n    tag_53:\n      pop\n      tag_54\n      tag_55\n      jump\t// in\n    tag_54:\n      mload(0x40)\n      tag_56\n      swap2\n      swap1\n      tag_57\n      jump\t// in\n    tag_56:\n      mload(0x40)\n      dup1\n      swap2\n      sub\n      swap1\n      return\n        /* \"nft-market.sol\":7505:7600  function getOrderLength() public view returns (uint256) {... */\n    tag_9:\n      callvalue\n      dup1\n      iszero\n      tag_58\n      jumpi\n      0x00\n      dup1\n      revert\n    tag_58:\n      pop\n      tag_59\n      tag_60\n      jump\t// in\n    tag_59:\n      mload(0x40)\n      tag_61\n      swap2\n      swap1\n      tag_62\n      jump\t// in\n    tag_61:\n      mload(0x40)\n      dup1\n      swap2\n      sub\n      swap1\n      return\n        /* \"nft-market.sol\":1044:1065  Order[] public orders */\n    tag_10:\n      callvalue\n      dup1\n      iszero\n      tag_63\n      jumpi\n      0x00\n      dup1\n      revert\n    tag_63:\n      pop\n      tag_64\n      0x04\n      dup1\n      calldatasize\n      sub\n      dup2\n      add\n      swap1\n      tag_65\n      swap2\n      swap1\n      tag_24\n      jump\t// in\n    tag_65:\n      tag_66\n      jump\t// in\n    tag_64:\n      mload(0x40)\n      tag_67\n      swap9\n      swap8\n      swap7\n      swap6\n      swap5\n      swap4\n      swap3\n      swap2\n      swap1\n      tag_43\n      jump\t// in\n    tag_67:\n      mload(0x40)\n      dup1\n      swap2\n      sub\n      swap1\n      return\n        /* \"nft-market.sol\":5945:6646  function changePrice(uint256 _tokenId, uint256 _price) external {... */\n    tag_11:\n      callvalue\n      dup1\n      iszero\n      tag_68\n      jumpi\n      0x00\n      dup1\n      revert\n    tag_68:\n      pop\n      tag_69\n      0x04\n      dup1\n      calldatasize\n      sub\n      dup2\n      add\n      swap1\n      tag_70\n      swap2\n      swap1\n      tag_71\n      jump\t// in\n    tag_70:\n      tag_72\n      jump\t// in\n    tag_69:\n      stop\n        /* \"nft-market.sol\":9520:9942  function toUint256(... */\n    tag_12:\n      callvalue\n      dup1\n      iszero\n      tag_73\n      jumpi\n      0x00\n      dup1\n      revert\n    tag_73:\n      pop\n      tag_74\n      0x04\n      dup1\n      calldatasize\n      sub\n      dup2\n      add\n      swap1\n      tag_75\n      swap2\n      swap1\n      tag_76\n      jump\t// in\n    tag_75:\n      tag_77\n      jump\t// in\n    tag_74:\n      mload(0x40)\n      tag_78\n      swap2\n      swap1\n      tag_62\n      jump\t// in\n    tag_78:\n      mload(0x40)\n      dup1\n      swap2\n      sub\n      swap1\n      return\n        /* \"nft-market.sol\":399:420  IERC721 public erc721 */\n    tag_13:\n      callvalue\n      dup1\n      iszero\n      tag_79\n      jumpi\n      0x00\n      dup1\n      revert\n    tag_79:\n      pop\n      tag_80\n      tag_81\n      jump\t// in\n    tag_80:\n      mload(0x40)\n      tag_82\n      swap2\n      swap1\n      tag_83\n      jump\t// in\n    tag_82:\n      mload(0x40)\n      dup1\n      swap2\n      sub\n      swap1\n      return\n        /* \"nft-market.sol\":3560:4790  function finishAuction(uint256 _tokenID)external {... */\n    tag_14:\n      callvalue\n      dup1\n      iszero\n      tag_84\n      jumpi\n      0x00\n      dup1\n      revert\n    tag_84:\n      pop\n      tag_85\n      0x04\n      dup1\n      calldatasize\n      sub\n      dup2\n      add\n      swap1\n      tag_86\n      swap2\n      swap1\n      tag_24\n      jump\t// in\n    tag_86:\n      tag_87\n      jump\t// in\n    tag_85:\n      stop\n        /* \"nft-market.sol\":4798:5513  function buy(uint256 _tokenId) external {... */\n    tag_15:\n      callvalue\n      dup1\n      iszero\n      tag_88\n      jumpi\n      0x00\n      dup1\n      revert\n    tag_88:\n      pop\n      tag_89\n      0x04\n      dup1\n      calldatasize\n      sub\n      dup2\n      add\n      swap1\n      tag_90\n      swap2\n      swap1\n      tag_24\n      jump\t// in\n    tag_90:\n      tag_91\n      jump\t// in\n    tag_89:\n      stop\n        /* \"nft-market.sol\":1072:1121  mapping(uint256 => uint256) public idToOrderIndex */\n    tag_16:\n      callvalue\n      dup1\n      iszero\n      tag_92\n      jumpi\n      0x00\n      dup1\n      revert\n    tag_92:\n      pop\n      tag_93\n      0x04\n      dup1\n      calldatasize\n      sub\n      dup2\n      add\n      swap1\n      tag_94\n      swap2\n      swap1\n      tag_24\n      jump\t// in\n    tag_94:\n      tag_95\n      jump\t// in\n    tag_93:\n      mload(0x40)\n      tag_96\n      swap2\n      swap1\n      tag_62\n      jump\t// in\n    tag_96:\n      mload(0x40)\n      dup1\n      swap2\n      sub\n      swap1\n      return\n        /* \"nft-market.sol\":6654:6745  function getAllNFTs() public view returns (Order[] memory) {... */\n    tag_17:\n      callvalue\n      dup1\n      iszero\n      tag_97\n      jumpi\n      0x00\n      dup1\n      revert\n    tag_97:\n      pop\n      tag_98\n      tag_99\n      jump\t// in\n    tag_98:\n      mload(0x40)\n      tag_100\n      swap2\n      swap1\n      tag_52\n      jump\t// in\n    tag_100:\n      mload(0x40)\n      dup1\n      swap2\n      sub\n      swap1\n      return\n        /* \"nft-market.sol\":7368:7497  function isListed(uint256 _tokenId) public view returns (bool) {... */\n    tag_18:\n      callvalue\n      dup1\n      iszero\n      tag_101\n      jumpi\n      0x00\n      dup1\n      revert\n    tag_101:\n      pop\n      tag_102\n      0x04\n      dup1\n      calldatasize\n      sub\n      dup2\n      add\n      swap1\n      tag_103\n      swap2\n      swap1\n      tag_24\n      jump\t// in\n    tag_103:\n      tag_104\n      jump\t// in\n    tag_102:\n      mload(0x40)\n      tag_105\n      swap2\n      swap1\n      tag_106\n      jump\t// in\n    tag_105:\n      mload(0x40)\n      dup1\n      swap2\n      sub\n      swap1\n      return\n        /* \"nft-market.sol\":2430:3466  function auction(uint256 _tokenID)external payable{... */\n    tag_25:\n        /* \"nft-market.sol\":2499:2517  isListed(_tokenID) */\n      tag_108\n        /* \"nft-market.sol\":2508:2516  _tokenID */\n      dup2\n        /* \"nft-market.sol\":2499:2507  isListed */\n      tag_104\n        /* \"nft-market.sol\":2499:2517  isListed(_tokenID) */\n      jump\t// in\n    tag_108:\n        /* \"nft-market.sol\":2491:2552  require(isListed(_tokenID), \"Market: Token ID is not listed\") */\n      tag_109\n      jumpi\n      mload(0x40)\n      0x08c379a000000000000000000000000000000000000000000000000000000000\n      dup2\n      mstore\n      0x04\n      add\n      tag_110\n      swap1\n      tag_111\n      jump\t// in\n    tag_110:\n      mload(0x40)\n      dup1\n      swap2\n      sub\n      swap1\n      revert\n    tag_109:\n        /* \"nft-market.sol\":2604:2608  true */\n      0x01\n        /* \"nft-market.sol\":2571:2608  orderOfId[_tokenID].isAuction == true */\n      iszero\n      iszero\n        /* \"nft-market.sol\":2571:2580  orderOfId */\n      0x02\n        /* \"nft-market.sol\":2571:2590  orderOfId[_tokenID] */\n      0x00\n        /* \"nft-market.sol\":2581:2589  _tokenID */\n      dup4\n        /* \"nft-market.sol\":2571:2590  orderOfId[_tokenID] */\n      dup2\n      mstore\n      0x20\n      add\n      swap1\n      dup2\n      mstore\n      0x20\n      add\n      0x00\n      keccak256\n        /* \"nft-market.sol\":2571:2600  orderOfId[_tokenID].isAuction */\n      0x00\n      add\n      0x14\n      swap1\n      sload\n      swap1\n      0x0100\n      exp\n      swap1\n      div\n      0xff\n      and\n        /* \"nft-market.sol\":2571:2608  orderOfId[_tokenID].isAuction == true */\n      iszero\n      iszero\n      eq\n        /* \"nft-market.sol\":2563:2639  require(orderOfId[_tokenID].isAuction == true, \"this one is not on auction\") */\n      tag_112\n      jumpi\n      mload(0x40)\n      0x08c379a000000000000000000000000000000000000000000000000000000000\n      dup2\n      mstore\n      0x04\n      add\n      tag_113\n      swap1\n      tag_114\n      jump\t// in\n    tag_113:\n      mload(0x40)\n      dup1\n      swap2\n      sub\n      swap1\n      revert\n    tag_112:\n        /* \"nft-market.sol\":2690:2705  block.timestamp */\n      timestamp\n        /* \"nft-market.sol\":2658:2667  orderOfId */\n      0x02\n        /* \"nft-market.sol\":2658:2677  orderOfId[_tokenID] */\n      0x00\n        /* \"nft-market.sol\":2668:2676  _tokenID */\n      dup4\n        /* \"nft-market.sol\":2658:2677  orderOfId[_tokenID] */\n      dup2\n      mstore\n      0x20\n      add\n      swap1\n      dup2\n      mstore\n      0x20\n      add\n      0x00\n      keccak256\n        /* \"nft-market.sol\":2658:2687  orderOfId[_tokenID].startTime */\n      0x01\n      add\n      sload\n        /* \"nft-market.sol\":2658:2705  orderOfId[_tokenID].startTime < block.timestamp */\n      lt\n        /* \"nft-market.sol\":2650:2724  require(orderOfId[_tokenID].startTime < block.timestamp, \"time not valid\") */\n      tag_115\n      jumpi\n      mload(0x40)\n      0x08c379a000000000000000000000000000000000000000000000000000000000\n      dup2\n      mstore\n      0x04\n      add\n      tag_116\n      swap1\n      tag_117\n      jump\t// in\n    tag_116:\n      mload(0x40)\n      dup1\n      swap2\n      sub\n      swap1\n      revert\n    tag_115:\n        /* \"nft-market.sol\":2773:2788  block.timestamp */\n      timestamp\n        /* \"nft-market.sol\":2743:2752  orderOfId */\n      0x02\n        /* \"nft-market.sol\":2743:2762  orderOfId[_tokenID] */\n      0x00\n        /* \"nft-market.sol\":2753:2761  _tokenID */\n      dup4\n        /* \"nft-market.sol\":2743:2762  orderOfId[_tokenID] */\n      dup2\n      mstore\n      0x20\n      add\n      swap1\n      dup2\n      mstore\n      0x20\n      add\n      0x00\n      keccak256\n        /* \"nft-market.sol\":2743:2770  orderOfId[_tokenID].endTime */\n      0x02\n      add\n      sload\n        /* \"nft-market.sol\":2743:2788  orderOfId[_tokenID].endTime > block.timestamp */\n      gt\n        /* \"nft-market.sol\":2735:2807  require(orderOfId[_tokenID].endTime > block.timestamp, \"time not valid\") */\n      tag_118\n      jumpi\n      mload(0x40)\n      0x08c379a000000000000000000000000000000000000000000000000000000000\n      dup2\n      mstore\n      0x04\n      add\n      tag_119\n      swap1\n      tag_117\n      jump\t// in\n    tag_119:\n      mload(0x40)\n      dup1\n      swap2\n      sub\n      swap1\n      revert\n    tag_118:\n        /* \"nft-market.sol\":2859:2868  msg.value */\n      callvalue\n        /* \"nft-market.sol\":2826:2835  orderOfId */\n      0x02\n        /* \"nft-market.sol\":2826:2845  orderOfId[_tokenID] */\n      0x00\n        /* \"nft-market.sol\":2836:2844  _tokenID */\n      dup4\n        /* \"nft-market.sol\":2826:2845  orderOfId[_tokenID] */\n      dup2\n      mstore\n      0x20\n      add\n      swap1\n      dup2\n      mstore\n      0x20\n      add\n      0x00\n      keccak256\n        /* \"nft-market.sol\":2826:2856  orderOfId[_tokenID].highestBid */\n      0x03\n      add\n      sload\n        /* \"nft-market.sol\":2826:2868  orderOfId[_tokenID].highestBid < msg.value */\n      lt\n        /* \"nft-market.sol\":2818:2907  require(orderOfId[_tokenID].highestBid < msg.value, \"must be higher that the bid before\") */\n      tag_120\n      jumpi\n      mload(0x40)\n      0x08c379a000000000000000000000000000000000000000000000000000000000\n      dup2\n      mstore\n      0x04\n      add\n      tag_121\n      swap1\n      tag_122\n      jump\t// in\n    tag_121:\n      mload(0x40)\n      dup1\n      swap2\n      sub\n      swap1\n      revert\n    tag_120:\n        /* \"nft-market.sol\":2956:2966  msg.sender */\n      caller\n        /* \"nft-market.sol\":2926:2966  orderOfId[_tokenID].seller != msg.sender */\n      0xffffffffffffffffffffffffffffffffffffffff\n      and\n        /* \"nft-market.sol\":2926:2935  orderOfId */\n      0x02\n        /* \"nft-market.sol\":2926:2945  orderOfId[_tokenID] */\n      0x00\n        /* \"nft-market.sol\":2936:2944  _tokenID */\n      dup4\n        /* \"nft-market.sol\":2926:2945  orderOfId[_tokenID] */\n      dup2\n      mstore\n      0x20\n      add\n      swap1\n      dup2\n      mstore\n      0x20\n      add\n      0x00\n      keccak256\n        /* \"nft-market.sol\":2926:2952  orderOfId[_tokenID].seller */\n      0x00\n      add\n      0x00\n      swap1\n      sload\n      swap1\n      0x0100\n      exp\n      swap1\n      div\n      0xffffffffffffffffffffffffffffffffffffffff\n      and\n        /* \"nft-market.sol\":2926:2966  orderOfId[_tokenID].seller != msg.sender */\n      0xffffffffffffffffffffffffffffffffffffffff\n      and\n      sub\n        /* \"nft-market.sol\":2918:2998  require(orderOfId[_tokenID].seller != msg.sender, \"you can't bid your own good\") */\n      tag_123\n      jumpi\n      mload(0x40)\n      0x08c379a000000000000000000000000000000000000000000000000000000000\n      dup2\n      mstore\n      0x04\n      add\n      tag_124\n      swap1\n      tag_125\n      jump\t// in\n    tag_124:\n      mload(0x40)\n      dup1\n      swap2\n      sub\n      swap1\n      revert\n    tag_123:\n        /* \"nft-market.sol\":3098:3099  0 */\n      0x00\n        /* \"nft-market.sol\":3053:3100  orderOfId[_tokenID].highestBidder != address(0) */\n      0xffffffffffffffffffffffffffffffffffffffff\n      and\n        /* \"nft-market.sol\":3053:3062  orderOfId */\n      0x02\n        /* \"nft-market.sol\":3053:3072  orderOfId[_tokenID] */\n      0x00\n        /* \"nft-market.sol\":3063:3071  _tokenID */\n      dup4\n        /* \"nft-market.sol\":3053:3072  orderOfId[_tokenID] */\n      dup2\n      mstore\n      0x20\n      add\n      swap1\n      dup2\n      mstore\n      0x20\n      add\n      0x00\n      keccak256\n        /* \"nft-market.sol\":3053:3086  orderOfId[_tokenID].highestBidder */\n      0x04\n      add\n      0x00\n      swap1\n      sload\n      swap1\n      0x0100\n      exp\n      swap1\n      div\n      0xffffffffffffffffffffffffffffffffffffffff\n      and\n        /* \"nft-market.sol\":3053:3100  orderOfId[_tokenID].highestBidder != address(0) */\n      0xffffffffffffffffffffffffffffffffffffffff\n      and\n      eq\n        /* \"nft-market.sol\":3050:3211  if(orderOfId[_tokenID].highestBidder != address(0)){... */\n      tag_126\n      jumpi\n        /* \"nft-market.sol\":3124:3133  orderOfId */\n      0x02\n        /* \"nft-market.sol\":3124:3143  orderOfId[_tokenID] */\n      0x00\n        /* \"nft-market.sol\":3134:3142  _tokenID */\n      dup3\n        /* \"nft-market.sol\":3124:3143  orderOfId[_tokenID] */\n      dup2\n      mstore\n      0x20\n      add\n      swap1\n      dup2\n      mstore\n      0x20\n      add\n      0x00\n      keccak256\n        /* \"nft-market.sol\":3124:3157  orderOfId[_tokenID].highestBidder */\n      0x04\n      add\n      0x00\n      swap1\n      sload\n      swap1\n      0x0100\n      exp\n      swap1\n      div\n      0xffffffffffffffffffffffffffffffffffffffff\n      and\n        /* \"nft-market.sol\":3116:3167  payable(orderOfId[_tokenID].highestBidder).transfer */\n      0xffffffffffffffffffffffffffffffffffffffff\n      and\n        /* \"nft-market.sol\":3116:3199  payable(orderOfId[_tokenID].highestBidder).transfer(orderOfId[_tokenID].highestBid) */\n      0x08fc\n        /* \"nft-market.sol\":3168:3177  orderOfId */\n      0x02\n        /* \"nft-market.sol\":3168:3187  orderOfId[_tokenID] */\n      0x00\n        /* \"nft-market.sol\":3178:3186  _tokenID */\n      dup5\n        /* \"nft-market.sol\":3168:3187  orderOfId[_tokenID] */\n      dup2\n      mstore\n      0x20\n      add\n      swap1\n      dup2\n      mstore\n      0x20\n      add\n      0x00\n      keccak256\n        /* \"nft-market.sol\":3168:3198  orderOfId[_tokenID].highestBid */\n      0x03\n      add\n      sload\n        /* \"nft-market.sol\":3116:3199  payable(orderOfId[_tokenID].highestBidder).transfer(orderOfId[_tokenID].highestBid) */\n      swap1\n      dup2\n      iszero\n      mul\n      swap1\n      mload(0x40)\n      0x00\n      mload(0x40)\n      dup1\n      dup4\n      sub\n      dup2\n      dup6\n      dup9\n      dup9\n      call\n      swap4\n      pop\n      pop\n      pop\n      pop\n      iszero\n      dup1\n      iszero\n      tag_128\n      jumpi\n      returndatasize\n      0x00\n      dup1\n      returndatacopy\n      revert(0x00, returndatasize)\n    tag_128:\n      pop\n        /* \"nft-market.sol\":3050:3211  if(orderOfId[_tokenID].highestBidder != address(0)){... */\n    tag_126:\n        /* \"nft-market.sol\":3316:3325  msg.value */\n      callvalue\n        /* \"nft-market.sol\":3283:3292  orderOfId */\n      0x02\n        /* \"nft-market.sol\":3283:3302  orderOfId[_tokenID] */\n      0x00\n        /* \"nft-market.sol\":3293:3301  _tokenID */\n      dup4\n        /* \"nft-market.sol\":3283:3302  orderOfId[_tokenID] */\n      dup2\n      mstore\n      0x20\n      add\n      swap1\n      dup2\n      mstore\n      0x20\n      add\n      0x00\n      keccak256\n        /* \"nft-market.sol\":3283:3313  orderOfId[_tokenID].highestBid */\n      0x03\n      add\n        /* \"nft-market.sol\":3283:3325  orderOfId[_tokenID].highestBid = msg.value */\n      dup2\n      swap1\n      sstore\n      pop\n        /* \"nft-market.sol\":3372:3382  msg.sender */\n      caller\n        /* \"nft-market.sol\":3336:3345  orderOfId */\n      0x02\n        /* \"nft-market.sol\":3336:3355  orderOfId[_tokenID] */\n      0x00\n        /* \"nft-market.sol\":3346:3354  _tokenID */\n      dup4\n        /* \"nft-market.sol\":3336:3355  orderOfId[_tokenID] */\n      dup2\n      mstore\n      0x20\n      add\n      swap1\n      dup2\n      mstore\n      0x20\n      add\n      0x00\n      keccak256\n        /* \"nft-market.sol\":3336:3369  orderOfId[_tokenID].highestBidder */\n      0x04\n      add\n      0x00\n        /* \"nft-market.sol\":3336:3382  orderOfId[_tokenID].highestBidder = msg.sender */\n      0x0100\n      exp\n      dup2\n      sload\n      dup2\n      0xffffffffffffffffffffffffffffffffffffffff\n      mul\n      not\n      and\n      swap1\n      dup4\n      0xffffffffffffffffffffffffffffffffffffffff\n      and\n      mul\n      or\n      swap1\n      sstore\n      pop\n        /* \"nft-market.sol\":3415:3458  SomeBidden(msg.sender, _tokenID, msg.value) */\n      0x425ad1abebdb76b51b8cebecf53b40f81159707f686d21002d95196ffd63784a\n        /* \"nft-market.sol\":3426:3436  msg.sender */\n      caller\n        /* \"nft-market.sol\":3438:3446  _tokenID */\n      dup3\n        /* \"nft-market.sol\":3448:3457  msg.value */\n      callvalue\n        /* \"nft-market.sol\":3415:3458  SomeBidden(msg.sender, _tokenID, msg.value) */\n      mload(0x40)\n      tag_129\n      swap4\n      swap3\n      swap2\n      swap1\n      tag_130\n      jump\t// in\n    tag_129:\n      mload(0x40)\n      dup1\n      swap2\n      sub\n      swap1\n      log1\n        /* \"nft-market.sol\":2430:3466  function auction(uint256 _tokenID)external payable{... */\n      pop\n      jump\t// out\n        /* \"nft-market.sol\":8608:9393  function onERC721Received(... */\n    tag_30:\n        /* \"nft-market.sol\":8849:8855  bytes4 */\n      0x00\n        /* \"nft-market.sol\":8889:8896  _seller */\n      dup5\n        /* \"nft-market.sol\":8876:8896  _operator == _seller */\n      0xffffffffffffffffffffffffffffffffffffffff\n      and\n        /* \"nft-market.sol\":8876:8885  _operator */\n      dup7\n        /* \"nft-market.sol\":8876:8896  _operator == _seller */\n      0xffffffffffffffffffffffffffffffffffffffff\n      and\n      eq\n        /* \"nft-market.sol\":8868:8932  require(_operator == _seller, \"Market: Seller must be operator\") */\n      tag_132\n      jumpi\n      mload(0x40)\n      0x08c379a000000000000000000000000000000000000000000000000000000000\n      dup2\n      mstore\n      0x04\n      add\n      tag_133\n      swap1\n      tag_134\n      jump\t// in\n    tag_133:\n      mload(0x40)\n      dup1\n      swap2\n      sub\n      swap1\n      revert\n    tag_132:\n        /* \"nft-market.sol\":8943:8957  uint256 _price */\n      0x00\n        /* \"nft-market.sol\":8960:8979  toUint256(_data, 0) */\n      tag_135\n        /* \"nft-market.sol\":8970:8975  _data */\n      dup5\n      dup5\n        /* \"nft-market.sol\":8960:8979  toUint256(_data, 0) */\n      dup1\n      dup1\n      0x1f\n      add\n      0x20\n      dup1\n      swap2\n      div\n      mul\n      0x20\n      add\n      mload(0x40)\n      swap1\n      dup2\n      add\n      0x40\n      mstore\n      dup1\n      swap4\n      swap3\n      swap2\n      swap1\n      dup2\n      dup2\n      mstore\n      0x20\n      add\n      dup4\n      dup4\n      dup1\n      dup3\n      dup5\n      calldatacopy\n      0x00\n      dup2\n      dup5\n      add\n      mstore\n      not(0x1f)\n      0x1f\n      dup3\n      add\n      and\n      swap1\n      pop\n      dup1\n      dup4\n      add\n      swap3\n      pop\n      pop\n      pop\n      pop\n      pop\n      pop\n      pop\n        /* \"nft-market.sol\":8977:8978  0 */\n      0x00\n        /* \"nft-market.sol\":8960:8969  toUint256 */\n      tag_77\n        /* \"nft-market.sol\":8960:8979  toUint256(_data, 0) */\n      jump\t// in\n    tag_135:\n        /* \"nft-market.sol\":8943:8979  uint256 _price = toUint256(_data, 0) */\n      swap1\n      pop\n        /* \"nft-market.sol\":8990:9005  bool _isAuction */\n      0x00\n        /* \"nft-market.sol\":9008:9025  sellerPreferences */\n      0x05\n        /* \"nft-market.sol\":9008:9034  sellerPreferences[_seller] */\n      0x00\n        /* \"nft-market.sol\":9026:9033  _seller */\n      dup9\n        /* \"nft-market.sol\":9008:9034  sellerPreferences[_seller] */\n      0xffffffffffffffffffffffffffffffffffffffff\n      and\n      0xffffffffffffffffffffffffffffffffffffffff\n      and\n      dup2\n      mstore\n      0x20\n      add\n      swap1\n      dup2\n      mstore\n      0x20\n      add\n      0x00\n      keccak256\n        /* \"nft-market.sol\":9008:9044  sellerPreferences[_seller].isAuction */\n      0x00\n      add\n      0x00\n      swap1\n      sload\n      swap1\n      0x0100\n      exp\n      swap1\n      div\n      0xff\n      and\n        /* \"nft-market.sol\":8990:9044  bool _isAuction = sellerPreferences[_seller].isAuction */\n      swap1\n      pop\n        /* \"nft-market.sol\":9055:9072  uint256 _duration */\n      0x00\n        /* \"nft-market.sol\":9075:9092  sellerPreferences */\n      0x05\n        /* \"nft-market.sol\":9075:9101  sellerPreferences[_seller] */\n      0x00\n        /* \"nft-market.sol\":9093:9100  _seller */\n      dup10\n        /* \"nft-market.sol\":9075:9101  sellerPreferences[_seller] */\n      0xffffffffffffffffffffffffffffffffffffffff\n      and\n      0xffffffffffffffffffffffffffffffffffffffff\n      and\n      dup2\n      mstore\n      0x20\n      add\n      swap1\n      dup2\n      mstore\n      0x20\n      add\n      0x00\n      keccak256\n        /* \"nft-market.sol\":9075:9110  sellerPreferences[_seller].duration */\n      0x01\n      add\n      sload\n        /* \"nft-market.sol\":9055:9110  uint256 _duration = sellerPreferences[_seller].duration */\n      swap1\n      pop\n        /* \"nft-market.sol\":9138:9143  false */\n      0x00\n        /* \"nft-market.sol\":9124:9143  _isAuction == false */\n      iszero\n      iszero\n        /* \"nft-market.sol\":9124:9134  _isAuction */\n      dup3\n        /* \"nft-market.sol\":9124:9143  _isAuction == false */\n      iszero\n      iszero\n      sub\n        /* \"nft-market.sol\":9121:9300  if(_isAuction == false){... */\n      tag_136\n      jumpi\n        /* \"nft-market.sol\":9159:9202  placeNormalOrder(_seller, _tokenId, _price) */\n      tag_137\n        /* \"nft-market.sol\":9176:9183  _seller */\n      dup9\n        /* \"nft-market.sol\":9185:9193  _tokenId */\n      dup9\n        /* \"nft-market.sol\":9195:9201  _price */\n      dup6\n        /* \"nft-market.sol\":9159:9175  placeNormalOrder */\n      tag_138\n        /* \"nft-market.sol\":9159:9202  placeNormalOrder(_seller, _tokenId, _price) */\n      jump\t// in\n    tag_137:\n        /* \"nft-market.sol\":9121:9300  if(_isAuction == false){... */\n      jump(tag_139)\n    tag_136:\n        /* \"nft-market.sol\":9233:9288  placeAuctionOrder(_seller, _tokenId, _price, _duration) */\n      tag_140\n        /* \"nft-market.sol\":9251:9258  _seller */\n      dup9\n        /* \"nft-market.sol\":9260:9268  _tokenId */\n      dup9\n        /* \"nft-market.sol\":9270:9276  _price */\n      dup6\n        /* \"nft-market.sol\":9278:9287  _duration */\n      dup5\n        /* \"nft-market.sol\":9233:9250  placeAuctionOrder */\n      tag_141\n        /* \"nft-market.sol\":9233:9288  placeAuctionOrder(_seller, _tokenId, _price, _duration) */\n      jump\t// in\n    tag_140:\n        /* \"nft-market.sol\":9121:9300  if(_isAuction == false){... */\n    tag_139:\n        /* \"nft-market.sol\":564:574  0x150b7a02 */\n      0x150b7a02\n        /* \"nft-market.sol\":9317:9341  MAGIC_ON_ERC721_RECEIVED */\n      0xe0\n      shl\n        /* \"nft-market.sol\":9310:9341  return MAGIC_ON_ERC721_RECEIVED */\n      swap4\n      pop\n      pop\n      pop\n      pop\n        /* \"nft-market.sol\":8608:9393  function onERC721Received(... */\n      swap6\n      swap5\n      pop\n      pop\n      pop\n      pop\n      pop\n      jump\t// out\n        /* \"nft-market.sol\":7802:8099  function setSellerPreferences(bool _isAuction, uint256 _duration) public {... */\n    tag_37:\n        /* \"nft-market.sol\":7903:7908  false */\n      0x00\n        /* \"nft-market.sol\":7889:7908  _isAuction == false */\n      iszero\n      iszero\n        /* \"nft-market.sol\":7889:7899  _isAuction */\n      dup3\n        /* \"nft-market.sol\":7889:7908  _isAuction == false */\n      iszero\n      iszero\n      sub\n        /* \"nft-market.sol\":7886:8092  if(_isAuction == false){... */\n      tag_143\n      jumpi\n        /* \"nft-market.sol\":7956:7983  SellerPreferences(false, 0) */\n      mload(0x40)\n      dup1\n      0x40\n      add\n      0x40\n      mstore\n      dup1\n        /* \"nft-market.sol\":7974:7979  false */\n      0x00\n        /* \"nft-market.sol\":7956:7983  SellerPreferences(false, 0) */\n      iszero\n      iszero\n      dup2\n      mstore\n      0x20\n      add\n        /* \"nft-market.sol\":7981:7982  0 */\n      0x00\n        /* \"nft-market.sol\":7956:7983  SellerPreferences(false, 0) */\n      dup2\n      mstore\n      pop\n        /* \"nft-market.sol\":7924:7941  sellerPreferences */\n      0x05\n        /* \"nft-market.sol\":7924:7953  sellerPreferences[msg.sender] */\n      0x00\n        /* \"nft-market.sol\":7942:7952  msg.sender */\n      caller\n        /* \"nft-market.sol\":7924:7953  sellerPreferences[msg.sender] */\n      0xffffffffffffffffffffffffffffffffffffffff\n      and\n      0xffffffffffffffffffffffffffffffffffffffff\n      and\n      dup2\n      mstore\n      0x20\n      add\n      swap1\n      dup2\n      mstore\n      0x20\n      add\n      0x00\n      keccak256\n        /* \"nft-market.sol\":7924:7983  sellerPreferences[msg.sender] = SellerPreferences(false, 0) */\n      0x00\n      dup3\n      add\n      mload\n      dup2\n      0x00\n      add\n      exp(0x0100, 0x00)\n      dup2\n      sload\n      dup2\n      0xff\n      mul\n      not\n      and\n      swap1\n      dup4\n      iszero\n      iszero\n      mul\n      or\n      swap1\n      sstore\n      pop\n      0x20\n      dup3\n      add\n      mload\n      dup2\n      0x01\n      add\n      sstore\n      swap1\n      pop\n      pop\n        /* \"nft-market.sol\":7886:8092  if(_isAuction == false){... */\n      jump(tag_144)\n    tag_143:\n        /* \"nft-market.sol\":8046:8080  SellerPreferences(true, _duration) */\n      mload(0x40)\n      dup1\n      0x40\n      add\n      0x40\n      mstore\n      dup1\n        /* \"nft-market.sol\":8064:8068  true */\n      0x01\n        /* \"nft-market.sol\":8046:8080  SellerPreferences(true, _duration) */\n      iszero\n      iszero\n      dup2\n      mstore\n      0x20\n      add\n        /* \"nft-market.sol\":8070:8079  _duration */\n      dup3\n        /* \"nft-market.sol\":8046:8080  SellerPreferences(true, _duration) */\n      dup2\n      mstore\n      pop\n        /* \"nft-market.sol\":8014:8031  sellerPreferences */\n      0x05\n        /* \"nft-market.sol\":8014:8043  sellerPreferences[msg.sender] */\n      0x00\n        /* \"nft-market.sol\":8032:8042  msg.sender */\n      caller\n        /* \"nft-market.sol\":8014:8043  sellerPreferences[msg.sender] */\n      0xffffffffffffffffffffffffffffffffffffffff\n      and\n      0xffffffffffffffffffffffffffffffffffffffff\n      and\n      dup2\n      mstore\n      0x20\n      add\n      swap1\n      dup2\n      mstore\n      0x20\n      add\n      0x00\n      keccak256\n        /* \"nft-market.sol\":8014:8080  sellerPreferences[msg.sender] = SellerPreferences(true, _duration) */\n      0x00\n      dup3\n      add\n      mload\n      dup2\n      0x00\n      add\n      exp(0x0100, 0x00)\n      dup2\n      sload\n      dup2\n      0xff\n      mul\n      not\n      and\n      swap1\n      dup4\n      iszero\n      iszero\n      mul\n      or\n      swap1\n      sstore\n      pop\n      0x20\n      dup3\n      add\n      mload\n      dup2\n      0x01\n      add\n      sstore\n      swap1\n      pop\n      pop\n        /* \"nft-market.sol\":7886:8092  if(_isAuction == false){... */\n    tag_144:\n        /* \"nft-market.sol\":7802:8099  function setSellerPreferences(bool _isAuction, uint256 _duration) public {... */\n      pop\n      pop\n      jump\t// out\n        /* \"nft-market.sol\":975:1017  mapping(uint256 => Order) public orderOfId */\n    tag_41:\n      mstore(0x20, 0x02)\n      dup1\n      0x00\n      mstore\n      keccak256(0x00, 0x40)\n      0x00\n      swap2\n      pop\n      swap1\n      pop\n      dup1\n      0x00\n      add\n      0x00\n      swap1\n      sload\n      swap1\n      0x0100\n      exp\n      swap1\n      div\n      0xffffffffffffffffffffffffffffffffffffffff\n      and\n      swap1\n      dup1\n      0x00\n      add\n      0x14\n      swap1\n      sload\n      swap1\n      0x0100\n      exp\n      swap1\n      div\n      0xff\n      and\n      swap1\n      dup1\n      0x01\n      add\n      sload\n      swap1\n      dup1\n      0x02\n      add\n      sload\n      swap1\n      dup1\n      0x03\n      add\n      sload\n      swap1\n      dup1\n      0x04\n      add\n      0x00\n      swap1\n      sload\n      swap1\n      0x0100\n      exp\n      swap1\n      div\n      0xffffffffffffffffffffffffffffffffffffffff\n      and\n      swap1\n      dup1\n      0x05\n      add\n      sload\n      swap1\n      dup1\n      0x06\n      add\n      sload\n      swap1\n      pop\n      dup9\n      jump\t// out\n        /* \"nft-market.sol\":5521:5937  function cancelOrder(uint256 _tokenId) external {... */\n    tag_47:\n        /* \"nft-market.sol\":5588:5606  isListed(_tokenId) */\n      tag_146\n        /* \"nft-market.sol\":5597:5605  _tokenId */\n      dup2\n        /* \"nft-market.sol\":5588:5596  isListed */\n      tag_104\n        /* \"nft-market.sol\":5588:5606  isListed(_tokenId) */\n      jump\t// in\n    tag_146:\n        /* \"nft-market.sol\":5580:5641  require(isListed(_tokenId), \"Market: Token ID is not listed\") */\n      tag_147\n      jumpi\n      mload(0x40)\n      0x08c379a000000000000000000000000000000000000000000000000000000000\n      dup2\n      mstore\n      0x04\n      add\n      tag_148\n      swap1\n      tag_111\n      jump\t// in\n    tag_148:\n      mload(0x40)\n      dup1\n      swap2\n      sub\n      swap1\n      revert\n    tag_147:\n        /* \"nft-market.sol\":5654:5668  address seller */\n      0x00\n        /* \"nft-market.sol\":5671:5680  orderOfId */\n      0x02\n        /* \"nft-market.sol\":5671:5690  orderOfId[_tokenId] */\n      0x00\n        /* \"nft-market.sol\":5681:5689  _tokenId */\n      dup4\n        /* \"nft-market.sol\":5671:5690  orderOfId[_tokenId] */\n      dup2\n      mstore\n      0x20\n      add\n      swap1\n      dup2\n      mstore\n      0x20\n      add\n      0x00\n      keccak256\n        /* \"nft-market.sol\":5671:5697  orderOfId[_tokenId].seller */\n      0x00\n      add\n      0x00\n      swap1\n      sload\n      swap1\n      0x0100\n      exp\n      swap1\n      div\n      0xffffffffffffffffffffffffffffffffffffffff\n      and\n        /* \"nft-market.sol\":5654:5697  address seller = orderOfId[_tokenId].seller */\n      swap1\n      pop\n        /* \"nft-market.sol\":5726:5736  msg.sender */\n      caller\n        /* \"nft-market.sol\":5716:5736  seller == msg.sender */\n      0xffffffffffffffffffffffffffffffffffffffff\n      and\n        /* \"nft-market.sol\":5716:5722  seller */\n      dup2\n        /* \"nft-market.sol\":5716:5736  seller == msg.sender */\n      0xffffffffffffffffffffffffffffffffffffffff\n      and\n      eq\n        /* \"nft-market.sol\":5708:5769  require(seller == msg.sender, \"Market: Sender is not seller\") */\n      tag_149\n      jumpi\n      mload(0x40)\n      0x08c379a000000000000000000000000000000000000000000000000000000000\n      dup2\n      mstore\n      0x04\n      add\n      tag_150\n      swap1\n      tag_151\n      jump\t// in\n    tag_150:\n      mload(0x40)\n      dup1\n      swap2\n      sub\n      swap1\n      revert\n    tag_149:\n        /* \"nft-market.sol\":5792:5798  erc721 */\n      0x01\n      0x00\n      swap1\n      sload\n      swap1\n      0x0100\n      exp\n      swap1\n      div\n      0xffffffffffffffffffffffffffffffffffffffff\n      and\n        /* \"nft-market.sol\":5792:5815  erc721.safeTransferFrom */\n      0xffffffffffffffffffffffffffffffffffffffff\n      and\n      0x42842e0e\n        /* \"nft-market.sol\":5824:5828  this */\n      address\n        /* \"nft-market.sol\":5831:5837  seller */\n      dup4\n        /* \"nft-market.sol\":5839:5847  _tokenId */\n      dup6\n        /* \"nft-market.sol\":5792:5848  erc721.safeTransferFrom(address(this), seller, _tokenId) */\n      mload(0x40)\n      dup5\n      0xffffffff\n      and\n      0xe0\n      shl\n      dup2\n      mstore\n      0x04\n      add\n      tag_152\n      swap4\n      swap3\n      swap2\n      swap1\n      tag_153\n      jump\t// in\n    tag_152:\n      0x00\n      mload(0x40)\n      dup1\n      dup4\n      sub\n      dup2\n      0x00\n      dup8\n      dup1\n      extcodesize\n      iszero\n      dup1\n      iszero\n      tag_154\n      jumpi\n      0x00\n      dup1\n      revert\n    tag_154:\n      pop\n      gas\n      call\n      iszero\n      dup1\n      iszero\n      tag_156\n      jumpi\n      returndatasize\n      0x00\n      dup1\n      returndatacopy\n      revert(0x00, returndatasize)\n    tag_156:\n      pop\n      pop\n      pop\n      pop\n        /* \"nft-market.sol\":5859:5882  removeListing(_tokenId) */\n      tag_157\n        /* \"nft-market.sol\":5873:5881  _tokenId */\n      dup3\n        /* \"nft-market.sol\":5859:5872  removeListing */\n      tag_158\n        /* \"nft-market.sol\":5859:5882  removeListing(_tokenId) */\n      jump\t// in\n    tag_157:\n        /* \"nft-market.sol\":5900:5929  CancelOrder(seller, _tokenId) */\n      0xc0e68d6b69f741c21e955cad2ae4d505b6f6735c7e7b278251b3f6283a5f07eb\n        /* \"nft-market.sol\":5912:5918  seller */\n      dup2\n        /* \"nft-market.sol\":5920:5928  _tokenId */\n      dup4\n        /* \"nft-market.sol\":5900:5929  CancelOrder(seller, _tokenId) */\n      mload(0x40)\n      tag_159\n      swap3\n      swap2\n      swap1\n      tag_160\n      jump\t// in\n    tag_159:\n      mload(0x40)\n      dup1\n      swap2\n      sub\n      swap1\n      log1\n        /* \"nft-market.sol\":5569:5937  {... */\n      pop\n        /* \"nft-market.sol\":5521:5937  function cancelOrder(uint256 _tokenId) external {... */\n      pop\n      jump\t// out\n        /* \"nft-market.sol\":6753:7360  function getMyNFTs() public view returns (Order[] memory) {... */\n    tag_50:\n        /* \"nft-market.sol\":6795:6809  Order[] memory */\n      0x60\n        /* \"nft-market.sol\":6822:6845  Order[] memory myOrders */\n      0x00\n        /* \"nft-market.sol\":6860:6866  orders */\n      0x03\n        /* \"nft-market.sol\":6860:6873  orders.length */\n      dup1\n      sload\n      swap1\n      pop\n        /* \"nft-market.sol\":6848:6874  new Order[](orders.length) */\n      0xffffffffffffffff\n      dup2\n      gt\n      iszero\n      tag_162\n      jumpi\n      tag_163\n      tag_164\n      jump\t// in\n    tag_163:\n    tag_162:\n      mload(0x40)\n      swap1\n      dup1\n      dup3\n      mstore\n      dup1\n      0x20\n      mul\n      0x20\n      add\n      dup3\n      add\n      0x40\n      mstore\n      dup1\n      iszero\n      tag_165\n      jumpi\n      dup2\n      0x20\n      add\n    tag_166:\n      tag_167\n      tag_168\n      jump\t// in\n    tag_167:\n      dup2\n      mstore\n      0x20\n      add\n      swap1\n      0x01\n      swap1\n      sub\n      swap1\n      dup2\n      tag_166\n      jumpi\n      swap1\n      pop\n    tag_165:\n      pop\n        /* \"nft-market.sol\":6822:6874  Order[] memory myOrders = new Order[](orders.length) */\n      swap1\n      pop\n        /* \"nft-market.sol\":6885:6906  uint256 myOrdersCount */\n      0x00\n        /* \"nft-market.sol\":6928:6937  uint256 i */\n      dup1\n        /* \"nft-market.sol\":6923:7133  for (uint256 i = 0; i < orders.length; i++) {... */\n    tag_169:\n        /* \"nft-market.sol\":6947:6953  orders */\n      0x03\n        /* \"nft-market.sol\":6947:6960  orders.length */\n      dup1\n      sload\n      swap1\n      pop\n        /* \"nft-market.sol\":6943:6944  i */\n      dup2\n        /* \"nft-market.sol\":6943:6960  i < orders.length */\n      lt\n        /* \"nft-market.sol\":6923:7133  for (uint256 i = 0; i < orders.length; i++) {... */\n      iszero\n      tag_170\n      jumpi\n        /* \"nft-market.sol\":7006:7016  msg.sender */\n      caller\n        /* \"nft-market.sol\":6986:7016  orders[i].seller == msg.sender */\n      0xffffffffffffffffffffffffffffffffffffffff\n      and\n        /* \"nft-market.sol\":6986:6992  orders */\n      0x03\n        /* \"nft-market.sol\":6993:6994  i */\n      dup3\n        /* \"nft-market.sol\":6986:6995  orders[i] */\n      dup2\n      sload\n      dup2\n      lt\n      tag_172\n      jumpi\n      tag_173\n      tag_174\n      jump\t// in\n    tag_173:\n    tag_172:\n      swap1\n      0x00\n      mstore\n      keccak256(0x00, 0x20)\n      swap1\n      0x07\n      mul\n      add\n        /* \"nft-market.sol\":6986:7002  orders[i].seller */\n      0x00\n      add\n      0x00\n      swap1\n      sload\n      swap1\n      0x0100\n      exp\n      swap1\n      div\n      0xffffffffffffffffffffffffffffffffffffffff\n      and\n        /* \"nft-market.sol\":6986:7016  orders[i].seller == msg.sender */\n      0xffffffffffffffffffffffffffffffffffffffff\n      and\n      sub\n        /* \"nft-market.sol\":6982:7122  if (orders[i].seller == msg.sender) {... */\n      tag_176\n      jumpi\n        /* \"nft-market.sol\":7063:7069  orders */\n      0x03\n        /* \"nft-market.sol\":7070:7071  i */\n      dup2\n        /* \"nft-market.sol\":7063:7072  orders[i] */\n      dup2\n      sload\n      dup2\n      lt\n      tag_177\n      jumpi\n      tag_178\n      tag_174\n      jump\t// in\n    tag_178:\n    tag_177:\n      swap1\n      0x00\n      mstore\n      keccak256(0x00, 0x20)\n      swap1\n      0x07\n      mul\n      add\n        /* \"nft-market.sol\":7037:7072  myOrders[myOrdersCount] = orders[i] */\n      mload(0x40)\n      dup1\n      0x0100\n      add\n      0x40\n      mstore\n      swap1\n      dup2\n      0x00\n      dup3\n      add\n      0x00\n      swap1\n      sload\n      swap1\n      0x0100\n      exp\n      swap1\n      div\n      0xffffffffffffffffffffffffffffffffffffffff\n      and\n      0xffffffffffffffffffffffffffffffffffffffff\n      and\n      0xffffffffffffffffffffffffffffffffffffffff\n      and\n      dup2\n      mstore\n      0x20\n      add\n      0x00\n      dup3\n      add\n      0x14\n      swap1\n      sload\n      swap1\n      0x0100\n      exp\n      swap1\n      div\n      0xff\n      and\n      iszero\n      iszero\n      iszero\n      iszero\n      dup2\n      mstore\n      0x20\n      add\n      0x01\n      dup3\n      add\n      sload\n      dup2\n      mstore\n      0x20\n      add\n      0x02\n      dup3\n      add\n      sload\n      dup2\n      mstore\n      0x20\n      add\n      0x03\n      dup3\n      add\n      sload\n      dup2\n      mstore\n      0x20\n      add\n      0x04\n      dup3\n      add\n      0x00\n      swap1\n      sload\n      swap1\n      0x0100\n      exp\n      swap1\n      div\n      0xffffffffffffffffffffffffffffffffffffffff\n      and\n      0xffffffffffffffffffffffffffffffffffffffff\n      and\n      0xffffffffffffffffffffffffffffffffffffffff\n      and\n      dup2\n      mstore\n      0x20\n      add\n      0x05\n      dup3\n      add\n      sload\n      dup2\n      mstore\n      0x20\n      add\n      0x06\n      dup3\n      add\n      sload\n      dup2\n      mstore\n      pop\n      pop\n        /* \"nft-market.sol\":7037:7045  myOrders */\n      dup4\n        /* \"nft-market.sol\":7046:7059  myOrdersCount */\n      dup4\n        /* \"nft-market.sol\":7037:7060  myOrders[myOrdersCount] */\n      dup2\n      mload\n      dup2\n      lt\n      tag_180\n      jumpi\n      tag_181\n      tag_174\n      jump\t// in\n    tag_181:\n    tag_180:\n      0x20\n      mul\n      0x20\n      add\n      add\n        /* \"nft-market.sol\":7037:7072  myOrders[myOrdersCount] = orders[i] */\n      dup2\n      swap1\n      mstore\n      pop\n        /* \"nft-market.sol\":7091:7106  myOrdersCount++ */\n      dup2\n      dup1\n      tag_182\n      swap1\n      tag_183\n      jump\t// in\n    tag_182:\n      swap3\n      pop\n      pop\n        /* \"nft-market.sol\":6982:7122  if (orders[i].seller == msg.sender) {... */\n    tag_176:\n        /* \"nft-market.sol\":6962:6965  i++ */\n      dup1\n      dup1\n      0x01\n      add\n      swap2\n      pop\n      pop\n        /* \"nft-market.sol\":6923:7133  for (uint256 i = 0; i < orders.length; i++) {... */\n      jump(tag_169)\n    tag_170:\n      pop\n        /* \"nft-market.sol\":7145:7175  Order[] memory myOrdersTrimmed */\n      0x00\n        /* \"nft-market.sol\":7190:7203  myOrdersCount */\n      dup2\n        /* \"nft-market.sol\":7178:7204  new Order[](myOrdersCount) */\n      0xffffffffffffffff\n      dup2\n      gt\n      iszero\n      tag_184\n      jumpi\n      tag_185\n      tag_164\n      jump\t// in\n    tag_185:\n    tag_184:\n      mload(0x40)\n      swap1\n      dup1\n      dup3\n      mstore\n      dup1\n      0x20\n      mul\n      0x20\n      add\n      dup3\n      add\n      0x40\n      mstore\n      dup1\n      iszero\n      tag_186\n      jumpi\n      dup2\n      0x20\n      add\n    tag_187:\n      tag_188\n      tag_168\n      jump\t// in\n    tag_188:\n      dup2\n      mstore\n      0x20\n      add\n      swap1\n      0x01\n      swap1\n      sub\n      swap1\n      dup2\n      tag_187\n      jumpi\n      swap1\n      pop\n    tag_186:\n      pop\n        /* \"nft-market.sol\":7145:7204  Order[] memory myOrdersTrimmed = new Order[](myOrdersCount) */\n      swap1\n      pop\n        /* \"nft-market.sol\":7220:7229  uint256 i */\n      0x00\n        /* \"nft-market.sol\":7215:7318  for (uint256 i = 0; i < myOrdersCount; i++) {... */\n    tag_189:\n        /* \"nft-market.sol\":7239:7252  myOrdersCount */\n      dup3\n        /* \"nft-market.sol\":7235:7236  i */\n      dup2\n        /* \"nft-market.sol\":7235:7252  i < myOrdersCount */\n      lt\n        /* \"nft-market.sol\":7215:7318  for (uint256 i = 0; i < myOrdersCount; i++) {... */\n      iszero\n      tag_190\n      jumpi\n        /* \"nft-market.sol\":7295:7303  myOrders */\n      dup4\n        /* \"nft-market.sol\":7304:7305  i */\n      dup2\n        /* \"nft-market.sol\":7295:7306  myOrders[i] */\n      dup2\n      mload\n      dup2\n      lt\n      tag_192\n      jumpi\n      tag_193\n      tag_174\n      jump\t// in\n    tag_193:\n    tag_192:\n      0x20\n      mul\n      0x20\n      add\n      add\n      mload\n        /* \"nft-market.sol\":7274:7289  myOrdersTrimmed */\n      dup3\n        /* \"nft-market.sol\":7290:7291  i */\n      dup3\n        /* \"nft-market.sol\":7274:7292  myOrdersTrimmed[i] */\n      dup2\n      mload\n      dup2\n      lt\n      tag_194\n      jumpi\n      tag_195\n      tag_174\n      jump\t// in\n    tag_195:\n    tag_194:\n      0x20\n      mul\n      0x20\n      add\n      add\n        /* \"nft-market.sol\":7274:7306  myOrdersTrimmed[i] = myOrders[i] */\n      dup2\n      swap1\n      mstore\n      pop\n        /* \"nft-market.sol\":7254:7257  i++ */\n      dup1\n      dup1\n      0x01\n      add\n      swap2\n      pop\n      pop\n        /* \"nft-market.sol\":7215:7318  for (uint256 i = 0; i < myOrdersCount; i++) {... */\n      jump(tag_189)\n    tag_190:\n      pop\n        /* \"nft-market.sol\":7337:7352  myOrdersTrimmed */\n      dup1\n        /* \"nft-market.sol\":7330:7352  return myOrdersTrimmed */\n      swap4\n      pop\n      pop\n      pop\n      pop\n        /* \"nft-market.sol\":6753:7360  function getMyNFTs() public view returns (Order[] memory) {... */\n      swap1\n      jump\t// out\n        /* \"nft-market.sol\":373:392  IERC20 public erc20 */\n    tag_55:\n      0x00\n      dup1\n      sload\n      swap1\n      0x0100\n      exp\n      swap1\n      div\n      0xffffffffffffffffffffffffffffffffffffffff\n      and\n      dup2\n      jump\t// out\n        /* \"nft-market.sol\":7505:7600  function getOrderLength() public view returns (uint256) {... */\n    tag_60:\n        /* \"nft-market.sol\":7552:7559  uint256 */\n      0x00\n        /* \"nft-market.sol\":7579:7585  orders */\n      0x03\n        /* \"nft-market.sol\":7579:7592  orders.length */\n      dup1\n      sload\n      swap1\n      pop\n        /* \"nft-market.sol\":7572:7592  return orders.length */\n      swap1\n      pop\n        /* \"nft-market.sol\":7505:7600  function getOrderLength() public view returns (uint256) {... */\n      swap1\n      jump\t// out\n        /* \"nft-market.sol\":1044:1065  Order[] public orders */\n    tag_66:\n      0x03\n      dup2\n      dup2\n      sload\n      dup2\n      lt\n      tag_197\n      jumpi\n      0x00\n      dup1\n      revert\n    tag_197:\n      swap1\n      0x00\n      mstore\n      keccak256(0x00, 0x20)\n      swap1\n      0x07\n      mul\n      add\n      0x00\n      swap2\n      pop\n      swap1\n      pop\n      dup1\n      0x00\n      add\n      0x00\n      swap1\n      sload\n      swap1\n      0x0100\n      exp\n      swap1\n      div\n      0xffffffffffffffffffffffffffffffffffffffff\n      and\n      swap1\n      dup1\n      0x00\n      add\n      0x14\n      swap1\n      sload\n      swap1\n      0x0100\n      exp\n      swap1\n      div\n      0xff\n      and\n      swap1\n      dup1\n      0x01\n      add\n      sload\n      swap1\n      dup1\n      0x02\n      add\n      sload\n      swap1\n      dup1\n      0x03\n      add\n      sload\n      swap1\n      dup1\n      0x04\n      add\n      0x00\n      swap1\n      sload\n      swap1\n      0x0100\n      exp\n      swap1\n      div\n      0xffffffffffffffffffffffffffffffffffffffff\n      and\n      swap1\n      dup1\n      0x05\n      add\n      sload\n      swap1\n      dup1\n      0x06\n      add\n      sload\n      swap1\n      pop\n      dup9\n      jump\t// out\n        /* \"nft-market.sol\":5945:6646  function changePrice(uint256 _tokenId, uint256 _price) external {... */\n    tag_72:\n        /* \"nft-market.sol\":6028:6046  isListed(_tokenId) */\n      tag_200\n        /* \"nft-market.sol\":6037:6045  _tokenId */\n      dup3\n        /* \"nft-market.sol\":6028:6036  isListed */\n      tag_104\n        /* \"nft-market.sol\":6028:6046  isListed(_tokenId) */\n      jump\t// in\n    tag_200:\n        /* \"nft-market.sol\":6020:6081  require(isListed(_tokenId), \"Market: Token ID is not listed\") */\n      tag_201\n      jumpi\n      mload(0x40)\n      0x08c379a000000000000000000000000000000000000000000000000000000000\n      dup2\n      mstore\n      0x04\n      add\n      tag_202\n      swap1\n      tag_111\n      jump\t// in\n    tag_202:\n      mload(0x40)\n      dup1\n      swap2\n      sub\n      swap1\n      revert\n    tag_201:\n        /* \"nft-market.sol\":6092:6106  address seller */\n      0x00\n        /* \"nft-market.sol\":6109:6118  orderOfId */\n      0x02\n        /* \"nft-market.sol\":6109:6128  orderOfId[_tokenId] */\n      0x00\n        /* \"nft-market.sol\":6119:6127  _tokenId */\n      dup5\n        /* \"nft-market.sol\":6109:6128  orderOfId[_tokenId] */\n      dup2\n      mstore\n      0x20\n      add\n      swap1\n      dup2\n      mstore\n      0x20\n      add\n      0x00\n      keccak256\n        /* \"nft-market.sol\":6109:6135  orderOfId[_tokenId].seller */\n      0x00\n      add\n      0x00\n      swap1\n      sload\n      swap1\n      0x0100\n      exp\n      swap1\n      div\n      0xffffffffffffffffffffffffffffffffffffffff\n      and\n        /* \"nft-market.sol\":6092:6135  address seller = orderOfId[_tokenId].seller */\n      swap1\n      pop\n        /* \"nft-market.sol\":6164:6174  msg.sender */\n      caller\n        /* \"nft-market.sol\":6154:6174  seller == msg.sender */\n      0xffffffffffffffffffffffffffffffffffffffff\n      and\n        /* \"nft-market.sol\":6154:6160  seller */\n      dup2\n        /* \"nft-market.sol\":6154:6174  seller == msg.sender */\n      0xffffffffffffffffffffffffffffffffffffffff\n      and\n      eq\n        /* \"nft-market.sol\":6146:6207  require(seller == msg.sender, \"Market: Sender is not seller\") */\n      tag_203\n      jumpi\n      mload(0x40)\n      0x08c379a000000000000000000000000000000000000000000000000000000000\n      dup2\n      mstore\n      0x04\n      add\n      tag_204\n      swap1\n      tag_151\n      jump\t// in\n    tag_204:\n      mload(0x40)\n      dup1\n      swap2\n      sub\n      swap1\n      revert\n    tag_203:\n        /* \"nft-market.sol\":6269:6290  uint256 previousPrice */\n      0x00\n        /* \"nft-market.sol\":6293:6302  orderOfId */\n      0x02\n        /* \"nft-market.sol\":6293:6312  orderOfId[_tokenId] */\n      0x00\n        /* \"nft-market.sol\":6303:6311  _tokenId */\n      dup6\n        /* \"nft-market.sol\":6293:6312  orderOfId[_tokenId] */\n      dup2\n      mstore\n      0x20\n      add\n      swap1\n      dup2\n      mstore\n      0x20\n      add\n      0x00\n      keccak256\n        /* \"nft-market.sol\":6293:6318  orderOfId[_tokenId].price */\n      0x06\n      add\n      sload\n        /* \"nft-market.sol\":6269:6318  uint256 previousPrice = orderOfId[_tokenId].price */\n      swap1\n      pop\n        /* \"nft-market.sol\":6357:6363  _price */\n      dup3\n        /* \"nft-market.sol\":6329:6338  orderOfId */\n      0x02\n        /* \"nft-market.sol\":6329:6348  orderOfId[_tokenId] */\n      0x00\n        /* \"nft-market.sol\":6339:6347  _tokenId */\n      dup7\n        /* \"nft-market.sol\":6329:6348  orderOfId[_tokenId] */\n      dup2\n      mstore\n      0x20\n      add\n      swap1\n      dup2\n      mstore\n      0x20\n      add\n      0x00\n      keccak256\n        /* \"nft-market.sol\":6329:6354  orderOfId[_tokenId].price */\n      0x06\n      add\n        /* \"nft-market.sol\":6329:6363  orderOfId[_tokenId].price = _price */\n      dup2\n      swap1\n      sstore\n      pop\n        /* \"nft-market.sol\":6483:6502  Order storage order */\n      0x00\n        /* \"nft-market.sol\":6505:6511  orders */\n      0x03\n        /* \"nft-market.sol\":6512:6526  idToOrderIndex */\n      0x04\n        /* \"nft-market.sol\":6512:6536  idToOrderIndex[_tokenId] */\n      0x00\n        /* \"nft-market.sol\":6527:6535  _tokenId */\n      dup8\n        /* \"nft-market.sol\":6512:6536  idToOrderIndex[_tokenId] */\n      dup2\n      mstore\n      0x20\n      add\n      swap1\n      dup2\n      mstore\n      0x20\n      add\n      0x00\n      keccak256\n      sload\n        /* \"nft-market.sol\":6505:6537  orders[idToOrderIndex[_tokenId]] */\n      dup2\n      sload\n      dup2\n      lt\n      tag_205\n      jumpi\n      tag_206\n      tag_174\n      jump\t// in\n    tag_206:\n    tag_205:\n      swap1\n      0x00\n      mstore\n      keccak256(0x00, 0x20)\n      swap1\n      0x07\n      mul\n      add\n        /* \"nft-market.sol\":6483:6537  Order storage order = orders[idToOrderIndex[_tokenId]] */\n      swap1\n      pop\n        /* \"nft-market.sol\":6562:6568  _price */\n      dup4\n        /* \"nft-market.sol\":6548:6553  order */\n      dup2\n        /* \"nft-market.sol\":6548:6559  order.price */\n      0x06\n      add\n        /* \"nft-market.sol\":6548:6568  order.price = _price */\n      dup2\n      swap1\n      sstore\n      pop\n        /* \"nft-market.sol\":6586:6638  ChangePrice(seller, _tokenId, previousPrice, _price) */\n      0x342a7f6248980b0f191b96eb6b7a439c4da78b2c97b86ca66cc7ee90d4b04cce\n        /* \"nft-market.sol\":6598:6604  seller */\n      dup4\n        /* \"nft-market.sol\":6606:6614  _tokenId */\n      dup7\n        /* \"nft-market.sol\":6616:6629  previousPrice */\n      dup5\n        /* \"nft-market.sol\":6631:6637  _price */\n      dup8\n        /* \"nft-market.sol\":6586:6638  ChangePrice(seller, _tokenId, previousPrice, _price) */\n      mload(0x40)\n      tag_208\n      swap5\n      swap4\n      swap3\n      swap2\n      swap1\n      tag_209\n      jump\t// in\n    tag_208:\n      mload(0x40)\n      dup1\n      swap2\n      sub\n      swap1\n      log1\n        /* \"nft-market.sol\":6009:6646  {... */\n      pop\n      pop\n      pop\n        /* \"nft-market.sol\":5945:6646  function changePrice(uint256 _tokenId, uint256 _price) external {... */\n      pop\n      pop\n      jump\t// out\n        /* \"nft-market.sol\":9520:9942  function toUint256(... */\n    tag_77:\n        /* \"nft-market.sol\":9622:9629  uint256 */\n      0x00\n        /* \"nft-market.sol\":9665:9671  _start */\n      dup2\n        /* \"nft-market.sol\":9659:9661  32 */\n      0x20\n        /* \"nft-market.sol\":9650:9656  _start */\n      dup4\n        /* \"nft-market.sol\":9650:9661  _start + 32 */\n      tag_211\n      swap2\n      swap1\n      tag_212\n      jump\t// in\n    tag_211:\n        /* \"nft-market.sol\":9650:9671  _start + 32 >= _start */\n      lt\n      iszero\n        /* \"nft-market.sol\":9642:9702  require(_start + 32 >= _start, \"Market: toUint256_overflow\") */\n      tag_213\n      jumpi\n      mload(0x40)\n      0x08c379a000000000000000000000000000000000000000000000000000000000\n      dup2\n      mstore\n      0x04\n      add\n      tag_214\n      swap1\n      tag_215\n      jump\t// in\n    tag_214:\n      mload(0x40)\n      dup1\n      swap2\n      sub\n      swap1\n      revert\n    tag_213:\n        /* \"nft-market.sol\":9747:9749  32 */\n      0x20\n        /* \"nft-market.sol\":9738:9744  _start */\n      dup3\n        /* \"nft-market.sol\":9738:9749  _start + 32 */\n      tag_216\n      swap2\n      swap1\n      tag_212\n      jump\t// in\n    tag_216:\n        /* \"nft-market.sol\":9721:9727  _bytes */\n      dup4\n        /* \"nft-market.sol\":9721:9734  _bytes.length */\n      mload\n        /* \"nft-market.sol\":9721:9749  _bytes.length >= _start + 32 */\n      lt\n      iszero\n        /* \"nft-market.sol\":9713:9783  require(_bytes.length >= _start + 32, \"Market: toUint256_outOfBounds\") */\n      tag_217\n      jumpi\n      mload(0x40)\n      0x08c379a000000000000000000000000000000000000000000000000000000000\n      dup2\n      mstore\n      0x04\n      add\n      tag_218\n      swap1\n      tag_219\n      jump\t// in\n    tag_218:\n      mload(0x40)\n      dup1\n      swap2\n      sub\n      swap1\n      revert\n    tag_217:\n        /* \"nft-market.sol\":9794:9810  uint256 tempUint */\n      0x00\n        /* \"nft-market.sol\":9888:9894  _start */\n      dup3\n        /* \"nft-market.sol\":9881:9885  0x20 */\n      0x20\n        /* \"nft-market.sol\":9873:9879  _bytes */\n      dup6\n        /* \"nft-market.sol\":9869:9886  add(_bytes, 0x20) */\n      add\n        /* \"nft-market.sol\":9865:9895  add(add(_bytes, 0x20), _start) */\n      add\n        /* \"nft-market.sol\":9859:9896  mload(add(add(_bytes, 0x20), _start)) */\n      mload\n        /* \"nft-market.sol\":9847:9896  tempUint := mload(add(add(_bytes, 0x20), _start)) */\n      swap1\n      pop\n        /* \"nft-market.sol\":9926:9934  tempUint */\n      dup1\n        /* \"nft-market.sol\":9919:9934  return tempUint */\n      swap2\n      pop\n      pop\n        /* \"nft-market.sol\":9520:9942  function toUint256(... */\n      swap3\n      swap2\n      pop\n      pop\n      jump\t// out\n        /* \"nft-market.sol\":399:420  IERC721 public erc721 */\n    tag_81:\n      0x01\n      0x00\n      swap1\n      sload\n      swap1\n      0x0100\n      exp\n      swap1\n      div\n      0xffffffffffffffffffffffffffffffffffffffff\n      and\n      dup2\n      jump\t// out\n        /* \"nft-market.sol\":3560:4790  function finishAuction(uint256 _tokenID)external {... */\n    tag_87:\n        /* \"nft-market.sol\":3628:3646  isListed(_tokenID) */\n      tag_221\n        /* \"nft-market.sol\":3637:3645  _tokenID */\n      dup2\n        /* \"nft-market.sol\":3628:3636  isListed */\n      tag_104\n        /* \"nft-market.sol\":3628:3646  isListed(_tokenID) */\n      jump\t// in\n    tag_221:\n        /* \"nft-market.sol\":3620:3681  require(isListed(_tokenID), \"Market: Token ID is not listed\") */\n      tag_222\n      jumpi\n      mload(0x40)\n      0x08c379a000000000000000000000000000000000000000000000000000000000\n      dup2\n      mstore\n      0x04\n      add\n      tag_223\n      swap1\n      tag_111\n      jump\t// in\n    tag_223:\n      mload(0x40)\n      dup1\n      swap2\n      sub\n      swap1\n      revert\n    tag_222:\n        /* \"nft-market.sol\":3733:3737  true */\n      0x01\n        /* \"nft-market.sol\":3700:3737  orderOfId[_tokenID].isAuction == true */\n      iszero\n      iszero\n        /* \"nft-market.sol\":3700:3709  orderOfId */\n      0x02\n        /* \"nft-market.sol\":3700:3719  orderOfId[_tokenID] */\n      0x00\n        /* \"nft-market.sol\":3710:3718  _tokenID */\n      dup4\n        /* \"nft-market.sol\":3700:3719  orderOfId[_tokenID] */\n      dup2\n      mstore\n      0x20\n      add\n      swap1\n      dup2\n      mstore\n      0x20\n      add\n      0x00\n      keccak256\n        /* \"nft-market.sol\":3700:3729  orderOfId[_tokenID].isAuction */\n      0x00\n      add\n      0x14\n      swap1\n      sload\n      swap1\n      0x0100\n      exp\n      swap1\n      div\n      0xff\n      and\n        /* \"nft-market.sol\":3700:3737  orderOfId[_tokenID].isAuction == true */\n      iszero\n      iszero\n      eq\n        /* \"nft-market.sol\":3692:3768  require(orderOfId[_tokenID].isAuction == true, \"this one is not on auction\") */\n      tag_224\n      jumpi\n      mload(0x40)\n      0x08c379a000000000000000000000000000000000000000000000000000000000\n      dup2\n      mstore\n      0x04\n      add\n      tag_225\n      swap1\n      tag_114\n      jump\t// in\n    tag_225:\n      mload(0x40)\n      dup1\n      swap2\n      sub\n      swap1\n      revert\n    tag_224:\n        /* \"nft-market.sol\":3818:3833  block.timestamp */\n      timestamp\n        /* \"nft-market.sol\":3787:3796  orderOfId */\n      0x02\n        /* \"nft-market.sol\":3787:3806  orderOfId[_tokenID] */\n      0x00\n        /* \"nft-market.sol\":3797:3805  _tokenID */\n      dup4\n        /* \"nft-market.sol\":3787:3806  orderOfId[_tokenID] */\n      dup2\n      mstore\n      0x20\n      add\n      swap1\n      dup2\n      mstore\n      0x20\n      add\n      0x00\n      keccak256\n        /* \"nft-market.sol\":3787:3814  orderOfId[_tokenID].endTime */\n      0x02\n      add\n      sload\n        /* \"nft-market.sol\":3787:3833  orderOfId[_tokenID].endTime <= block.timestamp */\n      gt\n      iszero\n        /* \"nft-market.sol\":3779:3852  require(orderOfId[_tokenID].endTime <= block.timestamp, \"time not valid\") */\n      tag_226\n      jumpi\n      mload(0x40)\n      0x08c379a000000000000000000000000000000000000000000000000000000000\n      dup2\n      mstore\n      0x04\n      add\n      tag_227\n      swap1\n      tag_117\n      jump\t// in\n    tag_227:\n      mload(0x40)\n      dup1\n      swap2\n      sub\n      swap1\n      revert\n    tag_226:\n        /* \"nft-market.sol\":3939:3940  0 */\n      0x00\n        /* \"nft-market.sol\":3894:3941  orderOfId[_tokenID].highestBidder != address(0) */\n      0xffffffffffffffffffffffffffffffffffffffff\n      and\n        /* \"nft-market.sol\":3894:3903  orderOfId */\n      0x02\n        /* \"nft-market.sol\":3894:3913  orderOfId[_tokenID] */\n      0x00\n        /* \"nft-market.sol\":3904:3912  _tokenID */\n      dup4\n        /* \"nft-market.sol\":3894:3913  orderOfId[_tokenID] */\n      dup2\n      mstore\n      0x20\n      add\n      swap1\n      dup2\n      mstore\n      0x20\n      add\n      0x00\n      keccak256\n        /* \"nft-market.sol\":3894:3927  orderOfId[_tokenID].highestBidder */\n      0x04\n      add\n      0x00\n      swap1\n      sload\n      swap1\n      0x0100\n      exp\n      swap1\n      div\n      0xffffffffffffffffffffffffffffffffffffffff\n      and\n        /* \"nft-market.sol\":3894:3941  orderOfId[_tokenID].highestBidder != address(0) */\n      0xffffffffffffffffffffffffffffffffffffffff\n      and\n      eq\n        /* \"nft-market.sol\":3891:4783  if(orderOfId[_tokenID].highestBidder != address(0)){... */\n      tag_228\n      jumpi\n        /* \"nft-market.sol\":4012:4021  orderOfId */\n      0x02\n        /* \"nft-market.sol\":4012:4031  orderOfId[_tokenID] */\n      0x00\n        /* \"nft-market.sol\":4022:4030  _tokenID */\n      dup3\n        /* \"nft-market.sol\":4012:4031  orderOfId[_tokenID] */\n      dup2\n      mstore\n      0x20\n      add\n      swap1\n      dup2\n      mstore\n      0x20\n      add\n      0x00\n      keccak256\n        /* \"nft-market.sol\":4012:4038  orderOfId[_tokenID].seller */\n      0x00\n      add\n      0x00\n      swap1\n      sload\n      swap1\n      0x0100\n      exp\n      swap1\n      div\n      0xffffffffffffffffffffffffffffffffffffffff\n      and\n        /* \"nft-market.sol\":4004:4048  payable(orderOfId[_tokenID].seller).transfer */\n      0xffffffffffffffffffffffffffffffffffffffff\n      and\n        /* \"nft-market.sol\":4004:4080  payable(orderOfId[_tokenID].seller).transfer(orderOfId[_tokenID].highestBid) */\n      0x08fc\n        /* \"nft-market.sol\":4049:4058  orderOfId */\n      0x02\n        /* \"nft-market.sol\":4049:4068  orderOfId[_tokenID] */\n      0x00\n        /* \"nft-market.sol\":4059:4067  _tokenID */\n      dup5\n        /* \"nft-market.sol\":4049:4068  orderOfId[_tokenID] */\n      dup2\n      mstore\n      0x20\n      add\n      swap1\n      dup2\n      mstore\n      0x20\n      add\n      0x00\n      keccak256\n        /* \"nft-market.sol\":4049:4079  orderOfId[_tokenID].highestBid */\n      0x03\n      add\n      sload\n        /* \"nft-market.sol\":4004:4080  payable(orderOfId[_tokenID].seller).transfer(orderOfId[_tokenID].highestBid) */\n      swap1\n      dup2\n      iszero\n      mul\n      swap1\n      mload(0x40)\n      0x00\n      mload(0x40)\n      dup1\n      dup4\n      sub\n      dup2\n      dup6\n      dup9\n      dup9\n      call\n      swap4\n      pop\n      pop\n      pop\n      pop\n      iszero\n      dup1\n      iszero\n      tag_230\n      jumpi\n      returndatasize\n      0x00\n      dup1\n      returndatacopy\n      revert(0x00, returndatasize)\n    tag_230:\n      pop\n        /* \"nft-market.sol\":4150:4156  erc721 */\n      0x01\n      0x00\n      swap1\n      sload\n      swap1\n      0x0100\n      exp\n      swap1\n      div\n      0xffffffffffffffffffffffffffffffffffffffff\n      and\n        /* \"nft-market.sol\":4150:4173  erc721.safeTransferFrom */\n      0xffffffffffffffffffffffffffffffffffffffff\n      and\n      0x42842e0e\n        /* \"nft-market.sol\":4182:4186  this */\n      address\n        /* \"nft-market.sol\":4189:4198  orderOfId */\n      0x02\n        /* \"nft-market.sol\":4189:4208  orderOfId[_tokenID] */\n      0x00\n        /* \"nft-market.sol\":4199:4207  _tokenID */\n      dup6\n        /* \"nft-market.sol\":4189:4208  orderOfId[_tokenID] */\n      dup2\n      mstore\n      0x20\n      add\n      swap1\n      dup2\n      mstore\n      0x20\n      add\n      0x00\n      keccak256\n        /* \"nft-market.sol\":4189:4222  orderOfId[_tokenID].highestBidder */\n      0x04\n      add\n      0x00\n      swap1\n      sload\n      swap1\n      0x0100\n      exp\n      swap1\n      div\n      0xffffffffffffffffffffffffffffffffffffffff\n      and\n        /* \"nft-market.sol\":4224:4232  _tokenID */\n      dup5\n        /* \"nft-market.sol\":4150:4233  erc721.safeTransferFrom(address(this), orderOfId[_tokenID].highestBidder, _tokenID) */\n      mload(0x40)\n      dup5\n      0xffffffff\n      and\n      0xe0\n      shl\n      dup2\n      mstore\n      0x04\n      add\n      tag_231\n      swap4\n      swap3\n      swap2\n      swap1\n      tag_153\n      jump\t// in\n    tag_231:\n      0x00\n      mload(0x40)\n      dup1\n      dup4\n      sub\n      dup2\n      0x00\n      dup8\n      dup1\n      extcodesize\n      iszero\n      dup1\n      iszero\n      tag_232\n      jumpi\n      0x00\n      dup1\n      revert\n    tag_232:\n      pop\n      gas\n      call\n      iszero\n      dup1\n      iszero\n      tag_234\n      jumpi\n      returndatasize\n      0x00\n      dup1\n      returndatacopy\n      revert(0x00, returndatasize)\n    tag_234:\n      pop\n      pop\n      pop\n      pop\n        /* \"nft-market.sol\":4292:4315  removeListing(_tokenID) */\n      tag_235\n        /* \"nft-market.sol\":4306:4314  _tokenID */\n      dup2\n        /* \"nft-market.sol\":4292:4305  removeListing */\n      tag_158\n        /* \"nft-market.sol\":4292:4315  removeListing(_tokenID) */\n      jump\t// in\n    tag_235:\n        /* \"nft-market.sol\":4335:4444  Deal(orderOfId[_tokenID].highestBidder, orderOfId[_tokenID].seller, _tokenID, orderOfId[_tokenID].highestBid) */\n      0x424d5e5f0192c7dacdbe646ca31b00299146d883d76a95ef5cddbac7cd342eab\n        /* \"nft-market.sol\":4340:4349  orderOfId */\n      0x02\n        /* \"nft-market.sol\":4340:4359  orderOfId[_tokenID] */\n      0x00\n        /* \"nft-market.sol\":4350:4358  _tokenID */\n      dup4\n        /* \"nft-market.sol\":4340:4359  orderOfId[_tokenID] */\n      dup2\n      mstore\n      0x20\n      add\n      swap1\n      dup2\n      mstore\n      0x20\n      add\n      0x00\n      keccak256\n        /* \"nft-market.sol\":4340:4373  orderOfId[_tokenID].highestBidder */\n      0x04\n      add\n      0x00\n      swap1\n      sload\n      swap1\n      0x0100\n      exp\n      swap1\n      div\n      0xffffffffffffffffffffffffffffffffffffffff\n      and\n        /* \"nft-market.sol\":4375:4384  orderOfId */\n      0x02\n        /* \"nft-market.sol\":4375:4394  orderOfId[_tokenID] */\n      0x00\n        /* \"nft-market.sol\":4385:4393  _tokenID */\n      dup5\n        /* \"nft-market.sol\":4375:4394  orderOfId[_tokenID] */\n      dup2\n      mstore\n      0x20\n      add\n      swap1\n      dup2\n      mstore\n      0x20\n      add\n      0x00\n      keccak256\n        /* \"nft-market.sol\":4375:4401  orderOfId[_tokenID].seller */\n      0x00\n      add\n      0x00\n      swap1\n      sload\n      swap1\n      0x0100\n      exp\n      swap1\n      div\n      0xffffffffffffffffffffffffffffffffffffffff\n      and\n        /* \"nft-market.sol\":4403:4411  _tokenID */\n      dup4\n        /* \"nft-market.sol\":4413:4422  orderOfId */\n      0x02\n        /* \"nft-market.sol\":4413:4432  orderOfId[_tokenID] */\n      0x00\n        /* \"nft-market.sol\":4423:4431  _tokenID */\n      dup7\n        /* \"nft-market.sol\":4413:4432  orderOfId[_tokenID] */\n      dup2\n      mstore\n      0x20\n      add\n      swap1\n      dup2\n      mstore\n      0x20\n      add\n      0x00\n      keccak256\n        /* \"nft-market.sol\":4413:4443  orderOfId[_tokenID].highestBid */\n      0x03\n      add\n      sload\n        /* \"nft-market.sol\":4335:4444  Deal(orderOfId[_tokenID].highestBidder, orderOfId[_tokenID].seller, _tokenID, orderOfId[_tokenID].highestBid) */\n      mload(0x40)\n      tag_236\n      swap5\n      swap4\n      swap3\n      swap2\n      swap1\n      tag_237\n      jump\t// in\n    tag_236:\n      mload(0x40)\n      dup1\n      swap2\n      sub\n      swap1\n      log1\n        /* \"nft-market.sol\":3891:4783  if(orderOfId[_tokenID].highestBidder != address(0)){... */\n      jump(tag_238)\n    tag_228:\n        /* \"nft-market.sol\":4544:4550  erc721 */\n      0x01\n      0x00\n      swap1\n      sload\n      swap1\n      0x0100\n      exp\n      swap1\n      div\n      0xffffffffffffffffffffffffffffffffffffffff\n      and\n        /* \"nft-market.sol\":4544:4567  erc721.safeTransferFrom */\n      0xffffffffffffffffffffffffffffffffffffffff\n      and\n      0x42842e0e\n        /* \"nft-market.sol\":4576:4580  this */\n      address\n        /* \"nft-market.sol\":4583:4592  orderOfId */\n      0x02\n        /* \"nft-market.sol\":4583:4602  orderOfId[_tokenID] */\n      0x00\n        /* \"nft-market.sol\":4593:4601  _tokenID */\n      dup6\n        /* \"nft-market.sol\":4583:4602  orderOfId[_tokenID] */\n      dup2\n      mstore\n      0x20\n      add\n      swap1\n      dup2\n      mstore\n      0x20\n      add\n      0x00\n      keccak256\n        /* \"nft-market.sol\":4583:4609  orderOfId[_tokenID].seller */\n      0x00\n      add\n      0x00\n      swap1\n      sload\n      swap1\n      0x0100\n      exp\n      swap1\n      div\n      0xffffffffffffffffffffffffffffffffffffffff\n      and\n        /* \"nft-market.sol\":4611:4619  _tokenID */\n      dup5\n        /* \"nft-market.sol\":4544:4620  erc721.safeTransferFrom(address(this), orderOfId[_tokenID].seller, _tokenID) */\n      mload(0x40)\n      dup5\n      0xffffffff\n      and\n      0xe0\n      shl\n      dup2\n      mstore\n      0x04\n      add\n      tag_239\n      swap4\n      swap3\n      swap2\n      swap1\n      tag_153\n      jump\t// in\n    tag_239:\n      0x00\n      mload(0x40)\n      dup1\n      dup4\n      sub\n      dup2\n      0x00\n      dup8\n      dup1\n      extcodesize\n      iszero\n      dup1\n      iszero\n      tag_240\n      jumpi\n      0x00\n      dup1\n      revert\n    tag_240:\n      pop\n      gas\n      call\n      iszero\n      dup1\n      iszero\n      tag_242\n      jumpi\n      returndatasize\n      0x00\n      dup1\n      returndatacopy\n      revert(0x00, returndatasize)\n    tag_242:\n      pop\n      pop\n      pop\n      pop\n        /* \"nft-market.sol\":4679:4702  removeListing(_tokenID) */\n      tag_243\n        /* \"nft-market.sol\":4693:4701  _tokenID */\n      dup2\n        /* \"nft-market.sol\":4679:4692  removeListing */\n      tag_158\n        /* \"nft-market.sol\":4679:4702  removeListing(_tokenID) */\n      jump\t// in\n    tag_243:\n        /* \"nft-market.sol\":4722:4771  CancelOrder(orderOfId[_tokenID].seller, _tokenID) */\n      0xc0e68d6b69f741c21e955cad2ae4d505b6f6735c7e7b278251b3f6283a5f07eb\n        /* \"nft-market.sol\":4734:4743  orderOfId */\n      0x02\n        /* \"nft-market.sol\":4734:4753  orderOfId[_tokenID] */\n      0x00\n        /* \"nft-market.sol\":4744:4752  _tokenID */\n      dup4\n        /* \"nft-market.sol\":4734:4753  orderOfId[_tokenID] */\n      dup2\n      mstore\n      0x20\n      add\n      swap1\n      dup2\n      mstore\n      0x20\n      add\n      0x00\n      keccak256\n        /* \"nft-market.sol\":4734:4760  orderOfId[_tokenID].seller */\n      0x00\n      add\n      0x00\n      swap1\n      sload\n      swap1\n      0x0100\n      exp\n      swap1\n      div\n      0xffffffffffffffffffffffffffffffffffffffff\n      and\n        /* \"nft-market.sol\":4762:4770  _tokenID */\n      dup3\n        /* \"nft-market.sol\":4722:4771  CancelOrder(orderOfId[_tokenID].seller, _tokenID) */\n      mload(0x40)\n      tag_244\n      swap3\n      swap2\n      swap1\n      tag_160\n      jump\t// in\n    tag_244:\n      mload(0x40)\n      dup1\n      swap2\n      sub\n      swap1\n      log1\n        /* \"nft-market.sol\":3891:4783  if(orderOfId[_tokenID].highestBidder != address(0)){... */\n    tag_238:\n        /* \"nft-market.sol\":3560:4790  function finishAuction(uint256 _tokenID)external {... */\n      pop\n      jump\t// out\n        /* \"nft-market.sol\":4798:5513  function buy(uint256 _tokenId) external {... */\n    tag_91:\n        /* \"nft-market.sol\":4857:4875  isListed(_tokenId) */\n      tag_246\n        /* \"nft-market.sol\":4866:4874  _tokenId */\n      dup2\n        /* \"nft-market.sol\":4857:4865  isListed */\n      tag_104\n        /* \"nft-market.sol\":4857:4875  isListed(_tokenId) */\n      jump\t// in\n    tag_246:\n        /* \"nft-market.sol\":4849:4910  require(isListed(_tokenId), \"Market: Token ID is not listed\") */\n      tag_247\n      jumpi\n      mload(0x40)\n      0x08c379a000000000000000000000000000000000000000000000000000000000\n      dup2\n      mstore\n      0x04\n      add\n      tag_248\n      swap1\n      tag_111\n      jump\t// in\n    tag_248:\n      mload(0x40)\n      dup1\n      swap2\n      sub\n      swap1\n      revert\n    tag_247:\n        /* \"nft-market.sol\":4962:4967  false */\n      0x00\n        /* \"nft-market.sol\":4929:4967  orderOfId[_tokenId].isAuction == false */\n      iszero\n      iszero\n        /* \"nft-market.sol\":4929:4938  orderOfId */\n      0x02\n        /* \"nft-market.sol\":4929:4948  orderOfId[_tokenId] */\n      0x00\n        /* \"nft-market.sol\":4939:4947  _tokenId */\n      dup4\n        /* \"nft-market.sol\":4929:4948  orderOfId[_tokenId] */\n      dup2\n      mstore\n      0x20\n      add\n      swap1\n      dup2\n      mstore\n      0x20\n      add\n      0x00\n      keccak256\n        /* \"nft-market.sol\":4929:4958  orderOfId[_tokenId].isAuction */\n      0x00\n      add\n      0x14\n      swap1\n      sload\n      swap1\n      0x0100\n      exp\n      swap1\n      div\n      0xff\n      and\n        /* \"nft-market.sol\":4929:4967  orderOfId[_tokenId].isAuction == false */\n      iszero\n      iszero\n      eq\n        /* \"nft-market.sol\":4921:4994  require(orderOfId[_tokenId].isAuction == false, \"this one is on auction\") */\n      tag_249\n      jumpi\n      mload(0x40)\n      0x08c379a000000000000000000000000000000000000000000000000000000000\n      dup2\n      mstore\n      0x04\n      add\n      tag_250\n      swap1\n      tag_251\n      jump\t// in\n    tag_250:\n      mload(0x40)\n      dup1\n      swap2\n      sub\n      swap1\n      revert\n    tag_249:\n        /* \"nft-market.sol\":5040:5054  address seller */\n      0x00\n        /* \"nft-market.sol\":5057:5066  orderOfId */\n      0x02\n        /* \"nft-market.sol\":5057:5076  orderOfId[_tokenId] */\n      0x00\n        /* \"nft-market.sol\":5067:5075  _tokenId */\n      dup4\n        /* \"nft-market.sol\":5057:5076  orderOfId[_tokenId] */\n      dup2\n      mstore\n      0x20\n      add\n      swap1\n      dup2\n      mstore\n      0x20\n      add\n      0x00\n      keccak256\n        /* \"nft-market.sol\":5057:5083  orderOfId[_tokenId].seller */\n      0x00\n      add\n      0x00\n      swap1\n      sload\n      swap1\n      0x0100\n      exp\n      swap1\n      div\n      0xffffffffffffffffffffffffffffffffffffffff\n      and\n        /* \"nft-market.sol\":5040:5083  address seller = orderOfId[_tokenId].seller */\n      swap1\n      pop\n        /* \"nft-market.sol\":5094:5107  address buyer */\n      0x00\n        /* \"nft-market.sol\":5110:5120  msg.sender */\n      caller\n        /* \"nft-market.sol\":5094:5120  address buyer = msg.sender */\n      swap1\n      pop\n        /* \"nft-market.sol\":5131:5144  uint256 price */\n      0x00\n        /* \"nft-market.sol\":5147:5156  orderOfId */\n      0x02\n        /* \"nft-market.sol\":5147:5166  orderOfId[_tokenId] */\n      0x00\n        /* \"nft-market.sol\":5157:5165  _tokenId */\n      dup6\n        /* \"nft-market.sol\":5147:5166  orderOfId[_tokenId] */\n      dup2\n      mstore\n      0x20\n      add\n      swap1\n      dup2\n      mstore\n      0x20\n      add\n      0x00\n      keccak256\n        /* \"nft-market.sol\":5147:5172  orderOfId[_tokenId].price */\n      0x06\n      add\n      sload\n        /* \"nft-market.sol\":5131:5172  uint256 price = orderOfId[_tokenId].price */\n      swap1\n      pop\n        /* \"nft-market.sol\":5207:5212  erc20 */\n      0x00\n      dup1\n      sload\n      swap1\n      0x0100\n      exp\n      swap1\n      div\n      0xffffffffffffffffffffffffffffffffffffffff\n      and\n        /* \"nft-market.sol\":5207:5225  erc20.transferFrom */\n      0xffffffffffffffffffffffffffffffffffffffff\n      and\n      0x23b872dd\n        /* \"nft-market.sol\":5226:5231  buyer */\n      dup4\n        /* \"nft-market.sol\":5233:5239  seller */\n      dup6\n        /* \"nft-market.sol\":5241:5246  price */\n      dup5\n        /* \"nft-market.sol\":5207:5247  erc20.transferFrom(buyer, seller, price) */\n      mload(0x40)\n      dup5\n      0xffffffff\n      and\n      0xe0\n      shl\n      dup2\n      mstore\n      0x04\n      add\n      tag_252\n      swap4\n      swap3\n      swap2\n      swap1\n      tag_153\n      jump\t// in\n    tag_252:\n      0x20\n      mload(0x40)\n      dup1\n      dup4\n      sub\n      dup2\n      0x00\n      dup8\n      gas\n      call\n      iszero\n      dup1\n      iszero\n      tag_254\n      jumpi\n      returndatasize\n      0x00\n      dup1\n      returndatacopy\n      revert(0x00, returndatasize)\n    tag_254:\n      pop\n      pop\n      pop\n      pop\n      mload(0x40)\n      returndatasize\n      not(0x1f)\n      0x1f\n      dup3\n      add\n      and\n      dup3\n      add\n      dup1\n      0x40\n      mstore\n      pop\n      dup2\n      add\n      swap1\n      tag_255\n      swap2\n      swap1\n      tag_256\n      jump\t// in\n    tag_255:\n        /* \"nft-market.sol\":5185:5312  require(... */\n      tag_257\n      jumpi\n      mload(0x40)\n      0x08c379a000000000000000000000000000000000000000000000000000000000\n      dup2\n      mstore\n      0x04\n      add\n      tag_258\n      swap1\n      tag_259\n      jump\t// in\n    tag_258:\n      mload(0x40)\n      dup1\n      swap2\n      sub\n      swap1\n      revert\n    tag_257:\n        /* \"nft-market.sol\":5323:5329  erc721 */\n      0x01\n      0x00\n      swap1\n      sload\n      swap1\n      0x0100\n      exp\n      swap1\n      div\n      0xffffffffffffffffffffffffffffffffffffffff\n      and\n        /* \"nft-market.sol\":5323:5346  erc721.safeTransferFrom */\n      0xffffffffffffffffffffffffffffffffffffffff\n      and\n      0x42842e0e\n        /* \"nft-market.sol\":5355:5359  this */\n      address\n        /* \"nft-market.sol\":5362:5367  buyer */\n      dup5\n        /* \"nft-market.sol\":5369:5377  _tokenId */\n      dup8\n        /* \"nft-market.sol\":5323:5378  erc721.safeTransferFrom(address(this), buyer, _tokenId) */\n      mload(0x40)\n      dup5\n      0xffffffff\n      and\n      0xe0\n      shl\n      dup2\n      mstore\n      0x04\n      add\n      tag_260\n      swap4\n      swap3\n      swap2\n      swap1\n      tag_153\n      jump\t// in\n    tag_260:\n      0x00\n      mload(0x40)\n      dup1\n      dup4\n      sub\n      dup2\n      0x00\n      dup8\n      dup1\n      extcodesize\n      iszero\n      dup1\n      iszero\n      tag_261\n      jumpi\n      0x00\n      dup1\n      revert\n    tag_261:\n      pop\n      gas\n      call\n      iszero\n      dup1\n      iszero\n      tag_263\n      jumpi\n      returndatasize\n      0x00\n      dup1\n      returndatacopy\n      revert(0x00, returndatasize)\n    tag_263:\n      pop\n      pop\n      pop\n      pop\n        /* \"nft-market.sol\":5428:5451  removeListing(_tokenId) */\n      tag_264\n        /* \"nft-market.sol\":5442:5450  _tokenId */\n      dup5\n        /* \"nft-market.sol\":5428:5441  removeListing */\n      tag_158\n        /* \"nft-market.sol\":5428:5451  removeListing(_tokenId) */\n      jump\t// in\n    tag_264:\n        /* \"nft-market.sol\":5469:5505  Deal(buyer, seller, _tokenId, price) */\n      0x424d5e5f0192c7dacdbe646ca31b00299146d883d76a95ef5cddbac7cd342eab\n        /* \"nft-market.sol\":5474:5479  buyer */\n      dup3\n        /* \"nft-market.sol\":5481:5487  seller */\n      dup5\n        /* \"nft-market.sol\":5489:5497  _tokenId */\n      dup7\n        /* \"nft-market.sol\":5499:5504  price */\n      dup5\n        /* \"nft-market.sol\":5469:5505  Deal(buyer, seller, _tokenId, price) */\n      mload(0x40)\n      tag_265\n      swap5\n      swap4\n      swap3\n      swap2\n      swap1\n      tag_237\n      jump\t// in\n    tag_265:\n      mload(0x40)\n      dup1\n      swap2\n      sub\n      swap1\n      log1\n        /* \"nft-market.sol\":4838:5513  {... */\n      pop\n      pop\n      pop\n        /* \"nft-market.sol\":4798:5513  function buy(uint256 _tokenId) external {... */\n      pop\n      jump\t// out\n        /* \"nft-market.sol\":1072:1121  mapping(uint256 => uint256) public idToOrderIndex */\n    tag_95:\n      mstore(0x20, 0x04)\n      dup1\n      0x00\n      mstore\n      keccak256(0x00, 0x40)\n      0x00\n      swap2\n      pop\n      swap1\n      pop\n      sload\n      dup2\n      jump\t// out\n        /* \"nft-market.sol\":6654:6745  function getAllNFTs() public view returns (Order[] memory) {... */\n    tag_99:\n        /* \"nft-market.sol\":6697:6711  Order[] memory */\n      0x60\n        /* \"nft-market.sol\":6731:6737  orders */\n      0x03\n        /* \"nft-market.sol\":6724:6737  return orders */\n      dup1\n      sload\n      dup1\n      0x20\n      mul\n      0x20\n      add\n      mload(0x40)\n      swap1\n      dup2\n      add\n      0x40\n      mstore\n      dup1\n      swap3\n      swap2\n      swap1\n      dup2\n      dup2\n      mstore\n      0x20\n      add\n      0x00\n      swap1\n    tag_267:\n      dup3\n      dup3\n      lt\n      iszero\n      tag_268\n      jumpi\n      dup4\n      dup3\n      swap1\n      0x00\n      mstore\n      keccak256(0x00, 0x20)\n      swap1\n      0x07\n      mul\n      add\n      mload(0x40)\n      dup1\n      0x0100\n      add\n      0x40\n      mstore\n      swap1\n      dup2\n      0x00\n      dup3\n      add\n      0x00\n      swap1\n      sload\n      swap1\n      0x0100\n      exp\n      swap1\n      div\n      0xffffffffffffffffffffffffffffffffffffffff\n      and\n      0xffffffffffffffffffffffffffffffffffffffff\n      and\n      0xffffffffffffffffffffffffffffffffffffffff\n      and\n      dup2\n      mstore\n      0x20\n      add\n      0x00\n      dup3\n      add\n      0x14\n      swap1\n      sload\n      swap1\n      0x0100\n      exp\n      swap1\n      div\n      0xff\n      and\n      iszero\n      iszero\n      iszero\n      iszero\n      dup2\n      mstore\n      0x20\n      add\n      0x01\n      dup3\n      add\n      sload\n      dup2\n      mstore\n      0x20\n      add\n      0x02\n      dup3\n      add\n      sload\n      dup2\n      mstore\n      0x20\n      add\n      0x03\n      dup3\n      add\n      sload\n      dup2\n      mstore\n      0x20\n      add\n      0x04\n      dup3\n      add\n      0x00\n      swap1\n      sload\n      swap1\n      0x0100\n      exp\n      swap1\n      div\n      0xffffffffffffffffffffffffffffffffffffffff\n      and\n      0xffffffffffffffffffffffffffffffffffffffff\n      and\n      0xffffffffffffffffffffffffffffffffffffffff\n      and\n      dup2\n      mstore\n      0x20\n      add\n      0x05\n      dup3\n      add\n      sload\n      dup2\n      mstore\n      0x20\n      add\n      0x06\n      dup3\n      add\n      sload\n      dup2\n      mstore\n      pop\n      pop\n      dup2\n      mstore\n      0x20\n      add\n      swap1\n      0x01\n      add\n      swap1\n      jump(tag_267)\n    tag_268:\n      pop\n      pop\n      pop\n      pop\n      swap1\n      pop\n        /* \"nft-market.sol\":6654:6745  function getAllNFTs() public view returns (Order[] memory) {... */\n      swap1\n      jump\t// out\n        /* \"nft-market.sol\":7368:7497  function isListed(uint256 _tokenId) public view returns (bool) {... */\n    tag_104:\n        /* \"nft-market.sol\":7425:7429  bool */\n      0x00\n        /* \"nft-market.sol\":7487:7488  0 */\n      dup1\n        /* \"nft-market.sol\":7449:7489  orderOfId[_tokenId].seller != address(0) */\n      0xffffffffffffffffffffffffffffffffffffffff\n      and\n        /* \"nft-market.sol\":7449:7458  orderOfId */\n      0x02\n        /* \"nft-market.sol\":7449:7468  orderOfId[_tokenId] */\n      0x00\n        /* \"nft-market.sol\":7459:7467  _tokenId */\n      dup5\n        /* \"nft-market.sol\":7449:7468  orderOfId[_tokenId] */\n      dup2\n      mstore\n      0x20\n      add\n      swap1\n      dup2\n      mstore\n      0x20\n      add\n      0x00\n      keccak256\n        /* \"nft-market.sol\":7449:7475  orderOfId[_tokenId].seller */\n      0x00\n      add\n      0x00\n      swap1\n      sload\n      swap1\n      0x0100\n      exp\n      swap1\n      div\n      0xffffffffffffffffffffffffffffffffffffffff\n      and\n        /* \"nft-market.sol\":7449:7489  orderOfId[_tokenId].seller != address(0) */\n      0xffffffffffffffffffffffffffffffffffffffff\n      and\n      eq\n      iszero\n        /* \"nft-market.sol\":7442:7489  return orderOfId[_tokenId].seller != address(0) */\n      swap1\n      pop\n        /* \"nft-market.sol\":7368:7497  function isListed(uint256 _tokenId) public view returns (bool) {... */\n      swap2\n      swap1\n      pop\n      jump\t// out\n        /* \"nft-market.sol\":9988:10728  function placeNormalOrder(... */\n    tag_138:\n        /* \"nft-market.sol\":10136:10137  0 */\n      0x00\n        /* \"nft-market.sol\":10127:10133  _price */\n      dup2\n        /* \"nft-market.sol\":10127:10137  _price > 0 */\n      gt\n        /* \"nft-market.sol\":10119:10181  require(_price > 0, \"Market: Price must be greater than zero\") */\n      tag_272\n      jumpi\n      mload(0x40)\n      0x08c379a000000000000000000000000000000000000000000000000000000000\n      dup2\n      mstore\n      0x04\n      add\n      tag_273\n      swap1\n      tag_274\n      jump\t// in\n    tag_273:\n      mload(0x40)\n      dup1\n      swap2\n      sub\n      swap1\n      revert\n    tag_272:\n        /* \"nft-market.sol\":10221:10228  _seller */\n      dup3\n        /* \"nft-market.sol\":10192:10201  orderOfId */\n      0x02\n        /* \"nft-market.sol\":10192:10211  orderOfId[_tokenId] */\n      0x00\n        /* \"nft-market.sol\":10202:10210  _tokenId */\n      dup5\n        /* \"nft-market.sol\":10192:10211  orderOfId[_tokenId] */\n      dup2\n      mstore\n      0x20\n      add\n      swap1\n      dup2\n      mstore\n      0x20\n      add\n      0x00\n      keccak256\n        /* \"nft-market.sol\":10192:10218  orderOfId[_tokenId].seller */\n      0x00\n      add\n      0x00\n        /* \"nft-market.sol\":10192:10228  orderOfId[_tokenId].seller = _seller */\n      0x0100\n      exp\n      dup2\n      sload\n      dup2\n      0xffffffffffffffffffffffffffffffffffffffff\n      mul\n      not\n      and\n      swap1\n      dup4\n      0xffffffffffffffffffffffffffffffffffffffff\n      and\n      mul\n      or\n      swap1\n      sstore\n      pop\n        /* \"nft-market.sol\":10267:10273  _price */\n      dup1\n        /* \"nft-market.sol\":10239:10248  orderOfId */\n      0x02\n        /* \"nft-market.sol\":10239:10258  orderOfId[_tokenId] */\n      0x00\n        /* \"nft-market.sol\":10249:10257  _tokenId */\n      dup5\n        /* \"nft-market.sol\":10239:10258  orderOfId[_tokenId] */\n      dup2\n      mstore\n      0x20\n      add\n      swap1\n      dup2\n      mstore\n      0x20\n      add\n      0x00\n      keccak256\n        /* \"nft-market.sol\":10239:10264  orderOfId[_tokenId].price */\n      0x06\n      add\n        /* \"nft-market.sol\":10239:10273  orderOfId[_tokenId].price = _price */\n      dup2\n      swap1\n      sstore\n      pop\n        /* \"nft-market.sol\":10314:10322  _tokenId */\n      dup2\n        /* \"nft-market.sol\":10284:10293  orderOfId */\n      0x02\n        /* \"nft-market.sol\":10284:10303  orderOfId[_tokenId] */\n      0x00\n        /* \"nft-market.sol\":10294:10302  _tokenId */\n      dup5\n        /* \"nft-market.sol\":10284:10303  orderOfId[_tokenId] */\n      dup2\n      mstore\n      0x20\n      add\n      swap1\n      dup2\n      mstore\n      0x20\n      add\n      0x00\n      keccak256\n        /* \"nft-market.sol\":10284:10311  orderOfId[_tokenId].tokenId */\n      0x05\n      add\n        /* \"nft-market.sol\":10284:10322  orderOfId[_tokenId].tokenId = _tokenId */\n      dup2\n      swap1\n      sstore\n      pop\n        /* \"nft-market.sol\":10365:10370  false */\n      0x00\n        /* \"nft-market.sol\":10333:10342  orderOfId */\n      0x02\n        /* \"nft-market.sol\":10333:10352  orderOfId[_tokenId] */\n      0x00\n        /* \"nft-market.sol\":10343:10351  _tokenId */\n      dup5\n        /* \"nft-market.sol\":10333:10352  orderOfId[_tokenId] */\n      dup2\n      mstore\n      0x20\n      add\n      swap1\n      dup2\n      mstore\n      0x20\n      add\n      0x00\n      keccak256\n        /* \"nft-market.sol\":10333:10362  orderOfId[_tokenId].isAuction */\n      0x00\n      add\n      0x14\n        /* \"nft-market.sol\":10333:10370  orderOfId[_tokenId].isAuction = false */\n      0x0100\n      exp\n      dup2\n      sload\n      dup2\n      0xff\n      mul\n      not\n      and\n      swap1\n      dup4\n      iszero\n      iszero\n      mul\n      or\n      swap1\n      sstore\n      pop\n        /* \"nft-market.sol\":10413:10414  0 */\n      0x00\n        /* \"nft-market.sol\":10381:10390  orderOfId */\n      0x02\n        /* \"nft-market.sol\":10381:10400  orderOfId[_tokenId] */\n      0x00\n        /* \"nft-market.sol\":10391:10399  _tokenId */\n      dup5\n        /* \"nft-market.sol\":10381:10400  orderOfId[_tokenId] */\n      dup2\n      mstore\n      0x20\n      add\n      swap1\n      dup2\n      mstore\n      0x20\n      add\n      0x00\n      keccak256\n        /* \"nft-market.sol\":10381:10410  orderOfId[_tokenId].startTime */\n      0x01\n      add\n        /* \"nft-market.sol\":10381:10414  orderOfId[_tokenId].startTime = 0 */\n      dup2\n      swap1\n      sstore\n      pop\n        /* \"nft-market.sol\":10455:10456  0 */\n      0x00\n        /* \"nft-market.sol\":10425:10434  orderOfId */\n      0x02\n        /* \"nft-market.sol\":10425:10444  orderOfId[_tokenId] */\n      0x00\n        /* \"nft-market.sol\":10435:10443  _tokenId */\n      dup5\n        /* \"nft-market.sol\":10425:10444  orderOfId[_tokenId] */\n      dup2\n      mstore\n      0x20\n      add\n      swap1\n      dup2\n      mstore\n      0x20\n      add\n      0x00\n      keccak256\n        /* \"nft-market.sol\":10425:10452  orderOfId[_tokenId].endTime */\n      0x02\n      add\n        /* \"nft-market.sol\":10425:10456  orderOfId[_tokenId].endTime = 0 */\n      dup2\n      swap1\n      sstore\n      pop\n        /* \"nft-market.sol\":10500:10506  _price */\n      dup1\n        /* \"nft-market.sol\":10467:10476  orderOfId */\n      0x02\n        /* \"nft-market.sol\":10467:10486  orderOfId[_tokenId] */\n      0x00\n        /* \"nft-market.sol\":10477:10485  _tokenId */\n      dup5\n        /* \"nft-market.sol\":10467:10486  orderOfId[_tokenId] */\n      dup2\n      mstore\n      0x20\n      add\n      swap1\n      dup2\n      mstore\n      0x20\n      add\n      0x00\n      keccak256\n        /* \"nft-market.sol\":10467:10497  orderOfId[_tokenId].highestBid */\n      0x03\n      add\n        /* \"nft-market.sol\":10467:10506  orderOfId[_tokenId].highestBid = _price */\n      dup2\n      swap1\n      sstore\n      pop\n        /* \"nft-market.sol\":10561:10562  0 */\n      0x00\n        /* \"nft-market.sol\":10517:10526  orderOfId */\n      0x02\n        /* \"nft-market.sol\":10517:10536  orderOfId[_tokenId] */\n      0x00\n        /* \"nft-market.sol\":10527:10535  _tokenId */\n      dup5\n        /* \"nft-market.sol\":10517:10536  orderOfId[_tokenId] */\n      dup2\n      mstore\n      0x20\n      add\n      swap1\n      dup2\n      mstore\n      0x20\n      add\n      0x00\n      keccak256\n        /* \"nft-market.sol\":10517:10550  orderOfId[_tokenId].highestBidder */\n      0x04\n      add\n      0x00\n        /* \"nft-market.sol\":10517:10563  orderOfId[_tokenId].highestBidder = address(0) */\n      0x0100\n      exp\n      dup2\n      sload\n      dup2\n      0xffffffffffffffffffffffffffffffffffffffff\n      mul\n      not\n      and\n      swap1\n      dup4\n      0xffffffffffffffffffffffffffffffffffffffff\n      and\n      mul\n      or\n      swap1\n      sstore\n      pop\n        /* \"nft-market.sol\":10576:10582  orders */\n      0x03\n        /* \"nft-market.sol\":10588:10597  orderOfId */\n      0x02\n        /* \"nft-market.sol\":10588:10607  orderOfId[_tokenId] */\n      0x00\n        /* \"nft-market.sol\":10598:10606  _tokenId */\n      dup5\n        /* \"nft-market.sol\":10588:10607  orderOfId[_tokenId] */\n      dup2\n      mstore\n      0x20\n      add\n      swap1\n      dup2\n      mstore\n      0x20\n      add\n      0x00\n      keccak256\n        /* \"nft-market.sol\":10576:10608  orders.push(orderOfId[_tokenId]) */\n      swap1\n      dup1\n      0x01\n      dup2\n      sload\n      add\n      dup1\n      dup3\n      sstore\n      dup1\n      swap2\n      pop\n      pop\n      0x01\n      swap1\n      sub\n      swap1\n      0x00\n      mstore\n      keccak256(0x00, 0x20)\n      swap1\n      0x07\n      mul\n      add\n      0x00\n      swap1\n      swap2\n      swap1\n      swap2\n      swap1\n      swap2\n      pop\n      0x00\n      dup3\n      add\n      0x00\n      swap1\n      sload\n      swap1\n      0x0100\n      exp\n      swap1\n      div\n      0xffffffffffffffffffffffffffffffffffffffff\n      and\n      dup2\n      0x00\n      add\n      exp(0x0100, 0x00)\n      dup2\n      sload\n      dup2\n      0xffffffffffffffffffffffffffffffffffffffff\n      mul\n      not\n      and\n      swap1\n      dup4\n      0xffffffffffffffffffffffffffffffffffffffff\n      and\n      mul\n      or\n      swap1\n      sstore\n      pop\n      0x00\n      dup3\n      add\n      0x14\n      swap1\n      sload\n      swap1\n      0x0100\n      exp\n      swap1\n      div\n      0xff\n      and\n      dup2\n      0x00\n      add\n      exp(0x0100, 0x14)\n      dup2\n      sload\n      dup2\n      0xff\n      mul\n      not\n      and\n      swap1\n      dup4\n      iszero\n      iszero\n      mul\n      or\n      swap1\n      sstore\n      pop\n      0x01\n      dup3\n      add\n      sload\n      dup2\n      0x01\n      add\n      sstore\n      0x02\n      dup3\n      add\n      sload\n      dup2\n      0x02\n      add\n      sstore\n      0x03\n      dup3\n      add\n      sload\n      dup2\n      0x03\n      add\n      sstore\n      0x04\n      dup3\n      add\n      0x00\n      swap1\n      sload\n      swap1\n      0x0100\n      exp\n      swap1\n      div\n      0xffffffffffffffffffffffffffffffffffffffff\n      and\n      dup2\n      0x04\n      add\n      exp(0x0100, 0x00)\n      dup2\n      sload\n      dup2\n      0xffffffffffffffffffffffffffffffffffffffff\n      mul\n      not\n      and\n      swap1\n      dup4\n      0xffffffffffffffffffffffffffffffffffffffff\n      and\n      mul\n      or\n      swap1\n      sstore\n      pop\n      0x05\n      dup3\n      add\n      sload\n      dup2\n      0x05\n      add\n      sstore\n      0x06\n      dup3\n      add\n      sload\n      dup2\n      0x06\n      add\n      sstore\n      pop\n      pop\n        /* \"nft-market.sol\":10662:10663  1 */\n      0x01\n        /* \"nft-market.sol\":10646:10652  orders */\n      0x03\n        /* \"nft-market.sol\":10646:10659  orders.length */\n      dup1\n      sload\n      swap1\n      pop\n        /* \"nft-market.sol\":10646:10663  orders.length - 1 */\n      tag_276\n      swap2\n      swap1\n      tag_277\n      jump\t// in\n    tag_276:\n        /* \"nft-market.sol\":10619:10633  idToOrderIndex */\n      0x04\n        /* \"nft-market.sol\":10619:10643  idToOrderIndex[_tokenId] */\n      0x00\n        /* \"nft-market.sol\":10634:10642  _tokenId */\n      dup5\n        /* \"nft-market.sol\":10619:10643  idToOrderIndex[_tokenId] */\n      dup2\n      mstore\n      0x20\n      add\n      swap1\n      dup2\n      mstore\n      0x20\n      add\n      0x00\n      keccak256\n        /* \"nft-market.sol\":10619:10663  idToOrderIndex[_tokenId] = orders.length - 1 */\n      dup2\n      swap1\n      sstore\n      pop\n        /* \"nft-market.sol\":10679:10720  NewNormalOrder(_seller, _tokenId, _price) */\n      0x89207568998d5fd0f77ca24d90d746b19beb110826a030adf1f1ee162f207eaf\n        /* \"nft-market.sol\":10694:10701  _seller */\n      dup4\n        /* \"nft-market.sol\":10703:10711  _tokenId */\n      dup4\n        /* \"nft-market.sol\":10713:10719  _price */\n      dup4\n        /* \"nft-market.sol\":10679:10720  NewNormalOrder(_seller, _tokenId, _price) */\n      mload(0x40)\n      tag_278\n      swap4\n      swap3\n      swap2\n      swap1\n      tag_130\n      jump\t// in\n    tag_278:\n      mload(0x40)\n      dup1\n      swap2\n      sub\n      swap1\n      log1\n        /* \"nft-market.sol\":9988:10728  function placeNormalOrder(... */\n      pop\n      pop\n      pop\n      jump\t// out\n        /* \"nft-market.sol\":10775:11656  function placeAuctionOrder(... */\n    tag_141:\n        /* \"nft-market.sol\":10951:10952  0 */\n      0x00\n        /* \"nft-market.sol\":10942:10948  _price */\n      dup3\n        /* \"nft-market.sol\":10942:10952  _price > 0 */\n      gt\n        /* \"nft-market.sol\":10934:10996  require(_price > 0, \"Market: Price must be greater than zero\") */\n      tag_280\n      jumpi\n      mload(0x40)\n      0x08c379a000000000000000000000000000000000000000000000000000000000\n      dup2\n      mstore\n      0x04\n      add\n      tag_281\n      swap1\n      tag_274\n      jump\t// in\n    tag_281:\n      mload(0x40)\n      dup1\n      swap2\n      sub\n      swap1\n      revert\n    tag_280:\n        /* \"nft-market.sol\":11036:11043  _seller */\n      dup4\n        /* \"nft-market.sol\":11007:11016  orderOfId */\n      0x02\n        /* \"nft-market.sol\":11007:11026  orderOfId[_tokenId] */\n      0x00\n        /* \"nft-market.sol\":11017:11025  _tokenId */\n      dup6\n        /* \"nft-market.sol\":11007:11026  orderOfId[_tokenId] */\n      dup2\n      mstore\n      0x20\n      add\n      swap1\n      dup2\n      mstore\n      0x20\n      add\n      0x00\n      keccak256\n        /* \"nft-market.sol\":11007:11033  orderOfId[_tokenId].seller */\n      0x00\n      add\n      0x00\n        /* \"nft-market.sol\":11007:11043  orderOfId[_tokenId].seller = _seller */\n      0x0100\n      exp\n      dup2\n      sload\n      dup2\n      0xffffffffffffffffffffffffffffffffffffffff\n      mul\n      not\n      and\n      swap1\n      dup4\n      0xffffffffffffffffffffffffffffffffffffffff\n      and\n      mul\n      or\n      swap1\n      sstore\n      pop\n        /* \"nft-market.sol\":11082:11088  _price */\n      dup2\n        /* \"nft-market.sol\":11054:11063  orderOfId */\n      0x02\n        /* \"nft-market.sol\":11054:11073  orderOfId[_tokenId] */\n      0x00\n        /* \"nft-market.sol\":11064:11072  _tokenId */\n      dup6\n        /* \"nft-market.sol\":11054:11073  orderOfId[_tokenId] */\n      dup2\n      mstore\n      0x20\n      add\n      swap1\n      dup2\n      mstore\n      0x20\n      add\n      0x00\n      keccak256\n        /* \"nft-market.sol\":11054:11079  orderOfId[_tokenId].price */\n      0x06\n      add\n        /* \"nft-market.sol\":11054:11088  orderOfId[_tokenId].price = _price */\n      dup2\n      swap1\n      sstore\n      pop\n        /* \"nft-market.sol\":11129:11137  _tokenId */\n      dup3\n        /* \"nft-market.sol\":11099:11108  orderOfId */\n      0x02\n        /* \"nft-market.sol\":11099:11118  orderOfId[_tokenId] */\n      0x00\n        /* \"nft-market.sol\":11109:11117  _tokenId */\n      dup6\n        /* \"nft-market.sol\":11099:11118  orderOfId[_tokenId] */\n      dup2\n      mstore\n      0x20\n      add\n      swap1\n      dup2\n      mstore\n      0x20\n      add\n      0x00\n      keccak256\n        /* \"nft-market.sol\":11099:11126  orderOfId[_tokenId].tokenId */\n      0x05\n      add\n        /* \"nft-market.sol\":11099:11137  orderOfId[_tokenId].tokenId = _tokenId */\n      dup2\n      swap1\n      sstore\n      pop\n        /* \"nft-market.sol\":11180:11184  true */\n      0x01\n        /* \"nft-market.sol\":11148:11157  orderOfId */\n      0x02\n        /* \"nft-market.sol\":11148:11167  orderOfId[_tokenId] */\n      0x00\n        /* \"nft-market.sol\":11158:11166  _tokenId */\n      dup6\n        /* \"nft-market.sol\":11148:11167  orderOfId[_tokenId] */\n      dup2\n      mstore\n      0x20\n      add\n      swap1\n      dup2\n      mstore\n      0x20\n      add\n      0x00\n      keccak256\n        /* \"nft-market.sol\":11148:11177  orderOfId[_tokenId].isAuction */\n      0x00\n      add\n      0x14\n        /* \"nft-market.sol\":11148:11184  orderOfId[_tokenId].isAuction = true */\n      0x0100\n      exp\n      dup2\n      sload\n      dup2\n      0xff\n      mul\n      not\n      and\n      swap1\n      dup4\n      iszero\n      iszero\n      mul\n      or\n      swap1\n      sstore\n      pop\n        /* \"nft-market.sol\":11227:11242  block.timestamp */\n      timestamp\n        /* \"nft-market.sol\":11195:11204  orderOfId */\n      0x02\n        /* \"nft-market.sol\":11195:11214  orderOfId[_tokenId] */\n      0x00\n        /* \"nft-market.sol\":11205:11213  _tokenId */\n      dup6\n        /* \"nft-market.sol\":11195:11214  orderOfId[_tokenId] */\n      dup2\n      mstore\n      0x20\n      add\n      swap1\n      dup2\n      mstore\n      0x20\n      add\n      0x00\n      keccak256\n        /* \"nft-market.sol\":11195:11224  orderOfId[_tokenId].startTime */\n      0x01\n      add\n        /* \"nft-market.sol\":11195:11242  orderOfId[_tokenId].startTime = block.timestamp */\n      dup2\n      swap1\n      sstore\n      pop\n        /* \"nft-market.sol\":11315:11323  duration */\n      dup1\n        /* \"nft-market.sol\":11283:11292  orderOfId */\n      0x02\n        /* \"nft-market.sol\":11283:11302  orderOfId[_tokenId] */\n      0x00\n        /* \"nft-market.sol\":11293:11301  _tokenId */\n      dup6\n        /* \"nft-market.sol\":11283:11302  orderOfId[_tokenId] */\n      dup2\n      mstore\n      0x20\n      add\n      swap1\n      dup2\n      mstore\n      0x20\n      add\n      0x00\n      keccak256\n        /* \"nft-market.sol\":11283:11312  orderOfId[_tokenId].startTime */\n      0x01\n      add\n      sload\n        /* \"nft-market.sol\":11283:11323  orderOfId[_tokenId].startTime + duration */\n      tag_282\n      swap2\n      swap1\n      tag_212\n      jump\t// in\n    tag_282:\n        /* \"nft-market.sol\":11253:11262  orderOfId */\n      0x02\n        /* \"nft-market.sol\":11253:11272  orderOfId[_tokenId] */\n      0x00\n        /* \"nft-market.sol\":11263:11271  _tokenId */\n      dup6\n        /* \"nft-market.sol\":11253:11272  orderOfId[_tokenId] */\n      dup2\n      mstore\n      0x20\n      add\n      swap1\n      dup2\n      mstore\n      0x20\n      add\n      0x00\n      keccak256\n        /* \"nft-market.sol\":11253:11280  orderOfId[_tokenId].endTime */\n      0x02\n      add\n        /* \"nft-market.sol\":11253:11323  orderOfId[_tokenId].endTime = orderOfId[_tokenId].startTime + duration */\n      dup2\n      swap1\n      sstore\n      pop\n        /* \"nft-market.sol\":11367:11373  _price */\n      dup2\n        /* \"nft-market.sol\":11334:11343  orderOfId */\n      0x02\n        /* \"nft-market.sol\":11334:11353  orderOfId[_tokenId] */\n      0x00\n        /* \"nft-market.sol\":11344:11352  _tokenId */\n      dup6\n        /* \"nft-market.sol\":11334:11353  orderOfId[_tokenId] */\n      dup2\n      mstore\n      0x20\n      add\n      swap1\n      dup2\n      mstore\n      0x20\n      add\n      0x00\n      keccak256\n        /* \"nft-market.sol\":11334:11364  orderOfId[_tokenId].highestBid */\n      0x03\n      add\n        /* \"nft-market.sol\":11334:11373  orderOfId[_tokenId].highestBid = _price */\n      dup2\n      swap1\n      sstore\n      pop\n        /* \"nft-market.sol\":11428:11429  0 */\n      0x00\n        /* \"nft-market.sol\":11384:11393  orderOfId */\n      0x02\n        /* \"nft-market.sol\":11384:11403  orderOfId[_tokenId] */\n      0x00\n        /* \"nft-market.sol\":11394:11402  _tokenId */\n      dup6\n        /* \"nft-market.sol\":11384:11403  orderOfId[_tokenId] */\n      dup2\n      mstore\n      0x20\n      add\n      swap1\n      dup2\n      mstore\n      0x20\n      add\n      0x00\n      keccak256\n        /* \"nft-market.sol\":11384:11417  orderOfId[_tokenId].highestBidder */\n      0x04\n      add\n      0x00\n        /* \"nft-market.sol\":11384:11430  orderOfId[_tokenId].highestBidder = address(0) */\n      0x0100\n      exp\n      dup2\n      sload\n      dup2\n      0xffffffffffffffffffffffffffffffffffffffff\n      mul\n      not\n      and\n      swap1\n      dup4\n      0xffffffffffffffffffffffffffffffffffffffff\n      and\n      mul\n      or\n      swap1\n      sstore\n      pop\n        /* \"nft-market.sol\":11443:11449  orders */\n      0x03\n        /* \"nft-market.sol\":11455:11464  orderOfId */\n      0x02\n        /* \"nft-market.sol\":11455:11474  orderOfId[_tokenId] */\n      0x00\n        /* \"nft-market.sol\":11465:11473  _tokenId */\n      dup6\n        /* \"nft-market.sol\":11455:11474  orderOfId[_tokenId] */\n      dup2\n      mstore\n      0x20\n      add\n      swap1\n      dup2\n      mstore\n      0x20\n      add\n      0x00\n      keccak256\n        /* \"nft-market.sol\":11443:11475  orders.push(orderOfId[_tokenId]) */\n      swap1\n      dup1\n      0x01\n      dup2\n      sload\n      add\n      dup1\n      dup3\n      sstore\n      dup1\n      swap2\n      pop\n      pop\n      0x01\n      swap1\n      sub\n      swap1\n      0x00\n      mstore\n      keccak256(0x00, 0x20)\n      swap1\n      0x07\n      mul\n      add\n      0x00\n      swap1\n      swap2\n      swap1\n      swap2\n      swap1\n      swap2\n      pop\n      0x00\n      dup3\n      add\n      0x00\n      swap1\n      sload\n      swap1\n      0x0100\n      exp\n      swap1\n      div\n      0xffffffffffffffffffffffffffffffffffffffff\n      and\n      dup2\n      0x00\n      add\n      exp(0x0100, 0x00)\n      dup2\n      sload\n      dup2\n      0xffffffffffffffffffffffffffffffffffffffff\n      mul\n      not\n      and\n      swap1\n      dup4\n      0xffffffffffffffffffffffffffffffffffffffff\n      and\n      mul\n      or\n      swap1\n      sstore\n      pop\n      0x00\n      dup3\n      add\n      0x14\n      swap1\n      sload\n      swap1\n      0x0100\n      exp\n      swap1\n      div\n      0xff\n      and\n      dup2\n      0x00\n      add\n      exp(0x0100, 0x14)\n      dup2\n      sload\n      dup2\n      0xff\n      mul\n      not\n      and\n      swap1\n      dup4\n      iszero\n      iszero\n      mul\n      or\n      swap1\n      sstore\n      pop\n      0x01\n      dup3\n      add\n      sload\n      dup2\n      0x01\n      add\n      sstore\n      0x02\n      dup3\n      add\n      sload\n      dup2\n      0x02\n      add\n      sstore\n      0x03\n      dup3\n      add\n      sload\n      dup2\n      0x03\n      add\n      sstore\n      0x04\n      dup3\n      add\n      0x00\n      swap1\n      sload\n      swap1\n      0x0100\n      exp\n      swap1\n      div\n      0xffffffffffffffffffffffffffffffffffffffff\n      and\n      dup2\n      0x04\n      add\n      exp(0x0100, 0x00)\n      dup2\n      sload\n      dup2\n      0xffffffffffffffffffffffffffffffffffffffff\n      mul\n      not\n      and\n      swap1\n      dup4\n      0xffffffffffffffffffffffffffffffffffffffff\n      and\n      mul\n      or\n      swap1\n      sstore\n      pop\n      0x05\n      dup3\n      add\n      sload\n      dup2\n      0x05\n      add\n      sstore\n      0x06\n      dup3\n      add\n      sload\n      dup2\n      0x06\n      add\n      sstore\n      pop\n      pop\n        /* \"nft-market.sol\":11529:11530  1 */\n      0x01\n        /* \"nft-market.sol\":11513:11519  orders */\n      0x03\n        /* \"nft-market.sol\":11513:11526  orders.length */\n      dup1\n      sload\n      swap1\n      pop\n        /* \"nft-market.sol\":11513:11530  orders.length - 1 */\n      tag_284\n      swap2\n      swap1\n      tag_277\n      jump\t// in\n    tag_284:\n        /* \"nft-market.sol\":11486:11500  idToOrderIndex */\n      0x04\n        /* \"nft-market.sol\":11486:11510  idToOrderIndex[_tokenId] */\n      0x00\n        /* \"nft-market.sol\":11501:11509  _tokenId */\n      dup6\n        /* \"nft-market.sol\":11486:11510  idToOrderIndex[_tokenId] */\n      dup2\n      mstore\n      0x20\n      add\n      swap1\n      dup2\n      mstore\n      0x20\n      add\n      0x00\n      keccak256\n        /* \"nft-market.sol\":11486:11530  idToOrderIndex[_tokenId] = orders.length - 1 */\n      dup2\n      swap1\n      sstore\n      pop\n        /* \"nft-market.sol\":11546:11648  NewAuctionOrder(_seller, _tokenId, _price, orderOfId[_tokenId].startTime, orderOfId[_tokenId].endTime) */\n      0xb5e71c08b6a53fea1aa8bc83008b6b97e75840393d4cdc95cae7bdb41c16cdfa\n        /* \"nft-market.sol\":11562:11569  _seller */\n      dup5\n        /* \"nft-market.sol\":11571:11579  _tokenId */\n      dup5\n        /* \"nft-market.sol\":11581:11587  _price */\n      dup5\n        /* \"nft-market.sol\":11589:11598  orderOfId */\n      0x02\n        /* \"nft-market.sol\":11589:11608  orderOfId[_tokenId] */\n      0x00\n        /* \"nft-market.sol\":11599:11607  _tokenId */\n      dup9\n        /* \"nft-market.sol\":11589:11608  orderOfId[_tokenId] */\n      dup2\n      mstore\n      0x20\n      add\n      swap1\n      dup2\n      mstore\n      0x20\n      add\n      0x00\n      keccak256\n        /* \"nft-market.sol\":11589:11618  orderOfId[_tokenId].startTime */\n      0x01\n      add\n      sload\n        /* \"nft-market.sol\":11620:11629  orderOfId */\n      0x02\n        /* \"nft-market.sol\":11620:11639  orderOfId[_tokenId] */\n      0x00\n        /* \"nft-market.sol\":11630:11638  _tokenId */\n      dup10\n        /* \"nft-market.sol\":11620:11639  orderOfId[_tokenId] */\n      dup2\n      mstore\n      0x20\n      add\n      swap1\n      dup2\n      mstore\n      0x20\n      add\n      0x00\n      keccak256\n        /* \"nft-market.sol\":11620:11647  orderOfId[_tokenId].endTime */\n      0x02\n      add\n      sload\n        /* \"nft-market.sol\":11546:11648  NewAuctionOrder(_seller, _tokenId, _price, orderOfId[_tokenId].startTime, orderOfId[_tokenId].endTime) */\n      mload(0x40)\n      tag_285\n      swap6\n      swap5\n      swap4\n      swap3\n      swap2\n      swap1\n      tag_286\n      jump\t// in\n    tag_285:\n      mload(0x40)\n      dup1\n      swap2\n      sub\n      swap1\n      log1\n        /* \"nft-market.sol\":10775:11656  function placeAuctionOrder(... */\n      pop\n      pop\n      pop\n      pop\n      jump\t// out\n        /* \"nft-market.sol\":11664:12297  function removeListing(uint256 _tokenId) internal {... */\n    tag_158:\n        /* \"nft-market.sol\":11732:11741  orderOfId */\n      0x02\n        /* \"nft-market.sol\":11732:11751  orderOfId[_tokenId] */\n      0x00\n        /* \"nft-market.sol\":11742:11750  _tokenId */\n      dup3\n        /* \"nft-market.sol\":11732:11751  orderOfId[_tokenId] */\n      dup2\n      mstore\n      0x20\n      add\n      swap1\n      dup2\n      mstore\n      0x20\n      add\n      0x00\n      keccak256\n      0x00\n        /* \"nft-market.sol\":11725:11751  delete orderOfId[_tokenId] */\n      dup1\n      dup3\n      add\n      exp(0x0100, 0x00)\n      dup2\n      sload\n      swap1\n      0xffffffffffffffffffffffffffffffffffffffff\n      mul\n      not\n      and\n      swap1\n      sstore\n      0x00\n      dup3\n      add\n      exp(0x0100, 0x14)\n      dup2\n      sload\n      swap1\n      0xff\n      mul\n      not\n      and\n      swap1\n      sstore\n      0x01\n      dup3\n      add\n      0x00\n      swap1\n      sstore\n      0x02\n      dup3\n      add\n      0x00\n      swap1\n      sstore\n      0x03\n      dup3\n      add\n      0x00\n      swap1\n      sstore\n      0x04\n      dup3\n      add\n      exp(0x0100, 0x00)\n      dup2\n      sload\n      swap1\n      0xffffffffffffffffffffffffffffffffffffffff\n      mul\n      not\n      and\n      swap1\n      sstore\n      0x05\n      dup3\n      add\n      0x00\n      swap1\n      sstore\n      0x06\n      dup3\n      add\n      0x00\n      swap1\n      sstore\n      pop\n      pop\n        /* \"nft-market.sol\":11764:11790  uint256 orderToRemoveIndex */\n      0x00\n        /* \"nft-market.sol\":11793:11807  idToOrderIndex */\n      0x04\n        /* \"nft-market.sol\":11793:11817  idToOrderIndex[_tokenId] */\n      0x00\n        /* \"nft-market.sol\":11808:11816  _tokenId */\n      dup4\n        /* \"nft-market.sol\":11793:11817  idToOrderIndex[_tokenId] */\n      dup2\n      mstore\n      0x20\n      add\n      swap1\n      dup2\n      mstore\n      0x20\n      add\n      0x00\n      keccak256\n      sload\n        /* \"nft-market.sol\":11764:11817  uint256 orderToRemoveIndex = idToOrderIndex[_tokenId] */\n      swap1\n      pop\n        /* \"nft-market.sol\":11828:11850  uint256 lastOrderIndex */\n      0x00\n        /* \"nft-market.sol\":11869:11870  1 */\n      0x01\n        /* \"nft-market.sol\":11853:11859  orders */\n      0x03\n        /* \"nft-market.sol\":11853:11866  orders.length */\n      dup1\n      sload\n      swap1\n      pop\n        /* \"nft-market.sol\":11853:11870  orders.length - 1 */\n      tag_288\n      swap2\n      swap1\n      tag_277\n      jump\t// in\n    tag_288:\n        /* \"nft-market.sol\":11828:11870  uint256 lastOrderIndex = orders.length - 1 */\n      swap1\n      pop\n        /* \"nft-market.sol\":11905:11923  orderToRemoveIndex */\n      dup2\n        /* \"nft-market.sol\":11887:11901  lastOrderIndex */\n      dup2\n        /* \"nft-market.sol\":11887:11923  lastOrderIndex != orderToRemoveIndex */\n      eq\n        /* \"nft-market.sol\":11883:12267  if (lastOrderIndex != orderToRemoveIndex) {... */\n      tag_289\n      jumpi\n        /* \"nft-market.sol\":11940:11962  Order memory lastOrder */\n      0x00\n        /* \"nft-market.sol\":11965:11971  orders */\n      0x03\n        /* \"nft-market.sol\":11972:11986  lastOrderIndex */\n      dup3\n        /* \"nft-market.sol\":11965:11987  orders[lastOrderIndex] */\n      dup2\n      sload\n      dup2\n      lt\n      tag_290\n      jumpi\n      tag_291\n      tag_174\n      jump\t// in\n    tag_291:\n    tag_290:\n      swap1\n      0x00\n      mstore\n      keccak256(0x00, 0x20)\n      swap1\n      0x07\n      mul\n      add\n        /* \"nft-market.sol\":11940:11987  Order memory lastOrder = orders[lastOrderIndex] */\n      mload(0x40)\n      dup1\n      0x0100\n      add\n      0x40\n      mstore\n      swap1\n      dup2\n      0x00\n      dup3\n      add\n      0x00\n      swap1\n      sload\n      swap1\n      0x0100\n      exp\n      swap1\n      div\n      0xffffffffffffffffffffffffffffffffffffffff\n      and\n      0xffffffffffffffffffffffffffffffffffffffff\n      and\n      0xffffffffffffffffffffffffffffffffffffffff\n      and\n      dup2\n      mstore\n      0x20\n      add\n      0x00\n      dup3\n      add\n      0x14\n      swap1\n      sload\n      swap1\n      0x0100\n      exp\n      swap1\n      div\n      0xff\n      and\n      iszero\n      iszero\n      iszero\n      iszero\n      dup2\n      mstore\n      0x20\n      add\n      0x01\n      dup3\n      add\n      sload\n      dup2\n      mstore\n      0x20\n      add\n      0x02\n      dup3\n      add\n      sload\n      dup2\n      mstore\n      0x20\n      add\n      0x03\n      dup3\n      add\n      sload\n      dup2\n      mstore\n      0x20\n      add\n      0x04\n      dup3\n      add\n      0x00\n      swap1\n      sload\n      swap1\n      0x0100\n      exp\n      swap1\n      div\n      0xffffffffffffffffffffffffffffffffffffffff\n      and\n      0xffffffffffffffffffffffffffffffffffffffff\n      and\n      0xffffffffffffffffffffffffffffffffffffffff\n      and\n      dup2\n      mstore\n      0x20\n      add\n      0x05\n      dup3\n      add\n      sload\n      dup2\n      mstore\n      0x20\n      add\n      0x06\n      dup3\n      add\n      sload\n      dup2\n      mstore\n      pop\n      pop\n      swap1\n      pop\n        /* \"nft-market.sol\":12110:12119  lastOrder */\n      dup1\n        /* \"nft-market.sol\":12081:12087  orders */\n      0x03\n        /* \"nft-market.sol\":12088:12106  orderToRemoveIndex */\n      dup5\n        /* \"nft-market.sol\":12081:12107  orders[orderToRemoveIndex] */\n      dup2\n      sload\n      dup2\n      lt\n      tag_293\n      jumpi\n      tag_294\n      tag_174\n      jump\t// in\n    tag_294:\n    tag_293:\n      swap1\n      0x00\n      mstore\n      keccak256(0x00, 0x20)\n      swap1\n      0x07\n      mul\n      add\n        /* \"nft-market.sol\":12081:12119  orders[orderToRemoveIndex] = lastOrder */\n      0x00\n      dup3\n      add\n      mload\n      dup2\n      0x00\n      add\n      exp(0x0100, 0x00)\n      dup2\n      sload\n      dup2\n      0xffffffffffffffffffffffffffffffffffffffff\n      mul\n      not\n      and\n      swap1\n      dup4\n      0xffffffffffffffffffffffffffffffffffffffff\n      and\n      mul\n      or\n      swap1\n      sstore\n      pop\n      0x20\n      dup3\n      add\n      mload\n      dup2\n      0x00\n      add\n      exp(0x0100, 0x14)\n      dup2\n      sload\n      dup2\n      0xff\n      mul\n      not\n      and\n      swap1\n      dup4\n      iszero\n      iszero\n      mul\n      or\n      swap1\n      sstore\n      pop\n      0x40\n      dup3\n      add\n      mload\n      dup2\n      0x01\n      add\n      sstore\n      0x60\n      dup3\n      add\n      mload\n      dup2\n      0x02\n      add\n      sstore\n      0x80\n      dup3\n      add\n      mload\n      dup2\n      0x03\n      add\n      sstore\n      0xa0\n      dup3\n      add\n      mload\n      dup2\n      0x04\n      add\n      exp(0x0100, 0x00)\n      dup2\n      sload\n      dup2\n      0xffffffffffffffffffffffffffffffffffffffff\n      mul\n      not\n      and\n      swap1\n      dup4\n      0xffffffffffffffffffffffffffffffffffffffff\n      and\n      mul\n      or\n      swap1\n      sstore\n      pop\n      0xc0\n      dup3\n      add\n      mload\n      dup2\n      0x05\n      add\n      sstore\n      0xe0\n      dup3\n      add\n      mload\n      dup2\n      0x06\n      add\n      sstore\n      swap1\n      pop\n      pop\n        /* \"nft-market.sol\":12237:12255  orderToRemoveIndex */\n      dup3\n        /* \"nft-market.sol\":12201:12215  idToOrderIndex */\n      0x04\n        /* \"nft-market.sol\":12201:12234  idToOrderIndex[lastOrder.tokenId] */\n      0x00\n        /* \"nft-market.sol\":12216:12225  lastOrder */\n      dup4\n        /* \"nft-market.sol\":12216:12233  lastOrder.tokenId */\n      0xc0\n      add\n      mload\n        /* \"nft-market.sol\":12201:12234  idToOrderIndex[lastOrder.tokenId] */\n      dup2\n      mstore\n      0x20\n      add\n      swap1\n      dup2\n      mstore\n      0x20\n      add\n      0x00\n      keccak256\n        /* \"nft-market.sol\":12201:12255  idToOrderIndex[lastOrder.tokenId] = orderToRemoveIndex */\n      dup2\n      swap1\n      sstore\n      pop\n        /* \"nft-market.sol\":11925:12267  {... */\n      pop\n        /* \"nft-market.sol\":11883:12267  if (lastOrderIndex != orderToRemoveIndex) {... */\n    tag_289:\n        /* \"nft-market.sol\":12277:12283  orders */\n      0x03\n        /* \"nft-market.sol\":12277:12289  orders.pop() */\n      dup1\n      sload\n      dup1\n      tag_296\n      jumpi\n      tag_297\n      tag_298\n      jump\t// in\n    tag_297:\n    tag_296:\n      0x01\n      swap1\n      sub\n      dup2\n      dup2\n      swap1\n      0x00\n      mstore\n      keccak256(0x00, 0x20)\n      swap1\n      0x07\n      mul\n      add\n      0x00\n      dup1\n      dup3\n      add\n      exp(0x0100, 0x00)\n      dup2\n      sload\n      swap1\n      0xffffffffffffffffffffffffffffffffffffffff\n      mul\n      not\n      and\n      swap1\n      sstore\n      0x00\n      dup3\n      add\n      exp(0x0100, 0x14)\n      dup2\n      sload\n      swap1\n      0xff\n      mul\n      not\n      and\n      swap1\n      sstore\n      0x01\n      dup3\n      add\n      0x00\n      swap1\n      sstore\n      0x02\n      dup3\n      add\n      0x00\n      swap1\n      sstore\n      0x03\n      dup3\n      add\n      0x00\n      swap1\n      sstore\n      0x04\n      dup3\n      add\n      exp(0x0100, 0x00)\n      dup2\n      sload\n      swap1\n      0xffffffffffffffffffffffffffffffffffffffff\n      mul\n      not\n      and\n      swap1\n      sstore\n      0x05\n      dup3\n      add\n      0x00\n      swap1\n      sstore\n      0x06\n      dup3\n      add\n      0x00\n      swap1\n      sstore\n      pop\n      pop\n      swap1\n      sstore\n        /* \"nft-market.sol\":11714:12297  {... */\n      pop\n      pop\n        /* \"nft-market.sol\":11664:12297  function removeListing(uint256 _tokenId) internal {... */\n      pop\n      jump\t// out\n    tag_168:\n      mload(0x40)\n      dup1\n      0x0100\n      add\n      0x40\n      mstore\n      dup1\n      and(0xffffffffffffffffffffffffffffffffffffffff, 0x00)\n      dup2\n      mstore\n      0x20\n      add\n      iszero(iszero(0x00))\n      dup2\n      mstore\n      0x20\n      add\n      0x00\n      dup2\n      mstore\n      0x20\n      add\n      0x00\n      dup2\n      mstore\n      0x20\n      add\n      0x00\n      dup2\n      mstore\n      0x20\n      add\n      and(0xffffffffffffffffffffffffffffffffffffffff, 0x00)\n      dup2\n      mstore\n      0x20\n      add\n      0x00\n      dup2\n      mstore\n      0x20\n      add\n      0x00\n      dup2\n      mstore\n      pop\n      swap1\n      jump\t// out\n        /* \"#utility.yul\":7:82   */\n    tag_300:\n        /* \"#utility.yul\":40:46   */\n      0x00\n        /* \"#utility.yul\":73:75   */\n      0x40\n        /* \"#utility.yul\":67:76   */\n      mload\n        /* \"#utility.yul\":57:76   */\n      swap1\n      pop\n        /* \"#utility.yul\":7:82   */\n      swap1\n      jump\t// out\n        /* \"#utility.yul\":88:205   */\n    tag_301:\n        /* \"#utility.yul\":197:198   */\n      0x00\n        /* \"#utility.yul\":194:195   */\n      dup1\n        /* \"#utility.yul\":187:199   */\n      revert\n        /* \"#utility.yul\":211:328   */\n    tag_302:\n        /* \"#utility.yul\":320:321   */\n      0x00\n        /* \"#utility.yul\":317:318   */\n      dup1\n        /* \"#utility.yul\":310:322   */\n      revert\n        /* \"#utility.yul\":334:411   */\n    tag_303:\n        /* \"#utility.yul\":371:378   */\n      0x00\n        /* \"#utility.yul\":400:405   */\n      dup2\n        /* \"#utility.yul\":389:405   */\n      swap1\n      pop\n        /* \"#utility.yul\":334:411   */\n      swap2\n      swap1\n      pop\n      jump\t// out\n        /* \"#utility.yul\":417:539   */\n    tag_304:\n        /* \"#utility.yul\":490:514   */\n      tag_380\n        /* \"#utility.yul\":508:513   */\n      dup2\n        /* \"#utility.yul\":490:514   */\n      tag_303\n      jump\t// in\n    tag_380:\n        /* \"#utility.yul\":483:488   */\n      dup2\n        /* \"#utility.yul\":480:515   */\n      eq\n        /* \"#utility.yul\":470:533   */\n      tag_381\n      jumpi\n        /* \"#utility.yul\":529:530   */\n      0x00\n        /* \"#utility.yul\":526:527   */\n      dup1\n        /* \"#utility.yul\":519:531   */\n      revert\n        /* \"#utility.yul\":470:533   */\n    tag_381:\n        /* \"#utility.yul\":417:539   */\n      pop\n      jump\t// out\n        /* \"#utility.yul\":545:684   */\n    tag_305:\n        /* \"#utility.yul\":591:596   */\n      0x00\n        /* \"#utility.yul\":629:635   */\n      dup2\n        /* \"#utility.yul\":616:636   */\n      calldataload\n        /* \"#utility.yul\":607:636   */\n      swap1\n      pop\n        /* \"#utility.yul\":645:678   */\n      tag_383\n        /* \"#utility.yul\":672:677   */\n      dup2\n        /* \"#utility.yul\":645:678   */\n      tag_304\n      jump\t// in\n    tag_383:\n        /* \"#utility.yul\":545:684   */\n      swap3\n      swap2\n      pop\n      pop\n      jump\t// out\n        /* \"#utility.yul\":690:1019   */\n    tag_24:\n        /* \"#utility.yul\":749:755   */\n      0x00\n        /* \"#utility.yul\":798:800   */\n      0x20\n        /* \"#utility.yul\":786:795   */\n      dup3\n        /* \"#utility.yul\":777:784   */\n      dup5\n        /* \"#utility.yul\":773:796   */\n      sub\n        /* \"#utility.yul\":769:801   */\n      slt\n        /* \"#utility.yul\":766:885   */\n      iszero\n      tag_385\n      jumpi\n        /* \"#utility.yul\":804:883   */\n      tag_386\n      tag_301\n      jump\t// in\n    tag_386:\n        /* \"#utility.yul\":766:885   */\n    tag_385:\n        /* \"#utility.yul\":924:925   */\n      0x00\n        /* \"#utility.yul\":949:1002   */\n      tag_387\n        /* \"#utility.yul\":994:1001   */\n      dup5\n        /* \"#utility.yul\":985:991   */\n      dup3\n        /* \"#utility.yul\":974:983   */\n      dup6\n        /* \"#utility.yul\":970:992   */\n      add\n        /* \"#utility.yul\":949:1002   */\n      tag_305\n      jump\t// in\n    tag_387:\n        /* \"#utility.yul\":939:1002   */\n      swap2\n      pop\n        /* \"#utility.yul\":895:1012   */\n      pop\n        /* \"#utility.yul\":690:1019   */\n      swap3\n      swap2\n      pop\n      pop\n      jump\t// out\n        /* \"#utility.yul\":1025:1151   */\n    tag_306:\n        /* \"#utility.yul\":1062:1069   */\n      0x00\n        /* \"#utility.yul\":1102:1144   */\n      0xffffffffffffffffffffffffffffffffffffffff\n        /* \"#utility.yul\":1095:1100   */\n      dup3\n        /* \"#utility.yul\":1091:1145   */\n      and\n        /* \"#utility.yul\":1080:1145   */\n      swap1\n      pop\n        /* \"#utility.yul\":1025:1151   */\n      swap2\n      swap1\n      pop\n      jump\t// out\n        /* \"#utility.yul\":1157:1253   */\n    tag_307:\n        /* \"#utility.yul\":1194:1201   */\n      0x00\n        /* \"#utility.yul\":1223:1247   */\n      tag_390\n        /* \"#utility.yul\":1241:1246   */\n      dup3\n        /* \"#utility.yul\":1223:1247   */\n      tag_306\n      jump\t// in\n    tag_390:\n        /* \"#utility.yul\":1212:1247   */\n      swap1\n      pop\n        /* \"#utility.yul\":1157:1253   */\n      swap2\n      swap1\n      pop\n      jump\t// out\n        /* \"#utility.yul\":1259:1381   */\n    tag_308:\n        /* \"#utility.yul\":1332:1356   */\n      tag_392\n        /* \"#utility.yul\":1350:1355   */\n      dup2\n        /* \"#utility.yul\":1332:1356   */\n      tag_307\n      jump\t// in\n    tag_392:\n        /* \"#utility.yul\":1325:1330   */\n      dup2\n        /* \"#utility.yul\":1322:1357   */\n      eq\n        /* \"#utility.yul\":1312:1375   */\n      tag_393\n      jumpi\n        /* \"#utility.yul\":1371:1372   */\n      0x00\n        /* \"#utility.yul\":1368:1369   */\n      dup1\n        /* \"#utility.yul\":1361:1373   */\n      revert\n        /* \"#utility.yul\":1312:1375   */\n    tag_393:\n        /* \"#utility.yul\":1259:1381   */\n      pop\n      jump\t// out\n        /* \"#utility.yul\":1387:1526   */\n    tag_309:\n        /* \"#utility.yul\":1433:1438   */\n      0x00\n        /* \"#utility.yul\":1471:1477   */\n      dup2\n        /* \"#utility.yul\":1458:1478   */\n      calldataload\n        /* \"#utility.yul\":1449:1478   */\n      swap1\n      pop\n        /* \"#utility.yul\":1487:1520   */\n      tag_395\n        /* \"#utility.yul\":1514:1519   */\n      dup2\n        /* \"#utility.yul\":1487:1520   */\n      tag_308\n      jump\t// in\n    tag_395:\n        /* \"#utility.yul\":1387:1526   */\n      swap3\n      swap2\n      pop\n      pop\n      jump\t// out\n        /* \"#utility.yul\":1532:1649   */\n    tag_310:\n        /* \"#utility.yul\":1641:1642   */\n      0x00\n        /* \"#utility.yul\":1638:1639   */\n      dup1\n        /* \"#utility.yul\":1631:1643   */\n      revert\n        /* \"#utility.yul\":1655:1772   */\n    tag_311:\n        /* \"#utility.yul\":1764:1765   */\n      0x00\n        /* \"#utility.yul\":1761:1762   */\n      dup1\n        /* \"#utility.yul\":1754:1766   */\n      revert\n        /* \"#utility.yul\":1778:1895   */\n    tag_312:\n        /* \"#utility.yul\":1887:1888   */\n      0x00\n        /* \"#utility.yul\":1884:1885   */\n      dup1\n        /* \"#utility.yul\":1877:1889   */\n      revert\n        /* \"#utility.yul\":1914:2466   */\n    tag_313:\n        /* \"#utility.yul\":1971:1979   */\n      0x00\n        /* \"#utility.yul\":1981:1987   */\n      dup1\n        /* \"#utility.yul\":2031:2034   */\n      dup4\n        /* \"#utility.yul\":2024:2028   */\n      0x1f\n        /* \"#utility.yul\":2016:2022   */\n      dup5\n        /* \"#utility.yul\":2012:2029   */\n      add\n        /* \"#utility.yul\":2008:2035   */\n      slt\n        /* \"#utility.yul\":1998:2120   */\n      tag_400\n      jumpi\n        /* \"#utility.yul\":2039:2118   */\n      tag_401\n      tag_310\n      jump\t// in\n    tag_401:\n        /* \"#utility.yul\":1998:2120   */\n    tag_400:\n        /* \"#utility.yul\":2152:2158   */\n      dup3\n        /* \"#utility.yul\":2139:2159   */\n      calldataload\n        /* \"#utility.yul\":2129:2159   */\n      swap1\n      pop\n        /* \"#utility.yul\":2182:2200   */\n      0xffffffffffffffff\n        /* \"#utility.yul\":2174:2180   */\n      dup2\n        /* \"#utility.yul\":2171:2201   */\n      gt\n        /* \"#utility.yul\":2168:2285   */\n      iszero\n      tag_402\n      jumpi\n        /* \"#utility.yul\":2204:2283   */\n      tag_403\n      tag_311\n      jump\t// in\n    tag_403:\n        /* \"#utility.yul\":2168:2285   */\n    tag_402:\n        /* \"#utility.yul\":2318:2322   */\n      0x20\n        /* \"#utility.yul\":2310:2316   */\n      dup4\n        /* \"#utility.yul\":2306:2323   */\n      add\n        /* \"#utility.yul\":2294:2323   */\n      swap2\n      pop\n        /* \"#utility.yul\":2372:2375   */\n      dup4\n        /* \"#utility.yul\":2364:2368   */\n      0x01\n        /* \"#utility.yul\":2356:2362   */\n      dup3\n        /* \"#utility.yul\":2352:2369   */\n      mul\n        /* \"#utility.yul\":2342:2350   */\n      dup4\n        /* \"#utility.yul\":2338:2370   */\n      add\n        /* \"#utility.yul\":2335:2376   */\n      gt\n        /* \"#utility.yul\":2332:2460   */\n      iszero\n      tag_404\n      jumpi\n        /* \"#utility.yul\":2379:2458   */\n      tag_405\n      tag_312\n      jump\t// in\n    tag_405:\n        /* \"#utility.yul\":2332:2460   */\n    tag_404:\n        /* \"#utility.yul\":1914:2466   */\n      swap3\n      pop\n      swap3\n      swap1\n      pop\n      jump\t// out\n        /* \"#utility.yul\":2472:3435   */\n    tag_29:\n        /* \"#utility.yul\":2569:2575   */\n      0x00\n        /* \"#utility.yul\":2577:2583   */\n      dup1\n        /* \"#utility.yul\":2585:2591   */\n      0x00\n        /* \"#utility.yul\":2593:2599   */\n      dup1\n        /* \"#utility.yul\":2601:2607   */\n      0x00\n        /* \"#utility.yul\":2650:2653   */\n      0x80\n        /* \"#utility.yul\":2638:2647   */\n      dup7\n        /* \"#utility.yul\":2629:2636   */\n      dup9\n        /* \"#utility.yul\":2625:2648   */\n      sub\n        /* \"#utility.yul\":2621:2654   */\n      slt\n        /* \"#utility.yul\":2618:2738   */\n      iszero\n      tag_407\n      jumpi\n        /* \"#utility.yul\":2657:2736   */\n      tag_408\n      tag_301\n      jump\t// in\n    tag_408:\n        /* \"#utility.yul\":2618:2738   */\n    tag_407:\n        /* \"#utility.yul\":2777:2778   */\n      0x00\n        /* \"#utility.yul\":2802:2855   */\n      tag_409\n        /* \"#utility.yul\":2847:2854   */\n      dup9\n        /* \"#utility.yul\":2838:2844   */\n      dup3\n        /* \"#utility.yul\":2827:2836   */\n      dup10\n        /* \"#utility.yul\":2823:2845   */\n      add\n        /* \"#utility.yul\":2802:2855   */\n      tag_309\n      jump\t// in\n    tag_409:\n        /* \"#utility.yul\":2792:2855   */\n      swap6\n      pop\n        /* \"#utility.yul\":2748:2865   */\n      pop\n        /* \"#utility.yul\":2904:2906   */\n      0x20\n        /* \"#utility.yul\":2930:2983   */\n      tag_410\n        /* \"#utility.yul\":2975:2982   */\n      dup9\n        /* \"#utility.yul\":2966:2972   */\n      dup3\n        /* \"#utility.yul\":2955:2964   */\n      dup10\n        /* \"#utility.yul\":2951:2973   */\n      add\n        /* \"#utility.yul\":2930:2983   */\n      tag_309\n      jump\t// in\n    tag_410:\n        /* \"#utility.yul\":2920:2983   */\n      swap5\n      pop\n        /* \"#utility.yul\":2875:2993   */\n      pop\n        /* \"#utility.yul\":3032:3034   */\n      0x40\n        /* \"#utility.yul\":3058:3111   */\n      tag_411\n        /* \"#utility.yul\":3103:3110   */\n      dup9\n        /* \"#utility.yul\":3094:3100   */\n      dup3\n        /* \"#utility.yul\":3083:3092   */\n      dup10\n        /* \"#utility.yul\":3079:3101   */\n      add\n        /* \"#utility.yul\":3058:3111   */\n      tag_305\n      jump\t// in\n    tag_411:\n        /* \"#utility.yul\":3048:3111   */\n      swap4\n      pop\n        /* \"#utility.yul\":3003:3121   */\n      pop\n        /* \"#utility.yul\":3188:3190   */\n      0x60\n        /* \"#utility.yul\":3177:3186   */\n      dup7\n        /* \"#utility.yul\":3173:3191   */\n      add\n        /* \"#utility.yul\":3160:3192   */\n      calldataload\n        /* \"#utility.yul\":3219:3237   */\n      0xffffffffffffffff\n        /* \"#utility.yul\":3211:3217   */\n      dup2\n        /* \"#utility.yul\":3208:3238   */\n      gt\n        /* \"#utility.yul\":3205:3322   */\n      iszero\n      tag_412\n      jumpi\n        /* \"#utility.yul\":3241:3320   */\n      tag_413\n      tag_302\n      jump\t// in\n    tag_413:\n        /* \"#utility.yul\":3205:3322   */\n    tag_412:\n        /* \"#utility.yul\":3354:3418   */\n      tag_414\n        /* \"#utility.yul\":3410:3417   */\n      dup9\n        /* \"#utility.yul\":3401:3407   */\n      dup3\n        /* \"#utility.yul\":3390:3399   */\n      dup10\n        /* \"#utility.yul\":3386:3408   */\n      add\n        /* \"#utility.yul\":3354:3418   */\n      tag_313\n      jump\t// in\n    tag_414:\n        /* \"#utility.yul\":3336:3418   */\n      swap3\n      pop\n      swap3\n      pop\n        /* \"#utility.yul\":3131:3428   */\n      pop\n        /* \"#utility.yul\":2472:3435   */\n      swap3\n      swap6\n      pop\n      swap3\n      swap6\n      swap1\n      swap4\n      pop\n      jump\t// out\n        /* \"#utility.yul\":3441:3590   */\n    tag_314:\n        /* \"#utility.yul\":3477:3484   */\n      0x00\n        /* \"#utility.yul\":3517:3583   */\n      0xffffffff00000000000000000000000000000000000000000000000000000000\n        /* \"#utility.yul\":3510:3515   */\n      dup3\n        /* \"#utility.yul\":3506:3584   */\n      and\n        /* \"#utility.yul\":3495:3584   */\n      swap1\n      pop\n        /* \"#utility.yul\":3441:3590   */\n      swap2\n      swap1\n      pop\n      jump\t// out\n        /* \"#utility.yul\":3596:3711   */\n    tag_315:\n        /* \"#utility.yul\":3681:3704   */\n      tag_417\n        /* \"#utility.yul\":3698:3703   */\n      dup2\n        /* \"#utility.yul\":3681:3704   */\n      tag_314\n      jump\t// in\n    tag_417:\n        /* \"#utility.yul\":3676:3679   */\n      dup3\n        /* \"#utility.yul\":3669:3705   */\n      mstore\n        /* \"#utility.yul\":3596:3711   */\n      pop\n      pop\n      jump\t// out\n        /* \"#utility.yul\":3717:3935   */\n    tag_32:\n        /* \"#utility.yul\":3808:3812   */\n      0x00\n        /* \"#utility.yul\":3846:3848   */\n      0x20\n        /* \"#utility.yul\":3835:3844   */\n      dup3\n        /* \"#utility.yul\":3831:3849   */\n      add\n        /* \"#utility.yul\":3823:3849   */\n      swap1\n      pop\n        /* \"#utility.yul\":3859:3928   */\n      tag_419\n        /* \"#utility.yul\":3925:3926   */\n      0x00\n        /* \"#utility.yul\":3914:3923   */\n      dup4\n        /* \"#utility.yul\":3910:3927   */\n      add\n        /* \"#utility.yul\":3901:3907   */\n      dup5\n        /* \"#utility.yul\":3859:3928   */\n      tag_315\n      jump\t// in\n    tag_419:\n        /* \"#utility.yul\":3717:3935   */\n      swap3\n      swap2\n      pop\n      pop\n      jump\t// out\n        /* \"#utility.yul\":3941:4031   */\n    tag_316:\n        /* \"#utility.yul\":3975:3982   */\n      0x00\n        /* \"#utility.yul\":4018:4023   */\n      dup2\n        /* \"#utility.yul\":4011:4024   */\n      iszero\n        /* \"#utility.yul\":4004:4025   */\n      iszero\n        /* \"#utility.yul\":3993:4025   */\n      swap1\n      pop\n        /* \"#utility.yul\":3941:4031   */\n      swap2\n      swap1\n      pop\n      jump\t// out\n        /* \"#utility.yul\":4037:4153   */\n    tag_317:\n        /* \"#utility.yul\":4107:4128   */\n      tag_422\n        /* \"#utility.yul\":4122:4127   */\n      dup2\n        /* \"#utility.yul\":4107:4128   */\n      tag_316\n      jump\t// in\n    tag_422:\n        /* \"#utility.yul\":4100:4105   */\n      dup2\n        /* \"#utility.yul\":4097:4129   */\n      eq\n        /* \"#utility.yul\":4087:4147   */\n      tag_423\n      jumpi\n        /* \"#utility.yul\":4143:4144   */\n      0x00\n        /* \"#utility.yul\":4140:4141   */\n      dup1\n        /* \"#utility.yul\":4133:4145   */\n      revert\n        /* \"#utility.yul\":4087:4147   */\n    tag_423:\n        /* \"#utility.yul\":4037:4153   */\n      pop\n      jump\t// out\n        /* \"#utility.yul\":4159:4292   */\n    tag_318:\n        /* \"#utility.yul\":4202:4207   */\n      0x00\n        /* \"#utility.yul\":4240:4246   */\n      dup2\n        /* \"#utility.yul\":4227:4247   */\n      calldataload\n        /* \"#utility.yul\":4218:4247   */\n      swap1\n      pop\n        /* \"#utility.yul\":4256:4286   */\n      tag_425\n        /* \"#utility.yul\":4280:4285   */\n      dup2\n        /* \"#utility.yul\":4256:4286   */\n      tag_317\n      jump\t// in\n    tag_425:\n        /* \"#utility.yul\":4159:4292   */\n      swap3\n      swap2\n      pop\n      pop\n      jump\t// out\n        /* \"#utility.yul\":4298:4766   */\n    tag_36:\n        /* \"#utility.yul\":4363:4369   */\n      0x00\n        /* \"#utility.yul\":4371:4377   */\n      dup1\n        /* \"#utility.yul\":4420:4422   */\n      0x40\n        /* \"#utility.yul\":4408:4417   */\n      dup4\n        /* \"#utility.yul\":4399:4406   */\n      dup6\n        /* \"#utility.yul\":4395:4418   */\n      sub\n        /* \"#utility.yul\":4391:4423   */\n      slt\n        /* \"#utility.yul\":4388:4507   */\n      iszero\n      tag_427\n      jumpi\n        /* \"#utility.yul\":4426:4505   */\n      tag_428\n      tag_301\n      jump\t// in\n    tag_428:\n        /* \"#utility.yul\":4388:4507   */\n    tag_427:\n        /* \"#utility.yul\":4546:4547   */\n      0x00\n        /* \"#utility.yul\":4571:4621   */\n      tag_429\n        /* \"#utility.yul\":4613:4620   */\n      dup6\n        /* \"#utility.yul\":4604:4610   */\n      dup3\n        /* \"#utility.yul\":4593:4602   */\n      dup7\n        /* \"#utility.yul\":4589:4611   */\n      add\n        /* \"#utility.yul\":4571:4621   */\n      tag_318\n      jump\t// in\n    tag_429:\n        /* \"#utility.yul\":4561:4621   */\n      swap3\n      pop\n        /* \"#utility.yul\":4517:4631   */\n      pop\n        /* \"#utility.yul\":4670:4672   */\n      0x20\n        /* \"#utility.yul\":4696:4749   */\n      tag_430\n        /* \"#utility.yul\":4741:4748   */\n      dup6\n        /* \"#utility.yul\":4732:4738   */\n      dup3\n        /* \"#utility.yul\":4721:4730   */\n      dup7\n        /* \"#utility.yul\":4717:4739   */\n      add\n        /* \"#utility.yul\":4696:4749   */\n      tag_305\n      jump\t// in\n    tag_430:\n        /* \"#utility.yul\":4686:4749   */\n      swap2\n      pop\n        /* \"#utility.yul\":4641:4759   */\n      pop\n        /* \"#utility.yul\":4298:4766   */\n      swap3\n      pop\n      swap3\n      swap1\n      pop\n      jump\t// out\n        /* \"#utility.yul\":4772:4890   */\n    tag_319:\n        /* \"#utility.yul\":4859:4883   */\n      tag_432\n        /* \"#utility.yul\":4877:4882   */\n      dup2\n        /* \"#utility.yul\":4859:4883   */\n      tag_307\n      jump\t// in\n    tag_432:\n        /* \"#utility.yul\":4854:4857   */\n      dup3\n        /* \"#utility.yul\":4847:4884   */\n      mstore\n        /* \"#utility.yul\":4772:4890   */\n      pop\n      pop\n      jump\t// out\n        /* \"#utility.yul\":4896:5005   */\n    tag_320:\n        /* \"#utility.yul\":4977:4998   */\n      tag_434\n        /* \"#utility.yul\":4992:4997   */\n      dup2\n        /* \"#utility.yul\":4977:4998   */\n      tag_316\n      jump\t// in\n    tag_434:\n        /* \"#utility.yul\":4972:4975   */\n      dup3\n        /* \"#utility.yul\":4965:4999   */\n      mstore\n        /* \"#utility.yul\":4896:5005   */\n      pop\n      pop\n      jump\t// out\n        /* \"#utility.yul\":5011:5129   */\n    tag_321:\n        /* \"#utility.yul\":5098:5122   */\n      tag_436\n        /* \"#utility.yul\":5116:5121   */\n      dup2\n        /* \"#utility.yul\":5098:5122   */\n      tag_303\n      jump\t// in\n    tag_436:\n        /* \"#utility.yul\":5093:5096   */\n      dup3\n        /* \"#utility.yul\":5086:5123   */\n      mstore\n        /* \"#utility.yul\":5011:5129   */\n      pop\n      pop\n      jump\t// out\n        /* \"#utility.yul\":5135:6120   */\n    tag_43:\n        /* \"#utility.yul\":5418:5422   */\n      0x00\n        /* \"#utility.yul\":5456:5459   */\n      0x0100\n        /* \"#utility.yul\":5445:5454   */\n      dup3\n        /* \"#utility.yul\":5441:5460   */\n      add\n        /* \"#utility.yul\":5433:5460   */\n      swap1\n      pop\n        /* \"#utility.yul\":5470:5541   */\n      tag_438\n        /* \"#utility.yul\":5538:5539   */\n      0x00\n        /* \"#utility.yul\":5527:5536   */\n      dup4\n        /* \"#utility.yul\":5523:5540   */\n      add\n        /* \"#utility.yul\":5514:5520   */\n      dup12\n        /* \"#utility.yul\":5470:5541   */\n      tag_319\n      jump\t// in\n    tag_438:\n        /* \"#utility.yul\":5551:5617   */\n      tag_439\n        /* \"#utility.yul\":5613:5615   */\n      0x20\n        /* \"#utility.yul\":5602:5611   */\n      dup4\n        /* \"#utility.yul\":5598:5616   */\n      add\n        /* \"#utility.yul\":5589:5595   */\n      dup11\n        /* \"#utility.yul\":5551:5617   */\n      tag_320\n      jump\t// in\n    tag_439:\n        /* \"#utility.yul\":5627:5699   */\n      tag_440\n        /* \"#utility.yul\":5695:5697   */\n      0x40\n        /* \"#utility.yul\":5684:5693   */\n      dup4\n        /* \"#utility.yul\":5680:5698   */\n      add\n        /* \"#utility.yul\":5671:5677   */\n      dup10\n        /* \"#utility.yul\":5627:5699   */\n      tag_321\n      jump\t// in\n    tag_440:\n        /* \"#utility.yul\":5709:5781   */\n      tag_441\n        /* \"#utility.yul\":5777:5779   */\n      0x60\n        /* \"#utility.yul\":5766:5775   */\n      dup4\n        /* \"#utility.yul\":5762:5780   */\n      add\n        /* \"#utility.yul\":5753:5759   */\n      dup9\n        /* \"#utility.yul\":5709:5781   */\n      tag_321\n      jump\t// in\n    tag_441:\n        /* \"#utility.yul\":5791:5864   */\n      tag_442\n        /* \"#utility.yul\":5859:5862   */\n      0x80\n        /* \"#utility.yul\":5848:5857   */\n      dup4\n        /* \"#utility.yul\":5844:5863   */\n      add\n        /* \"#utility.yul\":5835:5841   */\n      dup8\n        /* \"#utility.yul\":5791:5864   */\n      tag_321\n      jump\t// in\n    tag_442:\n        /* \"#utility.yul\":5874:5947   */\n      tag_443\n        /* \"#utility.yul\":5942:5945   */\n      0xa0\n        /* \"#utility.yul\":5931:5940   */\n      dup4\n        /* \"#utility.yul\":5927:5946   */\n      add\n        /* \"#utility.yul\":5918:5924   */\n      dup7\n        /* \"#utility.yul\":5874:5947   */\n      tag_319\n      jump\t// in\n    tag_443:\n        /* \"#utility.yul\":5957:6030   */\n      tag_444\n        /* \"#utility.yul\":6025:6028   */\n      0xc0\n        /* \"#utility.yul\":6014:6023   */\n      dup4\n        /* \"#utility.yul\":6010:6029   */\n      add\n        /* \"#utility.yul\":6001:6007   */\n      dup6\n        /* \"#utility.yul\":5957:6030   */\n      tag_321\n      jump\t// in\n    tag_444:\n        /* \"#utility.yul\":6040:6113   */\n      tag_445\n        /* \"#utility.yul\":6108:6111   */\n      0xe0\n        /* \"#utility.yul\":6097:6106   */\n      dup4\n        /* \"#utility.yul\":6093:6112   */\n      add\n        /* \"#utility.yul\":6084:6090   */\n      dup5\n        /* \"#utility.yul\":6040:6113   */\n      tag_321\n      jump\t// in\n    tag_445:\n        /* \"#utility.yul\":5135:6120   */\n      swap10\n      swap9\n      pop\n      pop\n      pop\n      pop\n      pop\n      pop\n      pop\n      pop\n      pop\n      jump\t// out\n        /* \"#utility.yul\":6126:6262   */\n    tag_322:\n        /* \"#utility.yul\":6215:6221   */\n      0x00\n        /* \"#utility.yul\":6249:6254   */\n      dup2\n        /* \"#utility.yul\":6243:6255   */\n      mload\n        /* \"#utility.yul\":6233:6255   */\n      swap1\n      pop\n        /* \"#utility.yul\":6126:6262   */\n      swap2\n      swap1\n      pop\n      jump\t// out\n        /* \"#utility.yul\":6268:6474   */\n    tag_323:\n        /* \"#utility.yul\":6389:6400   */\n      0x00\n        /* \"#utility.yul\":6423:6429   */\n      dup3\n        /* \"#utility.yul\":6418:6421   */\n      dup3\n        /* \"#utility.yul\":6411:6430   */\n      mstore\n        /* \"#utility.yul\":6463:6467   */\n      0x20\n        /* \"#utility.yul\":6458:6461   */\n      dup3\n        /* \"#utility.yul\":6454:6468   */\n      add\n        /* \"#utility.yul\":6439:6468   */\n      swap1\n      pop\n        /* \"#utility.yul\":6268:6474   */\n      swap3\n      swap2\n      pop\n      pop\n      jump\t// out\n        /* \"#utility.yul\":6480:6634   */\n    tag_324:\n        /* \"#utility.yul\":6569:6573   */\n      0x00\n        /* \"#utility.yul\":6592:6595   */\n      dup2\n        /* \"#utility.yul\":6584:6595   */\n      swap1\n      pop\n        /* \"#utility.yul\":6622:6626   */\n      0x20\n        /* \"#utility.yul\":6617:6620   */\n      dup3\n        /* \"#utility.yul\":6613:6627   */\n      add\n        /* \"#utility.yul\":6605:6627   */\n      swap1\n      pop\n        /* \"#utility.yul\":6480:6634   */\n      swap2\n      swap1\n      pop\n      jump\t// out\n        /* \"#utility.yul\":6640:6748   */\n    tag_325:\n        /* \"#utility.yul\":6717:6741   */\n      tag_450\n        /* \"#utility.yul\":6735:6740   */\n      dup2\n        /* \"#utility.yul\":6717:6741   */\n      tag_307\n      jump\t// in\n    tag_450:\n        /* \"#utility.yul\":6712:6715   */\n      dup3\n        /* \"#utility.yul\":6705:6742   */\n      mstore\n        /* \"#utility.yul\":6640:6748   */\n      pop\n      pop\n      jump\t// out\n        /* \"#utility.yul\":6754:6853   */\n    tag_326:\n        /* \"#utility.yul\":6825:6846   */\n      tag_452\n        /* \"#utility.yul\":6840:6845   */\n      dup2\n        /* \"#utility.yul\":6825:6846   */\n      tag_316\n      jump\t// in\n    tag_452:\n        /* \"#utility.yul\":6820:6823   */\n      dup3\n        /* \"#utility.yul\":6813:6847   */\n      mstore\n        /* \"#utility.yul\":6754:6853   */\n      pop\n      pop\n      jump\t// out\n        /* \"#utility.yul\":6859:6967   */\n    tag_327:\n        /* \"#utility.yul\":6936:6960   */\n      tag_454\n        /* \"#utility.yul\":6954:6959   */\n      dup2\n        /* \"#utility.yul\":6936:6960   */\n      tag_303\n      jump\t// in\n    tag_454:\n        /* \"#utility.yul\":6931:6934   */\n      dup3\n        /* \"#utility.yul\":6924:6961   */\n      mstore\n        /* \"#utility.yul\":6859:6967   */\n      pop\n      pop\n      jump\t// out\n        /* \"#utility.yul\":7023:8588   */\n    tag_328:\n        /* \"#utility.yul\":7154:7160   */\n      0x0100\n        /* \"#utility.yul\":7149:7152   */\n      dup3\n        /* \"#utility.yul\":7145:7161   */\n      add\n        /* \"#utility.yul\":7245:7249   */\n      0x00\n        /* \"#utility.yul\":7238:7243   */\n      dup3\n        /* \"#utility.yul\":7234:7250   */\n      add\n        /* \"#utility.yul\":7228:7251   */\n      mload\n        /* \"#utility.yul\":7264:7327   */\n      tag_456\n        /* \"#utility.yul\":7321:7325   */\n      0x00\n        /* \"#utility.yul\":7316:7319   */\n      dup6\n        /* \"#utility.yul\":7312:7326   */\n      add\n        /* \"#utility.yul\":7298:7310   */\n      dup3\n        /* \"#utility.yul\":7264:7327   */\n      tag_325\n      jump\t// in\n    tag_456:\n        /* \"#utility.yul\":7171:7337   */\n      pop\n        /* \"#utility.yul\":7424:7428   */\n      0x20\n        /* \"#utility.yul\":7417:7422   */\n      dup3\n        /* \"#utility.yul\":7413:7429   */\n      add\n        /* \"#utility.yul\":7407:7430   */\n      mload\n        /* \"#utility.yul\":7443:7500   */\n      tag_457\n        /* \"#utility.yul\":7494:7498   */\n      0x20\n        /* \"#utility.yul\":7489:7492   */\n      dup6\n        /* \"#utility.yul\":7485:7499   */\n      add\n        /* \"#utility.yul\":7471:7483   */\n      dup3\n        /* \"#utility.yul\":7443:7500   */\n      tag_326\n      jump\t// in\n    tag_457:\n        /* \"#utility.yul\":7347:7510   */\n      pop\n        /* \"#utility.yul\":7597:7601   */\n      0x40\n        /* \"#utility.yul\":7590:7595   */\n      dup3\n        /* \"#utility.yul\":7586:7602   */\n      add\n        /* \"#utility.yul\":7580:7603   */\n      mload\n        /* \"#utility.yul\":7616:7679   */\n      tag_458\n        /* \"#utility.yul\":7673:7677   */\n      0x40\n        /* \"#utility.yul\":7668:7671   */\n      dup6\n        /* \"#utility.yul\":7664:7678   */\n      add\n        /* \"#utility.yul\":7650:7662   */\n      dup3\n        /* \"#utility.yul\":7616:7679   */\n      tag_327\n      jump\t// in\n    tag_458:\n        /* \"#utility.yul\":7520:7689   */\n      pop\n        /* \"#utility.yul\":7774:7778   */\n      0x60\n        /* \"#utility.yul\":7767:7772   */\n      dup3\n        /* \"#utility.yul\":7763:7779   */\n      add\n        /* \"#utility.yul\":7757:7780   */\n      mload\n        /* \"#utility.yul\":7793:7856   */\n      tag_459\n        /* \"#utility.yul\":7850:7854   */\n      0x60\n        /* \"#utility.yul\":7845:7848   */\n      dup6\n        /* \"#utility.yul\":7841:7855   */\n      add\n        /* \"#utility.yul\":7827:7839   */\n      dup3\n        /* \"#utility.yul\":7793:7856   */\n      tag_327\n      jump\t// in\n    tag_459:\n        /* \"#utility.yul\":7699:7866   */\n      pop\n        /* \"#utility.yul\":7954:7958   */\n      0x80\n        /* \"#utility.yul\":7947:7952   */\n      dup3\n        /* \"#utility.yul\":7943:7959   */\n      add\n        /* \"#utility.yul\":7937:7960   */\n      mload\n        /* \"#utility.yul\":7973:8036   */\n      tag_460\n        /* \"#utility.yul\":8030:8034   */\n      0x80\n        /* \"#utility.yul\":8025:8028   */\n      dup6\n        /* \"#utility.yul\":8021:8035   */\n      add\n        /* \"#utility.yul\":8007:8019   */\n      dup3\n        /* \"#utility.yul\":7973:8036   */\n      tag_327\n      jump\t// in\n    tag_460:\n        /* \"#utility.yul\":7876:8046   */\n      pop\n        /* \"#utility.yul\":8137:8141   */\n      0xa0\n        /* \"#utility.yul\":8130:8135   */\n      dup3\n        /* \"#utility.yul\":8126:8142   */\n      add\n        /* \"#utility.yul\":8120:8143   */\n      mload\n        /* \"#utility.yul\":8156:8219   */\n      tag_461\n        /* \"#utility.yul\":8213:8217   */\n      0xa0\n        /* \"#utility.yul\":8208:8211   */\n      dup6\n        /* \"#utility.yul\":8204:8218   */\n      add\n        /* \"#utility.yul\":8190:8202   */\n      dup3\n        /* \"#utility.yul\":8156:8219   */\n      tag_325\n      jump\t// in\n    tag_461:\n        /* \"#utility.yul\":8056:8229   */\n      pop\n        /* \"#utility.yul\":8314:8318   */\n      0xc0\n        /* \"#utility.yul\":8307:8312   */\n      dup3\n        /* \"#utility.yul\":8303:8319   */\n      add\n        /* \"#utility.yul\":8297:8320   */\n      mload\n        /* \"#utility.yul\":8333:8396   */\n      tag_462\n        /* \"#utility.yul\":8390:8394   */\n      0xc0\n        /* \"#utility.yul\":8385:8388   */\n      dup6\n        /* \"#utility.yul\":8381:8395   */\n      add\n        /* \"#utility.yul\":8367:8379   */\n      dup3\n        /* \"#utility.yul\":8333:8396   */\n      tag_327\n      jump\t// in\n    tag_462:\n        /* \"#utility.yul\":8239:8406   */\n      pop\n        /* \"#utility.yul\":8489:8493   */\n      0xe0\n        /* \"#utility.yul\":8482:8487   */\n      dup3\n        /* \"#utility.yul\":8478:8494   */\n      add\n        /* \"#utility.yul\":8472:8495   */\n      mload\n        /* \"#utility.yul\":8508:8571   */\n      tag_463\n        /* \"#utility.yul\":8565:8569   */\n      0xe0\n        /* \"#utility.yul\":8560:8563   */\n      dup6\n        /* \"#utility.yul\":8556:8570   */\n      add\n        /* \"#utility.yul\":8542:8554   */\n      dup3\n        /* \"#utility.yul\":8508:8571   */\n      tag_327\n      jump\t// in\n    tag_463:\n        /* \"#utility.yul\":8416:8581   */\n      pop\n        /* \"#utility.yul\":7123:8588   */\n      pop\n        /* \"#utility.yul\":7023:8588   */\n      pop\n      pop\n      jump\t// out\n        /* \"#utility.yul\":8594:8863   */\n    tag_329:\n        /* \"#utility.yul\":8707:8717   */\n      0x00\n        /* \"#utility.yul\":8728:8818   */\n      tag_465\n        /* \"#utility.yul\":8814:8817   */\n      dup4\n        /* \"#utility.yul\":8806:8812   */\n      dup4\n        /* \"#utility.yul\":8728:8818   */\n      tag_328\n      jump\t// in\n    tag_465:\n        /* \"#utility.yul\":8850:8856   */\n      0x0100\n        /* \"#utility.yul\":8845:8848   */\n      dup4\n        /* \"#utility.yul\":8841:8857   */\n      add\n        /* \"#utility.yul\":8827:8857   */\n      swap1\n      pop\n        /* \"#utility.yul\":8594:8863   */\n      swap3\n      swap2\n      pop\n      pop\n      jump\t// out\n        /* \"#utility.yul\":8869:9004   */\n    tag_330:\n        /* \"#utility.yul\":8961:8965   */\n      0x00\n        /* \"#utility.yul\":8993:8997   */\n      0x20\n        /* \"#utility.yul\":8988:8991   */\n      dup3\n        /* \"#utility.yul\":8984:8998   */\n      add\n        /* \"#utility.yul\":8976:8998   */\n      swap1\n      pop\n        /* \"#utility.yul\":8869:9004   */\n      swap2\n      swap1\n      pop\n      jump\t// out\n        /* \"#utility.yul\":9064:9972   */\n    tag_331:\n        /* \"#utility.yul\":9227:9230   */\n      0x00\n        /* \"#utility.yul\":9256:9332   */\n      tag_468\n        /* \"#utility.yul\":9326:9331   */\n      dup3\n        /* \"#utility.yul\":9256:9332   */\n      tag_322\n      jump\t// in\n    tag_468:\n        /* \"#utility.yul\":9348:9456   */\n      tag_469\n        /* \"#utility.yul\":9449:9455   */\n      dup2\n        /* \"#utility.yul\":9444:9447   */\n      dup6\n        /* \"#utility.yul\":9348:9456   */\n      tag_323\n      jump\t// in\n    tag_469:\n        /* \"#utility.yul\":9341:9456   */\n      swap4\n      pop\n        /* \"#utility.yul\":9480:9558   */\n      tag_470\n        /* \"#utility.yul\":9552:9557   */\n      dup4\n        /* \"#utility.yul\":9480:9558   */\n      tag_324\n      jump\t// in\n    tag_470:\n        /* \"#utility.yul\":9581:9588   */\n      dup1\n        /* \"#utility.yul\":9612:9613   */\n      0x00\n        /* \"#utility.yul\":9597:9947   */\n    tag_471:\n        /* \"#utility.yul\":9622:9628   */\n      dup4\n        /* \"#utility.yul\":9619:9620   */\n      dup2\n        /* \"#utility.yul\":9616:9629   */\n      lt\n        /* \"#utility.yul\":9597:9947   */\n      iszero\n      tag_473\n      jumpi\n        /* \"#utility.yul\":9698:9704   */\n      dup2\n        /* \"#utility.yul\":9692:9705   */\n      mload\n        /* \"#utility.yul\":9725:9832   */\n      tag_474\n        /* \"#utility.yul\":9828:9831   */\n      dup9\n        /* \"#utility.yul\":9813:9826   */\n      dup3\n        /* \"#utility.yul\":9725:9832   */\n      tag_329\n      jump\t// in\n    tag_474:\n        /* \"#utility.yul\":9718:9832   */\n      swap8\n      pop\n        /* \"#utility.yul\":9855:9937   */\n      tag_475\n        /* \"#utility.yul\":9930:9936   */\n      dup4\n        /* \"#utility.yul\":9855:9937   */\n      tag_330\n      jump\t// in\n    tag_475:\n        /* \"#utility.yul\":9845:9937   */\n      swap3\n      pop\n        /* \"#utility.yul\":9657:9947   */\n      pop\n        /* \"#utility.yul\":9644:9645   */\n      0x01\n        /* \"#utility.yul\":9641:9642   */\n      dup2\n        /* \"#utility.yul\":9637:9646   */\n      add\n        /* \"#utility.yul\":9632:9646   */\n      swap1\n      pop\n        /* \"#utility.yul\":9597:9947   */\n      jump(tag_471)\n    tag_473:\n        /* \"#utility.yul\":9601:9615   */\n      pop\n        /* \"#utility.yul\":9963:9966   */\n      dup6\n        /* \"#utility.yul\":9956:9966   */\n      swap4\n      pop\n        /* \"#utility.yul\":9232:9972   */\n      pop\n      pop\n      pop\n        /* \"#utility.yul\":9064:9972   */\n      swap3\n      swap2\n      pop\n      pop\n      jump\t// out\n        /* \"#utility.yul\":9978:10439   */\n    tag_52:\n        /* \"#utility.yul\":10165:10169   */\n      0x00\n        /* \"#utility.yul\":10203:10205   */\n      0x20\n        /* \"#utility.yul\":10192:10201   */\n      dup3\n        /* \"#utility.yul\":10188:10206   */\n      add\n        /* \"#utility.yul\":10180:10206   */\n      swap1\n      pop\n        /* \"#utility.yul\":10252:10261   */\n      dup2\n        /* \"#utility.yul\":10246:10250   */\n      dup2\n        /* \"#utility.yul\":10242:10262   */\n      sub\n        /* \"#utility.yul\":10238:10239   */\n      0x00\n        /* \"#utility.yul\":10227:10236   */\n      dup4\n        /* \"#utility.yul\":10223:10240   */\n      add\n        /* \"#utility.yul\":10216:10263   */\n      mstore\n        /* \"#utility.yul\":10280:10432   */\n      tag_477\n        /* \"#utility.yul\":10427:10431   */\n      dup2\n        /* \"#utility.yul\":10418:10424   */\n      dup5\n        /* \"#utility.yul\":10280:10432   */\n      tag_331\n      jump\t// in\n    tag_477:\n        /* \"#utility.yul\":10272:10432   */\n      swap1\n      pop\n        /* \"#utility.yul\":9978:10439   */\n      swap3\n      swap2\n      pop\n      pop\n      jump\t// out\n        /* \"#utility.yul\":10445:10505   */\n    tag_332:\n        /* \"#utility.yul\":10473:10476   */\n      0x00\n        /* \"#utility.yul\":10494:10499   */\n      dup2\n        /* \"#utility.yul\":10487:10499   */\n      swap1\n      pop\n        /* \"#utility.yul\":10445:10505   */\n      swap2\n      swap1\n      pop\n      jump\t// out\n        /* \"#utility.yul\":10511:10653   */\n    tag_333:\n        /* \"#utility.yul\":10561:10570   */\n      0x00\n        /* \"#utility.yul\":10594:10647   */\n      tag_480\n        /* \"#utility.yul\":10612:10646   */\n      tag_481\n        /* \"#utility.yul\":10621:10645   */\n      tag_482\n        /* \"#utility.yul\":10639:10644   */\n      dup5\n        /* \"#utility.yul\":10621:10645   */\n      tag_306\n      jump\t// in\n    tag_482:\n        /* \"#utility.yul\":10612:10646   */\n      tag_332\n      jump\t// in\n    tag_481:\n        /* \"#utility.yul\":10594:10647   */\n      tag_306\n      jump\t// in\n    tag_480:\n        /* \"#utility.yul\":10581:10647   */\n      swap1\n      pop\n        /* \"#utility.yul\":10511:10653   */\n      swap2\n      swap1\n      pop\n      jump\t// out\n        /* \"#utility.yul\":10659:10785   */\n    tag_334:\n        /* \"#utility.yul\":10709:10718   */\n      0x00\n        /* \"#utility.yul\":10742:10779   */\n      tag_484\n        /* \"#utility.yul\":10773:10778   */\n      dup3\n        /* \"#utility.yul\":10742:10779   */\n      tag_333\n      jump\t// in\n    tag_484:\n        /* \"#utility.yul\":10729:10779   */\n      swap1\n      pop\n        /* \"#utility.yul\":10659:10785   */\n      swap2\n      swap1\n      pop\n      jump\t// out\n        /* \"#utility.yul\":10791:10930   */\n    tag_335:\n        /* \"#utility.yul\":10854:10863   */\n      0x00\n        /* \"#utility.yul\":10887:10924   */\n      tag_486\n        /* \"#utility.yul\":10918:10923   */\n      dup3\n        /* \"#utility.yul\":10887:10924   */\n      tag_334\n      jump\t// in\n    tag_486:\n        /* \"#utility.yul\":10874:10924   */\n      swap1\n      pop\n        /* \"#utility.yul\":10791:10930   */\n      swap2\n      swap1\n      pop\n      jump\t// out\n        /* \"#utility.yul\":10936:11093   */\n    tag_336:\n        /* \"#utility.yul\":11036:11086   */\n      tag_488\n        /* \"#utility.yul\":11080:11085   */\n      dup2\n        /* \"#utility.yul\":11036:11086   */\n      tag_335\n      jump\t// in\n    tag_488:\n        /* \"#utility.yul\":11031:11034   */\n      dup3\n        /* \"#utility.yul\":11024:11087   */\n      mstore\n        /* \"#utility.yul\":10936:11093   */\n      pop\n      pop\n      jump\t// out\n        /* \"#utility.yul\":11099:11347   */\n    tag_57:\n        /* \"#utility.yul\":11205:11209   */\n      0x00\n        /* \"#utility.yul\":11243:11245   */\n      0x20\n        /* \"#utility.yul\":11232:11241   */\n      dup3\n        /* \"#utility.yul\":11228:11246   */\n      add\n        /* \"#utility.yul\":11220:11246   */\n      swap1\n      pop\n        /* \"#utility.yul\":11256:11340   */\n      tag_490\n        /* \"#utility.yul\":11337:11338   */\n      0x00\n        /* \"#utility.yul\":11326:11335   */\n      dup4\n        /* \"#utility.yul\":11322:11339   */\n      add\n        /* \"#utility.yul\":11313:11319   */\n      dup5\n        /* \"#utility.yul\":11256:11340   */\n      tag_336\n      jump\t// in\n    tag_490:\n        /* \"#utility.yul\":11099:11347   */\n      swap3\n      swap2\n      pop\n      pop\n      jump\t// out\n        /* \"#utility.yul\":11353:11575   */\n    tag_62:\n        /* \"#utility.yul\":11446:11450   */\n      0x00\n        /* \"#utility.yul\":11484:11486   */\n      0x20\n        /* \"#utility.yul\":11473:11482   */\n      dup3\n        /* \"#utility.yul\":11469:11487   */\n      add\n        /* \"#utility.yul\":11461:11487   */\n      swap1\n      pop\n        /* \"#utility.yul\":11497:11568   */\n      tag_492\n        /* \"#utility.yul\":11565:11566   */\n      0x00\n        /* \"#utility.yul\":11554:11563   */\n      dup4\n        /* \"#utility.yul\":11550:11567   */\n      add\n        /* \"#utility.yul\":11541:11547   */\n      dup5\n        /* \"#utility.yul\":11497:11568   */\n      tag_321\n      jump\t// in\n    tag_492:\n        /* \"#utility.yul\":11353:11575   */\n      swap3\n      swap2\n      pop\n      pop\n      jump\t// out\n        /* \"#utility.yul\":11581:12055   */\n    tag_71:\n        /* \"#utility.yul\":11649:11655   */\n      0x00\n        /* \"#utility.yul\":11657:11663   */\n      dup1\n        /* \"#utility.yul\":11706:11708   */\n      0x40\n        /* \"#utility.yul\":11694:11703   */\n      dup4\n        /* \"#utility.yul\":11685:11692   */\n      dup6\n        /* \"#utility.yul\":11681:11704   */\n      sub\n        /* \"#utility.yul\":11677:11709   */\n      slt\n        /* \"#utility.yul\":11674:11793   */\n      iszero\n      tag_494\n      jumpi\n        /* \"#utility.yul\":11712:11791   */\n      tag_495\n      tag_301\n      jump\t// in\n    tag_495:\n        /* \"#utility.yul\":11674:11793   */\n    tag_494:\n        /* \"#utility.yul\":11832:11833   */\n      0x00\n        /* \"#utility.yul\":11857:11910   */\n      tag_496\n        /* \"#utility.yul\":11902:11909   */\n      dup6\n        /* \"#utility.yul\":11893:11899   */\n      dup3\n        /* \"#utility.yul\":11882:11891   */\n      dup7\n        /* \"#utility.yul\":11878:11900   */\n      add\n        /* \"#utility.yul\":11857:11910   */\n      tag_305\n      jump\t// in\n    tag_496:\n        /* \"#utility.yul\":11847:11910   */\n      swap3\n      pop\n        /* \"#utility.yul\":11803:11920   */\n      pop\n        /* \"#utility.yul\":11959:11961   */\n      0x20\n        /* \"#utility.yul\":11985:12038   */\n      tag_497\n        /* \"#utility.yul\":12030:12037   */\n      dup6\n        /* \"#utility.yul\":12021:12027   */\n      dup3\n        /* \"#utility.yul\":12010:12019   */\n      dup7\n        /* \"#utility.yul\":12006:12028   */\n      add\n        /* \"#utility.yul\":11985:12038   */\n      tag_305\n      jump\t// in\n    tag_497:\n        /* \"#utility.yul\":11975:12038   */\n      swap2\n      pop\n        /* \"#utility.yul\":11930:12048   */\n      pop\n        /* \"#utility.yul\":11581:12055   */\n      swap3\n      pop\n      swap3\n      swap1\n      pop\n      jump\t// out\n        /* \"#utility.yul\":12061:12178   */\n    tag_337:\n        /* \"#utility.yul\":12170:12171   */\n      0x00\n        /* \"#utility.yul\":12167:12168   */\n      dup1\n        /* \"#utility.yul\":12160:12172   */\n      revert\n        /* \"#utility.yul\":12184:12286   */\n    tag_338:\n        /* \"#utility.yul\":12225:12231   */\n      0x00\n        /* \"#utility.yul\":12276:12278   */\n      0x1f\n        /* \"#utility.yul\":12272:12279   */\n      not\n        /* \"#utility.yul\":12267:12269   */\n      0x1f\n        /* \"#utility.yul\":12260:12265   */\n      dup4\n        /* \"#utility.yul\":12256:12270   */\n      add\n        /* \"#utility.yul\":12252:12280   */\n      and\n        /* \"#utility.yul\":12242:12280   */\n      swap1\n      pop\n        /* \"#utility.yul\":12184:12286   */\n      swap2\n      swap1\n      pop\n      jump\t// out\n        /* \"#utility.yul\":12292:12472   */\n    tag_164:\n        /* \"#utility.yul\":12340:12417   */\n      0x4e487b7100000000000000000000000000000000000000000000000000000000\n        /* \"#utility.yul\":12337:12338   */\n      0x00\n        /* \"#utility.yul\":12330:12418   */\n      mstore\n        /* \"#utility.yul\":12437:12441   */\n      0x41\n        /* \"#utility.yul\":12434:12435   */\n      0x04\n        /* \"#utility.yul\":12427:12442   */\n      mstore\n        /* \"#utility.yul\":12461:12465   */\n      0x24\n        /* \"#utility.yul\":12458:12459   */\n      0x00\n        /* \"#utility.yul\":12451:12466   */\n      revert\n        /* \"#utility.yul\":12478:12759   */\n    tag_339:\n        /* \"#utility.yul\":12561:12588   */\n      tag_502\n        /* \"#utility.yul\":12583:12587   */\n      dup3\n        /* \"#utility.yul\":12561:12588   */\n      tag_338\n      jump\t// in\n    tag_502:\n        /* \"#utility.yul\":12553:12559   */\n      dup2\n        /* \"#utility.yul\":12549:12589   */\n      add\n        /* \"#utility.yul\":12691:12697   */\n      dup2\n        /* \"#utility.yul\":12679:12689   */\n      dup2\n        /* \"#utility.yul\":12676:12698   */\n      lt\n        /* \"#utility.yul\":12655:12673   */\n      0xffffffffffffffff\n        /* \"#utility.yul\":12643:12653   */\n      dup3\n        /* \"#utility.yul\":12640:12674   */\n      gt\n        /* \"#utility.yul\":12637:12699   */\n      or\n        /* \"#utility.yul\":12634:12722   */\n      iszero\n      tag_503\n      jumpi\n        /* \"#utility.yul\":12702:12720   */\n      tag_504\n      tag_164\n      jump\t// in\n    tag_504:\n        /* \"#utility.yul\":12634:12722   */\n    tag_503:\n        /* \"#utility.yul\":12742:12752   */\n      dup1\n        /* \"#utility.yul\":12738:12740   */\n      0x40\n        /* \"#utility.yul\":12731:12753   */\n      mstore\n        /* \"#utility.yul\":12521:12759   */\n      pop\n        /* \"#utility.yul\":12478:12759   */\n      pop\n      pop\n      jump\t// out\n        /* \"#utility.yul\":12765:12894   */\n    tag_340:\n        /* \"#utility.yul\":12799:12805   */\n      0x00\n        /* \"#utility.yul\":12826:12846   */\n      tag_506\n      tag_300\n      jump\t// in\n    tag_506:\n        /* \"#utility.yul\":12816:12846   */\n      swap1\n      pop\n        /* \"#utility.yul\":12855:12888   */\n      tag_507\n        /* \"#utility.yul\":12883:12887   */\n      dup3\n        /* \"#utility.yul\":12875:12881   */\n      dup3\n        /* \"#utility.yul\":12855:12888   */\n      tag_339\n      jump\t// in\n    tag_507:\n        /* \"#utility.yul\":12765:12894   */\n      swap2\n      swap1\n      pop\n      jump\t// out\n        /* \"#utility.yul\":12900:13207   */\n    tag_341:\n        /* \"#utility.yul\":12961:12965   */\n      0x00\n        /* \"#utility.yul\":13051:13069   */\n      0xffffffffffffffff\n        /* \"#utility.yul\":13043:13049   */\n      dup3\n        /* \"#utility.yul\":13040:13070   */\n      gt\n        /* \"#utility.yul\":13037:13093   */\n      iszero\n      tag_509\n      jumpi\n        /* \"#utility.yul\":13073:13091   */\n      tag_510\n      tag_164\n      jump\t// in\n    tag_510:\n        /* \"#utility.yul\":13037:13093   */\n    tag_509:\n        /* \"#utility.yul\":13111:13140   */\n      tag_511\n        /* \"#utility.yul\":13133:13139   */\n      dup3\n        /* \"#utility.yul\":13111:13140   */\n      tag_338\n      jump\t// in\n    tag_511:\n        /* \"#utility.yul\":13103:13140   */\n      swap1\n      pop\n        /* \"#utility.yul\":13195:13199   */\n      0x20\n        /* \"#utility.yul\":13189:13193   */\n      dup2\n        /* \"#utility.yul\":13185:13200   */\n      add\n        /* \"#utility.yul\":13177:13200   */\n      swap1\n      pop\n        /* \"#utility.yul\":12900:13207   */\n      swap2\n      swap1\n      pop\n      jump\t// out\n        /* \"#utility.yul\":13213:13359   */\n    tag_342:\n        /* \"#utility.yul\":13310:13316   */\n      dup3\n        /* \"#utility.yul\":13305:13308   */\n      dup2\n        /* \"#utility.yul\":13300:13303   */\n      dup4\n        /* \"#utility.yul\":13287:13317   */\n      calldatacopy\n        /* \"#utility.yul\":13351:13352   */\n      0x00\n        /* \"#utility.yul\":13342:13348   */\n      dup4\n        /* \"#utility.yul\":13337:13340   */\n      dup4\n        /* \"#utility.yul\":13333:13349   */\n      add\n        /* \"#utility.yul\":13326:13353   */\n      mstore\n        /* \"#utility.yul\":13213:13359   */\n      pop\n      pop\n      pop\n      jump\t// out\n        /* \"#utility.yul\":13365:13788   */\n    tag_343:\n        /* \"#utility.yul\":13442:13447   */\n      0x00\n        /* \"#utility.yul\":13467:13532   */\n      tag_514\n        /* \"#utility.yul\":13483:13531   */\n      tag_515\n        /* \"#utility.yul\":13524:13530   */\n      dup5\n        /* \"#utility.yul\":13483:13531   */\n      tag_341\n      jump\t// in\n    tag_515:\n        /* \"#utility.yul\":13467:13532   */\n      tag_340\n      jump\t// in\n    tag_514:\n        /* \"#utility.yul\":13458:13532   */\n      swap1\n      pop\n        /* \"#utility.yul\":13555:13561   */\n      dup3\n        /* \"#utility.yul\":13548:13553   */\n      dup2\n        /* \"#utility.yul\":13541:13562   */\n      mstore\n        /* \"#utility.yul\":13593:13597   */\n      0x20\n        /* \"#utility.yul\":13586:13591   */\n      dup2\n        /* \"#utility.yul\":13582:13598   */\n      add\n        /* \"#utility.yul\":13631:13634   */\n      dup5\n        /* \"#utility.yul\":13622:13628   */\n      dup5\n        /* \"#utility.yul\":13617:13620   */\n      dup5\n        /* \"#utility.yul\":13613:13629   */\n      add\n        /* \"#utility.yul\":13610:13635   */\n      gt\n        /* \"#utility.yul\":13607:13719   */\n      iszero\n      tag_516\n      jumpi\n        /* \"#utility.yul\":13638:13717   */\n      tag_517\n      tag_337\n      jump\t// in\n    tag_517:\n        /* \"#utility.yul\":13607:13719   */\n    tag_516:\n        /* \"#utility.yul\":13728:13782   */\n      tag_518\n        /* \"#utility.yul\":13775:13781   */\n      dup5\n        /* \"#utility.yul\":13770:13773   */\n      dup3\n        /* \"#utility.yul\":13765:13768   */\n      dup6\n        /* \"#utility.yul\":13728:13782   */\n      tag_342\n      jump\t// in\n    tag_518:\n        /* \"#utility.yul\":13448:13788   */\n      pop\n        /* \"#utility.yul\":13365:13788   */\n      swap4\n      swap3\n      pop\n      pop\n      pop\n      jump\t// out\n        /* \"#utility.yul\":13807:14145   */\n    tag_344:\n        /* \"#utility.yul\":13862:13867   */\n      0x00\n        /* \"#utility.yul\":13911:13914   */\n      dup3\n        /* \"#utility.yul\":13904:13908   */\n      0x1f\n        /* \"#utility.yul\":13896:13902   */\n      dup4\n        /* \"#utility.yul\":13892:13909   */\n      add\n        /* \"#utility.yul\":13888:13915   */\n      slt\n        /* \"#utility.yul\":13878:14000   */\n      tag_520\n      jumpi\n        /* \"#utility.yul\":13919:13998   */\n      tag_521\n      tag_310\n      jump\t// in\n    tag_521:\n        /* \"#utility.yul\":13878:14000   */\n    tag_520:\n        /* \"#utility.yul\":14036:14042   */\n      dup2\n        /* \"#utility.yul\":14023:14043   */\n      calldataload\n        /* \"#utility.yul\":14061:14139   */\n      tag_522\n        /* \"#utility.yul\":14135:14138   */\n      dup5\n        /* \"#utility.yul\":14127:14133   */\n      dup3\n        /* \"#utility.yul\":14120:14124   */\n      0x20\n        /* \"#utility.yul\":14112:14118   */\n      dup7\n        /* \"#utility.yul\":14108:14125   */\n      add\n        /* \"#utility.yul\":14061:14139   */\n      tag_343\n      jump\t// in\n    tag_522:\n        /* \"#utility.yul\":14052:14139   */\n      swap2\n      pop\n        /* \"#utility.yul\":13868:14145   */\n      pop\n        /* \"#utility.yul\":13807:14145   */\n      swap3\n      swap2\n      pop\n      pop\n      jump\t// out\n        /* \"#utility.yul\":14151:14803   */\n    tag_76:\n        /* \"#utility.yul\":14228:14234   */\n      0x00\n        /* \"#utility.yul\":14236:14242   */\n      dup1\n        /* \"#utility.yul\":14285:14287   */\n      0x40\n        /* \"#utility.yul\":14273:14282   */\n      dup4\n        /* \"#utility.yul\":14264:14271   */\n      dup6\n        /* \"#utility.yul\":14260:14283   */\n      sub\n        /* \"#utility.yul\":14256:14288   */\n      slt\n        /* \"#utility.yul\":14253:14372   */\n      iszero\n      tag_524\n      jumpi\n        /* \"#utility.yul\":14291:14370   */\n      tag_525\n      tag_301\n      jump\t// in\n    tag_525:\n        /* \"#utility.yul\":14253:14372   */\n    tag_524:\n        /* \"#utility.yul\":14439:14440   */\n      0x00\n        /* \"#utility.yul\":14428:14437   */\n      dup4\n        /* \"#utility.yul\":14424:14441   */\n      add\n        /* \"#utility.yul\":14411:14442   */\n      calldataload\n        /* \"#utility.yul\":14469:14487   */\n      0xffffffffffffffff\n        /* \"#utility.yul\":14461:14467   */\n      dup2\n        /* \"#utility.yul\":14458:14488   */\n      gt\n        /* \"#utility.yul\":14455:14572   */\n      iszero\n      tag_526\n      jumpi\n        /* \"#utility.yul\":14491:14570   */\n      tag_527\n      tag_302\n      jump\t// in\n    tag_527:\n        /* \"#utility.yul\":14455:14572   */\n    tag_526:\n        /* \"#utility.yul\":14596:14658   */\n      tag_528\n        /* \"#utility.yul\":14650:14657   */\n      dup6\n        /* \"#utility.yul\":14641:14647   */\n      dup3\n        /* \"#utility.yul\":14630:14639   */\n      dup7\n        /* \"#utility.yul\":14626:14648   */\n      add\n        /* \"#utility.yul\":14596:14658   */\n      tag_344\n      jump\t// in\n    tag_528:\n        /* \"#utility.yul\":14586:14658   */\n      swap3\n      pop\n        /* \"#utility.yul\":14382:14668   */\n      pop\n        /* \"#utility.yul\":14707:14709   */\n      0x20\n        /* \"#utility.yul\":14733:14786   */\n      tag_529\n        /* \"#utility.yul\":14778:14785   */\n      dup6\n        /* \"#utility.yul\":14769:14775   */\n      dup3\n        /* \"#utility.yul\":14758:14767   */\n      dup7\n        /* \"#utility.yul\":14754:14776   */\n      add\n        /* \"#utility.yul\":14733:14786   */\n      tag_305\n      jump\t// in\n    tag_529:\n        /* \"#utility.yul\":14723:14786   */\n      swap2\n      pop\n        /* \"#utility.yul\":14678:14796   */\n      pop\n        /* \"#utility.yul\":14151:14803   */\n      swap3\n      pop\n      swap3\n      swap1\n      pop\n      jump\t// out\n        /* \"#utility.yul\":14809:14950   */\n    tag_345:\n        /* \"#utility.yul\":14874:14883   */\n      0x00\n        /* \"#utility.yul\":14907:14944   */\n      tag_531\n        /* \"#utility.yul\":14938:14943   */\n      dup3\n        /* \"#utility.yul\":14907:14944   */\n      tag_334\n      jump\t// in\n    tag_531:\n        /* \"#utility.yul\":14894:14944   */\n      swap1\n      pop\n        /* \"#utility.yul\":14809:14950   */\n      swap2\n      swap1\n      pop\n      jump\t// out\n        /* \"#utility.yul\":14956:15117   */\n    tag_346:\n        /* \"#utility.yul\":15058:15110   */\n      tag_533\n        /* \"#utility.yul\":15104:15109   */\n      dup2\n        /* \"#utility.yul\":15058:15110   */\n      tag_345\n      jump\t// in\n    tag_533:\n        /* \"#utility.yul\":15053:15056   */\n      dup3\n        /* \"#utility.yul\":15046:15111   */\n      mstore\n        /* \"#utility.yul\":14956:15117   */\n      pop\n      pop\n      jump\t// out\n        /* \"#utility.yul\":15123:15375   */\n    tag_83:\n        /* \"#utility.yul\":15231:15235   */\n      0x00\n        /* \"#utility.yul\":15269:15271   */\n      0x20\n        /* \"#utility.yul\":15258:15267   */\n      dup3\n        /* \"#utility.yul\":15254:15272   */\n      add\n        /* \"#utility.yul\":15246:15272   */\n      swap1\n      pop\n        /* \"#utility.yul\":15282:15368   */\n      tag_535\n        /* \"#utility.yul\":15365:15366   */\n      0x00\n        /* \"#utility.yul\":15354:15363   */\n      dup4\n        /* \"#utility.yul\":15350:15367   */\n      add\n        /* \"#utility.yul\":15341:15347   */\n      dup5\n        /* \"#utility.yul\":15282:15368   */\n      tag_346\n      jump\t// in\n    tag_535:\n        /* \"#utility.yul\":15123:15375   */\n      swap3\n      swap2\n      pop\n      pop\n      jump\t// out\n        /* \"#utility.yul\":15381:15591   */\n    tag_106:\n        /* \"#utility.yul\":15468:15472   */\n      0x00\n        /* \"#utility.yul\":15506:15508   */\n      0x20\n        /* \"#utility.yul\":15495:15504   */\n      dup3\n        /* \"#utility.yul\":15491:15509   */\n      add\n        /* \"#utility.yul\":15483:15509   */\n      swap1\n      pop\n        /* \"#utility.yul\":15519:15584   */\n      tag_537\n        /* \"#utility.yul\":15581:15582   */\n      0x00\n        /* \"#utility.yul\":15570:15579   */\n      dup4\n        /* \"#utility.yul\":15566:15583   */\n      add\n        /* \"#utility.yul\":15557:15563   */\n      dup5\n        /* \"#utility.yul\":15519:15584   */\n      tag_320\n      jump\t// in\n    tag_537:\n        /* \"#utility.yul\":15381:15591   */\n      swap3\n      swap2\n      pop\n      pop\n      jump\t// out\n        /* \"#utility.yul\":15597:15766   */\n    tag_347:\n        /* \"#utility.yul\":15681:15692   */\n      0x00\n        /* \"#utility.yul\":15715:15721   */\n      dup3\n        /* \"#utility.yul\":15710:15713   */\n      dup3\n        /* \"#utility.yul\":15703:15722   */\n      mstore\n        /* \"#utility.yul\":15755:15759   */\n      0x20\n        /* \"#utility.yul\":15750:15753   */\n      dup3\n        /* \"#utility.yul\":15746:15760   */\n      add\n        /* \"#utility.yul\":15731:15760   */\n      swap1\n      pop\n        /* \"#utility.yul\":15597:15766   */\n      swap3\n      swap2\n      pop\n      pop\n      jump\t// out\n        /* \"#utility.yul\":15772:15952   */\n    tag_348:\n        /* \"#utility.yul\":15912:15944   */\n      0x4d61726b65743a20546f6b656e204944206973206e6f74206c69737465640000\n        /* \"#utility.yul\":15908:15909   */\n      0x00\n        /* \"#utility.yul\":15900:15906   */\n      dup3\n        /* \"#utility.yul\":15896:15910   */\n      add\n        /* \"#utility.yul\":15889:15945   */\n      mstore\n        /* \"#utility.yul\":15772:15952   */\n      pop\n      jump\t// out\n        /* \"#utility.yul\":15958:16324   */\n    tag_349:\n        /* \"#utility.yul\":16100:16103   */\n      0x00\n        /* \"#utility.yul\":16121:16188   */\n      tag_541\n        /* \"#utility.yul\":16185:16187   */\n      0x1e\n        /* \"#utility.yul\":16180:16183   */\n      dup4\n        /* \"#utility.yul\":16121:16188   */\n      tag_347\n      jump\t// in\n    tag_541:\n        /* \"#utility.yul\":16114:16188   */\n      swap2\n      pop\n        /* \"#utility.yul\":16197:16290   */\n      tag_542\n        /* \"#utility.yul\":16286:16289   */\n      dup3\n        /* \"#utility.yul\":16197:16290   */\n      tag_348\n      jump\t// in\n    tag_542:\n        /* \"#utility.yul\":16315:16317   */\n      0x20\n        /* \"#utility.yul\":16310:16313   */\n      dup3\n        /* \"#utility.yul\":16306:16318   */\n      add\n        /* \"#utility.yul\":16299:16318   */\n      swap1\n      pop\n        /* \"#utility.yul\":15958:16324   */\n      swap2\n      swap1\n      pop\n      jump\t// out\n        /* \"#utility.yul\":16330:16749   */\n    tag_111:\n        /* \"#utility.yul\":16496:16500   */\n      0x00\n        /* \"#utility.yul\":16534:16536   */\n      0x20\n        /* \"#utility.yul\":16523:16532   */\n      dup3\n        /* \"#utility.yul\":16519:16537   */\n      add\n        /* \"#utility.yul\":16511:16537   */\n      swap1\n      pop\n        /* \"#utility.yul\":16583:16592   */\n      dup2\n        /* \"#utility.yul\":16577:16581   */\n      dup2\n        /* \"#utility.yul\":16573:16593   */\n      sub\n        /* \"#utility.yul\":16569:16570   */\n      0x00\n        /* \"#utility.yul\":16558:16567   */\n      dup4\n        /* \"#utility.yul\":16554:16571   */\n      add\n        /* \"#utility.yul\":16547:16594   */\n      mstore\n        /* \"#utility.yul\":16611:16742   */\n      tag_544\n        /* \"#utility.yul\":16737:16741   */\n      dup2\n        /* \"#utility.yul\":16611:16742   */\n      tag_349\n      jump\t// in\n    tag_544:\n        /* \"#utility.yul\":16603:16742   */\n      swap1\n      pop\n        /* \"#utility.yul\":16330:16749   */\n      swap2\n      swap1\n      pop\n      jump\t// out\n        /* \"#utility.yul\":16755:16931   */\n    tag_350:\n        /* \"#utility.yul\":16895:16923   */\n      0x74686973206f6e65206973206e6f74206f6e2061756374696f6e000000000000\n        /* \"#utility.yul\":16891:16892   */\n      0x00\n        /* \"#utility.yul\":16883:16889   */\n      dup3\n        /* \"#utility.yul\":16879:16893   */\n      add\n        /* \"#utility.yul\":16872:16924   */\n      mstore\n        /* \"#utility.yul\":16755:16931   */\n      pop\n      jump\t// out\n        /* \"#utility.yul\":16937:17303   */\n    tag_351:\n        /* \"#utility.yul\":17079:17082   */\n      0x00\n        /* \"#utility.yul\":17100:17167   */\n      tag_547\n        /* \"#utility.yul\":17164:17166   */\n      0x1a\n        /* \"#utility.yul\":17159:17162   */\n      dup4\n        /* \"#utility.yul\":17100:17167   */\n      tag_347\n      jump\t// in\n    tag_547:\n        /* \"#utility.yul\":17093:17167   */\n      swap2\n      pop\n        /* \"#utility.yul\":17176:17269   */\n      tag_548\n        /* \"#utility.yul\":17265:17268   */\n      dup3\n        /* \"#utility.yul\":17176:17269   */\n      tag_350\n      jump\t// in\n    tag_548:\n        /* \"#utility.yul\":17294:17296   */\n      0x20\n        /* \"#utility.yul\":17289:17292   */\n      dup3\n        /* \"#utility.yul\":17285:17297   */\n      add\n        /* \"#utility.yul\":17278:17297   */\n      swap1\n      pop\n        /* \"#utility.yul\":16937:17303   */\n      swap2\n      swap1\n      pop\n      jump\t// out\n        /* \"#utility.yul\":17309:17728   */\n    tag_114:\n        /* \"#utility.yul\":17475:17479   */\n      0x00\n        /* \"#utility.yul\":17513:17515   */\n      0x20\n        /* \"#utility.yul\":17502:17511   */\n      dup3\n        /* \"#utility.yul\":17498:17516   */\n      add\n        /* \"#utility.yul\":17490:17516   */\n      swap1\n      pop\n        /* \"#utility.yul\":17562:17571   */\n      dup2\n        /* \"#utility.yul\":17556:17560   */\n      dup2\n        /* \"#utility.yul\":17552:17572   */\n      sub\n        /* \"#utility.yul\":17548:17549   */\n      0x00\n        /* \"#utility.yul\":17537:17546   */\n      dup4\n        /* \"#utility.yul\":17533:17550   */\n      add\n        /* \"#utility.yul\":17526:17573   */\n      mstore\n        /* \"#utility.yul\":17590:17721   */\n      tag_550\n        /* \"#utility.yul\":17716:17720   */\n      dup2\n        /* \"#utility.yul\":17590:17721   */\n      tag_351\n      jump\t// in\n    tag_550:\n        /* \"#utility.yul\":17582:17721   */\n      swap1\n      pop\n        /* \"#utility.yul\":17309:17728   */\n      swap2\n      swap1\n      pop\n      jump\t// out\n        /* \"#utility.yul\":17734:17898   */\n    tag_352:\n        /* \"#utility.yul\":17874:17890   */\n      0x74696d65206e6f742076616c6964000000000000000000000000000000000000\n        /* \"#utility.yul\":17870:17871   */\n      0x00\n        /* \"#utility.yul\":17862:17868   */\n      dup3\n        /* \"#utility.yul\":17858:17872   */\n      add\n        /* \"#utility.yul\":17851:17891   */\n      mstore\n        /* \"#utility.yul\":17734:17898   */\n      pop\n      jump\t// out\n        /* \"#utility.yul\":17904:18270   */\n    tag_353:\n        /* \"#utility.yul\":18046:18049   */\n      0x00\n        /* \"#utility.yul\":18067:18134   */\n      tag_553\n        /* \"#utility.yul\":18131:18133   */\n      0x0e\n        /* \"#utility.yul\":18126:18129   */\n      dup4\n        /* \"#utility.yul\":18067:18134   */\n      tag_347\n      jump\t// in\n    tag_553:\n        /* \"#utility.yul\":18060:18134   */\n      swap2\n      pop\n        /* \"#utility.yul\":18143:18236   */\n      tag_554\n        /* \"#utility.yul\":18232:18235   */\n      dup3\n        /* \"#utility.yul\":18143:18236   */\n      tag_352\n      jump\t// in\n    tag_554:\n        /* \"#utility.yul\":18261:18263   */\n      0x20\n        /* \"#utility.yul\":18256:18259   */\n      dup3\n        /* \"#utility.yul\":18252:18264   */\n      add\n        /* \"#utility.yul\":18245:18264   */\n      swap1\n      pop\n        /* \"#utility.yul\":17904:18270   */\n      swap2\n      swap1\n      pop\n      jump\t// out\n        /* \"#utility.yul\":18276:18695   */\n    tag_117:\n        /* \"#utility.yul\":18442:18446   */\n      0x00\n        /* \"#utility.yul\":18480:18482   */\n      0x20\n        /* \"#utility.yul\":18469:18478   */\n      dup3\n        /* \"#utility.yul\":18465:18483   */\n      add\n        /* \"#utility.yul\":18457:18483   */\n      swap1\n      pop\n        /* \"#utility.yul\":18529:18538   */\n      dup2\n        /* \"#utility.yul\":18523:18527   */\n      dup2\n        /* \"#utility.yul\":18519:18539   */\n      sub\n        /* \"#utility.yul\":18515:18516   */\n      0x00\n        /* \"#utility.yul\":18504:18513   */\n      dup4\n        /* \"#utility.yul\":18500:18517   */\n      add\n        /* \"#utility.yul\":18493:18540   */\n      mstore\n        /* \"#utility.yul\":18557:18688   */\n      tag_556\n        /* \"#utility.yul\":18683:18687   */\n      dup2\n        /* \"#utility.yul\":18557:18688   */\n      tag_353\n      jump\t// in\n    tag_556:\n        /* \"#utility.yul\":18549:18688   */\n      swap1\n      pop\n        /* \"#utility.yul\":18276:18695   */\n      swap2\n      swap1\n      pop\n      jump\t// out\n        /* \"#utility.yul\":18701:18922   */\n    tag_354:\n        /* \"#utility.yul\":18841:18875   */\n      0x6d7573742062652068696768657220746861742074686520626964206265666f\n        /* \"#utility.yul\":18837:18838   */\n      0x00\n        /* \"#utility.yul\":18829:18835   */\n      dup3\n        /* \"#utility.yul\":18825:18839   */\n      add\n        /* \"#utility.yul\":18818:18876   */\n      mstore\n        /* \"#utility.yul\":18910:18914   */\n      0x7265000000000000000000000000000000000000000000000000000000000000\n        /* \"#utility.yul\":18905:18907   */\n      0x20\n        /* \"#utility.yul\":18897:18903   */\n      dup3\n        /* \"#utility.yul\":18893:18908   */\n      add\n        /* \"#utility.yul\":18886:18915   */\n      mstore\n        /* \"#utility.yul\":18701:18922   */\n      pop\n      jump\t// out\n        /* \"#utility.yul\":18928:19294   */\n    tag_355:\n        /* \"#utility.yul\":19070:19073   */\n      0x00\n        /* \"#utility.yul\":19091:19158   */\n      tag_559\n        /* \"#utility.yul\":19155:19157   */\n      0x22\n        /* \"#utility.yul\":19150:19153   */\n      dup4\n        /* \"#utility.yul\":19091:19158   */\n      tag_347\n      jump\t// in\n    tag_559:\n        /* \"#utility.yul\":19084:19158   */\n      swap2\n      pop\n        /* \"#utility.yul\":19167:19260   */\n      tag_560\n        /* \"#utility.yul\":19256:19259   */\n      dup3\n        /* \"#utility.yul\":19167:19260   */\n      tag_354\n      jump\t// in\n    tag_560:\n        /* \"#utility.yul\":19285:19287   */\n      0x40\n        /* \"#utility.yul\":19280:19283   */\n      dup3\n        /* \"#utility.yul\":19276:19288   */\n      add\n        /* \"#utility.yul\":19269:19288   */\n      swap1\n      pop\n        /* \"#utility.yul\":18928:19294   */\n      swap2\n      swap1\n      pop\n      jump\t// out\n        /* \"#utility.yul\":19300:19719   */\n    tag_122:\n        /* \"#utility.yul\":19466:19470   */\n      0x00\n        /* \"#utility.yul\":19504:19506   */\n      0x20\n        /* \"#utility.yul\":19493:19502   */\n      dup3\n        /* \"#utility.yul\":19489:19507   */\n      add\n        /* \"#utility.yul\":19481:19507   */\n      swap1\n      pop\n        /* \"#utility.yul\":19553:19562   */\n      dup2\n        /* \"#utility.yul\":19547:19551   */\n      dup2\n        /* \"#utility.yul\":19543:19563   */\n      sub\n        /* \"#utility.yul\":19539:19540   */\n      0x00\n        /* \"#utility.yul\":19528:19537   */\n      dup4\n        /* \"#utility.yul\":19524:19541   */\n      add\n        /* \"#utility.yul\":19517:19564   */\n      mstore\n        /* \"#utility.yul\":19581:19712   */\n      tag_562\n        /* \"#utility.yul\":19707:19711   */\n      dup2\n        /* \"#utility.yul\":19581:19712   */\n      tag_355\n      jump\t// in\n    tag_562:\n        /* \"#utility.yul\":19573:19712   */\n      swap1\n      pop\n        /* \"#utility.yul\":19300:19719   */\n      swap2\n      swap1\n      pop\n      jump\t// out\n        /* \"#utility.yul\":19725:19902   */\n    tag_356:\n        /* \"#utility.yul\":19865:19894   */\n      0x796f752063616e27742062696420796f7572206f776e20676f6f640000000000\n        /* \"#utility.yul\":19861:19862   */\n      0x00\n        /* \"#utility.yul\":19853:19859   */\n      dup3\n        /* \"#utility.yul\":19849:19863   */\n      add\n        /* \"#utility.yul\":19842:19895   */\n      mstore\n        /* \"#utility.yul\":19725:19902   */\n      pop\n      jump\t// out\n        /* \"#utility.yul\":19908:20274   */\n    tag_357:\n        /* \"#utility.yul\":20050:20053   */\n      0x00\n        /* \"#utility.yul\":20071:20138   */\n      tag_565\n        /* \"#utility.yul\":20135:20137   */\n      0x1b\n        /* \"#utility.yul\":20130:20133   */\n      dup4\n        /* \"#utility.yul\":20071:20138   */\n      tag_347\n      jump\t// in\n    tag_565:\n        /* \"#utility.yul\":20064:20138   */\n      swap2\n      pop\n        /* \"#utility.yul\":20147:20240   */\n      tag_566\n        /* \"#utility.yul\":20236:20239   */\n      dup3\n        /* \"#utility.yul\":20147:20240   */\n      tag_356\n      jump\t// in\n    tag_566:\n        /* \"#utility.yul\":20265:20267   */\n      0x20\n        /* \"#utility.yul\":20260:20263   */\n      dup3\n        /* \"#utility.yul\":20256:20268   */\n      add\n        /* \"#utility.yul\":20249:20268   */\n      swap1\n      pop\n        /* \"#utility.yul\":19908:20274   */\n      swap2\n      swap1\n      pop\n      jump\t// out\n        /* \"#utility.yul\":20280:20699   */\n    tag_125:\n        /* \"#utility.yul\":20446:20450   */\n      0x00\n        /* \"#utility.yul\":20484:20486   */\n      0x20\n        /* \"#utility.yul\":20473:20482   */\n      dup3\n        /* \"#utility.yul\":20469:20487   */\n      add\n        /* \"#utility.yul\":20461:20487   */\n      swap1\n      pop\n        /* \"#utility.yul\":20533:20542   */\n      dup2\n        /* \"#utility.yul\":20527:20531   */\n      dup2\n        /* \"#utility.yul\":20523:20543   */\n      sub\n        /* \"#utility.yul\":20519:20520   */\n      0x00\n        /* \"#utility.yul\":20508:20517   */\n      dup4\n        /* \"#utility.yul\":20504:20521   */\n      add\n        /* \"#utility.yul\":20497:20544   */\n      mstore\n        /* \"#utility.yul\":20561:20692   */\n      tag_568\n        /* \"#utility.yul\":20687:20691   */\n      dup2\n        /* \"#utility.yul\":20561:20692   */\n      tag_357\n      jump\t// in\n    tag_568:\n        /* \"#utility.yul\":20553:20692   */\n      swap1\n      pop\n        /* \"#utility.yul\":20280:20699   */\n      swap2\n      swap1\n      pop\n      jump\t// out\n        /* \"#utility.yul\":20705:21147   */\n    tag_130:\n        /* \"#utility.yul\":20854:20858   */\n      0x00\n        /* \"#utility.yul\":20892:20894   */\n      0x60\n        /* \"#utility.yul\":20881:20890   */\n      dup3\n        /* \"#utility.yul\":20877:20895   */\n      add\n        /* \"#utility.yul\":20869:20895   */\n      swap1\n      pop\n        /* \"#utility.yul\":20905:20976   */\n      tag_570\n        /* \"#utility.yul\":20973:20974   */\n      0x00\n        /* \"#utility.yul\":20962:20971   */\n      dup4\n        /* \"#utility.yul\":20958:20975   */\n      add\n        /* \"#utility.yul\":20949:20955   */\n      dup7\n        /* \"#utility.yul\":20905:20976   */\n      tag_319\n      jump\t// in\n    tag_570:\n        /* \"#utility.yul\":20986:21058   */\n      tag_571\n        /* \"#utility.yul\":21054:21056   */\n      0x20\n        /* \"#utility.yul\":21043:21052   */\n      dup4\n        /* \"#utility.yul\":21039:21057   */\n      add\n        /* \"#utility.yul\":21030:21036   */\n      dup6\n        /* \"#utility.yul\":20986:21058   */\n      tag_321\n      jump\t// in\n    tag_571:\n        /* \"#utility.yul\":21068:21140   */\n      tag_572\n        /* \"#utility.yul\":21136:21138   */\n      0x40\n        /* \"#utility.yul\":21125:21134   */\n      dup4\n        /* \"#utility.yul\":21121:21139   */\n      add\n        /* \"#utility.yul\":21112:21118   */\n      dup5\n        /* \"#utility.yul\":21068:21140   */\n      tag_321\n      jump\t// in\n    tag_572:\n        /* \"#utility.yul\":20705:21147   */\n      swap5\n      swap4\n      pop\n      pop\n      pop\n      pop\n      jump\t// out\n        /* \"#utility.yul\":21153:21334   */\n    tag_358:\n        /* \"#utility.yul\":21293:21326   */\n      0x4d61726b65743a2053656c6c6572206d757374206265206f70657261746f7200\n        /* \"#utility.yul\":21289:21290   */\n      0x00\n        /* \"#utility.yul\":21281:21287   */\n      dup3\n        /* \"#utility.yul\":21277:21291   */\n      add\n        /* \"#utility.yul\":21270:21327   */\n      mstore\n        /* \"#utility.yul\":21153:21334   */\n      pop\n      jump\t// out\n        /* \"#utility.yul\":21340:21706   */\n    tag_359:\n        /* \"#utility.yul\":21482:21485   */\n      0x00\n        /* \"#utility.yul\":21503:21570   */\n      tag_575\n        /* \"#utility.yul\":21567:21569   */\n      0x1f\n        /* \"#utility.yul\":21562:21565   */\n      dup4\n        /* \"#utility.yul\":21503:21570   */\n      tag_347\n      jump\t// in\n    tag_575:\n        /* \"#utility.yul\":21496:21570   */\n      swap2\n      pop\n        /* \"#utility.yul\":21579:21672   */\n      tag_576\n        /* \"#utility.yul\":21668:21671   */\n      dup3\n        /* \"#utility.yul\":21579:21672   */\n      tag_358\n      jump\t// in\n    tag_576:\n        /* \"#utility.yul\":21697:21699   */\n      0x20\n        /* \"#utility.yul\":21692:21695   */\n      dup3\n        /* \"#utility.yul\":21688:21700   */\n      add\n        /* \"#utility.yul\":21681:21700   */\n      swap1\n      pop\n        /* \"#utility.yul\":21340:21706   */\n      swap2\n      swap1\n      pop\n      jump\t// out\n        /* \"#utility.yul\":21712:22131   */\n    tag_134:\n        /* \"#utility.yul\":21878:21882   */\n      0x00\n        /* \"#utility.yul\":21916:21918   */\n      0x20\n        /* \"#utility.yul\":21905:21914   */\n      dup3\n        /* \"#utility.yul\":21901:21919   */\n      add\n        /* \"#utility.yul\":21893:21919   */\n      swap1\n      pop\n        /* \"#utility.yul\":21965:21974   */\n      dup2\n        /* \"#utility.yul\":21959:21963   */\n      dup2\n        /* \"#utility.yul\":21955:21975   */\n      sub\n        /* \"#utility.yul\":21951:21952   */\n      0x00\n        /* \"#utility.yul\":21940:21949   */\n      dup4\n        /* \"#utility.yul\":21936:21953   */\n      add\n        /* \"#utility.yul\":21929:21976   */\n      mstore\n        /* \"#utility.yul\":21993:22124   */\n      tag_578\n        /* \"#utility.yul\":22119:22123   */\n      dup2\n        /* \"#utility.yul\":21993:22124   */\n      tag_359\n      jump\t// in\n    tag_578:\n        /* \"#utility.yul\":21985:22124   */\n      swap1\n      pop\n        /* \"#utility.yul\":21712:22131   */\n      swap2\n      swap1\n      pop\n      jump\t// out\n        /* \"#utility.yul\":22137:22315   */\n    tag_360:\n        /* \"#utility.yul\":22277:22307   */\n      0x4d61726b65743a2053656e646572206973206e6f742073656c6c657200000000\n        /* \"#utility.yul\":22273:22274   */\n      0x00\n        /* \"#utility.yul\":22265:22271   */\n      dup3\n        /* \"#utility.yul\":22261:22275   */\n      add\n        /* \"#utility.yul\":22254:22308   */\n      mstore\n        /* \"#utility.yul\":22137:22315   */\n      pop\n      jump\t// out\n        /* \"#utility.yul\":22321:22687   */\n    tag_361:\n        /* \"#utility.yul\":22463:22466   */\n      0x00\n        /* \"#utility.yul\":22484:22551   */\n      tag_581\n        /* \"#utility.yul\":22548:22550   */\n      0x1c\n        /* \"#utility.yul\":22543:22546   */\n      dup4\n        /* \"#utility.yul\":22484:22551   */\n      tag_347\n      jump\t// in\n    tag_581:\n        /* \"#utility.yul\":22477:22551   */\n      swap2\n      pop\n        /* \"#utility.yul\":22560:22653   */\n      tag_582\n        /* \"#utility.yul\":22649:22652   */\n      dup3\n        /* \"#utility.yul\":22560:22653   */\n      tag_360\n      jump\t// in\n    tag_582:\n        /* \"#utility.yul\":22678:22680   */\n      0x20\n        /* \"#utility.yul\":22673:22676   */\n      dup3\n        /* \"#utility.yul\":22669:22681   */\n      add\n        /* \"#utility.yul\":22662:22681   */\n      swap1\n      pop\n        /* \"#utility.yul\":22321:22687   */\n      swap2\n      swap1\n      pop\n      jump\t// out\n        /* \"#utility.yul\":22693:23112   */\n    tag_151:\n        /* \"#utility.yul\":22859:22863   */\n      0x00\n        /* \"#utility.yul\":22897:22899   */\n      0x20\n        /* \"#utility.yul\":22886:22895   */\n      dup3\n        /* \"#utility.yul\":22882:22900   */\n      add\n        /* \"#utility.yul\":22874:22900   */\n      swap1\n      pop\n        /* \"#utility.yul\":22946:22955   */\n      dup2\n        /* \"#utility.yul\":22940:22944   */\n      dup2\n        /* \"#utility.yul\":22936:22956   */\n      sub\n        /* \"#utility.yul\":22932:22933   */\n      0x00\n        /* \"#utility.yul\":22921:22930   */\n      dup4\n        /* \"#utility.yul\":22917:22934   */\n      add\n        /* \"#utility.yul\":22910:22957   */\n      mstore\n        /* \"#utility.yul\":22974:23105   */\n      tag_584\n        /* \"#utility.yul\":23100:23104   */\n      dup2\n        /* \"#utility.yul\":22974:23105   */\n      tag_361\n      jump\t// in\n    tag_584:\n        /* \"#utility.yul\":22966:23105   */\n      swap1\n      pop\n        /* \"#utility.yul\":22693:23112   */\n      swap2\n      swap1\n      pop\n      jump\t// out\n        /* \"#utility.yul\":23118:23560   */\n    tag_153:\n        /* \"#utility.yul\":23267:23271   */\n      0x00\n        /* \"#utility.yul\":23305:23307   */\n      0x60\n        /* \"#utility.yul\":23294:23303   */\n      dup3\n        /* \"#utility.yul\":23290:23308   */\n      add\n        /* \"#utility.yul\":23282:23308   */\n      swap1\n      pop\n        /* \"#utility.yul\":23318:23389   */\n      tag_586\n        /* \"#utility.yul\":23386:23387   */\n      0x00\n        /* \"#utility.yul\":23375:23384   */\n      dup4\n        /* \"#utility.yul\":23371:23388   */\n      add\n        /* \"#utility.yul\":23362:23368   */\n      dup7\n        /* \"#utility.yul\":23318:23389   */\n      tag_319\n      jump\t// in\n    tag_586:\n        /* \"#utility.yul\":23399:23471   */\n      tag_587\n        /* \"#utility.yul\":23467:23469   */\n      0x20\n        /* \"#utility.yul\":23456:23465   */\n      dup4\n        /* \"#utility.yul\":23452:23470   */\n      add\n        /* \"#utility.yul\":23443:23449   */\n      dup6\n        /* \"#utility.yul\":23399:23471   */\n      tag_319\n      jump\t// in\n    tag_587:\n        /* \"#utility.yul\":23481:23553   */\n      tag_588\n        /* \"#utility.yul\":23549:23551   */\n      0x40\n        /* \"#utility.yul\":23538:23547   */\n      dup4\n        /* \"#utility.yul\":23534:23552   */\n      add\n        /* \"#utility.yul\":23525:23531   */\n      dup5\n        /* \"#utility.yul\":23481:23553   */\n      tag_321\n      jump\t// in\n    tag_588:\n        /* \"#utility.yul\":23118:23560   */\n      swap5\n      swap4\n      pop\n      pop\n      pop\n      pop\n      jump\t// out\n        /* \"#utility.yul\":23566:23898   */\n    tag_160:\n        /* \"#utility.yul\":23687:23691   */\n      0x00\n        /* \"#utility.yul\":23725:23727   */\n      0x40\n        /* \"#utility.yul\":23714:23723   */\n      dup3\n        /* \"#utility.yul\":23710:23728   */\n      add\n        /* \"#utility.yul\":23702:23728   */\n      swap1\n      pop\n        /* \"#utility.yul\":23738:23809   */\n      tag_590\n        /* \"#utility.yul\":23806:23807   */\n      0x00\n        /* \"#utility.yul\":23795:23804   */\n      dup4\n        /* \"#utility.yul\":23791:23808   */\n      add\n        /* \"#utility.yul\":23782:23788   */\n      dup6\n        /* \"#utility.yul\":23738:23809   */\n      tag_319\n      jump\t// in\n    tag_590:\n        /* \"#utility.yul\":23819:23891   */\n      tag_591\n        /* \"#utility.yul\":23887:23889   */\n      0x20\n        /* \"#utility.yul\":23876:23885   */\n      dup4\n        /* \"#utility.yul\":23872:23890   */\n      add\n        /* \"#utility.yul\":23863:23869   */\n      dup5\n        /* \"#utility.yul\":23819:23891   */\n      tag_321\n      jump\t// in\n    tag_591:\n        /* \"#utility.yul\":23566:23898   */\n      swap4\n      swap3\n      pop\n      pop\n      pop\n      jump\t// out\n        /* \"#utility.yul\":23904:24084   */\n    tag_174:\n        /* \"#utility.yul\":23952:24029   */\n      0x4e487b7100000000000000000000000000000000000000000000000000000000\n        /* \"#utility.yul\":23949:23950   */\n      0x00\n        /* \"#utility.yul\":23942:24030   */\n      mstore\n        /* \"#utility.yul\":24049:24053   */\n      0x32\n        /* \"#utility.yul\":24046:24047   */\n      0x04\n        /* \"#utility.yul\":24039:24054   */\n      mstore\n        /* \"#utility.yul\":24073:24077   */\n      0x24\n        /* \"#utility.yul\":24070:24071   */\n      0x00\n        /* \"#utility.yul\":24063:24078   */\n      revert\n        /* \"#utility.yul\":24090:24270   */\n    tag_362:\n        /* \"#utility.yul\":24138:24215   */\n      0x4e487b7100000000000000000000000000000000000000000000000000000000\n        /* \"#utility.yul\":24135:24136   */\n      0x00\n        /* \"#utility.yul\":24128:24216   */\n      mstore\n        /* \"#utility.yul\":24235:24239   */\n      0x11\n        /* \"#utility.yul\":24232:24233   */\n      0x04\n        /* \"#utility.yul\":24225:24240   */\n      mstore\n        /* \"#utility.yul\":24259:24263   */\n      0x24\n        /* \"#utility.yul\":24256:24257   */\n      0x00\n        /* \"#utility.yul\":24249:24264   */\n      revert\n        /* \"#utility.yul\":24276:24509   */\n    tag_183:\n        /* \"#utility.yul\":24315:24318   */\n      0x00\n        /* \"#utility.yul\":24338:24362   */\n      tag_595\n        /* \"#utility.yul\":24356:24361   */\n      dup3\n        /* \"#utility.yul\":24338:24362   */\n      tag_303\n      jump\t// in\n    tag_595:\n        /* \"#utility.yul\":24329:24362   */\n      swap2\n      pop\n        /* \"#utility.yul\":24384:24450   */\n      0xffffffffffffffffffffffffffffffffffffffffffffffffffffffffffffffff\n        /* \"#utility.yul\":24377:24382   */\n      dup3\n        /* \"#utility.yul\":24374:24451   */\n      sub\n        /* \"#utility.yul\":24371:24474   */\n      tag_596\n      jumpi\n        /* \"#utility.yul\":24454:24472   */\n      tag_597\n      tag_362\n      jump\t// in\n    tag_597:\n        /* \"#utility.yul\":24371:24474   */\n    tag_596:\n        /* \"#utility.yul\":24501:24502   */\n      0x01\n        /* \"#utility.yul\":24494:24499   */\n      dup3\n        /* \"#utility.yul\":24490:24503   */\n      add\n        /* \"#utility.yul\":24483:24503   */\n      swap1\n      pop\n        /* \"#utility.yul\":24276:24509   */\n      swap2\n      swap1\n      pop\n      jump\t// out\n        /* \"#utility.yul\":24515:25068   */\n    tag_209:\n        /* \"#utility.yul\":24692:24696   */\n      0x00\n        /* \"#utility.yul\":24730:24733   */\n      0x80\n        /* \"#utility.yul\":24719:24728   */\n      dup3\n        /* \"#utility.yul\":24715:24734   */\n      add\n        /* \"#utility.yul\":24707:24734   */\n      swap1\n      pop\n        /* \"#utility.yul\":24744:24815   */\n      tag_599\n        /* \"#utility.yul\":24812:24813   */\n      0x00\n        /* \"#utility.yul\":24801:24810   */\n      dup4\n        /* \"#utility.yul\":24797:24814   */\n      add\n        /* \"#utility.yul\":24788:24794   */\n      dup8\n        /* \"#utility.yul\":24744:24815   */\n      tag_319\n      jump\t// in\n    tag_599:\n        /* \"#utility.yul\":24825:24897   */\n      tag_600\n        /* \"#utility.yul\":24893:24895   */\n      0x20\n        /* \"#utility.yul\":24882:24891   */\n      dup4\n        /* \"#utility.yul\":24878:24896   */\n      add\n        /* \"#utility.yul\":24869:24875   */\n      dup7\n        /* \"#utility.yul\":24825:24897   */\n      tag_321\n      jump\t// in\n    tag_600:\n        /* \"#utility.yul\":24907:24979   */\n      tag_601\n        /* \"#utility.yul\":24975:24977   */\n      0x40\n        /* \"#utility.yul\":24964:24973   */\n      dup4\n        /* \"#utility.yul\":24960:24978   */\n      add\n        /* \"#utility.yul\":24951:24957   */\n      dup6\n        /* \"#utility.yul\":24907:24979   */\n      tag_321\n      jump\t// in\n    tag_601:\n        /* \"#utility.yul\":24989:25061   */\n      tag_602\n        /* \"#utility.yul\":25057:25059   */\n      0x60\n        /* \"#utility.yul\":25046:25055   */\n      dup4\n        /* \"#utility.yul\":25042:25060   */\n      add\n        /* \"#utility.yul\":25033:25039   */\n      dup5\n        /* \"#utility.yul\":24989:25061   */\n      tag_321\n      jump\t// in\n    tag_602:\n        /* \"#utility.yul\":24515:25068   */\n      swap6\n      swap5\n      pop\n      pop\n      pop\n      pop\n      pop\n      jump\t// out\n        /* \"#utility.yul\":25074:25265   */\n    tag_212:\n        /* \"#utility.yul\":25114:25117   */\n      0x00\n        /* \"#utility.yul\":25133:25153   */\n      tag_604\n        /* \"#utility.yul\":25151:25152   */\n      dup3\n        /* \"#utility.yul\":25133:25153   */\n      tag_303\n      jump\t// in\n    tag_604:\n        /* \"#utility.yul\":25128:25153   */\n      swap2\n      pop\n        /* \"#utility.yul\":25167:25187   */\n      tag_605\n        /* \"#utility.yul\":25185:25186   */\n      dup4\n        /* \"#utility.yul\":25167:25187   */\n      tag_303\n      jump\t// in\n    tag_605:\n        /* \"#utility.yul\":25162:25187   */\n      swap3\n      pop\n        /* \"#utility.yul\":25210:25211   */\n      dup3\n        /* \"#utility.yul\":25207:25208   */\n      dup3\n        /* \"#utility.yul\":25203:25212   */\n      add\n        /* \"#utility.yul\":25196:25212   */\n      swap1\n      pop\n        /* \"#utility.yul\":25231:25234   */\n      dup1\n        /* \"#utility.yul\":25228:25229   */\n      dup3\n        /* \"#utility.yul\":25225:25235   */\n      gt\n        /* \"#utility.yul\":25222:25258   */\n      iszero\n      tag_606\n      jumpi\n        /* \"#utility.yul\":25238:25256   */\n      tag_607\n      tag_362\n      jump\t// in\n    tag_607:\n        /* \"#utility.yul\":25222:25258   */\n    tag_606:\n        /* \"#utility.yul\":25074:25265   */\n      swap3\n      swap2\n      pop\n      pop\n      jump\t// out\n        /* \"#utility.yul\":25271:25447   */\n    tag_363:\n        /* \"#utility.yul\":25411:25439   */\n      0x4d61726b65743a20746f55696e743235365f6f766572666c6f77000000000000\n        /* \"#utility.yul\":25407:25408   */\n      0x00\n        /* \"#utility.yul\":25399:25405   */\n      dup3\n        /* \"#utility.yul\":25395:25409   */\n      add\n        /* \"#utility.yul\":25388:25440   */\n      mstore\n        /* \"#utility.yul\":25271:25447   */\n      pop\n      jump\t// out\n        /* \"#utility.yul\":25453:25819   */\n    tag_364:\n        /* \"#utility.yul\":25595:25598   */\n      0x00\n        /* \"#utility.yul\":25616:25683   */\n      tag_610\n        /* \"#utility.yul\":25680:25682   */\n      0x1a\n        /* \"#utility.yul\":25675:25678   */\n      dup4\n        /* \"#utility.yul\":25616:25683   */\n      tag_347\n      jump\t// in\n    tag_610:\n        /* \"#utility.yul\":25609:25683   */\n      swap2\n      pop\n        /* \"#utility.yul\":25692:25785   */\n      tag_611\n        /* \"#utility.yul\":25781:25784   */\n      dup3\n        /* \"#utility.yul\":25692:25785   */\n      tag_363\n      jump\t// in\n    tag_611:\n        /* \"#utility.yul\":25810:25812   */\n      0x20\n        /* \"#utility.yul\":25805:25808   */\n      dup3\n        /* \"#utility.yul\":25801:25813   */\n      add\n        /* \"#utility.yul\":25794:25813   */\n      swap1\n      pop\n        /* \"#utility.yul\":25453:25819   */\n      swap2\n      swap1\n      pop\n      jump\t// out\n        /* \"#utility.yul\":25825:26244   */\n    tag_215:\n        /* \"#utility.yul\":25991:25995   */\n      0x00\n        /* \"#utility.yul\":26029:26031   */\n      0x20\n        /* \"#utility.yul\":26018:26027   */\n      dup3\n        /* \"#utility.yul\":26014:26032   */\n      add\n        /* \"#utility.yul\":26006:26032   */\n      swap1\n      pop\n        /* \"#utility.yul\":26078:26087   */\n      dup2\n        /* \"#utility.yul\":26072:26076   */\n      dup2\n        /* \"#utility.yul\":26068:26088   */\n      sub\n        /* \"#utility.yul\":26064:26065   */\n      0x00\n        /* \"#utility.yul\":26053:26062   */\n      dup4\n        /* \"#utility.yul\":26049:26066   */\n      add\n        /* \"#utility.yul\":26042:26089   */\n      mstore\n        /* \"#utility.yul\":26106:26237   */\n      tag_613\n        /* \"#utility.yul\":26232:26236   */\n      dup2\n        /* \"#utility.yul\":26106:26237   */\n      tag_364\n      jump\t// in\n    tag_613:\n        /* \"#utility.yul\":26098:26237   */\n      swap1\n      pop\n        /* \"#utility.yul\":25825:26244   */\n      swap2\n      swap1\n      pop\n      jump\t// out\n        /* \"#utility.yul\":26250:26429   */\n    tag_365:\n        /* \"#utility.yul\":26390:26421   */\n      0x4d61726b65743a20746f55696e743235365f6f75744f66426f756e6473000000\n        /* \"#utility.yul\":26386:26387   */\n      0x00\n        /* \"#utility.yul\":26378:26384   */\n      dup3\n        /* \"#utility.yul\":26374:26388   */\n      add\n        /* \"#utility.yul\":26367:26422   */\n      mstore\n        /* \"#utility.yul\":26250:26429   */\n      pop\n      jump\t// out\n        /* \"#utility.yul\":26435:26801   */\n    tag_366:\n        /* \"#utility.yul\":26577:26580   */\n      0x00\n        /* \"#utility.yul\":26598:26665   */\n      tag_616\n        /* \"#utility.yul\":26662:26664   */\n      0x1d\n        /* \"#utility.yul\":26657:26660   */\n      dup4\n        /* \"#utility.yul\":26598:26665   */\n      tag_347\n      jump\t// in\n    tag_616:\n        /* \"#utility.yul\":26591:26665   */\n      swap2\n      pop\n        /* \"#utility.yul\":26674:26767   */\n      tag_617\n        /* \"#utility.yul\":26763:26766   */\n      dup3\n        /* \"#utility.yul\":26674:26767   */\n      tag_365\n      jump\t// in\n    tag_617:\n        /* \"#utility.yul\":26792:26794   */\n      0x20\n        /* \"#utility.yul\":26787:26790   */\n      dup3\n        /* \"#utility.yul\":26783:26795   */\n      add\n        /* \"#utility.yul\":26776:26795   */\n      swap1\n      pop\n        /* \"#utility.yul\":26435:26801   */\n      swap2\n      swap1\n      pop\n      jump\t// out\n        /* \"#utility.yul\":26807:27226   */\n    tag_219:\n        /* \"#utility.yul\":26973:26977   */\n      0x00\n        /* \"#utility.yul\":27011:27013   */\n      0x20\n        /* \"#utility.yul\":27000:27009   */\n      dup3\n        /* \"#utility.yul\":26996:27014   */\n      add\n        /* \"#utility.yul\":26988:27014   */\n      swap1\n      pop\n        /* \"#utility.yul\":27060:27069   */\n      dup2\n        /* \"#utility.yul\":27054:27058   */\n      dup2\n        /* \"#utility.yul\":27050:27070   */\n      sub\n        /* \"#utility.yul\":27046:27047   */\n      0x00\n        /* \"#utility.yul\":27035:27044   */\n      dup4\n        /* \"#utility.yul\":27031:27048   */\n      add\n        /* \"#utility.yul\":27024:27071   */\n      mstore\n        /* \"#utility.yul\":27088:27219   */\n      tag_619\n        /* \"#utility.yul\":27214:27218   */\n      dup2\n        /* \"#utility.yul\":27088:27219   */\n      tag_366\n      jump\t// in\n    tag_619:\n        /* \"#utility.yul\":27080:27219   */\n      swap1\n      pop\n        /* \"#utility.yul\":26807:27226   */\n      swap2\n      swap1\n      pop\n      jump\t// out\n        /* \"#utility.yul\":27232:27785   */\n    tag_237:\n        /* \"#utility.yul\":27409:27413   */\n      0x00\n        /* \"#utility.yul\":27447:27450   */\n      0x80\n        /* \"#utility.yul\":27436:27445   */\n      dup3\n        /* \"#utility.yul\":27432:27451   */\n      add\n        /* \"#utility.yul\":27424:27451   */\n      swap1\n      pop\n        /* \"#utility.yul\":27461:27532   */\n      tag_621\n        /* \"#utility.yul\":27529:27530   */\n      0x00\n        /* \"#utility.yul\":27518:27527   */\n      dup4\n        /* \"#utility.yul\":27514:27531   */\n      add\n        /* \"#utility.yul\":27505:27511   */\n      dup8\n        /* \"#utility.yul\":27461:27532   */\n      tag_319\n      jump\t// in\n    tag_621:\n        /* \"#utility.yul\":27542:27614   */\n      tag_622\n        /* \"#utility.yul\":27610:27612   */\n      0x20\n        /* \"#utility.yul\":27599:27608   */\n      dup4\n        /* \"#utility.yul\":27595:27613   */\n      add\n        /* \"#utility.yul\":27586:27592   */\n      dup7\n        /* \"#utility.yul\":27542:27614   */\n      tag_319\n      jump\t// in\n    tag_622:\n        /* \"#utility.yul\":27624:27696   */\n      tag_623\n        /* \"#utility.yul\":27692:27694   */\n      0x40\n        /* \"#utility.yul\":27681:27690   */\n      dup4\n        /* \"#utility.yul\":27677:27695   */\n      add\n        /* \"#utility.yul\":27668:27674   */\n      dup6\n        /* \"#utility.yul\":27624:27696   */\n      tag_321\n      jump\t// in\n    tag_623:\n        /* \"#utility.yul\":27706:27778   */\n      tag_624\n        /* \"#utility.yul\":27774:27776   */\n      0x60\n        /* \"#utility.yul\":27763:27772   */\n      dup4\n        /* \"#utility.yul\":27759:27777   */\n      add\n        /* \"#utility.yul\":27750:27756   */\n      dup5\n        /* \"#utility.yul\":27706:27778   */\n      tag_321\n      jump\t// in\n    tag_624:\n        /* \"#utility.yul\":27232:27785   */\n      swap6\n      swap5\n      pop\n      pop\n      pop\n      pop\n      pop\n      jump\t// out\n        /* \"#utility.yul\":27791:27963   */\n    tag_367:\n        /* \"#utility.yul\":27931:27955   */\n      0x74686973206f6e65206973206f6e2061756374696f6e00000000000000000000\n        /* \"#utility.yul\":27927:27928   */\n      0x00\n        /* \"#utility.yul\":27919:27925   */\n      dup3\n        /* \"#utility.yul\":27915:27929   */\n      add\n        /* \"#utility.yul\":27908:27956   */\n      mstore\n        /* \"#utility.yul\":27791:27963   */\n      pop\n      jump\t// out\n        /* \"#utility.yul\":27969:28335   */\n    tag_368:\n        /* \"#utility.yul\":28111:28114   */\n      0x00\n        /* \"#utility.yul\":28132:28199   */\n      tag_627\n        /* \"#utility.yul\":28196:28198   */\n      0x16\n        /* \"#utility.yul\":28191:28194   */\n      dup4\n        /* \"#utility.yul\":28132:28199   */\n      tag_347\n      jump\t// in\n    tag_627:\n        /* \"#utility.yul\":28125:28199   */\n      swap2\n      pop\n        /* \"#utility.yul\":28208:28301   */\n      tag_628\n        /* \"#utility.yul\":28297:28300   */\n      dup3\n        /* \"#utility.yul\":28208:28301   */\n      tag_367\n      jump\t// in\n    tag_628:\n        /* \"#utility.yul\":28326:28328   */\n      0x20\n        /* \"#utility.yul\":28321:28324   */\n      dup3\n        /* \"#utility.yul\":28317:28329   */\n      add\n        /* \"#utility.yul\":28310:28329   */\n      swap1\n      pop\n        /* \"#utility.yul\":27969:28335   */\n      swap2\n      swap1\n      pop\n      jump\t// out\n        /* \"#utility.yul\":28341:28760   */\n    tag_251:\n        /* \"#utility.yul\":28507:28511   */\n      0x00\n        /* \"#utility.yul\":28545:28547   */\n      0x20\n        /* \"#utility.yul\":28534:28543   */\n      dup3\n        /* \"#utility.yul\":28530:28548   */\n      add\n        /* \"#utility.yul\":28522:28548   */\n      swap1\n      pop\n        /* \"#utility.yul\":28594:28603   */\n      dup2\n        /* \"#utility.yul\":28588:28592   */\n      dup2\n        /* \"#utility.yul\":28584:28604   */\n      sub\n        /* \"#utility.yul\":28580:28581   */\n      0x00\n        /* \"#utility.yul\":28569:28578   */\n      dup4\n        /* \"#utility.yul\":28565:28582   */\n      add\n        /* \"#utility.yul\":28558:28605   */\n      mstore\n        /* \"#utility.yul\":28622:28753   */\n      tag_630\n        /* \"#utility.yul\":28748:28752   */\n      dup2\n        /* \"#utility.yul\":28622:28753   */\n      tag_368\n      jump\t// in\n    tag_630:\n        /* \"#utility.yul\":28614:28753   */\n      swap1\n      pop\n        /* \"#utility.yul\":28341:28760   */\n      swap2\n      swap1\n      pop\n      jump\t// out\n        /* \"#utility.yul\":28766:28903   */\n    tag_369:\n        /* \"#utility.yul\":28820:28825   */\n      0x00\n        /* \"#utility.yul\":28851:28857   */\n      dup2\n        /* \"#utility.yul\":28845:28858   */\n      mload\n        /* \"#utility.yul\":28836:28858   */\n      swap1\n      pop\n        /* \"#utility.yul\":28867:28897   */\n      tag_632\n        /* \"#utility.yul\":28891:28896   */\n      dup2\n        /* \"#utility.yul\":28867:28897   */\n      tag_317\n      jump\t// in\n    tag_632:\n        /* \"#utility.yul\":28766:28903   */\n      swap3\n      swap2\n      pop\n      pop\n      jump\t// out\n        /* \"#utility.yul\":28909:29254   */\n    tag_256:\n        /* \"#utility.yul\":28976:28982   */\n      0x00\n        /* \"#utility.yul\":29025:29027   */\n      0x20\n        /* \"#utility.yul\":29013:29022   */\n      dup3\n        /* \"#utility.yul\":29004:29011   */\n      dup5\n        /* \"#utility.yul\":29000:29023   */\n      sub\n        /* \"#utility.yul\":28996:29028   */\n      slt\n        /* \"#utility.yul\":28993:29112   */\n      iszero\n      tag_634\n      jumpi\n        /* \"#utility.yul\":29031:29110   */\n      tag_635\n      tag_301\n      jump\t// in\n    tag_635:\n        /* \"#utility.yul\":28993:29112   */\n    tag_634:\n        /* \"#utility.yul\":29151:29152   */\n      0x00\n        /* \"#utility.yul\":29176:29237   */\n      tag_636\n        /* \"#utility.yul\":29229:29236   */\n      dup5\n        /* \"#utility.yul\":29220:29226   */\n      dup3\n        /* \"#utility.yul\":29209:29218   */\n      dup6\n        /* \"#utility.yul\":29205:29227   */\n      add\n        /* \"#utility.yul\":29176:29237   */\n      tag_369\n      jump\t// in\n    tag_636:\n        /* \"#utility.yul\":29166:29237   */\n      swap2\n      pop\n        /* \"#utility.yul\":29122:29247   */\n      pop\n        /* \"#utility.yul\":28909:29254   */\n      swap3\n      swap2\n      pop\n      pop\n      jump\t// out\n        /* \"#utility.yul\":29260:29484   */\n    tag_370:\n        /* \"#utility.yul\":29400:29434   */\n      0x4d61726b65743a204552433230207472616e73666572206e6f74207375636365\n        /* \"#utility.yul\":29396:29397   */\n      0x00\n        /* \"#utility.yul\":29388:29394   */\n      dup3\n        /* \"#utility.yul\":29384:29398   */\n      add\n        /* \"#utility.yul\":29377:29435   */\n      mstore\n        /* \"#utility.yul\":29469:29476   */\n      0x737366756c000000000000000000000000000000000000000000000000000000\n        /* \"#utility.yul\":29464:29466   */\n      0x20\n        /* \"#utility.yul\":29456:29462   */\n      dup3\n        /* \"#utility.yul\":29452:29467   */\n      add\n        /* \"#utility.yul\":29445:29477   */\n      mstore\n        /* \"#utility.yul\":29260:29484   */\n      pop\n      jump\t// out\n        /* \"#utility.yul\":29490:29856   */\n    tag_371:\n        /* \"#utility.yul\":29632:29635   */\n      0x00\n        /* \"#utility.yul\":29653:29720   */\n      tag_639\n        /* \"#utility.yul\":29717:29719   */\n      0x25\n        /* \"#utility.yul\":29712:29715   */\n      dup4\n        /* \"#utility.yul\":29653:29720   */\n      tag_347\n      jump\t// in\n    tag_639:\n        /* \"#utility.yul\":29646:29720   */\n      swap2\n      pop\n        /* \"#utility.yul\":29729:29822   */\n      tag_640\n        /* \"#utility.yul\":29818:29821   */\n      dup3\n        /* \"#utility.yul\":29729:29822   */\n      tag_370\n      jump\t// in\n    tag_640:\n        /* \"#utility.yul\":29847:29849   */\n      0x40\n        /* \"#utility.yul\":29842:29845   */\n      dup3\n        /* \"#utility.yul\":29838:29850   */\n      add\n        /* \"#utility.yul\":29831:29850   */\n      swap1\n      pop\n        /* \"#utility.yul\":29490:29856   */\n      swap2\n      swap1\n      pop\n      jump\t// out\n        /* \"#utility.yul\":29862:30281   */\n    tag_259:\n        /* \"#utility.yul\":30028:30032   */\n      0x00\n        /* \"#utility.yul\":30066:30068   */\n      0x20\n        /* \"#utility.yul\":30055:30064   */\n      dup3\n        /* \"#utility.yul\":30051:30069   */\n      add\n        /* \"#utility.yul\":30043:30069   */\n      swap1\n      pop\n        /* \"#utility.yul\":30115:30124   */\n      dup2\n        /* \"#utility.yul\":30109:30113   */\n      dup2\n        /* \"#utility.yul\":30105:30125   */\n      sub\n        /* \"#utility.yul\":30101:30102   */\n      0x00\n        /* \"#utility.yul\":30090:30099   */\n      dup4\n        /* \"#utility.yul\":30086:30103   */\n      add\n        /* \"#utility.yul\":30079:30126   */\n      mstore\n        /* \"#utility.yul\":30143:30274   */\n      tag_642\n        /* \"#utility.yul\":30269:30273   */\n      dup2\n        /* \"#utility.yul\":30143:30274   */\n      tag_371\n      jump\t// in\n    tag_642:\n        /* \"#utility.yul\":30135:30274   */\n      swap1\n      pop\n        /* \"#utility.yul\":29862:30281   */\n      swap2\n      swap1\n      pop\n      jump\t// out\n        /* \"#utility.yul\":30287:30513   */\n    tag_372:\n        /* \"#utility.yul\":30427:30461   */\n      0x4d61726b65743a205072696365206d7573742062652067726561746572207468\n        /* \"#utility.yul\":30423:30424   */\n      0x00\n        /* \"#utility.yul\":30415:30421   */\n      dup3\n        /* \"#utility.yul\":30411:30425   */\n      add\n        /* \"#utility.yul\":30404:30462   */\n      mstore\n        /* \"#utility.yul\":30496:30505   */\n      0x616e207a65726f00000000000000000000000000000000000000000000000000\n        /* \"#utility.yul\":30491:30493   */\n      0x20\n        /* \"#utility.yul\":30483:30489   */\n      dup3\n        /* \"#utility.yul\":30479:30494   */\n      add\n        /* \"#utility.yul\":30472:30506   */\n      mstore\n        /* \"#utility.yul\":30287:30513   */\n      pop\n      jump\t// out\n        /* \"#utility.yul\":30519:30885   */\n    tag_373:\n        /* \"#utility.yul\":30661:30664   */\n      0x00\n        /* \"#utility.yul\":30682:30749   */\n      tag_645\n        /* \"#utility.yul\":30746:30748   */\n      0x27\n        /* \"#utility.yul\":30741:30744   */\n      dup4\n        /* \"#utility.yul\":30682:30749   */\n      tag_347\n      jump\t// in\n    tag_645:\n        /* \"#utility.yul\":30675:30749   */\n      swap2\n      pop\n        /* \"#utility.yul\":30758:30851   */\n      tag_646\n        /* \"#utility.yul\":30847:30850   */\n      dup3\n        /* \"#utility.yul\":30758:30851   */\n      tag_372\n      jump\t// in\n    tag_646:\n        /* \"#utility.yul\":30876:30878   */\n      0x40\n        /* \"#utility.yul\":30871:30874   */\n      dup3\n        /* \"#utility.yul\":30867:30879   */\n      add\n        /* \"#utility.yul\":30860:30879   */\n      swap1\n      pop\n        /* \"#utility.yul\":30519:30885   */\n      swap2\n      swap1\n      pop\n      jump\t// out\n        /* \"#utility.yul\":30891:31310   */\n    tag_274:\n        /* \"#utility.yul\":31057:31061   */\n      0x00\n        /* \"#utility.yul\":31095:31097   */\n      0x20\n        /* \"#utility.yul\":31084:31093   */\n      dup3\n        /* \"#utility.yul\":31080:31098   */\n      add\n        /* \"#utility.yul\":31072:31098   */\n      swap1\n      pop\n        /* \"#utility.yul\":31144:31153   */\n      dup2\n        /* \"#utility.yul\":31138:31142   */\n      dup2\n        /* \"#utility.yul\":31134:31154   */\n      sub\n        /* \"#utility.yul\":31130:31131   */\n      0x00\n        /* \"#utility.yul\":31119:31128   */\n      dup4\n        /* \"#utility.yul\":31115:31132   */\n      add\n        /* \"#utility.yul\":31108:31155   */\n      mstore\n        /* \"#utility.yul\":31172:31303   */\n      tag_648\n        /* \"#utility.yul\":31298:31302   */\n      dup2\n        /* \"#utility.yul\":31172:31303   */\n      tag_373\n      jump\t// in\n    tag_648:\n        /* \"#utility.yul\":31164:31303   */\n      swap1\n      pop\n        /* \"#utility.yul\":30891:31310   */\n      swap2\n      swap1\n      pop\n      jump\t// out\n        /* \"#utility.yul\":31316:31510   */\n    tag_277:\n        /* \"#utility.yul\":31356:31360   */\n      0x00\n        /* \"#utility.yul\":31376:31396   */\n      tag_650\n        /* \"#utility.yul\":31394:31395   */\n      dup3\n        /* \"#utility.yul\":31376:31396   */\n      tag_303\n      jump\t// in\n    tag_650:\n        /* \"#utility.yul\":31371:31396   */\n      swap2\n      pop\n        /* \"#utility.yul\":31410:31430   */\n      tag_651\n        /* \"#utility.yul\":31428:31429   */\n      dup4\n        /* \"#utility.yul\":31410:31430   */\n      tag_303\n      jump\t// in\n    tag_651:\n        /* \"#utility.yul\":31405:31430   */\n      swap3\n      pop\n        /* \"#utility.yul\":31454:31455   */\n      dup3\n        /* \"#utility.yul\":31451:31452   */\n      dup3\n        /* \"#utility.yul\":31447:31456   */\n      sub\n        /* \"#utility.yul\":31439:31456   */\n      swap1\n      pop\n        /* \"#utility.yul\":31478:31479   */\n      dup2\n        /* \"#utility.yul\":31472:31476   */\n      dup2\n        /* \"#utility.yul\":31469:31480   */\n      gt\n        /* \"#utility.yul\":31466:31503   */\n      iszero\n      tag_652\n      jumpi\n        /* \"#utility.yul\":31483:31501   */\n      tag_653\n      tag_362\n      jump\t// in\n    tag_653:\n        /* \"#utility.yul\":31466:31503   */\n    tag_652:\n        /* \"#utility.yul\":31316:31510   */\n      swap3\n      swap2\n      pop\n      pop\n      jump\t// out\n        /* \"#utility.yul\":31516:32180   */\n    tag_286:\n        /* \"#utility.yul\":31721:31725   */\n      0x00\n        /* \"#utility.yul\":31759:31762   */\n      0xa0\n        /* \"#utility.yul\":31748:31757   */\n      dup3\n        /* \"#utility.yul\":31744:31763   */\n      add\n        /* \"#utility.yul\":31736:31763   */\n      swap1\n      pop\n        /* \"#utility.yul\":31773:31844   */\n      tag_655\n        /* \"#utility.yul\":31841:31842   */\n      0x00\n        /* \"#utility.yul\":31830:31839   */\n      dup4\n        /* \"#utility.yul\":31826:31843   */\n      add\n        /* \"#utility.yul\":31817:31823   */\n      dup9\n        /* \"#utility.yul\":31773:31844   */\n      tag_319\n      jump\t// in\n    tag_655:\n        /* \"#utility.yul\":31854:31926   */\n      tag_656\n        /* \"#utility.yul\":31922:31924   */\n      0x20\n        /* \"#utility.yul\":31911:31920   */\n      dup4\n        /* \"#utility.yul\":31907:31925   */\n      add\n        /* \"#utility.yul\":31898:31904   */\n      dup8\n        /* \"#utility.yul\":31854:31926   */\n      tag_321\n      jump\t// in\n    tag_656:\n        /* \"#utility.yul\":31936:32008   */\n      tag_657\n        /* \"#utility.yul\":32004:32006   */\n      0x40\n        /* \"#utility.yul\":31993:32002   */\n      dup4\n        /* \"#utility.yul\":31989:32007   */\n      add\n        /* \"#utility.yul\":31980:31986   */\n      dup7\n        /* \"#utility.yul\":31936:32008   */\n      tag_321\n      jump\t// in\n    tag_657:\n        /* \"#utility.yul\":32018:32090   */\n      tag_658\n        /* \"#utility.yul\":32086:32088   */\n      0x60\n        /* \"#utility.yul\":32075:32084   */\n      dup4\n        /* \"#utility.yul\":32071:32089   */\n      add\n        /* \"#utility.yul\":32062:32068   */\n      dup6\n        /* \"#utility.yul\":32018:32090   */\n      tag_321\n      jump\t// in\n    tag_658:\n        /* \"#utility.yul\":32100:32173   */\n      tag_659\n        /* \"#utility.yul\":32168:32171   */\n      0x80\n        /* \"#utility.yul\":32157:32166   */\n      dup4\n        /* \"#utility.yul\":32153:32172   */\n      add\n        /* \"#utility.yul\":32144:32150   */\n      dup5\n        /* \"#utility.yul\":32100:32173   */\n      tag_321\n      jump\t// in\n    tag_659:\n        /* \"#utility.yul\":31516:32180   */\n      swap7\n      swap6\n      pop\n      pop\n      pop\n      pop\n      pop\n      pop\n      jump\t// out\n        /* \"#utility.yul\":32186:32366   */\n    tag_298:\n        /* \"#utility.yul\":32234:32311   */\n      0x4e487b7100000000000000000000000000000000000000000000000000000000\n        /* \"#utility.yul\":32231:32232   */\n      0x00\n        /* \"#utility.yul\":32224:32312   */\n      mstore\n        /* \"#utility.yul\":32331:32335   */\n      0x31\n        /* \"#utility.yul\":32328:32329   */\n      0x04\n        /* \"#utility.yul\":32321:32336   */\n      mstore\n        /* \"#utility.yul\":32355:32359   */\n      0x24\n        /* \"#utility.yul\":32352:32353   */\n      0x00\n        /* \"#utility.yul\":32345:32360   */\n      revert\n\n    auxdata: 0xa2646970667358221220d93a130a689b31918181debac6d112a92d337dfb82976a26121f6e26b1511ffd64736f6c63430008160033\n}\n",
				"bytecode": {
					"linkReferences": {},
					"object": "608060405234801562000010575f80fd5b5060405162003b3538038062003b35833981810160405281019062000036919062000259565b5f73ffffffffffffffffffffffffffffffffffffffff168273ffffffffffffffffffffffffffffffffffffffff1603620000a7576040517f08c379a00000000000000000000000000000000000000000000000000000000081526004016200009e9062000322565b60405180910390fd5b5f73ffffffffffffffffffffffffffffffffffffffff168173ffffffffffffffffffffffffffffffffffffffff160362000118576040517f08c379a00000000000000000000000000000000000000000000000000000000081526004016200010f90620003b6565b60405180910390fd5b815f806101000a81548173ffffffffffffffffffffffffffffffffffffffff021916908373ffffffffffffffffffffffffffffffffffffffff1602179055508060015f6101000a81548173ffffffffffffffffffffffffffffffffffffffff021916908373ffffffffffffffffffffffffffffffffffffffff1602179055505050620003d6565b5f80fd5b5f73ffffffffffffffffffffffffffffffffffffffff82169050919050565b5f620001ce82620001a3565b9050919050565b5f620001e182620001c2565b9050919050565b620001f381620001d5565b8114620001fe575f80fd5b50565b5f815190506200021181620001e8565b92915050565b5f6200022382620001c2565b9050919050565b620002358162000217565b811462000240575f80fd5b50565b5f8151905062000253816200022a565b92915050565b5f80604083850312156200027257620002716200019f565b5b5f620002818582860162000201565b9250506020620002948582860162000243565b9150509250929050565b5f82825260208201905092915050565b7f4d61726b65743a2049455243323020636f6e74726163742061646472657373205f8201527f6d757374206265206e6f6e2d6e756c6c00000000000000000000000000000000602082015250565b5f6200030a6030836200029e565b91506200031782620002ae565b604082019050919050565b5f6020820190508181035f8301526200033b81620002fc565b9050919050565b7f4d61726b65743a204945524337323120636f6e747261637420616464726573735f8201527f206d757374206265206e6f6e2d6e756c6c000000000000000000000000000000602082015250565b5f6200039e6031836200029e565b9150620003ab8262000342565b604082019050919050565b5f6020820190508181035f830152620003cf8162000390565b9050919050565b61375180620003e45f395ff3fe6080604052600436106100fd575f3560e01c8063a85c38ef11610094578063cf266ed011610063578063cf266ed01461033b578063d96a094a14610363578063da694df01461038b578063e0391b09146103c7578063fcce4883146103f1576100fd565b8063a85c38ef1461026a578063b3de019c146102ad578063b5cdf924146102d5578063bca6ce6414610311576100fd565b8063514fcac7116100d0578063514fcac7146101c4578063629cb2e4146101ec578063785e9e86146102165780639d4971b714610240576100fd565b80631200617f14610101578063150b7a021461011d57806321686b2514610159578063394a907714610181575b5f80fd5b61011b600480360381019061011691906127c0565b61042d565b005b348015610128575f80fd5b50610143600480360381019061013e91906128a6565b610819565b6040516101509190612964565b60405180910390f35b348015610164575f80fd5b5061017f600480360381019061017a91906129b2565b6109a9565b005b34801561018c575f80fd5b506101a760048036038101906101a291906127c0565b610abb565b6040516101bb989796959493929190612a1d565b60405180910390f35b3480156101cf575f80fd5b506101ea60048036038101906101e591906127c0565b610b49565b005b3480156101f7575f80fd5b50610200610d06565b60405161020d9190612c0f565b60405180910390f35b348015610221575f80fd5b5061022a610ff5565b6040516102379190612c8a565b60405180910390f35b34801561024b575f80fd5b50610254611018565b6040516102619190612ca3565b60405180910390f35b348015610275575f80fd5b50610290600480360381019061028b91906127c0565b611024565b6040516102a4989796959493929190612a1d565b60405180910390f35b3480156102b8575f80fd5b506102d360048036038101906102ce9190612cbc565b6110c1565b005b3480156102e0575f80fd5b506102fb60048036038101906102f69190612e32565b61125f565b6040516103089190612ca3565b60405180910390f35b34801561031c575f80fd5b50610325611313565b6040516103329190612eac565b60405180910390f35b348015610346575f80fd5b50610361600480360381019061035c91906127c0565b611338565b005b34801561036e575f80fd5b50610389600480360381019061038491906127c0565b6117e5565b005b348015610396575f80fd5b506103b160048036038101906103ac91906127c0565b611a97565b6040516103be9190612ca3565b60405180910390f35b3480156103d2575f80fd5b506103db611aac565b6040516103e89190612c0f565b60405180910390f35b3480156103fc575f80fd5b50610417600480360381019061041291906127c0565b611bfe565b6040516104249190612ec5565b60405180910390f35b61043681611bfe565b610475576040517f08c379a000000000000000000000000000000000000000000000000000000000815260040161046c90612f38565b60405180910390fd5b6001151560025f8381526020019081526020015f205f0160149054906101000a900460ff161515146104dc576040517f08c379a00000000000000000000000000000000000000000000000000000000081526004016104d390612fa0565b60405180910390fd5b4260025f8381526020019081526020015f206001015410610532576040517f08c379a000000000000000000000000000000000000000000000000000000000815260040161052990613008565b60405180910390fd5b4260025f8381526020019081526020015f206002015411610588576040517f08c379a000000000000000000000000000000000000000000000000000000000815260040161057f90613008565b60405180910390fd5b3460025f8381526020019081526020015f2060030154106105de576040517f08c379a00000000000000000000000000000000000000000000000000000000081526004016105d590613096565b60405180910390fd5b3373ffffffffffffffffffffffffffffffffffffffff1660025f8381526020019081526020015f205f015f9054906101000a900473ffffffffffffffffffffffffffffffffffffffff1673ffffffffffffffffffffffffffffffffffffffff160361067e576040517f08c379a0000000000000000000000000000000000000000000000000000000008152600401610675906130fe565b60405180910390fd5b5f73ffffffffffffffffffffffffffffffffffffffff1660025f8381526020019081526020015f206004015f9054906101000a900473ffffffffffffffffffffffffffffffffffffffff1673ffffffffffffffffffffffffffffffffffffffff16146107705760025f8281526020019081526020015f206004015f9054906101000a900473ffffffffffffffffffffffffffffffffffffffff1673ffffffffffffffffffffffffffffffffffffffff166108fc60025f8481526020019081526020015f206003015490811502906040515f60405180830381858888f1935050505015801561076e573d5f803e3d5ffd5b505b3460025f8381526020019081526020015f20600301819055503360025f8381526020019081526020015f206004015f6101000a81548173ffffffffffffffffffffffffffffffffffffffff021916908373ffffffffffffffffffffffffffffffffffffffff1602179055507f425ad1abebdb76b51b8cebecf53b40f81159707f686d21002d95196ffd63784a33823460405161080e9392919061311c565b60405180910390a150565b5f8473ffffffffffffffffffffffffffffffffffffffff168673ffffffffffffffffffffffffffffffffffffffff1614610888576040517f08c379a000000000000000000000000000000000000000000000000000000000815260040161087f9061319b565b60405180910390fd5b5f6108d684848080601f0160208091040260200160405190810160405280939291908181526020018383808284375f81840152601f19601f820116905080830192505050505050505f61125f565b90505f60055f8873ffffffffffffffffffffffffffffffffffffffff1673ffffffffffffffffffffffffffffffffffffffff1681526020019081526020015f205f015f9054906101000a900460ff1690505f60055f8973ffffffffffffffffffffffffffffffffffffffff1673ffffffffffffffffffffffffffffffffffffffff1681526020019081526020015f206001015490505f15158215150361098657610981888885611c68565b610993565b61099288888584611fbc565b5b63150b7a0260e01b935050505095945050505050565b5f151582151503610a375760405180604001604052805f151581526020015f81525060055f3373ffffffffffffffffffffffffffffffffffffffff1673ffffffffffffffffffffffffffffffffffffffff1681526020019081526020015f205f820151815f015f6101000a81548160ff02191690831515021790555060208201518160010155905050610ab7565b60405180604001604052806001151581526020018281525060055f3373ffffffffffffffffffffffffffffffffffffffff1673ffffffffffffffffffffffffffffffffffffffff1681526020019081526020015f205f820151815f015f6101000a81548160ff021916908315150217905550602082015181600101559050505b5050565b6002602052805f5260405f205f91509050805f015f9054906101000a900473ffffffffffffffffffffffffffffffffffffffff1690805f0160149054906101000a900460ff1690806001015490806002015490806003015490806004015f9054906101000a900473ffffffffffffffffffffffffffffffffffffffff16908060050154908060060154905088565b610b5281611bfe565b610b91576040517f08c379a0000000000000000000000000000000000000000000000000000000008152600401610b8890612f38565b60405180910390fd5b5f60025f8381526020019081526020015f205f015f9054906101000a900473ffffffffffffffffffffffffffffffffffffffff1690503373ffffffffffffffffffffffffffffffffffffffff168173ffffffffffffffffffffffffffffffffffffffff1614610c35576040517f08c379a0000000000000000000000000000000000000000000000000000000008152600401610c2c90613203565b60405180910390fd5b60015f9054906101000a900473ffffffffffffffffffffffffffffffffffffffff1673ffffffffffffffffffffffffffffffffffffffff166342842e0e3083856040518463ffffffff1660e01b8152600401610c9393929190613221565b5f604051808303815f87803b158015610caa575f80fd5b505af1158015610cbc573d5f803e3d5ffd5b50505050610cc98261235d565b7fc0e68d6b69f741c21e955cad2ae4d505b6f6735c7e7b278251b3f6283a5f07eb8183604051610cfa929190613256565b60405180910390a15050565b60605f60038054905067ffffffffffffffff811115610d2857610d27612d0e565b5b604051908082528060200260200182016040528015610d6157816020015b610d4e612711565b815260200190600190039081610d465790505b5090505f805b600380549050811015610f43573373ffffffffffffffffffffffffffffffffffffffff1660038281548110610d9f57610d9e61327d565b5b905f5260205f2090600702015f015f9054906101000a900473ffffffffffffffffffffffffffffffffffffffff1673ffffffffffffffffffffffffffffffffffffffff1603610f365760038181548110610dfc57610dfb61327d565b5b905f5260205f209060070201604051806101000160405290815f82015f9054906101000a900473ffffffffffffffffffffffffffffffffffffffff1673ffffffffffffffffffffffffffffffffffffffff1673ffffffffffffffffffffffffffffffffffffffff1681526020015f820160149054906101000a900460ff16151515158152602001600182015481526020016002820154815260200160038201548152602001600482015f9054906101000a900473ffffffffffffffffffffffffffffffffffffffff1673ffffffffffffffffffffffffffffffffffffffff1673ffffffffffffffffffffffffffffffffffffffff16815260200160058201548152602001600682015481525050838381518110610f1c57610f1b61327d565b5b60200260200101819052508180610f32906132d7565b9250505b8080600101915050610d67565b505f8167ffffffffffffffff811115610f5f57610f5e612d0e565b5b604051908082528060200260200182016040528015610f9857816020015b610f85612711565b815260200190600190039081610f7d5790505b5090505f5b82811015610feb57838181518110610fb857610fb761327d565b5b6020026020010151828281518110610fd357610fd261327d565b5b60200260200101819052508080600101915050610f9d565b5080935050505090565b5f8054906101000a900473ffffffffffffffffffffffffffffffffffffffff1681565b5f600380549050905090565b60038181548110611033575f80fd5b905f5260205f2090600702015f91509050805f015f9054906101000a900473ffffffffffffffffffffffffffffffffffffffff1690805f0160149054906101000a900460ff1690806001015490806002015490806003015490806004015f9054906101000a900473ffffffffffffffffffffffffffffffffffffffff16908060050154908060060154905088565b6110ca82611bfe565b611109576040517f08c379a000000000000000000000000000000000000000000000000000000000815260040161110090612f38565b60405180910390fd5b5f60025f8481526020019081526020015f205f015f9054906101000a900473ffffffffffffffffffffffffffffffffffffffff1690503373ffffffffffffffffffffffffffffffffffffffff168173ffffffffffffffffffffffffffffffffffffffff16146111ad576040517f08c379a00000000000000000000000000000000000000000000000000000000081526004016111a490613203565b60405180910390fd5b5f60025f8581526020019081526020015f206006015490508260025f8681526020019081526020015f20600601819055505f600360045f8781526020019081526020015f2054815481106112045761120361327d565b5b905f5260205f20906007020190508381600601819055507f342a7f6248980b0f191b96eb6b7a439c4da78b2c97b86ca66cc7ee90d4b04cce83868487604051611250949392919061331e565b60405180910390a15050505050565b5f8160208361126e9190613361565b10156112af576040517f08c379a00000000000000000000000000000000000000000000000000000000081526004016112a6906133de565b60405180910390fd5b6020826112bc9190613361565b835110156112ff576040517f08c379a00000000000000000000000000000000000000000000000000000000081526004016112f690613446565b60405180910390fd5b5f8260208501015190508091505092915050565b60015f9054906101000a900473ffffffffffffffffffffffffffffffffffffffff1681565b61134181611bfe565b611380576040517f08c379a000000000000000000000000000000000000000000000000000000000815260040161137790612f38565b60405180910390fd5b6001151560025f8381526020019081526020015f205f0160149054906101000a900460ff161515146113e7576040517f08c379a00000000000000000000000000000000000000000000000000000000081526004016113de90612fa0565b60405180910390fd5b4260025f8381526020019081526020015f2060020154111561143e576040517f08c379a000000000000000000000000000000000000000000000000000000000815260040161143590613008565b60405180910390fd5b5f73ffffffffffffffffffffffffffffffffffffffff1660025f8381526020019081526020015f206004015f9054906101000a900473ffffffffffffffffffffffffffffffffffffffff1673ffffffffffffffffffffffffffffffffffffffff16146116b05760025f8281526020019081526020015f205f015f9054906101000a900473ffffffffffffffffffffffffffffffffffffffff1673ffffffffffffffffffffffffffffffffffffffff166108fc60025f8481526020019081526020015f206003015490811502906040515f60405180830381858888f1935050505015801561152d573d5f803e3d5ffd5b5060015f9054906101000a900473ffffffffffffffffffffffffffffffffffffffff1673ffffffffffffffffffffffffffffffffffffffff166342842e0e3060025f8581526020019081526020015f206004015f9054906101000a900473ffffffffffffffffffffffffffffffffffffffff16846040518463ffffffff1660e01b81526004016115bf93929190613221565b5f604051808303815f87803b1580156115d6575f80fd5b505af11580156115e8573d5f803e3d5ffd5b505050506115f58161235d565b7f424d5e5f0192c7dacdbe646ca31b00299146d883d76a95ef5cddbac7cd342eab60025f8381526020019081526020015f206004015f9054906101000a900473ffffffffffffffffffffffffffffffffffffffff1660025f8481526020019081526020015f205f015f9054906101000a900473ffffffffffffffffffffffffffffffffffffffff168360025f8681526020019081526020015f20600301546040516116a39493929190613464565b60405180910390a16117e2565b60015f9054906101000a900473ffffffffffffffffffffffffffffffffffffffff1673ffffffffffffffffffffffffffffffffffffffff166342842e0e3060025f8581526020019081526020015f205f015f9054906101000a900473ffffffffffffffffffffffffffffffffffffffff16846040518463ffffffff1660e01b815260040161174093929190613221565b5f604051808303815f87803b158015611757575f80fd5b505af1158015611769573d5f803e3d5ffd5b505050506117768161235d565b7fc0e68d6b69f741c21e955cad2ae4d505b6f6735c7e7b278251b3f6283a5f07eb60025f8381526020019081526020015f205f015f9054906101000a900473ffffffffffffffffffffffffffffffffffffffff16826040516117d9929190613256565b60405180910390a15b50565b6117ee81611bfe565b61182d576040517f08c379a000000000000000000000000000000000000000000000000000000000815260040161182490612f38565b60405180910390fd5b5f151560025f8381526020019081526020015f205f0160149054906101000a900460ff16151514611893576040517f08c379a000000000000000000000000000000000000000000000000000000000815260040161188a906134f1565b60405180910390fd5b5f60025f8381526020019081526020015f205f015f9054906101000a900473ffffffffffffffffffffffffffffffffffffffff1690505f3390505f60025f8581526020019081526020015f206006015490505f8054906101000a900473ffffffffffffffffffffffffffffffffffffffff1673ffffffffffffffffffffffffffffffffffffffff166323b872dd8385846040518463ffffffff1660e01b815260040161194193929190613221565b6020604051808303815f875af115801561195d573d5f803e3d5ffd5b505050506040513d601f19601f820116820180604052508101906119819190613523565b6119c0576040517f08c379a00000000000000000000000000000000000000000000000000000000081526004016119b7906135be565b60405180910390fd5b60015f9054906101000a900473ffffffffffffffffffffffffffffffffffffffff1673ffffffffffffffffffffffffffffffffffffffff166342842e0e3084876040518463ffffffff1660e01b8152600401611a1e93929190613221565b5f604051808303815f87803b158015611a35575f80fd5b505af1158015611a47573d5f803e3d5ffd5b50505050611a548461235d565b7f424d5e5f0192c7dacdbe646ca31b00299146d883d76a95ef5cddbac7cd342eab82848684604051611a899493929190613464565b60405180910390a150505050565b6004602052805f5260405f205f915090505481565b60606003805480602002602001604051908101604052809291908181526020015f905b82821015611bf5578382905f5260205f209060070201604051806101000160405290815f82015f9054906101000a900473ffffffffffffffffffffffffffffffffffffffff1673ffffffffffffffffffffffffffffffffffffffff1673ffffffffffffffffffffffffffffffffffffffff1681526020015f820160149054906101000a900460ff16151515158152602001600182015481526020016002820154815260200160038201548152602001600482015f9054906101000a900473ffffffffffffffffffffffffffffffffffffffff1673ffffffffffffffffffffffffffffffffffffffff1673ffffffffffffffffffffffffffffffffffffffff1681526020016005820154815260200160068201548152505081526020019060010190611acf565b50505050905090565b5f8073ffffffffffffffffffffffffffffffffffffffff1660025f8481526020019081526020015f205f015f9054906101000a900473ffffffffffffffffffffffffffffffffffffffff1673ffffffffffffffffffffffffffffffffffffffff1614159050919050565b5f8111611caa576040517f08c379a0000000000000000000000000000000000000000000000000000000008152600401611ca19061364c565b60405180910390fd5b8260025f8481526020019081526020015f205f015f6101000a81548173ffffffffffffffffffffffffffffffffffffffff021916908373ffffffffffffffffffffffffffffffffffffffff1602179055508060025f8481526020019081526020015f20600601819055508160025f8481526020019081526020015f20600501819055505f60025f8481526020019081526020015f205f0160146101000a81548160ff0219169083151502179055505f60025f8481526020019081526020015f20600101819055505f60025f8481526020019081526020015f20600201819055508060025f8481526020019081526020015f20600301819055505f60025f8481526020019081526020015f206004015f6101000a81548173ffffffffffffffffffffffffffffffffffffffff021916908373ffffffffffffffffffffffffffffffffffffffff160217905550600360025f8481526020019081526020015f20908060018154018082558091505060019003905f5260205f2090600702015f909190919091505f82015f9054906101000a900473ffffffffffffffffffffffffffffffffffffffff16815f015f6101000a81548173ffffffffffffffffffffffffffffffffffffffff021916908373ffffffffffffffffffffffffffffffffffffffff1602179055505f820160149054906101000a900460ff16815f0160146101000a81548160ff021916908315150217905550600182015481600101556002820154816002015560038201548160030155600482015f9054906101000a900473ffffffffffffffffffffffffffffffffffffffff16816004015f6101000a81548173ffffffffffffffffffffffffffffffffffffffff021916908373ffffffffffffffffffffffffffffffffffffffff160217905550600582015481600501556006820154816006015550506001600380549050611f67919061366a565b60045f8481526020019081526020015f20819055507f89207568998d5fd0f77ca24d90d746b19beb110826a030adf1f1ee162f207eaf838383604051611faf9392919061311c565b60405180910390a1505050565b5f8211611ffe576040517f08c379a0000000000000000000000000000000000000000000000000000000008152600401611ff59061364c565b60405180910390fd5b8360025f8581526020019081526020015f205f015f6101000a81548173ffffffffffffffffffffffffffffffffffffffff021916908373ffffffffffffffffffffffffffffffffffffffff1602179055508160025f8581526020019081526020015f20600601819055508260025f8581526020019081526020015f2060050181905550600160025f8581526020019081526020015f205f0160146101000a81548160ff0219169083151502179055504260025f8581526020019081526020015f20600101819055508060025f8581526020019081526020015f20600101546120e69190613361565b60025f8581526020019081526020015f20600201819055508160025f8581526020019081526020015f20600301819055505f60025f8581526020019081526020015f206004015f6101000a81548173ffffffffffffffffffffffffffffffffffffffff021916908373ffffffffffffffffffffffffffffffffffffffff160217905550600360025f8581526020019081526020015f20908060018154018082558091505060019003905f5260205f2090600702015f909190919091505f82015f9054906101000a900473ffffffffffffffffffffffffffffffffffffffff16815f015f6101000a81548173ffffffffffffffffffffffffffffffffffffffff021916908373ffffffffffffffffffffffffffffffffffffffff1602179055505f820160149054906101000a900460ff16815f0160146101000a81548160ff021916908315150217905550600182015481600101556002820154816002015560038201548160030155600482015f9054906101000a900473ffffffffffffffffffffffffffffffffffffffff16816004015f6101000a81548173ffffffffffffffffffffffffffffffffffffffff021916908373ffffffffffffffffffffffffffffffffffffffff1602179055506005820154816005015560068201548160060155505060016003805490506122db919061366a565b60045f8581526020019081526020015f20819055507fb5e71c08b6a53fea1aa8bc83008b6b97e75840393d4cdc95cae7bdb41c16cdfa84848460025f8881526020019081526020015f206001015460025f8981526020019081526020015f206002015460405161234f95949392919061369d565b60405180910390a150505050565b60025f8281526020019081526020015f205f8082015f6101000a81549073ffffffffffffffffffffffffffffffffffffffff02191690555f820160146101000a81549060ff0219169055600182015f9055600282015f9055600382015f9055600482015f6101000a81549073ffffffffffffffffffffffffffffffffffffffff0219169055600582015f9055600682015f905550505f60045f8381526020019081526020015f205490505f600160038054905061241a919061366a565b9050818114612662575f600382815481106124385761243761327d565b5b905f5260205f209060070201604051806101000160405290815f82015f9054906101000a900473ffffffffffffffffffffffffffffffffffffffff1673ffffffffffffffffffffffffffffffffffffffff1673ffffffffffffffffffffffffffffffffffffffff1681526020015f820160149054906101000a900460ff16151515158152602001600182015481526020016002820154815260200160038201548152602001600482015f9054906101000a900473ffffffffffffffffffffffffffffffffffffffff1673ffffffffffffffffffffffffffffffffffffffff1673ffffffffffffffffffffffffffffffffffffffff168152602001600582015481526020016006820154815250509050806003848154811061255c5761255b61327d565b5b905f5260205f2090600702015f820151815f015f6101000a81548173ffffffffffffffffffffffffffffffffffffffff021916908373ffffffffffffffffffffffffffffffffffffffff1602179055506020820151815f0160146101000a81548160ff02191690831515021790555060408201518160010155606082015181600201556080820151816003015560a0820151816004015f6101000a81548173ffffffffffffffffffffffffffffffffffffffff021916908373ffffffffffffffffffffffffffffffffffffffff16021790555060c0820151816005015560e082015181600601559050508260045f8360c0015181526020019081526020015f2081905550505b6003805480612674576126736136ee565b5b600190038181905f5260205f2090600702015f8082015f6101000a81549073ffffffffffffffffffffffffffffffffffffffff02191690555f820160146101000a81549060ff0219169055600182015f9055600282015f9055600382015f9055600482015f6101000a81549073ffffffffffffffffffffffffffffffffffffffff0219169055600582015f9055600682015f905550509055505050565b6040518061010001604052805f73ffffffffffffffffffffffffffffffffffffffff1681526020015f151581526020015f81526020015f81526020015f81526020015f73ffffffffffffffffffffffffffffffffffffffff1681526020015f81526020015f81525090565b5f604051905090565b5f80fd5b5f80fd5b5f819050919050565b61279f8161278d565b81146127a9575f80fd5b50565b5f813590506127ba81612796565b92915050565b5f602082840312156127d5576127d4612785565b5b5f6127e2848285016127ac565b91505092915050565b5f73ffffffffffffffffffffffffffffffffffffffff82169050919050565b5f612814826127eb565b9050919050565b6128248161280a565b811461282e575f80fd5b50565b5f8135905061283f8161281b565b92915050565b5f80fd5b5f80fd5b5f80fd5b5f8083601f84011261286657612865612845565b5b8235905067ffffffffffffffff81111561288357612882612849565b5b60208301915083600182028301111561289f5761289e61284d565b5b9250929050565b5f805f805f608086880312156128bf576128be612785565b5b5f6128cc88828901612831565b95505060206128dd88828901612831565b94505060406128ee888289016127ac565b935050606086013567ffffffffffffffff81111561290f5761290e612789565b5b61291b88828901612851565b92509250509295509295909350565b5f7fffffffff0000000000000000000000000000000000000000000000000000000082169050919050565b61295e8161292a565b82525050565b5f6020820190506129775f830184612955565b92915050565b5f8115159050919050565b6129918161297d565b811461299b575f80fd5b50565b5f813590506129ac81612988565b92915050565b5f80604083850312156129c8576129c7612785565b5b5f6129d58582860161299e565b92505060206129e6858286016127ac565b9150509250929050565b6129f98161280a565b82525050565b612a088161297d565b82525050565b612a178161278d565b82525050565b5f61010082019050612a315f83018b6129f0565b612a3e602083018a6129ff565b612a4b6040830189612a0e565b612a586060830188612a0e565b612a656080830187612a0e565b612a7260a08301866129f0565b612a7f60c0830185612a0e565b612a8c60e0830184612a0e565b9998505050505050505050565b5f81519050919050565b5f82825260208201905092915050565b5f819050602082019050919050565b612acb8161280a565b82525050565b612ada8161297d565b82525050565b612ae98161278d565b82525050565b61010082015f820151612b045f850182612ac2565b506020820151612b176020850182612ad1565b506040820151612b2a6040850182612ae0565b506060820151612b3d6060850182612ae0565b506080820151612b506080850182612ae0565b5060a0820151612b6360a0850182612ac2565b5060c0820151612b7660c0850182612ae0565b5060e0820151612b8960e0850182612ae0565b50505050565b5f612b9a8383612aef565b6101008301905092915050565b5f602082019050919050565b5f612bbd82612a99565b612bc78185612aa3565b9350612bd283612ab3565b805f5b83811015612c02578151612be98882612b8f565b9750612bf483612ba7565b925050600181019050612bd5565b5085935050505092915050565b5f6020820190508181035f830152612c278184612bb3565b905092915050565b5f819050919050565b5f612c52612c4d612c48846127eb565b612c2f565b6127eb565b9050919050565b5f612c6382612c38565b9050919050565b5f612c7482612c59565b9050919050565b612c8481612c6a565b82525050565b5f602082019050612c9d5f830184612c7b565b92915050565b5f602082019050612cb65f830184612a0e565b92915050565b5f8060408385031215612cd257612cd1612785565b5b5f612cdf858286016127ac565b9250506020612cf0858286016127ac565b9150509250929050565b5f80fd5b5f601f19601f8301169050919050565b7f4e487b71000000000000000000000000000000000000000000000000000000005f52604160045260245ffd5b612d4482612cfe565b810181811067ffffffffffffffff82111715612d6357612d62612d0e565b5b80604052505050565b5f612d7561277c565b9050612d818282612d3b565b919050565b5f67ffffffffffffffff821115612da057612d9f612d0e565b5b612da982612cfe565b9050602081019050919050565b828183375f83830152505050565b5f612dd6612dd184612d86565b612d6c565b905082815260208101848484011115612df257612df1612cfa565b5b612dfd848285612db6565b509392505050565b5f82601f830112612e1957612e18612845565b5b8135612e29848260208601612dc4565b91505092915050565b5f8060408385031215612e4857612e47612785565b5b5f83013567ffffffffffffffff811115612e6557612e64612789565b5b612e7185828601612e05565b9250506020612e82858286016127ac565b9150509250929050565b5f612e9682612c59565b9050919050565b612ea681612e8c565b82525050565b5f602082019050612ebf5f830184612e9d565b92915050565b5f602082019050612ed85f8301846129ff565b92915050565b5f82825260208201905092915050565b7f4d61726b65743a20546f6b656e204944206973206e6f74206c697374656400005f82015250565b5f612f22601e83612ede565b9150612f2d82612eee565b602082019050919050565b5f6020820190508181035f830152612f4f81612f16565b9050919050565b7f74686973206f6e65206973206e6f74206f6e2061756374696f6e0000000000005f82015250565b5f612f8a601a83612ede565b9150612f9582612f56565b602082019050919050565b5f6020820190508181035f830152612fb781612f7e565b9050919050565b7f74696d65206e6f742076616c69640000000000000000000000000000000000005f82015250565b5f612ff2600e83612ede565b9150612ffd82612fbe565b602082019050919050565b5f6020820190508181035f83015261301f81612fe6565b9050919050565b7f6d7573742062652068696768657220746861742074686520626964206265666f5f8201527f7265000000000000000000000000000000000000000000000000000000000000602082015250565b5f613080602283612ede565b915061308b82613026565b604082019050919050565b5f6020820190508181035f8301526130ad81613074565b9050919050565b7f796f752063616e27742062696420796f7572206f776e20676f6f6400000000005f82015250565b5f6130e8601b83612ede565b91506130f3826130b4565b602082019050919050565b5f6020820190508181035f830152613115816130dc565b9050919050565b5f60608201905061312f5f8301866129f0565b61313c6020830185612a0e565b6131496040830184612a0e565b949350505050565b7f4d61726b65743a2053656c6c6572206d757374206265206f70657261746f72005f82015250565b5f613185601f83612ede565b915061319082613151565b602082019050919050565b5f6020820190508181035f8301526131b281613179565b9050919050565b7f4d61726b65743a2053656e646572206973206e6f742073656c6c6572000000005f82015250565b5f6131ed601c83612ede565b91506131f8826131b9565b602082019050919050565b5f6020820190508181035f83015261321a816131e1565b9050919050565b5f6060820190506132345f8301866129f0565b61324160208301856129f0565b61324e6040830184612a0e565b949350505050565b5f6040820190506132695f8301856129f0565b6132766020830184612a0e565b9392505050565b7f4e487b71000000000000000000000000000000000000000000000000000000005f52603260045260245ffd5b7f4e487b71000000000000000000000000000000000000000000000000000000005f52601160045260245ffd5b5f6132e18261278d565b91507fffffffffffffffffffffffffffffffffffffffffffffffffffffffffffffffff8203613313576133126132aa565b5b600182019050919050565b5f6080820190506133315f8301876129f0565b61333e6020830186612a0e565b61334b6040830185612a0e565b6133586060830184612a0e565b95945050505050565b5f61336b8261278d565b91506133768361278d565b925082820190508082111561338e5761338d6132aa565b5b92915050565b7f4d61726b65743a20746f55696e743235365f6f766572666c6f770000000000005f82015250565b5f6133c8601a83612ede565b91506133d382613394565b602082019050919050565b5f6020820190508181035f8301526133f5816133bc565b9050919050565b7f4d61726b65743a20746f55696e743235365f6f75744f66426f756e64730000005f82015250565b5f613430601d83612ede565b915061343b826133fc565b602082019050919050565b5f6020820190508181035f83015261345d81613424565b9050919050565b5f6080820190506134775f8301876129f0565b61348460208301866129f0565b6134916040830185612a0e565b61349e6060830184612a0e565b95945050505050565b7f74686973206f6e65206973206f6e2061756374696f6e000000000000000000005f82015250565b5f6134db601683612ede565b91506134e6826134a7565b602082019050919050565b5f6020820190508181035f830152613508816134cf565b9050919050565b5f8151905061351d81612988565b92915050565b5f6020828403121561353857613537612785565b5b5f6135458482850161350f565b91505092915050565b7f4d61726b65743a204552433230207472616e73666572206e6f742073756363655f8201527f737366756c000000000000000000000000000000000000000000000000000000602082015250565b5f6135a8602583612ede565b91506135b38261354e565b604082019050919050565b5f6020820190508181035f8301526135d58161359c565b9050919050565b7f4d61726b65743a205072696365206d75737420626520677265617465722074685f8201527f616e207a65726f00000000000000000000000000000000000000000000000000602082015250565b5f613636602783612ede565b9150613641826135dc565b604082019050919050565b5f6020820190508181035f8301526136638161362a565b9050919050565b5f6136748261278d565b915061367f8361278d565b9250828203905081811115613697576136966132aa565b5b92915050565b5f60a0820190506136b05f8301886129f0565b6136bd6020830187612a0e565b6136ca6040830186612a0e565b6136d76060830185612a0e565b6136e46080830184612a0e565b9695505050505050565b7f4e487b71000000000000000000000000000000000000000000000000000000005f52603160045260245ffdfea2646970667358221220d93a130a689b31918181debac6d112a92d337dfb82976a26121f6e26b1511ffd64736f6c63430008160033",
					"opcodes": "PUSH1 0x80 PUSH1 0x40 MSTORE CALLVALUE DUP1 ISZERO PUSH3 0x10 JUMPI PUSH0 DUP1 REVERT JUMPDEST POP PUSH1 0x40 MLOAD PUSH3 0x3B35 CODESIZE SUB DUP1 PUSH3 0x3B35 DUP4 CODECOPY DUP2 DUP2 ADD PUSH1 0x40 MSTORE DUP2 ADD SWAP1 PUSH3 0x36 SWAP2 SWAP1 PUSH3 0x259 JUMP JUMPDEST PUSH0 PUSH20 0xFFFFFFFFFFFFFFFFFFFFFFFFFFFFFFFFFFFFFFFF AND DUP3 PUSH20 0xFFFFFFFFFFFFFFFFFFFFFFFFFFFFFFFFFFFFFFFF AND SUB PUSH3 0xA7 JUMPI PUSH1 0x40 MLOAD PUSH32 0x8C379A000000000000000000000000000000000000000000000000000000000 DUP2 MSTORE PUSH1 0x4 ADD PUSH3 0x9E SWAP1 PUSH3 0x322 JUMP JUMPDEST PUSH1 0x40 MLOAD DUP1 SWAP2 SUB SWAP1 REVERT JUMPDEST PUSH0 PUSH20 0xFFFFFFFFFFFFFFFFFFFFFFFFFFFFFFFFFFFFFFFF AND DUP2 PUSH20 0xFFFFFFFFFFFFFFFFFFFFFFFFFFFFFFFFFFFFFFFF AND SUB PUSH3 0x118 JUMPI PUSH1 0x40 MLOAD PUSH32 0x8C379A000000000000000000000000000000000000000000000000000000000 DUP2 MSTORE PUSH1 0x4 ADD PUSH3 0x10F SWAP1 PUSH3 0x3B6 JUMP JUMPDEST PUSH1 0x40 MLOAD DUP1 SWAP2 SUB SWAP1 REVERT JUMPDEST DUP2 PUSH0 DUP1 PUSH2 0x100 EXP DUP2 SLOAD DUP2 PUSH20 0xFFFFFFFFFFFFFFFFFFFFFFFFFFFFFFFFFFFFFFFF MUL NOT AND SWAP1 DUP4 PUSH20 0xFFFFFFFFFFFFFFFFFFFFFFFFFFFFFFFFFFFFFFFF AND MUL OR SWAP1 SSTORE POP DUP1 PUSH1 0x1 PUSH0 PUSH2 0x100 EXP DUP2 SLOAD DUP2 PUSH20 0xFFFFFFFFFFFFFFFFFFFFFFFFFFFFFFFFFFFFFFFF MUL NOT AND SWAP1 DUP4 PUSH20 0xFFFFFFFFFFFFFFFFFFFFFFFFFFFFFFFFFFFFFFFF AND MUL OR SWAP1 SSTORE POP POP POP PUSH3 0x3D6 JUMP JUMPDEST PUSH0 DUP1 REVERT JUMPDEST PUSH0 PUSH20 0xFFFFFFFFFFFFFFFFFFFFFFFFFFFFFFFFFFFFFFFF DUP3 AND SWAP1 POP SWAP2 SWAP1 POP JUMP JUMPDEST PUSH0 PUSH3 0x1CE DUP3 PUSH3 0x1A3 JUMP JUMPDEST SWAP1 POP SWAP2 SWAP1 POP JUMP JUMPDEST PUSH0 PUSH3 0x1E1 DUP3 PUSH3 0x1C2 JUMP JUMPDEST SWAP1 POP SWAP2 SWAP1 POP JUMP JUMPDEST PUSH3 0x1F3 DUP2 PUSH3 0x1D5 JUMP JUMPDEST DUP2 EQ PUSH3 0x1FE JUMPI PUSH0 DUP1 REVERT JUMPDEST POP JUMP JUMPDEST PUSH0 DUP2 MLOAD SWAP1 POP PUSH3 0x211 DUP2 PUSH3 0x1E8 JUMP JUMPDEST SWAP3 SWAP2 POP POP JUMP JUMPDEST PUSH0 PUSH3 0x223 DUP3 PUSH3 0x1C2 JUMP JUMPDEST SWAP1 POP SWAP2 SWAP1 POP JUMP JUMPDEST PUSH3 0x235 DUP2 PUSH3 0x217 JUMP JUMPDEST DUP2 EQ PUSH3 0x240 JUMPI PUSH0 DUP1 REVERT JUMPDEST POP JUMP JUMPDEST PUSH0 DUP2 MLOAD SWAP1 POP PUSH3 0x253 DUP2 PUSH3 0x22A JUMP JUMPDEST SWAP3 SWAP2 POP POP JUMP JUMPDEST PUSH0 DUP1 PUSH1 0x40 DUP4 DUP6 SUB SLT ISZERO PUSH3 0x272 JUMPI PUSH3 0x271 PUSH3 0x19F JUMP JUMPDEST JUMPDEST PUSH0 PUSH3 0x281 DUP6 DUP3 DUP7 ADD PUSH3 0x201 JUMP JUMPDEST SWAP3 POP POP PUSH1 0x20 PUSH3 0x294 DUP6 DUP3 DUP7 ADD PUSH3 0x243 JUMP JUMPDEST SWAP2 POP POP SWAP3 POP SWAP3 SWAP1 POP JUMP JUMPDEST PUSH0 DUP3 DUP3 MSTORE PUSH1 0x20 DUP3 ADD SWAP1 POP SWAP3 SWAP2 POP POP JUMP JUMPDEST PUSH32 0x4D61726B65743A2049455243323020636F6E7472616374206164647265737320 PUSH0 DUP3 ADD MSTORE PUSH32 0x6D757374206265206E6F6E2D6E756C6C00000000000000000000000000000000 PUSH1 0x20 DUP3 ADD MSTORE POP JUMP JUMPDEST PUSH0 PUSH3 0x30A PUSH1 0x30 DUP4 PUSH3 0x29E JUMP JUMPDEST SWAP2 POP PUSH3 0x317 DUP3 PUSH3 0x2AE JUMP JUMPDEST PUSH1 0x40 DUP3 ADD SWAP1 POP SWAP2 SWAP1 POP JUMP JUMPDEST PUSH0 PUSH1 0x20 DUP3 ADD SWAP1 POP DUP2 DUP2 SUB PUSH0 DUP4 ADD MSTORE PUSH3 0x33B DUP2 PUSH3 0x2FC JUMP JUMPDEST SWAP1 POP SWAP2 SWAP1 POP JUMP JUMPDEST PUSH32 0x4D61726B65743A204945524337323120636F6E74726163742061646472657373 PUSH0 DUP3 ADD MSTORE PUSH32 0x206D757374206265206E6F6E2D6E756C6C000000000000000000000000000000 PUSH1 0x20 DUP3 ADD MSTORE POP JUMP JUMPDEST PUSH0 PUSH3 0x39E PUSH1 0x31 DUP4 PUSH3 0x29E JUMP JUMPDEST SWAP2 POP PUSH3 0x3AB DUP3 PUSH3 0x342 JUMP JUMPDEST PUSH1 0x40 DUP3 ADD SWAP1 POP SWAP2 SWAP1 POP JUMP JUMPDEST PUSH0 PUSH1 0x20 DUP3 ADD SWAP1 POP DUP2 DUP2 SUB PUSH0 DUP4 ADD MSTORE PUSH3 0x3CF DUP2 PUSH3 0x390 JUMP JUMPDEST SWAP1 POP SWAP2 SWAP1 POP JUMP JUMPDEST PUSH2 0x3751 DUP1 PUSH3 0x3E4 PUSH0 CODECOPY PUSH0 RETURN INVALID PUSH1 0x80 PUSH1 0x40 MSTORE PUSH1 0x4 CALLDATASIZE LT PUSH2 0xFD JUMPI PUSH0 CALLDATALOAD PUSH1 0xE0 SHR DUP1 PUSH4 0xA85C38EF GT PUSH2 0x94 JUMPI DUP1 PUSH4 0xCF266ED0 GT PUSH2 0x63 JUMPI DUP1 PUSH4 0xCF266ED0 EQ PUSH2 0x33B JUMPI DUP1 PUSH4 0xD96A094A EQ PUSH2 0x363 JUMPI DUP1 PUSH4 0xDA694DF0 EQ PUSH2 0x38B JUMPI DUP1 PUSH4 0xE0391B09 EQ PUSH2 0x3C7 JUMPI DUP1 PUSH4 0xFCCE4883 EQ PUSH2 0x3F1 JUMPI PUSH2 0xFD JUMP JUMPDEST DUP1 PUSH4 0xA85C38EF EQ PUSH2 0x26A JUMPI DUP1 PUSH4 0xB3DE019C EQ PUSH2 0x2AD JUMPI DUP1 PUSH4 0xB5CDF924 EQ PUSH2 0x2D5 JUMPI DUP1 PUSH4 0xBCA6CE64 EQ PUSH2 0x311 JUMPI PUSH2 0xFD JUMP JUMPDEST DUP1 PUSH4 0x514FCAC7 GT PUSH2 0xD0 JUMPI DUP1 PUSH4 0x514FCAC7 EQ PUSH2 0x1C4 JUMPI DUP1 PUSH4 0x629CB2E4 EQ PUSH2 0x1EC JUMPI DUP1 PUSH4 0x785E9E86 EQ PUSH2 0x216 JUMPI DUP1 PUSH4 0x9D4971B7 EQ PUSH2 0x240 JUMPI PUSH2 0xFD JUMP JUMPDEST DUP1 PUSH4 0x1200617F EQ PUSH2 0x101 JUMPI DUP1 PUSH4 0x150B7A02 EQ PUSH2 0x11D JUMPI DUP1 PUSH4 0x21686B25 EQ PUSH2 0x159 JUMPI DUP1 PUSH4 0x394A9077 EQ PUSH2 0x181 JUMPI JUMPDEST PUSH0 DUP1 REVERT JUMPDEST PUSH2 0x11B PUSH1 0x4 DUP1 CALLDATASIZE SUB DUP2 ADD SWAP1 PUSH2 0x116 SWAP2 SWAP1 PUSH2 0x27C0 JUMP JUMPDEST PUSH2 0x42D JUMP JUMPDEST STOP JUMPDEST CALLVALUE DUP1 ISZERO PUSH2 0x128 JUMPI PUSH0 DUP1 REVERT JUMPDEST POP PUSH2 0x143 PUSH1 0x4 DUP1 CALLDATASIZE SUB DUP2 ADD SWAP1 PUSH2 0x13E SWAP2 SWAP1 PUSH2 0x28A6 JUMP JUMPDEST PUSH2 0x819 JUMP JUMPDEST PUSH1 0x40 MLOAD PUSH2 0x150 SWAP2 SWAP1 PUSH2 0x2964 JUMP JUMPDEST PUSH1 0x40 MLOAD DUP1 SWAP2 SUB SWAP1 RETURN JUMPDEST CALLVALUE DUP1 ISZERO PUSH2 0x164 JUMPI PUSH0 DUP1 REVERT JUMPDEST POP PUSH2 0x17F PUSH1 0x4 DUP1 CALLDATASIZE SUB DUP2 ADD SWAP1 PUSH2 0x17A SWAP2 SWAP1 PUSH2 0x29B2 JUMP JUMPDEST PUSH2 0x9A9 JUMP JUMPDEST STOP JUMPDEST CALLVALUE DUP1 ISZERO PUSH2 0x18C JUMPI PUSH0 DUP1 REVERT JUMPDEST POP PUSH2 0x1A7 PUSH1 0x4 DUP1 CALLDATASIZE SUB DUP2 ADD SWAP1 PUSH2 0x1A2 SWAP2 SWAP1 PUSH2 0x27C0 JUMP JUMPDEST PUSH2 0xABB JUMP JUMPDEST PUSH1 0x40 MLOAD PUSH2 0x1BB SWAP9 SWAP8 SWAP7 SWAP6 SWAP5 SWAP4 SWAP3 SWAP2 SWAP1 PUSH2 0x2A1D JUMP JUMPDEST PUSH1 0x40 MLOAD DUP1 SWAP2 SUB SWAP1 RETURN JUMPDEST CALLVALUE DUP1 ISZERO PUSH2 0x1CF JUMPI PUSH0 DUP1 REVERT JUMPDEST POP PUSH2 0x1EA PUSH1 0x4 DUP1 CALLDATASIZE SUB DUP2 ADD SWAP1 PUSH2 0x1E5 SWAP2 SWAP1 PUSH2 0x27C0 JUMP JUMPDEST PUSH2 0xB49 JUMP JUMPDEST STOP JUMPDEST CALLVALUE DUP1 ISZERO PUSH2 0x1F7 JUMPI PUSH0 DUP1 REVERT JUMPDEST POP PUSH2 0x200 PUSH2 0xD06 JUMP JUMPDEST PUSH1 0x40 MLOAD PUSH2 0x20D SWAP2 SWAP1 PUSH2 0x2C0F JUMP JUMPDEST PUSH1 0x40 MLOAD DUP1 SWAP2 SUB SWAP1 RETURN JUMPDEST CALLVALUE DUP1 ISZERO PUSH2 0x221 JUMPI PUSH0 DUP1 REVERT JUMPDEST POP PUSH2 0x22A PUSH2 0xFF5 JUMP JUMPDEST PUSH1 0x40 MLOAD PUSH2 0x237 SWAP2 SWAP1 PUSH2 0x2C8A JUMP JUMPDEST PUSH1 0x40 MLOAD DUP1 SWAP2 SUB SWAP1 RETURN JUMPDEST CALLVALUE DUP1 ISZERO PUSH2 0x24B JUMPI PUSH0 DUP1 REVERT JUMPDEST POP PUSH2 0x254 PUSH2 0x1018 JUMP JUMPDEST PUSH1 0x40 MLOAD PUSH2 0x261 SWAP2 SWAP1 PUSH2 0x2CA3 JUMP JUMPDEST PUSH1 0x40 MLOAD DUP1 SWAP2 SUB SWAP1 RETURN JUMPDEST CALLVALUE DUP1 ISZERO PUSH2 0x275 JUMPI PUSH0 DUP1 REVERT JUMPDEST POP PUSH2 0x290 PUSH1 0x4 DUP1 CALLDATASIZE SUB DUP2 ADD SWAP1 PUSH2 0x28B SWAP2 SWAP1 PUSH2 0x27C0 JUMP JUMPDEST PUSH2 0x1024 JUMP JUMPDEST PUSH1 0x40 MLOAD PUSH2 0x2A4 SWAP9 SWAP8 SWAP7 SWAP6 SWAP5 SWAP4 SWAP3 SWAP2 SWAP1 PUSH2 0x2A1D JUMP JUMPDEST PUSH1 0x40 MLOAD DUP1 SWAP2 SUB SWAP1 RETURN JUMPDEST CALLVALUE DUP1 ISZERO PUSH2 0x2B8 JUMPI PUSH0 DUP1 REVERT JUMPDEST POP PUSH2 0x2D3 PUSH1 0x4 DUP1 CALLDATASIZE SUB DUP2 ADD SWAP1 PUSH2 0x2CE SWAP2 SWAP1 PUSH2 0x2CBC JUMP JUMPDEST PUSH2 0x10C1 JUMP JUMPDEST STOP JUMPDEST CALLVALUE DUP1 ISZERO PUSH2 0x2E0 JUMPI PUSH0 DUP1 REVERT JUMPDEST POP PUSH2 0x2FB PUSH1 0x4 DUP1 CALLDATASIZE SUB DUP2 ADD SWAP1 PUSH2 0x2F6 SWAP2 SWAP1 PUSH2 0x2E32 JUMP JUMPDEST PUSH2 0x125F JUMP JUMPDEST PUSH1 0x40 MLOAD PUSH2 0x308 SWAP2 SWAP1 PUSH2 0x2CA3 JUMP JUMPDEST PUSH1 0x40 MLOAD DUP1 SWAP2 SUB SWAP1 RETURN JUMPDEST CALLVALUE DUP1 ISZERO PUSH2 0x31C JUMPI PUSH0 DUP1 REVERT JUMPDEST POP PUSH2 0x325 PUSH2 0x1313 JUMP JUMPDEST PUSH1 0x40 MLOAD PUSH2 0x332 SWAP2 SWAP1 PUSH2 0x2EAC JUMP JUMPDEST PUSH1 0x40 MLOAD DUP1 SWAP2 SUB SWAP1 RETURN JUMPDEST CALLVALUE DUP1 ISZERO PUSH2 0x346 JUMPI PUSH0 DUP1 REVERT JUMPDEST POP PUSH2 0x361 PUSH1 0x4 DUP1 CALLDATASIZE SUB DUP2 ADD SWAP1 PUSH2 0x35C SWAP2 SWAP1 PUSH2 0x27C0 JUMP JUMPDEST PUSH2 0x1338 JUMP JUMPDEST STOP JUMPDEST CALLVALUE DUP1 ISZERO PUSH2 0x36E JUMPI PUSH0 DUP1 REVERT JUMPDEST POP PUSH2 0x389 PUSH1 0x4 DUP1 CALLDATASIZE SUB DUP2 ADD SWAP1 PUSH2 0x384 SWAP2 SWAP1 PUSH2 0x27C0 JUMP JUMPDEST PUSH2 0x17E5 JUMP JUMPDEST STOP JUMPDEST CALLVALUE DUP1 ISZERO PUSH2 0x396 JUMPI PUSH0 DUP1 REVERT JUMPDEST POP PUSH2 0x3B1 PUSH1 0x4 DUP1 CALLDATASIZE SUB DUP2 ADD SWAP1 PUSH2 0x3AC SWAP2 SWAP1 PUSH2 0x27C0 JUMP JUMPDEST PUSH2 0x1A97 JUMP JUMPDEST PUSH1 0x40 MLOAD PUSH2 0x3BE SWAP2 SWAP1 PUSH2 0x2CA3 JUMP JUMPDEST PUSH1 0x40 MLOAD DUP1 SWAP2 SUB SWAP1 RETURN JUMPDEST CALLVALUE DUP1 ISZERO PUSH2 0x3D2 JUMPI PUSH0 DUP1 REVERT JUMPDEST POP PUSH2 0x3DB PUSH2 0x1AAC JUMP JUMPDEST PUSH1 0x40 MLOAD PUSH2 0x3E8 SWAP2 SWAP1 PUSH2 0x2C0F JUMP JUMPDEST PUSH1 0x40 MLOAD DUP1 SWAP2 SUB SWAP1 RETURN JUMPDEST CALLVALUE DUP1 ISZERO PUSH2 0x3FC JUMPI PUSH0 DUP1 REVERT JUMPDEST POP PUSH2 0x417 PUSH1 0x4 DUP1 CALLDATASIZE SUB DUP2 ADD SWAP1 PUSH2 0x412 SWAP2 SWAP1 PUSH2 0x27C0 JUMP JUMPDEST PUSH2 0x1BFE JUMP JUMPDEST PUSH1 0x40 MLOAD PUSH2 0x424 SWAP2 SWAP1 PUSH2 0x2EC5 JUMP JUMPDEST PUSH1 0x40 MLOAD DUP1 SWAP2 SUB SWAP1 RETURN JUMPDEST PUSH2 0x436 DUP2 PUSH2 0x1BFE JUMP JUMPDEST PUSH2 0x475 JUMPI PUSH1 0x40 MLOAD PUSH32 0x8C379A000000000000000000000000000000000000000000000000000000000 DUP2 MSTORE PUSH1 0x4 ADD PUSH2 0x46C SWAP1 PUSH2 0x2F38 JUMP JUMPDEST PUSH1 0x40 MLOAD DUP1 SWAP2 SUB SWAP1 REVERT JUMPDEST PUSH1 0x1 ISZERO ISZERO PUSH1 0x2 PUSH0 DUP4 DUP2 MSTORE PUSH1 0x20 ADD SWAP1 DUP2 MSTORE PUSH1 0x20 ADD PUSH0 KECCAK256 PUSH0 ADD PUSH1 0x14 SWAP1 SLOAD SWAP1 PUSH2 0x100 EXP SWAP1 DIV PUSH1 0xFF AND ISZERO ISZERO EQ PUSH2 0x4DC JUMPI PUSH1 0x40 MLOAD PUSH32 0x8C379A000000000000000000000000000000000000000000000000000000000 DUP2 MSTORE PUSH1 0x4 ADD PUSH2 0x4D3 SWAP1 PUSH2 0x2FA0 JUMP JUMPDEST PUSH1 0x40 MLOAD DUP1 SWAP2 SUB SWAP1 REVERT JUMPDEST TIMESTAMP PUSH1 0x2 PUSH0 DUP4 DUP2 MSTORE PUSH1 0x20 ADD SWAP1 DUP2 MSTORE PUSH1 0x20 ADD PUSH0 KECCAK256 PUSH1 0x1 ADD SLOAD LT PUSH2 0x532 JUMPI PUSH1 0x40 MLOAD PUSH32 0x8C379A000000000000000000000000000000000000000000000000000000000 DUP2 MSTORE PUSH1 0x4 ADD PUSH2 0x529 SWAP1 PUSH2 0x3008 JUMP JUMPDEST PUSH1 0x40 MLOAD DUP1 SWAP2 SUB SWAP1 REVERT JUMPDEST TIMESTAMP PUSH1 0x2 PUSH0 DUP4 DUP2 MSTORE PUSH1 0x20 ADD SWAP1 DUP2 MSTORE PUSH1 0x20 ADD PUSH0 KECCAK256 PUSH1 0x2 ADD SLOAD GT PUSH2 0x588 JUMPI PUSH1 0x40 MLOAD PUSH32 0x8C379A000000000000000000000000000000000000000000000000000000000 DUP2 MSTORE PUSH1 0x4 ADD PUSH2 0x57F SWAP1 PUSH2 0x3008 JUMP JUMPDEST PUSH1 0x40 MLOAD DUP1 SWAP2 SUB SWAP1 REVERT JUMPDEST CALLVALUE PUSH1 0x2 PUSH0 DUP4 DUP2 MSTORE PUSH1 0x20 ADD SWAP1 DUP2 MSTORE PUSH1 0x20 ADD PUSH0 KECCAK256 PUSH1 0x3 ADD SLOAD LT PUSH2 0x5DE JUMPI PUSH1 0x40 MLOAD PUSH32 0x8C379A000000000000000000000000000000000000000000000000000000000 DUP2 MSTORE PUSH1 0x4 ADD PUSH2 0x5D5 SWAP1 PUSH2 0x3096 JUMP JUMPDEST PUSH1 0x40 MLOAD DUP1 SWAP2 SUB SWAP1 REVERT JUMPDEST CALLER PUSH20 0xFFFFFFFFFFFFFFFFFFFFFFFFFFFFFFFFFFFFFFFF AND PUSH1 0x2 PUSH0 DUP4 DUP2 MSTORE PUSH1 0x20 ADD SWAP1 DUP2 MSTORE PUSH1 0x20 ADD PUSH0 KECCAK256 PUSH0 ADD PUSH0 SWAP1 SLOAD SWAP1 PUSH2 0x100 EXP SWAP1 DIV PUSH20 0xFFFFFFFFFFFFFFFFFFFFFFFFFFFFFFFFFFFFFFFF AND PUSH20 0xFFFFFFFFFFFFFFFFFFFFFFFFFFFFFFFFFFFFFFFF AND SUB PUSH2 0x67E JUMPI PUSH1 0x40 MLOAD PUSH32 0x8C379A000000000000000000000000000000000000000000000000000000000 DUP2 MSTORE PUSH1 0x4 ADD PUSH2 0x675 SWAP1 PUSH2 0x30FE JUMP JUMPDEST PUSH1 0x40 MLOAD DUP1 SWAP2 SUB SWAP1 REVERT JUMPDEST PUSH0 PUSH20 0xFFFFFFFFFFFFFFFFFFFFFFFFFFFFFFFFFFFFFFFF AND PUSH1 0x2 PUSH0 DUP4 DUP2 MSTORE PUSH1 0x20 ADD SWAP1 DUP2 MSTORE PUSH1 0x20 ADD PUSH0 KECCAK256 PUSH1 0x4 ADD PUSH0 SWAP1 SLOAD SWAP1 PUSH2 0x100 EXP SWAP1 DIV PUSH20 0xFFFFFFFFFFFFFFFFFFFFFFFFFFFFFFFFFFFFFFFF AND PUSH20 0xFFFFFFFFFFFFFFFFFFFFFFFFFFFFFFFFFFFFFFFF AND EQ PUSH2 0x770 JUMPI PUSH1 0x2 PUSH0 DUP3 DUP2 MSTORE PUSH1 0x20 ADD SWAP1 DUP2 MSTORE PUSH1 0x20 ADD PUSH0 KECCAK256 PUSH1 0x4 ADD PUSH0 SWAP1 SLOAD SWAP1 PUSH2 0x100 EXP SWAP1 DIV PUSH20 0xFFFFFFFFFFFFFFFFFFFFFFFFFFFFFFFFFFFFFFFF AND PUSH20 0xFFFFFFFFFFFFFFFFFFFFFFFFFFFFFFFFFFFFFFFF AND PUSH2 0x8FC PUSH1 0x2 PUSH0 DUP5 DUP2 MSTORE PUSH1 0x20 ADD SWAP1 DUP2 MSTORE PUSH1 0x20 ADD PUSH0 KECCAK256 PUSH1 0x3 ADD SLOAD SWAP1 DUP2 ISZERO MUL SWAP1 PUSH1 0x40 MLOAD PUSH0 PUSH1 0x40 MLOAD DUP1 DUP4 SUB DUP2 DUP6 DUP9 DUP9 CALL SWAP4 POP POP POP POP ISZERO DUP1 ISZERO PUSH2 0x76E JUMPI RETURNDATASIZE PUSH0 DUP1 RETURNDATACOPY RETURNDATASIZE PUSH0 REVERT JUMPDEST POP JUMPDEST CALLVALUE PUSH1 0x2 PUSH0 DUP4 DUP2 MSTORE PUSH1 0x20 ADD SWAP1 DUP2 MSTORE PUSH1 0x20 ADD PUSH0 KECCAK256 PUSH1 0x3 ADD DUP2 SWAP1 SSTORE POP CALLER PUSH1 0x2 PUSH0 DUP4 DUP2 MSTORE PUSH1 0x20 ADD SWAP1 DUP2 MSTORE PUSH1 0x20 ADD PUSH0 KECCAK256 PUSH1 0x4 ADD PUSH0 PUSH2 0x100 EXP DUP2 SLOAD DUP2 PUSH20 0xFFFFFFFFFFFFFFFFFFFFFFFFFFFFFFFFFFFFFFFF MUL NOT AND SWAP1 DUP4 PUSH20 0xFFFFFFFFFFFFFFFFFFFFFFFFFFFFFFFFFFFFFFFF AND MUL OR SWAP1 SSTORE POP PUSH32 0x425AD1ABEBDB76B51B8CEBECF53B40F81159707F686D21002D95196FFD63784A CALLER DUP3 CALLVALUE PUSH1 0x40 MLOAD PUSH2 0x80E SWAP4 SWAP3 SWAP2 SWAP1 PUSH2 0x311C JUMP JUMPDEST PUSH1 0x40 MLOAD DUP1 SWAP2 SUB SWAP1 LOG1 POP JUMP JUMPDEST PUSH0 DUP5 PUSH20 0xFFFFFFFFFFFFFFFFFFFFFFFFFFFFFFFFFFFFFFFF AND DUP7 PUSH20 0xFFFFFFFFFFFFFFFFFFFFFFFFFFFFFFFFFFFFFFFF AND EQ PUSH2 0x888 JUMPI PUSH1 0x40 MLOAD PUSH32 0x8C379A000000000000000000000000000000000000000000000000000000000 DUP2 MSTORE PUSH1 0x4 ADD PUSH2 0x87F SWAP1 PUSH2 0x319B JUMP JUMPDEST PUSH1 0x40 MLOAD DUP1 SWAP2 SUB SWAP1 REVERT JUMPDEST PUSH0 PUSH2 0x8D6 DUP5 DUP5 DUP1 DUP1 PUSH1 0x1F ADD PUSH1 0x20 DUP1 SWAP2 DIV MUL PUSH1 0x20 ADD PUSH1 0x40 MLOAD SWAP1 DUP2 ADD PUSH1 0x40 MSTORE DUP1 SWAP4 SWAP3 SWAP2 SWAP1 DUP2 DUP2 MSTORE PUSH1 0x20 ADD DUP4 DUP4 DUP1 DUP3 DUP5 CALLDATACOPY PUSH0 DUP2 DUP5 ADD MSTORE PUSH1 0x1F NOT PUSH1 0x1F DUP3 ADD AND SWAP1 POP DUP1 DUP4 ADD SWAP3 POP POP POP POP POP POP POP PUSH0 PUSH2 0x125F JUMP JUMPDEST SWAP1 POP PUSH0 PUSH1 0x5 PUSH0 DUP9 PUSH20 0xFFFFFFFFFFFFFFFFFFFFFFFFFFFFFFFFFFFFFFFF AND PUSH20 0xFFFFFFFFFFFFFFFFFFFFFFFFFFFFFFFFFFFFFFFF AND DUP2 MSTORE PUSH1 0x20 ADD SWAP1 DUP2 MSTORE PUSH1 0x20 ADD PUSH0 KECCAK256 PUSH0 ADD PUSH0 SWAP1 SLOAD SWAP1 PUSH2 0x100 EXP SWAP1 DIV PUSH1 0xFF AND SWAP1 POP PUSH0 PUSH1 0x5 PUSH0 DUP10 PUSH20 0xFFFFFFFFFFFFFFFFFFFFFFFFFFFFFFFFFFFFFFFF AND PUSH20 0xFFFFFFFFFFFFFFFFFFFFFFFFFFFFFFFFFFFFFFFF AND DUP2 MSTORE PUSH1 0x20 ADD SWAP1 DUP2 MSTORE PUSH1 0x20 ADD PUSH0 KECCAK256 PUSH1 0x1 ADD SLOAD SWAP1 POP PUSH0 ISZERO ISZERO DUP3 ISZERO ISZERO SUB PUSH2 0x986 JUMPI PUSH2 0x981 DUP9 DUP9 DUP6 PUSH2 0x1C68 JUMP JUMPDEST PUSH2 0x993 JUMP JUMPDEST PUSH2 0x992 DUP9 DUP9 DUP6 DUP5 PUSH2 0x1FBC JUMP JUMPDEST JUMPDEST PUSH4 0x150B7A02 PUSH1 0xE0 SHL SWAP4 POP POP POP POP SWAP6 SWAP5 POP POP POP POP POP JUMP JUMPDEST PUSH0 ISZERO ISZERO DUP3 ISZERO ISZERO SUB PUSH2 0xA37 JUMPI PUSH1 0x40 MLOAD DUP1 PUSH1 0x40 ADD PUSH1 0x40 MSTORE DUP1 PUSH0 ISZERO ISZERO DUP2 MSTORE PUSH1 0x20 ADD PUSH0 DUP2 MSTORE POP PUSH1 0x5 PUSH0 CALLER PUSH20 0xFFFFFFFFFFFFFFFFFFFFFFFFFFFFFFFFFFFFFFFF AND PUSH20 0xFFFFFFFFFFFFFFFFFFFFFFFFFFFFFFFFFFFFFFFF AND DUP2 MSTORE PUSH1 0x20 ADD SWAP1 DUP2 MSTORE PUSH1 0x20 ADD PUSH0 KECCAK256 PUSH0 DUP3 ADD MLOAD DUP2 PUSH0 ADD PUSH0 PUSH2 0x100 EXP DUP2 SLOAD DUP2 PUSH1 0xFF MUL NOT AND SWAP1 DUP4 ISZERO ISZERO MUL OR SWAP1 SSTORE POP PUSH1 0x20 DUP3 ADD MLOAD DUP2 PUSH1 0x1 ADD SSTORE SWAP1 POP POP PUSH2 0xAB7 JUMP JUMPDEST PUSH1 0x40 MLOAD DUP1 PUSH1 0x40 ADD PUSH1 0x40 MSTORE DUP1 PUSH1 0x1 ISZERO ISZERO DUP2 MSTORE PUSH1 0x20 ADD DUP3 DUP2 MSTORE POP PUSH1 0x5 PUSH0 CALLER PUSH20 0xFFFFFFFFFFFFFFFFFFFFFFFFFFFFFFFFFFFFFFFF AND PUSH20 0xFFFFFFFFFFFFFFFFFFFFFFFFFFFFFFFFFFFFFFFF AND DUP2 MSTORE PUSH1 0x20 ADD SWAP1 DUP2 MSTORE PUSH1 0x20 ADD PUSH0 KECCAK256 PUSH0 DUP3 ADD MLOAD DUP2 PUSH0 ADD PUSH0 PUSH2 0x100 EXP DUP2 SLOAD DUP2 PUSH1 0xFF MUL NOT AND SWAP1 DUP4 ISZERO ISZERO MUL OR SWAP1 SSTORE POP PUSH1 0x20 DUP3 ADD MLOAD DUP2 PUSH1 0x1 ADD SSTORE SWAP1 POP POP JUMPDEST POP POP JUMP JUMPDEST PUSH1 0x2 PUSH1 0x20 MSTORE DUP1 PUSH0 MSTORE PUSH1 0x40 PUSH0 KECCAK256 PUSH0 SWAP2 POP SWAP1 POP DUP1 PUSH0 ADD PUSH0 SWAP1 SLOAD SWAP1 PUSH2 0x100 EXP SWAP1 DIV PUSH20 0xFFFFFFFFFFFFFFFFFFFFFFFFFFFFFFFFFFFFFFFF AND SWAP1 DUP1 PUSH0 ADD PUSH1 0x14 SWAP1 SLOAD SWAP1 PUSH2 0x100 EXP SWAP1 DIV PUSH1 0xFF AND SWAP1 DUP1 PUSH1 0x1 ADD SLOAD SWAP1 DUP1 PUSH1 0x2 ADD SLOAD SWAP1 DUP1 PUSH1 0x3 ADD SLOAD SWAP1 DUP1 PUSH1 0x4 ADD PUSH0 SWAP1 SLOAD SWAP1 PUSH2 0x100 EXP SWAP1 DIV PUSH20 0xFFFFFFFFFFFFFFFFFFFFFFFFFFFFFFFFFFFFFFFF AND SWAP1 DUP1 PUSH1 0x5 ADD SLOAD SWAP1 DUP1 PUSH1 0x6 ADD SLOAD SWAP1 POP DUP9 JUMP JUMPDEST PUSH2 0xB52 DUP2 PUSH2 0x1BFE JUMP JUMPDEST PUSH2 0xB91 JUMPI PUSH1 0x40 MLOAD PUSH32 0x8C379A000000000000000000000000000000000000000000000000000000000 DUP2 MSTORE PUSH1 0x4 ADD PUSH2 0xB88 SWAP1 PUSH2 0x2F38 JUMP JUMPDEST PUSH1 0x40 MLOAD DUP1 SWAP2 SUB SWAP1 REVERT JUMPDEST PUSH0 PUSH1 0x2 PUSH0 DUP4 DUP2 MSTORE PUSH1 0x20 ADD SWAP1 DUP2 MSTORE PUSH1 0x20 ADD PUSH0 KECCAK256 PUSH0 ADD PUSH0 SWAP1 SLOAD SWAP1 PUSH2 0x100 EXP SWAP1 DIV PUSH20 0xFFFFFFFFFFFFFFFFFFFFFFFFFFFFFFFFFFFFFFFF AND SWAP1 POP CALLER PUSH20 0xFFFFFFFFFFFFFFFFFFFFFFFFFFFFFFFFFFFFFFFF AND DUP2 PUSH20 0xFFFFFFFFFFFFFFFFFFFFFFFFFFFFFFFFFFFFFFFF AND EQ PUSH2 0xC35 JUMPI PUSH1 0x40 MLOAD PUSH32 0x8C379A000000000000000000000000000000000000000000000000000000000 DUP2 MSTORE PUSH1 0x4 ADD PUSH2 0xC2C SWAP1 PUSH2 0x3203 JUMP JUMPDEST PUSH1 0x40 MLOAD DUP1 SWAP2 SUB SWAP1 REVERT JUMPDEST PUSH1 0x1 PUSH0 SWAP1 SLOAD SWAP1 PUSH2 0x100 EXP SWAP1 DIV PUSH20 0xFFFFFFFFFFFFFFFFFFFFFFFFFFFFFFFFFFFFFFFF AND PUSH20 0xFFFFFFFFFFFFFFFFFFFFFFFFFFFFFFFFFFFFFFFF AND PUSH4 0x42842E0E ADDRESS DUP4 DUP6 PUSH1 0x40 MLOAD DUP5 PUSH4 0xFFFFFFFF AND PUSH1 0xE0 SHL DUP2 MSTORE PUSH1 0x4 ADD PUSH2 0xC93 SWAP4 SWAP3 SWAP2 SWAP1 PUSH2 0x3221 JUMP JUMPDEST PUSH0 PUSH1 0x40 MLOAD DUP1 DUP4 SUB DUP2 PUSH0 DUP8 DUP1 EXTCODESIZE ISZERO DUP1 ISZERO PUSH2 0xCAA JUMPI PUSH0 DUP1 REVERT JUMPDEST POP GAS CALL ISZERO DUP1 ISZERO PUSH2 0xCBC JUMPI RETURNDATASIZE PUSH0 DUP1 RETURNDATACOPY RETURNDATASIZE PUSH0 REVERT JUMPDEST POP POP POP POP PUSH2 0xCC9 DUP3 PUSH2 0x235D JUMP JUMPDEST PUSH32 0xC0E68D6B69F741C21E955CAD2AE4D505B6F6735C7E7B278251B3F6283A5F07EB DUP2 DUP4 PUSH1 0x40 MLOAD PUSH2 0xCFA SWAP3 SWAP2 SWAP1 PUSH2 0x3256 JUMP JUMPDEST PUSH1 0x40 MLOAD DUP1 SWAP2 SUB SWAP1 LOG1 POP POP JUMP JUMPDEST PUSH1 0x60 PUSH0 PUSH1 0x3 DUP1 SLOAD SWAP1 POP PUSH8 0xFFFFFFFFFFFFFFFF DUP2 GT ISZERO PUSH2 0xD28 JUMPI PUSH2 0xD27 PUSH2 0x2D0E JUMP JUMPDEST JUMPDEST PUSH1 0x40 MLOAD SWAP1 DUP1 DUP3 MSTORE DUP1 PUSH1 0x20 MUL PUSH1 0x20 ADD DUP3 ADD PUSH1 0x40 MSTORE DUP1 ISZERO PUSH2 0xD61 JUMPI DUP2 PUSH1 0x20 ADD JUMPDEST PUSH2 0xD4E PUSH2 0x2711 JUMP JUMPDEST DUP2 MSTORE PUSH1 0x20 ADD SWAP1 PUSH1 0x1 SWAP1 SUB SWAP1 DUP2 PUSH2 0xD46 JUMPI SWAP1 POP JUMPDEST POP SWAP1 POP PUSH0 DUP1 JUMPDEST PUSH1 0x3 DUP1 SLOAD SWAP1 POP DUP2 LT ISZERO PUSH2 0xF43 JUMPI CALLER PUSH20 0xFFFFFFFFFFFFFFFFFFFFFFFFFFFFFFFFFFFFFFFF AND PUSH1 0x3 DUP3 DUP2 SLOAD DUP2 LT PUSH2 0xD9F JUMPI PUSH2 0xD9E PUSH2 0x327D JUMP JUMPDEST JUMPDEST SWAP1 PUSH0 MSTORE PUSH1 0x20 PUSH0 KECCAK256 SWAP1 PUSH1 0x7 MUL ADD PUSH0 ADD PUSH0 SWAP1 SLOAD SWAP1 PUSH2 0x100 EXP SWAP1 DIV PUSH20 0xFFFFFFFFFFFFFFFFFFFFFFFFFFFFFFFFFFFFFFFF AND PUSH20 0xFFFFFFFFFFFFFFFFFFFFFFFFFFFFFFFFFFFFFFFF AND SUB PUSH2 0xF36 JUMPI PUSH1 0x3 DUP2 DUP2 SLOAD DUP2 LT PUSH2 0xDFC JUMPI PUSH2 0xDFB PUSH2 0x327D JUMP JUMPDEST JUMPDEST SWAP1 PUSH0 MSTORE PUSH1 0x20 PUSH0 KECCAK256 SWAP1 PUSH1 0x7 MUL ADD PUSH1 0x40 MLOAD DUP1 PUSH2 0x100 ADD PUSH1 0x40 MSTORE SWAP1 DUP2 PUSH0 DUP3 ADD PUSH0 SWAP1 SLOAD SWAP1 PUSH2 0x100 EXP SWAP1 DIV PUSH20 0xFFFFFFFFFFFFFFFFFFFFFFFFFFFFFFFFFFFFFFFF AND PUSH20 0xFFFFFFFFFFFFFFFFFFFFFFFFFFFFFFFFFFFFFFFF AND PUSH20 0xFFFFFFFFFFFFFFFFFFFFFFFFFFFFFFFFFFFFFFFF AND DUP2 MSTORE PUSH1 0x20 ADD PUSH0 DUP3 ADD PUSH1 0x14 SWAP1 SLOAD SWAP1 PUSH2 0x100 EXP SWAP1 DIV PUSH1 0xFF AND ISZERO ISZERO ISZERO ISZERO DUP2 MSTORE PUSH1 0x20 ADD PUSH1 0x1 DUP3 ADD SLOAD DUP2 MSTORE PUSH1 0x20 ADD PUSH1 0x2 DUP3 ADD SLOAD DUP2 MSTORE PUSH1 0x20 ADD PUSH1 0x3 DUP3 ADD SLOAD DUP2 MSTORE PUSH1 0x20 ADD PUSH1 0x4 DUP3 ADD PUSH0 SWAP1 SLOAD SWAP1 PUSH2 0x100 EXP SWAP1 DIV PUSH20 0xFFFFFFFFFFFFFFFFFFFFFFFFFFFFFFFFFFFFFFFF AND PUSH20 0xFFFFFFFFFFFFFFFFFFFFFFFFFFFFFFFFFFFFFFFF AND PUSH20 0xFFFFFFFFFFFFFFFFFFFFFFFFFFFFFFFFFFFFFFFF AND DUP2 MSTORE PUSH1 0x20 ADD PUSH1 0x5 DUP3 ADD SLOAD DUP2 MSTORE PUSH1 0x20 ADD PUSH1 0x6 DUP3 ADD SLOAD DUP2 MSTORE POP POP DUP4 DUP4 DUP2 MLOAD DUP2 LT PUSH2 0xF1C JUMPI PUSH2 0xF1B PUSH2 0x327D JUMP JUMPDEST JUMPDEST PUSH1 0x20 MUL PUSH1 0x20 ADD ADD DUP2 SWAP1 MSTORE POP DUP2 DUP1 PUSH2 0xF32 SWAP1 PUSH2 0x32D7 JUMP JUMPDEST SWAP3 POP POP JUMPDEST DUP1 DUP1 PUSH1 0x1 ADD SWAP2 POP POP PUSH2 0xD67 JUMP JUMPDEST POP PUSH0 DUP2 PUSH8 0xFFFFFFFFFFFFFFFF DUP2 GT ISZERO PUSH2 0xF5F JUMPI PUSH2 0xF5E PUSH2 0x2D0E JUMP JUMPDEST JUMPDEST PUSH1 0x40 MLOAD SWAP1 DUP1 DUP3 MSTORE DUP1 PUSH1 0x20 MUL PUSH1 0x20 ADD DUP3 ADD PUSH1 0x40 MSTORE DUP1 ISZERO PUSH2 0xF98 JUMPI DUP2 PUSH1 0x20 ADD JUMPDEST PUSH2 0xF85 PUSH2 0x2711 JUMP JUMPDEST DUP2 MSTORE PUSH1 0x20 ADD SWAP1 PUSH1 0x1 SWAP1 SUB SWAP1 DUP2 PUSH2 0xF7D JUMPI SWAP1 POP JUMPDEST POP SWAP1 POP PUSH0 JUMPDEST DUP3 DUP2 LT ISZERO PUSH2 0xFEB JUMPI DUP4 DUP2 DUP2 MLOAD DUP2 LT PUSH2 0xFB8 JUMPI PUSH2 0xFB7 PUSH2 0x327D JUMP JUMPDEST JUMPDEST PUSH1 0x20 MUL PUSH1 0x20 ADD ADD MLOAD DUP3 DUP3 DUP2 MLOAD DUP2 LT PUSH2 0xFD3 JUMPI PUSH2 0xFD2 PUSH2 0x327D JUMP JUMPDEST JUMPDEST PUSH1 0x20 MUL PUSH1 0x20 ADD ADD DUP2 SWAP1 MSTORE POP DUP1 DUP1 PUSH1 0x1 ADD SWAP2 POP POP PUSH2 0xF9D JUMP JUMPDEST POP DUP1 SWAP4 POP POP POP POP SWAP1 JUMP JUMPDEST PUSH0 DUP1 SLOAD SWAP1 PUSH2 0x100 EXP SWAP1 DIV PUSH20 0xFFFFFFFFFFFFFFFFFFFFFFFFFFFFFFFFFFFFFFFF AND DUP2 JUMP JUMPDEST PUSH0 PUSH1 0x3 DUP1 SLOAD SWAP1 POP SWAP1 POP SWAP1 JUMP JUMPDEST PUSH1 0x3 DUP2 DUP2 SLOAD DUP2 LT PUSH2 0x1033 JUMPI PUSH0 DUP1 REVERT JUMPDEST SWAP1 PUSH0 MSTORE PUSH1 0x20 PUSH0 KECCAK256 SWAP1 PUSH1 0x7 MUL ADD PUSH0 SWAP2 POP SWAP1 POP DUP1 PUSH0 ADD PUSH0 SWAP1 SLOAD SWAP1 PUSH2 0x100 EXP SWAP1 DIV PUSH20 0xFFFFFFFFFFFFFFFFFFFFFFFFFFFFFFFFFFFFFFFF AND SWAP1 DUP1 PUSH0 ADD PUSH1 0x14 SWAP1 SLOAD SWAP1 PUSH2 0x100 EXP SWAP1 DIV PUSH1 0xFF AND SWAP1 DUP1 PUSH1 0x1 ADD SLOAD SWAP1 DUP1 PUSH1 0x2 ADD SLOAD SWAP1 DUP1 PUSH1 0x3 ADD SLOAD SWAP1 DUP1 PUSH1 0x4 ADD PUSH0 SWAP1 SLOAD SWAP1 PUSH2 0x100 EXP SWAP1 DIV PUSH20 0xFFFFFFFFFFFFFFFFFFFFFFFFFFFFFFFFFFFFFFFF AND SWAP1 DUP1 PUSH1 0x5 ADD SLOAD SWAP1 DUP1 PUSH1 0x6 ADD SLOAD SWAP1 POP DUP9 JUMP JUMPDEST PUSH2 0x10CA DUP3 PUSH2 0x1BFE JUMP JUMPDEST PUSH2 0x1109 JUMPI PUSH1 0x40 MLOAD PUSH32 0x8C379A000000000000000000000000000000000000000000000000000000000 DUP2 MSTORE PUSH1 0x4 ADD PUSH2 0x1100 SWAP1 PUSH2 0x2F38 JUMP JUMPDEST PUSH1 0x40 MLOAD DUP1 SWAP2 SUB SWAP1 REVERT JUMPDEST PUSH0 PUSH1 0x2 PUSH0 DUP5 DUP2 MSTORE PUSH1 0x20 ADD SWAP1 DUP2 MSTORE PUSH1 0x20 ADD PUSH0 KECCAK256 PUSH0 ADD PUSH0 SWAP1 SLOAD SWAP1 PUSH2 0x100 EXP SWAP1 DIV PUSH20 0xFFFFFFFFFFFFFFFFFFFFFFFFFFFFFFFFFFFFFFFF AND SWAP1 POP CALLER PUSH20 0xFFFFFFFFFFFFFFFFFFFFFFFFFFFFFFFFFFFFFFFF AND DUP2 PUSH20 0xFFFFFFFFFFFFFFFFFFFFFFFFFFFFFFFFFFFFFFFF AND EQ PUSH2 0x11AD JUMPI PUSH1 0x40 MLOAD PUSH32 0x8C379A000000000000000000000000000000000000000000000000000000000 DUP2 MSTORE PUSH1 0x4 ADD PUSH2 0x11A4 SWAP1 PUSH2 0x3203 JUMP JUMPDEST PUSH1 0x40 MLOAD DUP1 SWAP2 SUB SWAP1 REVERT JUMPDEST PUSH0 PUSH1 0x2 PUSH0 DUP6 DUP2 MSTORE PUSH1 0x20 ADD SWAP1 DUP2 MSTORE PUSH1 0x20 ADD PUSH0 KECCAK256 PUSH1 0x6 ADD SLOAD SWAP1 POP DUP3 PUSH1 0x2 PUSH0 DUP7 DUP2 MSTORE PUSH1 0x20 ADD SWAP1 DUP2 MSTORE PUSH1 0x20 ADD PUSH0 KECCAK256 PUSH1 0x6 ADD DUP2 SWAP1 SSTORE POP PUSH0 PUSH1 0x3 PUSH1 0x4 PUSH0 DUP8 DUP2 MSTORE PUSH1 0x20 ADD SWAP1 DUP2 MSTORE PUSH1 0x20 ADD PUSH0 KECCAK256 SLOAD DUP2 SLOAD DUP2 LT PUSH2 0x1204 JUMPI PUSH2 0x1203 PUSH2 0x327D JUMP JUMPDEST JUMPDEST SWAP1 PUSH0 MSTORE PUSH1 0x20 PUSH0 KECCAK256 SWAP1 PUSH1 0x7 MUL ADD SWAP1 POP DUP4 DUP2 PUSH1 0x6 ADD DUP2 SWAP1 SSTORE POP PUSH32 0x342A7F6248980B0F191B96EB6B7A439C4DA78B2C97B86CA66CC7EE90D4B04CCE DUP4 DUP7 DUP5 DUP8 PUSH1 0x40 MLOAD PUSH2 0x1250 SWAP5 SWAP4 SWAP3 SWAP2 SWAP1 PUSH2 0x331E JUMP JUMPDEST PUSH1 0x40 MLOAD DUP1 SWAP2 SUB SWAP1 LOG1 POP POP POP POP POP JUMP JUMPDEST PUSH0 DUP2 PUSH1 0x20 DUP4 PUSH2 0x126E SWAP2 SWAP1 PUSH2 0x3361 JUMP JUMPDEST LT ISZERO PUSH2 0x12AF JUMPI PUSH1 0x40 MLOAD PUSH32 0x8C379A000000000000000000000000000000000000000000000000000000000 DUP2 MSTORE PUSH1 0x4 ADD PUSH2 0x12A6 SWAP1 PUSH2 0x33DE JUMP JUMPDEST PUSH1 0x40 MLOAD DUP1 SWAP2 SUB SWAP1 REVERT JUMPDEST PUSH1 0x20 DUP3 PUSH2 0x12BC SWAP2 SWAP1 PUSH2 0x3361 JUMP JUMPDEST DUP4 MLOAD LT ISZERO PUSH2 0x12FF JUMPI PUSH1 0x40 MLOAD PUSH32 0x8C379A000000000000000000000000000000000000000000000000000000000 DUP2 MSTORE PUSH1 0x4 ADD PUSH2 0x12F6 SWAP1 PUSH2 0x3446 JUMP JUMPDEST PUSH1 0x40 MLOAD DUP1 SWAP2 SUB SWAP1 REVERT JUMPDEST PUSH0 DUP3 PUSH1 0x20 DUP6 ADD ADD MLOAD SWAP1 POP DUP1 SWAP2 POP POP SWAP3 SWAP2 POP POP JUMP JUMPDEST PUSH1 0x1 PUSH0 SWAP1 SLOAD SWAP1 PUSH2 0x100 EXP SWAP1 DIV PUSH20 0xFFFFFFFFFFFFFFFFFFFFFFFFFFFFFFFFFFFFFFFF AND DUP2 JUMP JUMPDEST PUSH2 0x1341 DUP2 PUSH2 0x1BFE JUMP JUMPDEST PUSH2 0x1380 JUMPI PUSH1 0x40 MLOAD PUSH32 0x8C379A000000000000000000000000000000000000000000000000000000000 DUP2 MSTORE PUSH1 0x4 ADD PUSH2 0x1377 SWAP1 PUSH2 0x2F38 JUMP JUMPDEST PUSH1 0x40 MLOAD DUP1 SWAP2 SUB SWAP1 REVERT JUMPDEST PUSH1 0x1 ISZERO ISZERO PUSH1 0x2 PUSH0 DUP4 DUP2 MSTORE PUSH1 0x20 ADD SWAP1 DUP2 MSTORE PUSH1 0x20 ADD PUSH0 KECCAK256 PUSH0 ADD PUSH1 0x14 SWAP1 SLOAD SWAP1 PUSH2 0x100 EXP SWAP1 DIV PUSH1 0xFF AND ISZERO ISZERO EQ PUSH2 0x13E7 JUMPI PUSH1 0x40 MLOAD PUSH32 0x8C379A000000000000000000000000000000000000000000000000000000000 DUP2 MSTORE PUSH1 0x4 ADD PUSH2 0x13DE SWAP1 PUSH2 0x2FA0 JUMP JUMPDEST PUSH1 0x40 MLOAD DUP1 SWAP2 SUB SWAP1 REVERT JUMPDEST TIMESTAMP PUSH1 0x2 PUSH0 DUP4 DUP2 MSTORE PUSH1 0x20 ADD SWAP1 DUP2 MSTORE PUSH1 0x20 ADD PUSH0 KECCAK256 PUSH1 0x2 ADD SLOAD GT ISZERO PUSH2 0x143E JUMPI PUSH1 0x40 MLOAD PUSH32 0x8C379A000000000000000000000000000000000000000000000000000000000 DUP2 MSTORE PUSH1 0x4 ADD PUSH2 0x1435 SWAP1 PUSH2 0x3008 JUMP JUMPDEST PUSH1 0x40 MLOAD DUP1 SWAP2 SUB SWAP1 REVERT JUMPDEST PUSH0 PUSH20 0xFFFFFFFFFFFFFFFFFFFFFFFFFFFFFFFFFFFFFFFF AND PUSH1 0x2 PUSH0 DUP4 DUP2 MSTORE PUSH1 0x20 ADD SWAP1 DUP2 MSTORE PUSH1 0x20 ADD PUSH0 KECCAK256 PUSH1 0x4 ADD PUSH0 SWAP1 SLOAD SWAP1 PUSH2 0x100 EXP SWAP1 DIV PUSH20 0xFFFFFFFFFFFFFFFFFFFFFFFFFFFFFFFFFFFFFFFF AND PUSH20 0xFFFFFFFFFFFFFFFFFFFFFFFFFFFFFFFFFFFFFFFF AND EQ PUSH2 0x16B0 JUMPI PUSH1 0x2 PUSH0 DUP3 DUP2 MSTORE PUSH1 0x20 ADD SWAP1 DUP2 MSTORE PUSH1 0x20 ADD PUSH0 KECCAK256 PUSH0 ADD PUSH0 SWAP1 SLOAD SWAP1 PUSH2 0x100 EXP SWAP1 DIV PUSH20 0xFFFFFFFFFFFFFFFFFFFFFFFFFFFFFFFFFFFFFFFF AND PUSH20 0xFFFFFFFFFFFFFFFFFFFFFFFFFFFFFFFFFFFFFFFF AND PUSH2 0x8FC PUSH1 0x2 PUSH0 DUP5 DUP2 MSTORE PUSH1 0x20 ADD SWAP1 DUP2 MSTORE PUSH1 0x20 ADD PUSH0 KECCAK256 PUSH1 0x3 ADD SLOAD SWAP1 DUP2 ISZERO MUL SWAP1 PUSH1 0x40 MLOAD PUSH0 PUSH1 0x40 MLOAD DUP1 DUP4 SUB DUP2 DUP6 DUP9 DUP9 CALL SWAP4 POP POP POP POP ISZERO DUP1 ISZERO PUSH2 0x152D JUMPI RETURNDATASIZE PUSH0 DUP1 RETURNDATACOPY RETURNDATASIZE PUSH0 REVERT JUMPDEST POP PUSH1 0x1 PUSH0 SWAP1 SLOAD SWAP1 PUSH2 0x100 EXP SWAP1 DIV PUSH20 0xFFFFFFFFFFFFFFFFFFFFFFFFFFFFFFFFFFFFFFFF AND PUSH20 0xFFFFFFFFFFFFFFFFFFFFFFFFFFFFFFFFFFFFFFFF AND PUSH4 0x42842E0E ADDRESS PUSH1 0x2 PUSH0 DUP6 DUP2 MSTORE PUSH1 0x20 ADD SWAP1 DUP2 MSTORE PUSH1 0x20 ADD PUSH0 KECCAK256 PUSH1 0x4 ADD PUSH0 SWAP1 SLOAD SWAP1 PUSH2 0x100 EXP SWAP1 DIV PUSH20 0xFFFFFFFFFFFFFFFFFFFFFFFFFFFFFFFFFFFFFFFF AND DUP5 PUSH1 0x40 MLOAD DUP5 PUSH4 0xFFFFFFFF AND PUSH1 0xE0 SHL DUP2 MSTORE PUSH1 0x4 ADD PUSH2 0x15BF SWAP4 SWAP3 SWAP2 SWAP1 PUSH2 0x3221 JUMP JUMPDEST PUSH0 PUSH1 0x40 MLOAD DUP1 DUP4 SUB DUP2 PUSH0 DUP8 DUP1 EXTCODESIZE ISZERO DUP1 ISZERO PUSH2 0x15D6 JUMPI PUSH0 DUP1 REVERT JUMPDEST POP GAS CALL ISZERO DUP1 ISZERO PUSH2 0x15E8 JUMPI RETURNDATASIZE PUSH0 DUP1 RETURNDATACOPY RETURNDATASIZE PUSH0 REVERT JUMPDEST POP POP POP POP PUSH2 0x15F5 DUP2 PUSH2 0x235D JUMP JUMPDEST PUSH32 0x424D5E5F0192C7DACDBE646CA31B00299146D883D76A95EF5CDDBAC7CD342EAB PUSH1 0x2 PUSH0 DUP4 DUP2 MSTORE PUSH1 0x20 ADD SWAP1 DUP2 MSTORE PUSH1 0x20 ADD PUSH0 KECCAK256 PUSH1 0x4 ADD PUSH0 SWAP1 SLOAD SWAP1 PUSH2 0x100 EXP SWAP1 DIV PUSH20 0xFFFFFFFFFFFFFFFFFFFFFFFFFFFFFFFFFFFFFFFF AND PUSH1 0x2 PUSH0 DUP5 DUP2 MSTORE PUSH1 0x20 ADD SWAP1 DUP2 MSTORE PUSH1 0x20 ADD PUSH0 KECCAK256 PUSH0 ADD PUSH0 SWAP1 SLOAD SWAP1 PUSH2 0x100 EXP SWAP1 DIV PUSH20 0xFFFFFFFFFFFFFFFFFFFFFFFFFFFFFFFFFFFFFFFF AND DUP4 PUSH1 0x2 PUSH0 DUP7 DUP2 MSTORE PUSH1 0x20 ADD SWAP1 DUP2 MSTORE PUSH1 0x20 ADD PUSH0 KECCAK256 PUSH1 0x3 ADD SLOAD PUSH1 0x40 MLOAD PUSH2 0x16A3 SWAP5 SWAP4 SWAP3 SWAP2 SWAP1 PUSH2 0x3464 JUMP JUMPDEST PUSH1 0x40 MLOAD DUP1 SWAP2 SUB SWAP1 LOG1 PUSH2 0x17E2 JUMP JUMPDEST PUSH1 0x1 PUSH0 SWAP1 SLOAD SWAP1 PUSH2 0x100 EXP SWAP1 DIV PUSH20 0xFFFFFFFFFFFFFFFFFFFFFFFFFFFFFFFFFFFFFFFF AND PUSH20 0xFFFFFFFFFFFFFFFFFFFFFFFFFFFFFFFFFFFFFFFF AND PUSH4 0x42842E0E ADDRESS PUSH1 0x2 PUSH0 DUP6 DUP2 MSTORE PUSH1 0x20 ADD SWAP1 DUP2 MSTORE PUSH1 0x20 ADD PUSH0 KECCAK256 PUSH0 ADD PUSH0 SWAP1 SLOAD SWAP1 PUSH2 0x100 EXP SWAP1 DIV PUSH20 0xFFFFFFFFFFFFFFFFFFFFFFFFFFFFFFFFFFFFFFFF AND DUP5 PUSH1 0x40 MLOAD DUP5 PUSH4 0xFFFFFFFF AND PUSH1 0xE0 SHL DUP2 MSTORE PUSH1 0x4 ADD PUSH2 0x1740 SWAP4 SWAP3 SWAP2 SWAP1 PUSH2 0x3221 JUMP JUMPDEST PUSH0 PUSH1 0x40 MLOAD DUP1 DUP4 SUB DUP2 PUSH0 DUP8 DUP1 EXTCODESIZE ISZERO DUP1 ISZERO PUSH2 0x1757 JUMPI PUSH0 DUP1 REVERT JUMPDEST POP GAS CALL ISZERO DUP1 ISZERO PUSH2 0x1769 JUMPI RETURNDATASIZE PUSH0 DUP1 RETURNDATACOPY RETURNDATASIZE PUSH0 REVERT JUMPDEST POP POP POP POP PUSH2 0x1776 DUP2 PUSH2 0x235D JUMP JUMPDEST PUSH32 0xC0E68D6B69F741C21E955CAD2AE4D505B6F6735C7E7B278251B3F6283A5F07EB PUSH1 0x2 PUSH0 DUP4 DUP2 MSTORE PUSH1 0x20 ADD SWAP1 DUP2 MSTORE PUSH1 0x20 ADD PUSH0 KECCAK256 PUSH0 ADD PUSH0 SWAP1 SLOAD SWAP1 PUSH2 0x100 EXP SWAP1 DIV PUSH20 0xFFFFFFFFFFFFFFFFFFFFFFFFFFFFFFFFFFFFFFFF AND DUP3 PUSH1 0x40 MLOAD PUSH2 0x17D9 SWAP3 SWAP2 SWAP1 PUSH2 0x3256 JUMP JUMPDEST PUSH1 0x40 MLOAD DUP1 SWAP2 SUB SWAP1 LOG1 JUMPDEST POP JUMP JUMPDEST PUSH2 0x17EE DUP2 PUSH2 0x1BFE JUMP JUMPDEST PUSH2 0x182D JUMPI PUSH1 0x40 MLOAD PUSH32 0x8C379A000000000000000000000000000000000000000000000000000000000 DUP2 MSTORE PUSH1 0x4 ADD PUSH2 0x1824 SWAP1 PUSH2 0x2F38 JUMP JUMPDEST PUSH1 0x40 MLOAD DUP1 SWAP2 SUB SWAP1 REVERT JUMPDEST PUSH0 ISZERO ISZERO PUSH1 0x2 PUSH0 DUP4 DUP2 MSTORE PUSH1 0x20 ADD SWAP1 DUP2 MSTORE PUSH1 0x20 ADD PUSH0 KECCAK256 PUSH0 ADD PUSH1 0x14 SWAP1 SLOAD SWAP1 PUSH2 0x100 EXP SWAP1 DIV PUSH1 0xFF AND ISZERO ISZERO EQ PUSH2 0x1893 JUMPI PUSH1 0x40 MLOAD PUSH32 0x8C379A000000000000000000000000000000000000000000000000000000000 DUP2 MSTORE PUSH1 0x4 ADD PUSH2 0x188A SWAP1 PUSH2 0x34F1 JUMP JUMPDEST PUSH1 0x40 MLOAD DUP1 SWAP2 SUB SWAP1 REVERT JUMPDEST PUSH0 PUSH1 0x2 PUSH0 DUP4 DUP2 MSTORE PUSH1 0x20 ADD SWAP1 DUP2 MSTORE PUSH1 0x20 ADD PUSH0 KECCAK256 PUSH0 ADD PUSH0 SWAP1 SLOAD SWAP1 PUSH2 0x100 EXP SWAP1 DIV PUSH20 0xFFFFFFFFFFFFFFFFFFFFFFFFFFFFFFFFFFFFFFFF AND SWAP1 POP PUSH0 CALLER SWAP1 POP PUSH0 PUSH1 0x2 PUSH0 DUP6 DUP2 MSTORE PUSH1 0x20 ADD SWAP1 DUP2 MSTORE PUSH1 0x20 ADD PUSH0 KECCAK256 PUSH1 0x6 ADD SLOAD SWAP1 POP PUSH0 DUP1 SLOAD SWAP1 PUSH2 0x100 EXP SWAP1 DIV PUSH20 0xFFFFFFFFFFFFFFFFFFFFFFFFFFFFFFFFFFFFFFFF AND PUSH20 0xFFFFFFFFFFFFFFFFFFFFFFFFFFFFFFFFFFFFFFFF AND PUSH4 0x23B872DD DUP4 DUP6 DUP5 PUSH1 0x40 MLOAD DUP5 PUSH4 0xFFFFFFFF AND PUSH1 0xE0 SHL DUP2 MSTORE PUSH1 0x4 ADD PUSH2 0x1941 SWAP4 SWAP3 SWAP2 SWAP1 PUSH2 0x3221 JUMP JUMPDEST PUSH1 0x20 PUSH1 0x40 MLOAD DUP1 DUP4 SUB DUP2 PUSH0 DUP8 GAS CALL ISZERO DUP1 ISZERO PUSH2 0x195D JUMPI RETURNDATASIZE PUSH0 DUP1 RETURNDATACOPY RETURNDATASIZE PUSH0 REVERT JUMPDEST POP POP POP POP PUSH1 0x40 MLOAD RETURNDATASIZE PUSH1 0x1F NOT PUSH1 0x1F DUP3 ADD AND DUP3 ADD DUP1 PUSH1 0x40 MSTORE POP DUP2 ADD SWAP1 PUSH2 0x1981 SWAP2 SWAP1 PUSH2 0x3523 JUMP JUMPDEST PUSH2 0x19C0 JUMPI PUSH1 0x40 MLOAD PUSH32 0x8C379A000000000000000000000000000000000000000000000000000000000 DUP2 MSTORE PUSH1 0x4 ADD PUSH2 0x19B7 SWAP1 PUSH2 0x35BE JUMP JUMPDEST PUSH1 0x40 MLOAD DUP1 SWAP2 SUB SWAP1 REVERT JUMPDEST PUSH1 0x1 PUSH0 SWAP1 SLOAD SWAP1 PUSH2 0x100 EXP SWAP1 DIV PUSH20 0xFFFFFFFFFFFFFFFFFFFFFFFFFFFFFFFFFFFFFFFF AND PUSH20 0xFFFFFFFFFFFFFFFFFFFFFFFFFFFFFFFFFFFFFFFF AND PUSH4 0x42842E0E ADDRESS DUP5 DUP8 PUSH1 0x40 MLOAD DUP5 PUSH4 0xFFFFFFFF AND PUSH1 0xE0 SHL DUP2 MSTORE PUSH1 0x4 ADD PUSH2 0x1A1E SWAP4 SWAP3 SWAP2 SWAP1 PUSH2 0x3221 JUMP JUMPDEST PUSH0 PUSH1 0x40 MLOAD DUP1 DUP4 SUB DUP2 PUSH0 DUP8 DUP1 EXTCODESIZE ISZERO DUP1 ISZERO PUSH2 0x1A35 JUMPI PUSH0 DUP1 REVERT JUMPDEST POP GAS CALL ISZERO DUP1 ISZERO PUSH2 0x1A47 JUMPI RETURNDATASIZE PUSH0 DUP1 RETURNDATACOPY RETURNDATASIZE PUSH0 REVERT JUMPDEST POP POP POP POP PUSH2 0x1A54 DUP5 PUSH2 0x235D JUMP JUMPDEST PUSH32 0x424D5E5F0192C7DACDBE646CA31B00299146D883D76A95EF5CDDBAC7CD342EAB DUP3 DUP5 DUP7 DUP5 PUSH1 0x40 MLOAD PUSH2 0x1A89 SWAP5 SWAP4 SWAP3 SWAP2 SWAP1 PUSH2 0x3464 JUMP JUMPDEST PUSH1 0x40 MLOAD DUP1 SWAP2 SUB SWAP1 LOG1 POP POP POP POP JUMP JUMPDEST PUSH1 0x4 PUSH1 0x20 MSTORE DUP1 PUSH0 MSTORE PUSH1 0x40 PUSH0 KECCAK256 PUSH0 SWAP2 POP SWAP1 POP SLOAD DUP2 JUMP JUMPDEST PUSH1 0x60 PUSH1 0x3 DUP1 SLOAD DUP1 PUSH1 0x20 MUL PUSH1 0x20 ADD PUSH1 0x40 MLOAD SWAP1 DUP2 ADD PUSH1 0x40 MSTORE DUP1 SWAP3 SWAP2 SWAP1 DUP2 DUP2 MSTORE PUSH1 0x20 ADD PUSH0 SWAP1 JUMPDEST DUP3 DUP3 LT ISZERO PUSH2 0x1BF5 JUMPI DUP4 DUP3 SWAP1 PUSH0 MSTORE PUSH1 0x20 PUSH0 KECCAK256 SWAP1 PUSH1 0x7 MUL ADD PUSH1 0x40 MLOAD DUP1 PUSH2 0x100 ADD PUSH1 0x40 MSTORE SWAP1 DUP2 PUSH0 DUP3 ADD PUSH0 SWAP1 SLOAD SWAP1 PUSH2 0x100 EXP SWAP1 DIV PUSH20 0xFFFFFFFFFFFFFFFFFFFFFFFFFFFFFFFFFFFFFFFF AND PUSH20 0xFFFFFFFFFFFFFFFFFFFFFFFFFFFFFFFFFFFFFFFF AND PUSH20 0xFFFFFFFFFFFFFFFFFFFFFFFFFFFFFFFFFFFFFFFF AND DUP2 MSTORE PUSH1 0x20 ADD PUSH0 DUP3 ADD PUSH1 0x14 SWAP1 SLOAD SWAP1 PUSH2 0x100 EXP SWAP1 DIV PUSH1 0xFF AND ISZERO ISZERO ISZERO ISZERO DUP2 MSTORE PUSH1 0x20 ADD PUSH1 0x1 DUP3 ADD SLOAD DUP2 MSTORE PUSH1 0x20 ADD PUSH1 0x2 DUP3 ADD SLOAD DUP2 MSTORE PUSH1 0x20 ADD PUSH1 0x3 DUP3 ADD SLOAD DUP2 MSTORE PUSH1 0x20 ADD PUSH1 0x4 DUP3 ADD PUSH0 SWAP1 SLOAD SWAP1 PUSH2 0x100 EXP SWAP1 DIV PUSH20 0xFFFFFFFFFFFFFFFFFFFFFFFFFFFFFFFFFFFFFFFF AND PUSH20 0xFFFFFFFFFFFFFFFFFFFFFFFFFFFFFFFFFFFFFFFF AND PUSH20 0xFFFFFFFFFFFFFFFFFFFFFFFFFFFFFFFFFFFFFFFF AND DUP2 MSTORE PUSH1 0x20 ADD PUSH1 0x5 DUP3 ADD SLOAD DUP2 MSTORE PUSH1 0x20 ADD PUSH1 0x6 DUP3 ADD SLOAD DUP2 MSTORE POP POP DUP2 MSTORE PUSH1 0x20 ADD SWAP1 PUSH1 0x1 ADD SWAP1 PUSH2 0x1ACF JUMP JUMPDEST POP POP POP POP SWAP1 POP SWAP1 JUMP JUMPDEST PUSH0 DUP1 PUSH20 0xFFFFFFFFFFFFFFFFFFFFFFFFFFFFFFFFFFFFFFFF AND PUSH1 0x2 PUSH0 DUP5 DUP2 MSTORE PUSH1 0x20 ADD SWAP1 DUP2 MSTORE PUSH1 0x20 ADD PUSH0 KECCAK256 PUSH0 ADD PUSH0 SWAP1 SLOAD SWAP1 PUSH2 0x100 EXP SWAP1 DIV PUSH20 0xFFFFFFFFFFFFFFFFFFFFFFFFFFFFFFFFFFFFFFFF AND PUSH20 0xFFFFFFFFFFFFFFFFFFFFFFFFFFFFFFFFFFFFFFFF AND EQ ISZERO SWAP1 POP SWAP2 SWAP1 POP JUMP JUMPDEST PUSH0 DUP2 GT PUSH2 0x1CAA JUMPI PUSH1 0x40 MLOAD PUSH32 0x8C379A000000000000000000000000000000000000000000000000000000000 DUP2 MSTORE PUSH1 0x4 ADD PUSH2 0x1CA1 SWAP1 PUSH2 0x364C JUMP JUMPDEST PUSH1 0x40 MLOAD DUP1 SWAP2 SUB SWAP1 REVERT JUMPDEST DUP3 PUSH1 0x2 PUSH0 DUP5 DUP2 MSTORE PUSH1 0x20 ADD SWAP1 DUP2 MSTORE PUSH1 0x20 ADD PUSH0 KECCAK256 PUSH0 ADD PUSH0 PUSH2 0x100 EXP DUP2 SLOAD DUP2 PUSH20 0xFFFFFFFFFFFFFFFFFFFFFFFFFFFFFFFFFFFFFFFF MUL NOT AND SWAP1 DUP4 PUSH20 0xFFFFFFFFFFFFFFFFFFFFFFFFFFFFFFFFFFFFFFFF AND MUL OR SWAP1 SSTORE POP DUP1 PUSH1 0x2 PUSH0 DUP5 DUP2 MSTORE PUSH1 0x20 ADD SWAP1 DUP2 MSTORE PUSH1 0x20 ADD PUSH0 KECCAK256 PUSH1 0x6 ADD DUP2 SWAP1 SSTORE POP DUP2 PUSH1 0x2 PUSH0 DUP5 DUP2 MSTORE PUSH1 0x20 ADD SWAP1 DUP2 MSTORE PUSH1 0x20 ADD PUSH0 KECCAK256 PUSH1 0x5 ADD DUP2 SWAP1 SSTORE POP PUSH0 PUSH1 0x2 PUSH0 DUP5 DUP2 MSTORE PUSH1 0x20 ADD SWAP1 DUP2 MSTORE PUSH1 0x20 ADD PUSH0 KECCAK256 PUSH0 ADD PUSH1 0x14 PUSH2 0x100 EXP DUP2 SLOAD DUP2 PUSH1 0xFF MUL NOT AND SWAP1 DUP4 ISZERO ISZERO MUL OR SWAP1 SSTORE POP PUSH0 PUSH1 0x2 PUSH0 DUP5 DUP2 MSTORE PUSH1 0x20 ADD SWAP1 DUP2 MSTORE PUSH1 0x20 ADD PUSH0 KECCAK256 PUSH1 0x1 ADD DUP2 SWAP1 SSTORE POP PUSH0 PUSH1 0x2 PUSH0 DUP5 DUP2 MSTORE PUSH1 0x20 ADD SWAP1 DUP2 MSTORE PUSH1 0x20 ADD PUSH0 KECCAK256 PUSH1 0x2 ADD DUP2 SWAP1 SSTORE POP DUP1 PUSH1 0x2 PUSH0 DUP5 DUP2 MSTORE PUSH1 0x20 ADD SWAP1 DUP2 MSTORE PUSH1 0x20 ADD PUSH0 KECCAK256 PUSH1 0x3 ADD DUP2 SWAP1 SSTORE POP PUSH0 PUSH1 0x2 PUSH0 DUP5 DUP2 MSTORE PUSH1 0x20 ADD SWAP1 DUP2 MSTORE PUSH1 0x20 ADD PUSH0 KECCAK256 PUSH1 0x4 ADD PUSH0 PUSH2 0x100 EXP DUP2 SLOAD DUP2 PUSH20 0xFFFFFFFFFFFFFFFFFFFFFFFFFFFFFFFFFFFFFFFF MUL NOT AND SWAP1 DUP4 PUSH20 0xFFFFFFFFFFFFFFFFFFFFFFFFFFFFFFFFFFFFFFFF AND MUL OR SWAP1 SSTORE POP PUSH1 0x3 PUSH1 0x2 PUSH0 DUP5 DUP2 MSTORE PUSH1 0x20 ADD SWAP1 DUP2 MSTORE PUSH1 0x20 ADD PUSH0 KECCAK256 SWAP1 DUP1 PUSH1 0x1 DUP2 SLOAD ADD DUP1 DUP3 SSTORE DUP1 SWAP2 POP POP PUSH1 0x1 SWAP1 SUB SWAP1 PUSH0 MSTORE PUSH1 0x20 PUSH0 KECCAK256 SWAP1 PUSH1 0x7 MUL ADD PUSH0 SWAP1 SWAP2 SWAP1 SWAP2 SWAP1 SWAP2 POP PUSH0 DUP3 ADD PUSH0 SWAP1 SLOAD SWAP1 PUSH2 0x100 EXP SWAP1 DIV PUSH20 0xFFFFFFFFFFFFFFFFFFFFFFFFFFFFFFFFFFFFFFFF AND DUP2 PUSH0 ADD PUSH0 PUSH2 0x100 EXP DUP2 SLOAD DUP2 PUSH20 0xFFFFFFFFFFFFFFFFFFFFFFFFFFFFFFFFFFFFFFFF MUL NOT AND SWAP1 DUP4 PUSH20 0xFFFFFFFFFFFFFFFFFFFFFFFFFFFFFFFFFFFFFFFF AND MUL OR SWAP1 SSTORE POP PUSH0 DUP3 ADD PUSH1 0x14 SWAP1 SLOAD SWAP1 PUSH2 0x100 EXP SWAP1 DIV PUSH1 0xFF AND DUP2 PUSH0 ADD PUSH1 0x14 PUSH2 0x100 EXP DUP2 SLOAD DUP2 PUSH1 0xFF MUL NOT AND SWAP1 DUP4 ISZERO ISZERO MUL OR SWAP1 SSTORE POP PUSH1 0x1 DUP3 ADD SLOAD DUP2 PUSH1 0x1 ADD SSTORE PUSH1 0x2 DUP3 ADD SLOAD DUP2 PUSH1 0x2 ADD SSTORE PUSH1 0x3 DUP3 ADD SLOAD DUP2 PUSH1 0x3 ADD SSTORE PUSH1 0x4 DUP3 ADD PUSH0 SWAP1 SLOAD SWAP1 PUSH2 0x100 EXP SWAP1 DIV PUSH20 0xFFFFFFFFFFFFFFFFFFFFFFFFFFFFFFFFFFFFFFFF AND DUP2 PUSH1 0x4 ADD PUSH0 PUSH2 0x100 EXP DUP2 SLOAD DUP2 PUSH20 0xFFFFFFFFFFFFFFFFFFFFFFFFFFFFFFFFFFFFFFFF MUL NOT AND SWAP1 DUP4 PUSH20 0xFFFFFFFFFFFFFFFFFFFFFFFFFFFFFFFFFFFFFFFF AND MUL OR SWAP1 SSTORE POP PUSH1 0x5 DUP3 ADD SLOAD DUP2 PUSH1 0x5 ADD SSTORE PUSH1 0x6 DUP3 ADD SLOAD DUP2 PUSH1 0x6 ADD SSTORE POP POP PUSH1 0x1 PUSH1 0x3 DUP1 SLOAD SWAP1 POP PUSH2 0x1F67 SWAP2 SWAP1 PUSH2 0x366A JUMP JUMPDEST PUSH1 0x4 PUSH0 DUP5 DUP2 MSTORE PUSH1 0x20 ADD SWAP1 DUP2 MSTORE PUSH1 0x20 ADD PUSH0 KECCAK256 DUP2 SWAP1 SSTORE POP PUSH32 0x89207568998D5FD0F77CA24D90D746B19BEB110826A030ADF1F1EE162F207EAF DUP4 DUP4 DUP4 PUSH1 0x40 MLOAD PUSH2 0x1FAF SWAP4 SWAP3 SWAP2 SWAP1 PUSH2 0x311C JUMP JUMPDEST PUSH1 0x40 MLOAD DUP1 SWAP2 SUB SWAP1 LOG1 POP POP POP JUMP JUMPDEST PUSH0 DUP3 GT PUSH2 0x1FFE JUMPI PUSH1 0x40 MLOAD PUSH32 0x8C379A000000000000000000000000000000000000000000000000000000000 DUP2 MSTORE PUSH1 0x4 ADD PUSH2 0x1FF5 SWAP1 PUSH2 0x364C JUMP JUMPDEST PUSH1 0x40 MLOAD DUP1 SWAP2 SUB SWAP1 REVERT JUMPDEST DUP4 PUSH1 0x2 PUSH0 DUP6 DUP2 MSTORE PUSH1 0x20 ADD SWAP1 DUP2 MSTORE PUSH1 0x20 ADD PUSH0 KECCAK256 PUSH0 ADD PUSH0 PUSH2 0x100 EXP DUP2 SLOAD DUP2 PUSH20 0xFFFFFFFFFFFFFFFFFFFFFFFFFFFFFFFFFFFFFFFF MUL NOT AND SWAP1 DUP4 PUSH20 0xFFFFFFFFFFFFFFFFFFFFFFFFFFFFFFFFFFFFFFFF AND MUL OR SWAP1 SSTORE POP DUP2 PUSH1 0x2 PUSH0 DUP6 DUP2 MSTORE PUSH1 0x20 ADD SWAP1 DUP2 MSTORE PUSH1 0x20 ADD PUSH0 KECCAK256 PUSH1 0x6 ADD DUP2 SWAP1 SSTORE POP DUP3 PUSH1 0x2 PUSH0 DUP6 DUP2 MSTORE PUSH1 0x20 ADD SWAP1 DUP2 MSTORE PUSH1 0x20 ADD PUSH0 KECCAK256 PUSH1 0x5 ADD DUP2 SWAP1 SSTORE POP PUSH1 0x1 PUSH1 0x2 PUSH0 DUP6 DUP2 MSTORE PUSH1 0x20 ADD SWAP1 DUP2 MSTORE PUSH1 0x20 ADD PUSH0 KECCAK256 PUSH0 ADD PUSH1 0x14 PUSH2 0x100 EXP DUP2 SLOAD DUP2 PUSH1 0xFF MUL NOT AND SWAP1 DUP4 ISZERO ISZERO MUL OR SWAP1 SSTORE POP TIMESTAMP PUSH1 0x2 PUSH0 DUP6 DUP2 MSTORE PUSH1 0x20 ADD SWAP1 DUP2 MSTORE PUSH1 0x20 ADD PUSH0 KECCAK256 PUSH1 0x1 ADD DUP2 SWAP1 SSTORE POP DUP1 PUSH1 0x2 PUSH0 DUP6 DUP2 MSTORE PUSH1 0x20 ADD SWAP1 DUP2 MSTORE PUSH1 0x20 ADD PUSH0 KECCAK256 PUSH1 0x1 ADD SLOAD PUSH2 0x20E6 SWAP2 SWAP1 PUSH2 0x3361 JUMP JUMPDEST PUSH1 0x2 PUSH0 DUP6 DUP2 MSTORE PUSH1 0x20 ADD SWAP1 DUP2 MSTORE PUSH1 0x20 ADD PUSH0 KECCAK256 PUSH1 0x2 ADD DUP2 SWAP1 SSTORE POP DUP2 PUSH1 0x2 PUSH0 DUP6 DUP2 MSTORE PUSH1 0x20 ADD SWAP1 DUP2 MSTORE PUSH1 0x20 ADD PUSH0 KECCAK256 PUSH1 0x3 ADD DUP2 SWAP1 SSTORE POP PUSH0 PUSH1 0x2 PUSH0 DUP6 DUP2 MSTORE PUSH1 0x20 ADD SWAP1 DUP2 MSTORE PUSH1 0x20 ADD PUSH0 KECCAK256 PUSH1 0x4 ADD PUSH0 PUSH2 0x100 EXP DUP2 SLOAD DUP2 PUSH20 0xFFFFFFFFFFFFFFFFFFFFFFFFFFFFFFFFFFFFFFFF MUL NOT AND SWAP1 DUP4 PUSH20 0xFFFFFFFFFFFFFFFFFFFFFFFFFFFFFFFFFFFFFFFF AND MUL OR SWAP1 SSTORE POP PUSH1 0x3 PUSH1 0x2 PUSH0 DUP6 DUP2 MSTORE PUSH1 0x20 ADD SWAP1 DUP2 MSTORE PUSH1 0x20 ADD PUSH0 KECCAK256 SWAP1 DUP1 PUSH1 0x1 DUP2 SLOAD ADD DUP1 DUP3 SSTORE DUP1 SWAP2 POP POP PUSH1 0x1 SWAP1 SUB SWAP1 PUSH0 MSTORE PUSH1 0x20 PUSH0 KECCAK256 SWAP1 PUSH1 0x7 MUL ADD PUSH0 SWAP1 SWAP2 SWAP1 SWAP2 SWAP1 SWAP2 POP PUSH0 DUP3 ADD PUSH0 SWAP1 SLOAD SWAP1 PUSH2 0x100 EXP SWAP1 DIV PUSH20 0xFFFFFFFFFFFFFFFFFFFFFFFFFFFFFFFFFFFFFFFF AND DUP2 PUSH0 ADD PUSH0 PUSH2 0x100 EXP DUP2 SLOAD DUP2 PUSH20 0xFFFFFFFFFFFFFFFFFFFFFFFFFFFFFFFFFFFFFFFF MUL NOT AND SWAP1 DUP4 PUSH20 0xFFFFFFFFFFFFFFFFFFFFFFFFFFFFFFFFFFFFFFFF AND MUL OR SWAP1 SSTORE POP PUSH0 DUP3 ADD PUSH1 0x14 SWAP1 SLOAD SWAP1 PUSH2 0x100 EXP SWAP1 DIV PUSH1 0xFF AND DUP2 PUSH0 ADD PUSH1 0x14 PUSH2 0x100 EXP DUP2 SLOAD DUP2 PUSH1 0xFF MUL NOT AND SWAP1 DUP4 ISZERO ISZERO MUL OR SWAP1 SSTORE POP PUSH1 0x1 DUP3 ADD SLOAD DUP2 PUSH1 0x1 ADD SSTORE PUSH1 0x2 DUP3 ADD SLOAD DUP2 PUSH1 0x2 ADD SSTORE PUSH1 0x3 DUP3 ADD SLOAD DUP2 PUSH1 0x3 ADD SSTORE PUSH1 0x4 DUP3 ADD PUSH0 SWAP1 SLOAD SWAP1 PUSH2 0x100 EXP SWAP1 DIV PUSH20 0xFFFFFFFFFFFFFFFFFFFFFFFFFFFFFFFFFFFFFFFF AND DUP2 PUSH1 0x4 ADD PUSH0 PUSH2 0x100 EXP DUP2 SLOAD DUP2 PUSH20 0xFFFFFFFFFFFFFFFFFFFFFFFFFFFFFFFFFFFFFFFF MUL NOT AND SWAP1 DUP4 PUSH20 0xFFFFFFFFFFFFFFFFFFFFFFFFFFFFFFFFFFFFFFFF AND MUL OR SWAP1 SSTORE POP PUSH1 0x5 DUP3 ADD SLOAD DUP2 PUSH1 0x5 ADD SSTORE PUSH1 0x6 DUP3 ADD SLOAD DUP2 PUSH1 0x6 ADD SSTORE POP POP PUSH1 0x1 PUSH1 0x3 DUP1 SLOAD SWAP1 POP PUSH2 0x22DB SWAP2 SWAP1 PUSH2 0x366A JUMP JUMPDEST PUSH1 0x4 PUSH0 DUP6 DUP2 MSTORE PUSH1 0x20 ADD SWAP1 DUP2 MSTORE PUSH1 0x20 ADD PUSH0 KECCAK256 DUP2 SWAP1 SSTORE POP PUSH32 0xB5E71C08B6A53FEA1AA8BC83008B6B97E75840393D4CDC95CAE7BDB41C16CDFA DUP5 DUP5 DUP5 PUSH1 0x2 PUSH0 DUP9 DUP2 MSTORE PUSH1 0x20 ADD SWAP1 DUP2 MSTORE PUSH1 0x20 ADD PUSH0 KECCAK256 PUSH1 0x1 ADD SLOAD PUSH1 0x2 PUSH0 DUP10 DUP2 MSTORE PUSH1 0x20 ADD SWAP1 DUP2 MSTORE PUSH1 0x20 ADD PUSH0 KECCAK256 PUSH1 0x2 ADD SLOAD PUSH1 0x40 MLOAD PUSH2 0x234F SWAP6 SWAP5 SWAP4 SWAP3 SWAP2 SWAP1 PUSH2 0x369D JUMP JUMPDEST PUSH1 0x40 MLOAD DUP1 SWAP2 SUB SWAP1 LOG1 POP POP POP POP JUMP JUMPDEST PUSH1 0x2 PUSH0 DUP3 DUP2 MSTORE PUSH1 0x20 ADD SWAP1 DUP2 MSTORE PUSH1 0x20 ADD PUSH0 KECCAK256 PUSH0 DUP1 DUP3 ADD PUSH0 PUSH2 0x100 EXP DUP2 SLOAD SWAP1 PUSH20 0xFFFFFFFFFFFFFFFFFFFFFFFFFFFFFFFFFFFFFFFF MUL NOT AND SWAP1 SSTORE PUSH0 DUP3 ADD PUSH1 0x14 PUSH2 0x100 EXP DUP2 SLOAD SWAP1 PUSH1 0xFF MUL NOT AND SWAP1 SSTORE PUSH1 0x1 DUP3 ADD PUSH0 SWAP1 SSTORE PUSH1 0x2 DUP3 ADD PUSH0 SWAP1 SSTORE PUSH1 0x3 DUP3 ADD PUSH0 SWAP1 SSTORE PUSH1 0x4 DUP3 ADD PUSH0 PUSH2 0x100 EXP DUP2 SLOAD SWAP1 PUSH20 0xFFFFFFFFFFFFFFFFFFFFFFFFFFFFFFFFFFFFFFFF MUL NOT AND SWAP1 SSTORE PUSH1 0x5 DUP3 ADD PUSH0 SWAP1 SSTORE PUSH1 0x6 DUP3 ADD PUSH0 SWAP1 SSTORE POP POP PUSH0 PUSH1 0x4 PUSH0 DUP4 DUP2 MSTORE PUSH1 0x20 ADD SWAP1 DUP2 MSTORE PUSH1 0x20 ADD PUSH0 KECCAK256 SLOAD SWAP1 POP PUSH0 PUSH1 0x1 PUSH1 0x3 DUP1 SLOAD SWAP1 POP PUSH2 0x241A SWAP2 SWAP1 PUSH2 0x366A JUMP JUMPDEST SWAP1 POP DUP2 DUP2 EQ PUSH2 0x2662 JUMPI PUSH0 PUSH1 0x3 DUP3 DUP2 SLOAD DUP2 LT PUSH2 0x2438 JUMPI PUSH2 0x2437 PUSH2 0x327D JUMP JUMPDEST JUMPDEST SWAP1 PUSH0 MSTORE PUSH1 0x20 PUSH0 KECCAK256 SWAP1 PUSH1 0x7 MUL ADD PUSH1 0x40 MLOAD DUP1 PUSH2 0x100 ADD PUSH1 0x40 MSTORE SWAP1 DUP2 PUSH0 DUP3 ADD PUSH0 SWAP1 SLOAD SWAP1 PUSH2 0x100 EXP SWAP1 DIV PUSH20 0xFFFFFFFFFFFFFFFFFFFFFFFFFFFFFFFFFFFFFFFF AND PUSH20 0xFFFFFFFFFFFFFFFFFFFFFFFFFFFFFFFFFFFFFFFF AND PUSH20 0xFFFFFFFFFFFFFFFFFFFFFFFFFFFFFFFFFFFFFFFF AND DUP2 MSTORE PUSH1 0x20 ADD PUSH0 DUP3 ADD PUSH1 0x14 SWAP1 SLOAD SWAP1 PUSH2 0x100 EXP SWAP1 DIV PUSH1 0xFF AND ISZERO ISZERO ISZERO ISZERO DUP2 MSTORE PUSH1 0x20 ADD PUSH1 0x1 DUP3 ADD SLOAD DUP2 MSTORE PUSH1 0x20 ADD PUSH1 0x2 DUP3 ADD SLOAD DUP2 MSTORE PUSH1 0x20 ADD PUSH1 0x3 DUP3 ADD SLOAD DUP2 MSTORE PUSH1 0x20 ADD PUSH1 0x4 DUP3 ADD PUSH0 SWAP1 SLOAD SWAP1 PUSH2 0x100 EXP SWAP1 DIV PUSH20 0xFFFFFFFFFFFFFFFFFFFFFFFFFFFFFFFFFFFFFFFF AND PUSH20 0xFFFFFFFFFFFFFFFFFFFFFFFFFFFFFFFFFFFFFFFF AND PUSH20 0xFFFFFFFFFFFFFFFFFFFFFFFFFFFFFFFFFFFFFFFF AND DUP2 MSTORE PUSH1 0x20 ADD PUSH1 0x5 DUP3 ADD SLOAD DUP2 MSTORE PUSH1 0x20 ADD PUSH1 0x6 DUP3 ADD SLOAD DUP2 MSTORE POP POP SWAP1 POP DUP1 PUSH1 0x3 DUP5 DUP2 SLOAD DUP2 LT PUSH2 0x255C JUMPI PUSH2 0x255B PUSH2 0x327D JUMP JUMPDEST JUMPDEST SWAP1 PUSH0 MSTORE PUSH1 0x20 PUSH0 KECCAK256 SWAP1 PUSH1 0x7 MUL ADD PUSH0 DUP3 ADD MLOAD DUP2 PUSH0 ADD PUSH0 PUSH2 0x100 EXP DUP2 SLOAD DUP2 PUSH20 0xFFFFFFFFFFFFFFFFFFFFFFFFFFFFFFFFFFFFFFFF MUL NOT AND SWAP1 DUP4 PUSH20 0xFFFFFFFFFFFFFFFFFFFFFFFFFFFFFFFFFFFFFFFF AND MUL OR SWAP1 SSTORE POP PUSH1 0x20 DUP3 ADD MLOAD DUP2 PUSH0 ADD PUSH1 0x14 PUSH2 0x100 EXP DUP2 SLOAD DUP2 PUSH1 0xFF MUL NOT AND SWAP1 DUP4 ISZERO ISZERO MUL OR SWAP1 SSTORE POP PUSH1 0x40 DUP3 ADD MLOAD DUP2 PUSH1 0x1 ADD SSTORE PUSH1 0x60 DUP3 ADD MLOAD DUP2 PUSH1 0x2 ADD SSTORE PUSH1 0x80 DUP3 ADD MLOAD DUP2 PUSH1 0x3 ADD SSTORE PUSH1 0xA0 DUP3 ADD MLOAD DUP2 PUSH1 0x4 ADD PUSH0 PUSH2 0x100 EXP DUP2 SLOAD DUP2 PUSH20 0xFFFFFFFFFFFFFFFFFFFFFFFFFFFFFFFFFFFFFFFF MUL NOT AND SWAP1 DUP4 PUSH20 0xFFFFFFFFFFFFFFFFFFFFFFFFFFFFFFFFFFFFFFFF AND MUL OR SWAP1 SSTORE POP PUSH1 0xC0 DUP3 ADD MLOAD DUP2 PUSH1 0x5 ADD SSTORE PUSH1 0xE0 DUP3 ADD MLOAD DUP2 PUSH1 0x6 ADD SSTORE SWAP1 POP POP DUP3 PUSH1 0x4 PUSH0 DUP4 PUSH1 0xC0 ADD MLOAD DUP2 MSTORE PUSH1 0x20 ADD SWAP1 DUP2 MSTORE PUSH1 0x20 ADD PUSH0 KECCAK256 DUP2 SWAP1 SSTORE POP POP JUMPDEST PUSH1 0x3 DUP1 SLOAD DUP1 PUSH2 0x2674 JUMPI PUSH2 0x2673 PUSH2 0x36EE JUMP JUMPDEST JUMPDEST PUSH1 0x1 SWAP1 SUB DUP2 DUP2 SWAP1 PUSH0 MSTORE PUSH1 0x20 PUSH0 KECCAK256 SWAP1 PUSH1 0x7 MUL ADD PUSH0 DUP1 DUP3 ADD PUSH0 PUSH2 0x100 EXP DUP2 SLOAD SWAP1 PUSH20 0xFFFFFFFFFFFFFFFFFFFFFFFFFFFFFFFFFFFFFFFF MUL NOT AND SWAP1 SSTORE PUSH0 DUP3 ADD PUSH1 0x14 PUSH2 0x100 EXP DUP2 SLOAD SWAP1 PUSH1 0xFF MUL NOT AND SWAP1 SSTORE PUSH1 0x1 DUP3 ADD PUSH0 SWAP1 SSTORE PUSH1 0x2 DUP3 ADD PUSH0 SWAP1 SSTORE PUSH1 0x3 DUP3 ADD PUSH0 SWAP1 SSTORE PUSH1 0x4 DUP3 ADD PUSH0 PUSH2 0x100 EXP DUP2 SLOAD SWAP1 PUSH20 0xFFFFFFFFFFFFFFFFFFFFFFFFFFFFFFFFFFFFFFFF MUL NOT AND SWAP1 SSTORE PUSH1 0x5 DUP3 ADD PUSH0 SWAP1 SSTORE PUSH1 0x6 DUP3 ADD PUSH0 SWAP1 SSTORE POP POP SWAP1 SSTORE POP POP POP JUMP JUMPDEST PUSH1 0x40 MLOAD DUP1 PUSH2 0x100 ADD PUSH1 0x40 MSTORE DUP1 PUSH0 PUSH20 0xFFFFFFFFFFFFFFFFFFFFFFFFFFFFFFFFFFFFFFFF AND DUP2 MSTORE PUSH1 0x20 ADD PUSH0 ISZERO ISZERO DUP2 MSTORE PUSH1 0x20 ADD PUSH0 DUP2 MSTORE PUSH1 0x20 ADD PUSH0 DUP2 MSTORE PUSH1 0x20 ADD PUSH0 DUP2 MSTORE PUSH1 0x20 ADD PUSH0 PUSH20 0xFFFFFFFFFFFFFFFFFFFFFFFFFFFFFFFFFFFFFFFF AND DUP2 MSTORE PUSH1 0x20 ADD PUSH0 DUP2 MSTORE PUSH1 0x20 ADD PUSH0 DUP2 MSTORE POP SWAP1 JUMP JUMPDEST PUSH0 PUSH1 0x40 MLOAD SWAP1 POP SWAP1 JUMP JUMPDEST PUSH0 DUP1 REVERT JUMPDEST PUSH0 DUP1 REVERT JUMPDEST PUSH0 DUP2 SWAP1 POP SWAP2 SWAP1 POP JUMP JUMPDEST PUSH2 0x279F DUP2 PUSH2 0x278D JUMP JUMPDEST DUP2 EQ PUSH2 0x27A9 JUMPI PUSH0 DUP1 REVERT JUMPDEST POP JUMP JUMPDEST PUSH0 DUP2 CALLDATALOAD SWAP1 POP PUSH2 0x27BA DUP2 PUSH2 0x2796 JUMP JUMPDEST SWAP3 SWAP2 POP POP JUMP JUMPDEST PUSH0 PUSH1 0x20 DUP3 DUP5 SUB SLT ISZERO PUSH2 0x27D5 JUMPI PUSH2 0x27D4 PUSH2 0x2785 JUMP JUMPDEST JUMPDEST PUSH0 PUSH2 0x27E2 DUP5 DUP3 DUP6 ADD PUSH2 0x27AC JUMP JUMPDEST SWAP2 POP POP SWAP3 SWAP2 POP POP JUMP JUMPDEST PUSH0 PUSH20 0xFFFFFFFFFFFFFFFFFFFFFFFFFFFFFFFFFFFFFFFF DUP3 AND SWAP1 POP SWAP2 SWAP1 POP JUMP JUMPDEST PUSH0 PUSH2 0x2814 DUP3 PUSH2 0x27EB JUMP JUMPDEST SWAP1 POP SWAP2 SWAP1 POP JUMP JUMPDEST PUSH2 0x2824 DUP2 PUSH2 0x280A JUMP JUMPDEST DUP2 EQ PUSH2 0x282E JUMPI PUSH0 DUP1 REVERT JUMPDEST POP JUMP JUMPDEST PUSH0 DUP2 CALLDATALOAD SWAP1 POP PUSH2 0x283F DUP2 PUSH2 0x281B JUMP JUMPDEST SWAP3 SWAP2 POP POP JUMP JUMPDEST PUSH0 DUP1 REVERT JUMPDEST PUSH0 DUP1 REVERT JUMPDEST PUSH0 DUP1 REVERT JUMPDEST PUSH0 DUP1 DUP4 PUSH1 0x1F DUP5 ADD SLT PUSH2 0x2866 JUMPI PUSH2 0x2865 PUSH2 0x2845 JUMP JUMPDEST JUMPDEST DUP3 CALLDATALOAD SWAP1 POP PUSH8 0xFFFFFFFFFFFFFFFF DUP2 GT ISZERO PUSH2 0x2883 JUMPI PUSH2 0x2882 PUSH2 0x2849 JUMP JUMPDEST JUMPDEST PUSH1 0x20 DUP4 ADD SWAP2 POP DUP4 PUSH1 0x1 DUP3 MUL DUP4 ADD GT ISZERO PUSH2 0x289F JUMPI PUSH2 0x289E PUSH2 0x284D JUMP JUMPDEST JUMPDEST SWAP3 POP SWAP3 SWAP1 POP JUMP JUMPDEST PUSH0 DUP1 PUSH0 DUP1 PUSH0 PUSH1 0x80 DUP7 DUP9 SUB SLT ISZERO PUSH2 0x28BF JUMPI PUSH2 0x28BE PUSH2 0x2785 JUMP JUMPDEST JUMPDEST PUSH0 PUSH2 0x28CC DUP9 DUP3 DUP10 ADD PUSH2 0x2831 JUMP JUMPDEST SWAP6 POP POP PUSH1 0x20 PUSH2 0x28DD DUP9 DUP3 DUP10 ADD PUSH2 0x2831 JUMP JUMPDEST SWAP5 POP POP PUSH1 0x40 PUSH2 0x28EE DUP9 DUP3 DUP10 ADD PUSH2 0x27AC JUMP JUMPDEST SWAP4 POP POP PUSH1 0x60 DUP7 ADD CALLDATALOAD PUSH8 0xFFFFFFFFFFFFFFFF DUP2 GT ISZERO PUSH2 0x290F JUMPI PUSH2 0x290E PUSH2 0x2789 JUMP JUMPDEST JUMPDEST PUSH2 0x291B DUP9 DUP3 DUP10 ADD PUSH2 0x2851 JUMP JUMPDEST SWAP3 POP SWAP3 POP POP SWAP3 SWAP6 POP SWAP3 SWAP6 SWAP1 SWAP4 POP JUMP JUMPDEST PUSH0 PUSH32 0xFFFFFFFF00000000000000000000000000000000000000000000000000000000 DUP3 AND SWAP1 POP SWAP2 SWAP1 POP JUMP JUMPDEST PUSH2 0x295E DUP2 PUSH2 0x292A JUMP JUMPDEST DUP3 MSTORE POP POP JUMP JUMPDEST PUSH0 PUSH1 0x20 DUP3 ADD SWAP1 POP PUSH2 0x2977 PUSH0 DUP4 ADD DUP5 PUSH2 0x2955 JUMP JUMPDEST SWAP3 SWAP2 POP POP JUMP JUMPDEST PUSH0 DUP2 ISZERO ISZERO SWAP1 POP SWAP2 SWAP1 POP JUMP JUMPDEST PUSH2 0x2991 DUP2 PUSH2 0x297D JUMP JUMPDEST DUP2 EQ PUSH2 0x299B JUMPI PUSH0 DUP1 REVERT JUMPDEST POP JUMP JUMPDEST PUSH0 DUP2 CALLDATALOAD SWAP1 POP PUSH2 0x29AC DUP2 PUSH2 0x2988 JUMP JUMPDEST SWAP3 SWAP2 POP POP JUMP JUMPDEST PUSH0 DUP1 PUSH1 0x40 DUP4 DUP6 SUB SLT ISZERO PUSH2 0x29C8 JUMPI PUSH2 0x29C7 PUSH2 0x2785 JUMP JUMPDEST JUMPDEST PUSH0 PUSH2 0x29D5 DUP6 DUP3 DUP7 ADD PUSH2 0x299E JUMP JUMPDEST SWAP3 POP POP PUSH1 0x20 PUSH2 0x29E6 DUP6 DUP3 DUP7 ADD PUSH2 0x27AC JUMP JUMPDEST SWAP2 POP POP SWAP3 POP SWAP3 SWAP1 POP JUMP JUMPDEST PUSH2 0x29F9 DUP2 PUSH2 0x280A JUMP JUMPDEST DUP3 MSTORE POP POP JUMP JUMPDEST PUSH2 0x2A08 DUP2 PUSH2 0x297D JUMP JUMPDEST DUP3 MSTORE POP POP JUMP JUMPDEST PUSH2 0x2A17 DUP2 PUSH2 0x278D JUMP JUMPDEST DUP3 MSTORE POP POP JUMP JUMPDEST PUSH0 PUSH2 0x100 DUP3 ADD SWAP1 POP PUSH2 0x2A31 PUSH0 DUP4 ADD DUP12 PUSH2 0x29F0 JUMP JUMPDEST PUSH2 0x2A3E PUSH1 0x20 DUP4 ADD DUP11 PUSH2 0x29FF JUMP JUMPDEST PUSH2 0x2A4B PUSH1 0x40 DUP4 ADD DUP10 PUSH2 0x2A0E JUMP JUMPDEST PUSH2 0x2A58 PUSH1 0x60 DUP4 ADD DUP9 PUSH2 0x2A0E JUMP JUMPDEST PUSH2 0x2A65 PUSH1 0x80 DUP4 ADD DUP8 PUSH2 0x2A0E JUMP JUMPDEST PUSH2 0x2A72 PUSH1 0xA0 DUP4 ADD DUP7 PUSH2 0x29F0 JUMP JUMPDEST PUSH2 0x2A7F PUSH1 0xC0 DUP4 ADD DUP6 PUSH2 0x2A0E JUMP JUMPDEST PUSH2 0x2A8C PUSH1 0xE0 DUP4 ADD DUP5 PUSH2 0x2A0E JUMP JUMPDEST SWAP10 SWAP9 POP POP POP POP POP POP POP POP POP JUMP JUMPDEST PUSH0 DUP2 MLOAD SWAP1 POP SWAP2 SWAP1 POP JUMP JUMPDEST PUSH0 DUP3 DUP3 MSTORE PUSH1 0x20 DUP3 ADD SWAP1 POP SWAP3 SWAP2 POP POP JUMP JUMPDEST PUSH0 DUP2 SWAP1 POP PUSH1 0x20 DUP3 ADD SWAP1 POP SWAP2 SWAP1 POP JUMP JUMPDEST PUSH2 0x2ACB DUP2 PUSH2 0x280A JUMP JUMPDEST DUP3 MSTORE POP POP JUMP JUMPDEST PUSH2 0x2ADA DUP2 PUSH2 0x297D JUMP JUMPDEST DUP3 MSTORE POP POP JUMP JUMPDEST PUSH2 0x2AE9 DUP2 PUSH2 0x278D JUMP JUMPDEST DUP3 MSTORE POP POP JUMP JUMPDEST PUSH2 0x100 DUP3 ADD PUSH0 DUP3 ADD MLOAD PUSH2 0x2B04 PUSH0 DUP6 ADD DUP3 PUSH2 0x2AC2 JUMP JUMPDEST POP PUSH1 0x20 DUP3 ADD MLOAD PUSH2 0x2B17 PUSH1 0x20 DUP6 ADD DUP3 PUSH2 0x2AD1 JUMP JUMPDEST POP PUSH1 0x40 DUP3 ADD MLOAD PUSH2 0x2B2A PUSH1 0x40 DUP6 ADD DUP3 PUSH2 0x2AE0 JUMP JUMPDEST POP PUSH1 0x60 DUP3 ADD MLOAD PUSH2 0x2B3D PUSH1 0x60 DUP6 ADD DUP3 PUSH2 0x2AE0 JUMP JUMPDEST POP PUSH1 0x80 DUP3 ADD MLOAD PUSH2 0x2B50 PUSH1 0x80 DUP6 ADD DUP3 PUSH2 0x2AE0 JUMP JUMPDEST POP PUSH1 0xA0 DUP3 ADD MLOAD PUSH2 0x2B63 PUSH1 0xA0 DUP6 ADD DUP3 PUSH2 0x2AC2 JUMP JUMPDEST POP PUSH1 0xC0 DUP3 ADD MLOAD PUSH2 0x2B76 PUSH1 0xC0 DUP6 ADD DUP3 PUSH2 0x2AE0 JUMP JUMPDEST POP PUSH1 0xE0 DUP3 ADD MLOAD PUSH2 0x2B89 PUSH1 0xE0 DUP6 ADD DUP3 PUSH2 0x2AE0 JUMP JUMPDEST POP POP POP POP JUMP JUMPDEST PUSH0 PUSH2 0x2B9A DUP4 DUP4 PUSH2 0x2AEF JUMP JUMPDEST PUSH2 0x100 DUP4 ADD SWAP1 POP SWAP3 SWAP2 POP POP JUMP JUMPDEST PUSH0 PUSH1 0x20 DUP3 ADD SWAP1 POP SWAP2 SWAP1 POP JUMP JUMPDEST PUSH0 PUSH2 0x2BBD DUP3 PUSH2 0x2A99 JUMP JUMPDEST PUSH2 0x2BC7 DUP2 DUP6 PUSH2 0x2AA3 JUMP JUMPDEST SWAP4 POP PUSH2 0x2BD2 DUP4 PUSH2 0x2AB3 JUMP JUMPDEST DUP1 PUSH0 JUMPDEST DUP4 DUP2 LT ISZERO PUSH2 0x2C02 JUMPI DUP2 MLOAD PUSH2 0x2BE9 DUP9 DUP3 PUSH2 0x2B8F JUMP JUMPDEST SWAP8 POP PUSH2 0x2BF4 DUP4 PUSH2 0x2BA7 JUMP JUMPDEST SWAP3 POP POP PUSH1 0x1 DUP2 ADD SWAP1 POP PUSH2 0x2BD5 JUMP JUMPDEST POP DUP6 SWAP4 POP POP POP POP SWAP3 SWAP2 POP POP JUMP JUMPDEST PUSH0 PUSH1 0x20 DUP3 ADD SWAP1 POP DUP2 DUP2 SUB PUSH0 DUP4 ADD MSTORE PUSH2 0x2C27 DUP2 DUP5 PUSH2 0x2BB3 JUMP JUMPDEST SWAP1 POP SWAP3 SWAP2 POP POP JUMP JUMPDEST PUSH0 DUP2 SWAP1 POP SWAP2 SWAP1 POP JUMP JUMPDEST PUSH0 PUSH2 0x2C52 PUSH2 0x2C4D PUSH2 0x2C48 DUP5 PUSH2 0x27EB JUMP JUMPDEST PUSH2 0x2C2F JUMP JUMPDEST PUSH2 0x27EB JUMP JUMPDEST SWAP1 POP SWAP2 SWAP1 POP JUMP JUMPDEST PUSH0 PUSH2 0x2C63 DUP3 PUSH2 0x2C38 JUMP JUMPDEST SWAP1 POP SWAP2 SWAP1 POP JUMP JUMPDEST PUSH0 PUSH2 0x2C74 DUP3 PUSH2 0x2C59 JUMP JUMPDEST SWAP1 POP SWAP2 SWAP1 POP JUMP JUMPDEST PUSH2 0x2C84 DUP2 PUSH2 0x2C6A JUMP JUMPDEST DUP3 MSTORE POP POP JUMP JUMPDEST PUSH0 PUSH1 0x20 DUP3 ADD SWAP1 POP PUSH2 0x2C9D PUSH0 DUP4 ADD DUP5 PUSH2 0x2C7B JUMP JUMPDEST SWAP3 SWAP2 POP POP JUMP JUMPDEST PUSH0 PUSH1 0x20 DUP3 ADD SWAP1 POP PUSH2 0x2CB6 PUSH0 DUP4 ADD DUP5 PUSH2 0x2A0E JUMP JUMPDEST SWAP3 SWAP2 POP POP JUMP JUMPDEST PUSH0 DUP1 PUSH1 0x40 DUP4 DUP6 SUB SLT ISZERO PUSH2 0x2CD2 JUMPI PUSH2 0x2CD1 PUSH2 0x2785 JUMP JUMPDEST JUMPDEST PUSH0 PUSH2 0x2CDF DUP6 DUP3 DUP7 ADD PUSH2 0x27AC JUMP JUMPDEST SWAP3 POP POP PUSH1 0x20 PUSH2 0x2CF0 DUP6 DUP3 DUP7 ADD PUSH2 0x27AC JUMP JUMPDEST SWAP2 POP POP SWAP3 POP SWAP3 SWAP1 POP JUMP JUMPDEST PUSH0 DUP1 REVERT JUMPDEST PUSH0 PUSH1 0x1F NOT PUSH1 0x1F DUP4 ADD AND SWAP1 POP SWAP2 SWAP1 POP JUMP JUMPDEST PUSH32 0x4E487B7100000000000000000000000000000000000000000000000000000000 PUSH0 MSTORE PUSH1 0x41 PUSH1 0x4 MSTORE PUSH1 0x24 PUSH0 REVERT JUMPDEST PUSH2 0x2D44 DUP3 PUSH2 0x2CFE JUMP JUMPDEST DUP2 ADD DUP2 DUP2 LT PUSH8 0xFFFFFFFFFFFFFFFF DUP3 GT OR ISZERO PUSH2 0x2D63 JUMPI PUSH2 0x2D62 PUSH2 0x2D0E JUMP JUMPDEST JUMPDEST DUP1 PUSH1 0x40 MSTORE POP POP POP JUMP JUMPDEST PUSH0 PUSH2 0x2D75 PUSH2 0x277C JUMP JUMPDEST SWAP1 POP PUSH2 0x2D81 DUP3 DUP3 PUSH2 0x2D3B JUMP JUMPDEST SWAP2 SWAP1 POP JUMP JUMPDEST PUSH0 PUSH8 0xFFFFFFFFFFFFFFFF DUP3 GT ISZERO PUSH2 0x2DA0 JUMPI PUSH2 0x2D9F PUSH2 0x2D0E JUMP JUMPDEST JUMPDEST PUSH2 0x2DA9 DUP3 PUSH2 0x2CFE JUMP JUMPDEST SWAP1 POP PUSH1 0x20 DUP2 ADD SWAP1 POP SWAP2 SWAP1 POP JUMP JUMPDEST DUP3 DUP2 DUP4 CALLDATACOPY PUSH0 DUP4 DUP4 ADD MSTORE POP POP POP JUMP JUMPDEST PUSH0 PUSH2 0x2DD6 PUSH2 0x2DD1 DUP5 PUSH2 0x2D86 JUMP JUMPDEST PUSH2 0x2D6C JUMP JUMPDEST SWAP1 POP DUP3 DUP2 MSTORE PUSH1 0x20 DUP2 ADD DUP5 DUP5 DUP5 ADD GT ISZERO PUSH2 0x2DF2 JUMPI PUSH2 0x2DF1 PUSH2 0x2CFA JUMP JUMPDEST JUMPDEST PUSH2 0x2DFD DUP5 DUP3 DUP6 PUSH2 0x2DB6 JUMP JUMPDEST POP SWAP4 SWAP3 POP POP POP JUMP JUMPDEST PUSH0 DUP3 PUSH1 0x1F DUP4 ADD SLT PUSH2 0x2E19 JUMPI PUSH2 0x2E18 PUSH2 0x2845 JUMP JUMPDEST JUMPDEST DUP2 CALLDATALOAD PUSH2 0x2E29 DUP5 DUP3 PUSH1 0x20 DUP7 ADD PUSH2 0x2DC4 JUMP JUMPDEST SWAP2 POP POP SWAP3 SWAP2 POP POP JUMP JUMPDEST PUSH0 DUP1 PUSH1 0x40 DUP4 DUP6 SUB SLT ISZERO PUSH2 0x2E48 JUMPI PUSH2 0x2E47 PUSH2 0x2785 JUMP JUMPDEST JUMPDEST PUSH0 DUP4 ADD CALLDATALOAD PUSH8 0xFFFFFFFFFFFFFFFF DUP2 GT ISZERO PUSH2 0x2E65 JUMPI PUSH2 0x2E64 PUSH2 0x2789 JUMP JUMPDEST JUMPDEST PUSH2 0x2E71 DUP6 DUP3 DUP7 ADD PUSH2 0x2E05 JUMP JUMPDEST SWAP3 POP POP PUSH1 0x20 PUSH2 0x2E82 DUP6 DUP3 DUP7 ADD PUSH2 0x27AC JUMP JUMPDEST SWAP2 POP POP SWAP3 POP SWAP3 SWAP1 POP JUMP JUMPDEST PUSH0 PUSH2 0x2E96 DUP3 PUSH2 0x2C59 JUMP JUMPDEST SWAP1 POP SWAP2 SWAP1 POP JUMP JUMPDEST PUSH2 0x2EA6 DUP2 PUSH2 0x2E8C JUMP JUMPDEST DUP3 MSTORE POP POP JUMP JUMPDEST PUSH0 PUSH1 0x20 DUP3 ADD SWAP1 POP PUSH2 0x2EBF PUSH0 DUP4 ADD DUP5 PUSH2 0x2E9D JUMP JUMPDEST SWAP3 SWAP2 POP POP JUMP JUMPDEST PUSH0 PUSH1 0x20 DUP3 ADD SWAP1 POP PUSH2 0x2ED8 PUSH0 DUP4 ADD DUP5 PUSH2 0x29FF JUMP JUMPDEST SWAP3 SWAP2 POP POP JUMP JUMPDEST PUSH0 DUP3 DUP3 MSTORE PUSH1 0x20 DUP3 ADD SWAP1 POP SWAP3 SWAP2 POP POP JUMP JUMPDEST PUSH32 0x4D61726B65743A20546F6B656E204944206973206E6F74206C69737465640000 PUSH0 DUP3 ADD MSTORE POP JUMP JUMPDEST PUSH0 PUSH2 0x2F22 PUSH1 0x1E DUP4 PUSH2 0x2EDE JUMP JUMPDEST SWAP2 POP PUSH2 0x2F2D DUP3 PUSH2 0x2EEE JUMP JUMPDEST PUSH1 0x20 DUP3 ADD SWAP1 POP SWAP2 SWAP1 POP JUMP JUMPDEST PUSH0 PUSH1 0x20 DUP3 ADD SWAP1 POP DUP2 DUP2 SUB PUSH0 DUP4 ADD MSTORE PUSH2 0x2F4F DUP2 PUSH2 0x2F16 JUMP JUMPDEST SWAP1 POP SWAP2 SWAP1 POP JUMP JUMPDEST PUSH32 0x74686973206F6E65206973206E6F74206F6E2061756374696F6E000000000000 PUSH0 DUP3 ADD MSTORE POP JUMP JUMPDEST PUSH0 PUSH2 0x2F8A PUSH1 0x1A DUP4 PUSH2 0x2EDE JUMP JUMPDEST SWAP2 POP PUSH2 0x2F95 DUP3 PUSH2 0x2F56 JUMP JUMPDEST PUSH1 0x20 DUP3 ADD SWAP1 POP SWAP2 SWAP1 POP JUMP JUMPDEST PUSH0 PUSH1 0x20 DUP3 ADD SWAP1 POP DUP2 DUP2 SUB PUSH0 DUP4 ADD MSTORE PUSH2 0x2FB7 DUP2 PUSH2 0x2F7E JUMP JUMPDEST SWAP1 POP SWAP2 SWAP1 POP JUMP JUMPDEST PUSH32 0x74696D65206E6F742076616C6964000000000000000000000000000000000000 PUSH0 DUP3 ADD MSTORE POP JUMP JUMPDEST PUSH0 PUSH2 0x2FF2 PUSH1 0xE DUP4 PUSH2 0x2EDE JUMP JUMPDEST SWAP2 POP PUSH2 0x2FFD DUP3 PUSH2 0x2FBE JUMP JUMPDEST PUSH1 0x20 DUP3 ADD SWAP1 POP SWAP2 SWAP1 POP JUMP JUMPDEST PUSH0 PUSH1 0x20 DUP3 ADD SWAP1 POP DUP2 DUP2 SUB PUSH0 DUP4 ADD MSTORE PUSH2 0x301F DUP2 PUSH2 0x2FE6 JUMP JUMPDEST SWAP1 POP SWAP2 SWAP1 POP JUMP JUMPDEST PUSH32 0x6D7573742062652068696768657220746861742074686520626964206265666F PUSH0 DUP3 ADD MSTORE PUSH32 0x7265000000000000000000000000000000000000000000000000000000000000 PUSH1 0x20 DUP3 ADD MSTORE POP JUMP JUMPDEST PUSH0 PUSH2 0x3080 PUSH1 0x22 DUP4 PUSH2 0x2EDE JUMP JUMPDEST SWAP2 POP PUSH2 0x308B DUP3 PUSH2 0x3026 JUMP JUMPDEST PUSH1 0x40 DUP3 ADD SWAP1 POP SWAP2 SWAP1 POP JUMP JUMPDEST PUSH0 PUSH1 0x20 DUP3 ADD SWAP1 POP DUP2 DUP2 SUB PUSH0 DUP4 ADD MSTORE PUSH2 0x30AD DUP2 PUSH2 0x3074 JUMP JUMPDEST SWAP1 POP SWAP2 SWAP1 POP JUMP JUMPDEST PUSH32 0x796F752063616E27742062696420796F7572206F776E20676F6F640000000000 PUSH0 DUP3 ADD MSTORE POP JUMP JUMPDEST PUSH0 PUSH2 0x30E8 PUSH1 0x1B DUP4 PUSH2 0x2EDE JUMP JUMPDEST SWAP2 POP PUSH2 0x30F3 DUP3 PUSH2 0x30B4 JUMP JUMPDEST PUSH1 0x20 DUP3 ADD SWAP1 POP SWAP2 SWAP1 POP JUMP JUMPDEST PUSH0 PUSH1 0x20 DUP3 ADD SWAP1 POP DUP2 DUP2 SUB PUSH0 DUP4 ADD MSTORE PUSH2 0x3115 DUP2 PUSH2 0x30DC JUMP JUMPDEST SWAP1 POP SWAP2 SWAP1 POP JUMP JUMPDEST PUSH0 PUSH1 0x60 DUP3 ADD SWAP1 POP PUSH2 0x312F PUSH0 DUP4 ADD DUP7 PUSH2 0x29F0 JUMP JUMPDEST PUSH2 0x313C PUSH1 0x20 DUP4 ADD DUP6 PUSH2 0x2A0E JUMP JUMPDEST PUSH2 0x3149 PUSH1 0x40 DUP4 ADD DUP5 PUSH2 0x2A0E JUMP JUMPDEST SWAP5 SWAP4 POP POP POP POP JUMP JUMPDEST PUSH32 0x4D61726B65743A2053656C6C6572206D757374206265206F70657261746F7200 PUSH0 DUP3 ADD MSTORE POP JUMP JUMPDEST PUSH0 PUSH2 0x3185 PUSH1 0x1F DUP4 PUSH2 0x2EDE JUMP JUMPDEST SWAP2 POP PUSH2 0x3190 DUP3 PUSH2 0x3151 JUMP JUMPDEST PUSH1 0x20 DUP3 ADD SWAP1 POP SWAP2 SWAP1 POP JUMP JUMPDEST PUSH0 PUSH1 0x20 DUP3 ADD SWAP1 POP DUP2 DUP2 SUB PUSH0 DUP4 ADD MSTORE PUSH2 0x31B2 DUP2 PUSH2 0x3179 JUMP JUMPDEST SWAP1 POP SWAP2 SWAP1 POP JUMP JUMPDEST PUSH32 0x4D61726B65743A2053656E646572206973206E6F742073656C6C657200000000 PUSH0 DUP3 ADD MSTORE POP JUMP JUMPDEST PUSH0 PUSH2 0x31ED PUSH1 0x1C DUP4 PUSH2 0x2EDE JUMP JUMPDEST SWAP2 POP PUSH2 0x31F8 DUP3 PUSH2 0x31B9 JUMP JUMPDEST PUSH1 0x20 DUP3 ADD SWAP1 POP SWAP2 SWAP1 POP JUMP JUMPDEST PUSH0 PUSH1 0x20 DUP3 ADD SWAP1 POP DUP2 DUP2 SUB PUSH0 DUP4 ADD MSTORE PUSH2 0x321A DUP2 PUSH2 0x31E1 JUMP JUMPDEST SWAP1 POP SWAP2 SWAP1 POP JUMP JUMPDEST PUSH0 PUSH1 0x60 DUP3 ADD SWAP1 POP PUSH2 0x3234 PUSH0 DUP4 ADD DUP7 PUSH2 0x29F0 JUMP JUMPDEST PUSH2 0x3241 PUSH1 0x20 DUP4 ADD DUP6 PUSH2 0x29F0 JUMP JUMPDEST PUSH2 0x324E PUSH1 0x40 DUP4 ADD DUP5 PUSH2 0x2A0E JUMP JUMPDEST SWAP5 SWAP4 POP POP POP POP JUMP JUMPDEST PUSH0 PUSH1 0x40 DUP3 ADD SWAP1 POP PUSH2 0x3269 PUSH0 DUP4 ADD DUP6 PUSH2 0x29F0 JUMP JUMPDEST PUSH2 0x3276 PUSH1 0x20 DUP4 ADD DUP5 PUSH2 0x2A0E JUMP JUMPDEST SWAP4 SWAP3 POP POP POP JUMP JUMPDEST PUSH32 0x4E487B7100000000000000000000000000000000000000000000000000000000 PUSH0 MSTORE PUSH1 0x32 PUSH1 0x4 MSTORE PUSH1 0x24 PUSH0 REVERT JUMPDEST PUSH32 0x4E487B7100000000000000000000000000000000000000000000000000000000 PUSH0 MSTORE PUSH1 0x11 PUSH1 0x4 MSTORE PUSH1 0x24 PUSH0 REVERT JUMPDEST PUSH0 PUSH2 0x32E1 DUP3 PUSH2 0x278D JUMP JUMPDEST SWAP2 POP PUSH32 0xFFFFFFFFFFFFFFFFFFFFFFFFFFFFFFFFFFFFFFFFFFFFFFFFFFFFFFFFFFFFFFFF DUP3 SUB PUSH2 0x3313 JUMPI PUSH2 0x3312 PUSH2 0x32AA JUMP JUMPDEST JUMPDEST PUSH1 0x1 DUP3 ADD SWAP1 POP SWAP2 SWAP1 POP JUMP JUMPDEST PUSH0 PUSH1 0x80 DUP3 ADD SWAP1 POP PUSH2 0x3331 PUSH0 DUP4 ADD DUP8 PUSH2 0x29F0 JUMP JUMPDEST PUSH2 0x333E PUSH1 0x20 DUP4 ADD DUP7 PUSH2 0x2A0E JUMP JUMPDEST PUSH2 0x334B PUSH1 0x40 DUP4 ADD DUP6 PUSH2 0x2A0E JUMP JUMPDEST PUSH2 0x3358 PUSH1 0x60 DUP4 ADD DUP5 PUSH2 0x2A0E JUMP JUMPDEST SWAP6 SWAP5 POP POP POP POP POP JUMP JUMPDEST PUSH0 PUSH2 0x336B DUP3 PUSH2 0x278D JUMP JUMPDEST SWAP2 POP PUSH2 0x3376 DUP4 PUSH2 0x278D JUMP JUMPDEST SWAP3 POP DUP3 DUP3 ADD SWAP1 POP DUP1 DUP3 GT ISZERO PUSH2 0x338E JUMPI PUSH2 0x338D PUSH2 0x32AA JUMP JUMPDEST JUMPDEST SWAP3 SWAP2 POP POP JUMP JUMPDEST PUSH32 0x4D61726B65743A20746F55696E743235365F6F766572666C6F77000000000000 PUSH0 DUP3 ADD MSTORE POP JUMP JUMPDEST PUSH0 PUSH2 0x33C8 PUSH1 0x1A DUP4 PUSH2 0x2EDE JUMP JUMPDEST SWAP2 POP PUSH2 0x33D3 DUP3 PUSH2 0x3394 JUMP JUMPDEST PUSH1 0x20 DUP3 ADD SWAP1 POP SWAP2 SWAP1 POP JUMP JUMPDEST PUSH0 PUSH1 0x20 DUP3 ADD SWAP1 POP DUP2 DUP2 SUB PUSH0 DUP4 ADD MSTORE PUSH2 0x33F5 DUP2 PUSH2 0x33BC JUMP JUMPDEST SWAP1 POP SWAP2 SWAP1 POP JUMP JUMPDEST PUSH32 0x4D61726B65743A20746F55696E743235365F6F75744F66426F756E6473000000 PUSH0 DUP3 ADD MSTORE POP JUMP JUMPDEST PUSH0 PUSH2 0x3430 PUSH1 0x1D DUP4 PUSH2 0x2EDE JUMP JUMPDEST SWAP2 POP PUSH2 0x343B DUP3 PUSH2 0x33FC JUMP JUMPDEST PUSH1 0x20 DUP3 ADD SWAP1 POP SWAP2 SWAP1 POP JUMP JUMPDEST PUSH0 PUSH1 0x20 DUP3 ADD SWAP1 POP DUP2 DUP2 SUB PUSH0 DUP4 ADD MSTORE PUSH2 0x345D DUP2 PUSH2 0x3424 JUMP JUMPDEST SWAP1 POP SWAP2 SWAP1 POP JUMP JUMPDEST PUSH0 PUSH1 0x80 DUP3 ADD SWAP1 POP PUSH2 0x3477 PUSH0 DUP4 ADD DUP8 PUSH2 0x29F0 JUMP JUMPDEST PUSH2 0x3484 PUSH1 0x20 DUP4 ADD DUP7 PUSH2 0x29F0 JUMP JUMPDEST PUSH2 0x3491 PUSH1 0x40 DUP4 ADD DUP6 PUSH2 0x2A0E JUMP JUMPDEST PUSH2 0x349E PUSH1 0x60 DUP4 ADD DUP5 PUSH2 0x2A0E JUMP JUMPDEST SWAP6 SWAP5 POP POP POP POP POP JUMP JUMPDEST PUSH32 0x74686973206F6E65206973206F6E2061756374696F6E00000000000000000000 PUSH0 DUP3 ADD MSTORE POP JUMP JUMPDEST PUSH0 PUSH2 0x34DB PUSH1 0x16 DUP4 PUSH2 0x2EDE JUMP JUMPDEST SWAP2 POP PUSH2 0x34E6 DUP3 PUSH2 0x34A7 JUMP JUMPDEST PUSH1 0x20 DUP3 ADD SWAP1 POP SWAP2 SWAP1 POP JUMP JUMPDEST PUSH0 PUSH1 0x20 DUP3 ADD SWAP1 POP DUP2 DUP2 SUB PUSH0 DUP4 ADD MSTORE PUSH2 0x3508 DUP2 PUSH2 0x34CF JUMP JUMPDEST SWAP1 POP SWAP2 SWAP1 POP JUMP JUMPDEST PUSH0 DUP2 MLOAD SWAP1 POP PUSH2 0x351D DUP2 PUSH2 0x2988 JUMP JUMPDEST SWAP3 SWAP2 POP POP JUMP JUMPDEST PUSH0 PUSH1 0x20 DUP3 DUP5 SUB SLT ISZERO PUSH2 0x3538 JUMPI PUSH2 0x3537 PUSH2 0x2785 JUMP JUMPDEST JUMPDEST PUSH0 PUSH2 0x3545 DUP5 DUP3 DUP6 ADD PUSH2 0x350F JUMP JUMPDEST SWAP2 POP POP SWAP3 SWAP2 POP POP JUMP JUMPDEST PUSH32 0x4D61726B65743A204552433230207472616E73666572206E6F74207375636365 PUSH0 DUP3 ADD MSTORE PUSH32 0x737366756C000000000000000000000000000000000000000000000000000000 PUSH1 0x20 DUP3 ADD MSTORE POP JUMP JUMPDEST PUSH0 PUSH2 0x35A8 PUSH1 0x25 DUP4 PUSH2 0x2EDE JUMP JUMPDEST SWAP2 POP PUSH2 0x35B3 DUP3 PUSH2 0x354E JUMP JUMPDEST PUSH1 0x40 DUP3 ADD SWAP1 POP SWAP2 SWAP1 POP JUMP JUMPDEST PUSH0 PUSH1 0x20 DUP3 ADD SWAP1 POP DUP2 DUP2 SUB PUSH0 DUP4 ADD MSTORE PUSH2 0x35D5 DUP2 PUSH2 0x359C JUMP JUMPDEST SWAP1 POP SWAP2 SWAP1 POP JUMP JUMPDEST PUSH32 0x4D61726B65743A205072696365206D7573742062652067726561746572207468 PUSH0 DUP3 ADD MSTORE PUSH32 0x616E207A65726F00000000000000000000000000000000000000000000000000 PUSH1 0x20 DUP3 ADD MSTORE POP JUMP JUMPDEST PUSH0 PUSH2 0x3636 PUSH1 0x27 DUP4 PUSH2 0x2EDE JUMP JUMPDEST SWAP2 POP PUSH2 0x3641 DUP3 PUSH2 0x35DC JUMP JUMPDEST PUSH1 0x40 DUP3 ADD SWAP1 POP SWAP2 SWAP1 POP JUMP JUMPDEST PUSH0 PUSH1 0x20 DUP3 ADD SWAP1 POP DUP2 DUP2 SUB PUSH0 DUP4 ADD MSTORE PUSH2 0x3663 DUP2 PUSH2 0x362A JUMP JUMPDEST SWAP1 POP SWAP2 SWAP1 POP JUMP JUMPDEST PUSH0 PUSH2 0x3674 DUP3 PUSH2 0x278D JUMP JUMPDEST SWAP2 POP PUSH2 0x367F DUP4 PUSH2 0x278D JUMP JUMPDEST SWAP3 POP DUP3 DUP3 SUB SWAP1 POP DUP2 DUP2 GT ISZERO PUSH2 0x3697 JUMPI PUSH2 0x3696 PUSH2 0x32AA JUMP JUMPDEST JUMPDEST SWAP3 SWAP2 POP POP JUMP JUMPDEST PUSH0 PUSH1 0xA0 DUP3 ADD SWAP1 POP PUSH2 0x36B0 PUSH0 DUP4 ADD DUP9 PUSH2 0x29F0 JUMP JUMPDEST PUSH2 0x36BD PUSH1 0x20 DUP4 ADD DUP8 PUSH2 0x2A0E JUMP JUMPDEST PUSH2 0x36CA PUSH1 0x40 DUP4 ADD DUP7 PUSH2 0x2A0E JUMP JUMPDEST PUSH2 0x36D7 PUSH1 0x60 DUP4 ADD DUP6 PUSH2 0x2A0E JUMP JUMPDEST PUSH2 0x36E4 PUSH1 0x80 DUP4 ADD DUP5 PUSH2 0x2A0E JUMP JUMPDEST SWAP7 SWAP6 POP POP POP POP POP POP JUMP JUMPDEST PUSH32 0x4E487B7100000000000000000000000000000000000000000000000000000000 PUSH0 MSTORE PUSH1 0x31 PUSH1 0x4 MSTORE PUSH1 0x24 PUSH0 REVERT INVALID LOG2 PUSH5 0x6970667358 0x22 SLT KECCAK256 0xD9 GASPRICE SGT EXP PUSH9 0x9B31918181DEBAC6D1 SLT 0xA9 0x2D CALLER PUSH30 0xFB82976A26121F6E26B1511FFD64736F6C63430008160033000000000000 "
				},
				"gasEstimates": {
					"creation": {
						"codeDepositCost": "2832200",
						"executionCost": "infinite",
						"totalCost": "infinite"
					},
					"external": {
						"auction(uint256)": "infinite",
						"buy(uint256)": "infinite",
						"cancelOrder(uint256)": "infinite",
						"changePrice(uint256,uint256)": "infinite",
						"erc20()": "infinite",
						"erc721()": "infinite",
						"finishAuction(uint256)": "infinite",
						"getAllNFTs()": "infinite",
						"getMyNFTs()": "infinite",
						"getOrderLength()": "2529",
						"idToOrderIndex(uint256)": "infinite",
						"isListed(uint256)": "2946",
						"onERC721Received(address,address,uint256,bytes)": "infinite",
						"orderOfId(uint256)": "infinite",
						"orders(uint256)": "infinite",
						"setSellerPreferences(bool,uint256)": "47243",
						"toUint256(bytes,uint256)": "infinite"
					},
					"internal": {
						"placeAuctionOrder(address,uint256,uint256,uint256)": "infinite",
						"placeNormalOrder(address,uint256,uint256)": "infinite",
						"removeListing(uint256)": "infinite"
					}
				},
				"methodIdentifiers": {
					"auction(uint256)": "1200617f",
					"buy(uint256)": "d96a094a",
					"cancelOrder(uint256)": "514fcac7",
					"changePrice(uint256,uint256)": "b3de019c",
					"erc20()": "785e9e86",
					"erc721()": "bca6ce64",
					"finishAuction(uint256)": "cf266ed0",
					"getAllNFTs()": "e0391b09",
					"getMyNFTs()": "629cb2e4",
					"getOrderLength()": "9d4971b7",
					"idToOrderIndex(uint256)": "da694df0",
					"isListed(uint256)": "fcce4883",
					"onERC721Received(address,address,uint256,bytes)": "150b7a02",
					"orderOfId(uint256)": "394a9077",
					"orders(uint256)": "a85c38ef",
					"setSellerPreferences(bool,uint256)": "21686b25",
					"toUint256(bytes,uint256)": "b5cdf924"
				}
			},
			"storageLayout": {
				"storage": [
					{
						"astId": 247,
						"contract": "nft-market.sol:Market",
						"label": "erc20",
						"offset": 0,
						"slot": "0",
						"type": "t_contract(IERC20)89"
					},
					{
						"astId": 250,
						"contract": "nft-market.sol:Market",
						"label": "erc721",
						"offset": 0,
						"slot": "1",
						"type": "t_contract(IERC721)206"
					},
					{
						"astId": 280,
						"contract": "nft-market.sol:Market",
						"label": "orderOfId",
						"offset": 0,
						"slot": "2",
						"type": "t_mapping(t_uint256,t_struct(Order)270_storage)"
					},
					{
						"astId": 284,
						"contract": "nft-market.sol:Market",
						"label": "orders",
						"offset": 0,
						"slot": "3",
						"type": "t_array(t_struct(Order)270_storage)dyn_storage"
					},
					{
						"astId": 288,
						"contract": "nft-market.sol:Market",
						"label": "idToOrderIndex",
						"offset": 0,
						"slot": "4",
						"type": "t_mapping(t_uint256,t_uint256)"
					},
					{
						"astId": 293,
						"contract": "nft-market.sol:Market",
						"label": "sellerPreferences",
						"offset": 0,
						"slot": "5",
						"type": "t_mapping(t_address,t_struct(SellerPreferences)275_storage)"
					}
				],
				"types": {
					"t_address": {
						"encoding": "inplace",
						"label": "address",
						"numberOfBytes": "20"
					},
					"t_array(t_struct(Order)270_storage)dyn_storage": {
						"base": "t_struct(Order)270_storage",
						"encoding": "dynamic_array",
						"label": "struct Market.Order[]",
						"numberOfBytes": "32"
					},
					"t_bool": {
						"encoding": "inplace",
						"label": "bool",
						"numberOfBytes": "1"
					},
					"t_contract(IERC20)89": {
						"encoding": "inplace",
						"label": "contract IERC20",
						"numberOfBytes": "20"
					},
					"t_contract(IERC721)206": {
						"encoding": "inplace",
						"label": "contract IERC721",
						"numberOfBytes": "20"
					},
					"t_mapping(t_address,t_struct(SellerPreferences)275_storage)": {
						"encoding": "mapping",
						"key": "t_address",
						"label": "mapping(address => struct Market.SellerPreferences)",
						"numberOfBytes": "32",
						"value": "t_struct(SellerPreferences)275_storage"
					},
					"t_mapping(t_uint256,t_struct(Order)270_storage)": {
						"encoding": "mapping",
						"key": "t_uint256",
						"label": "mapping(uint256 => struct Market.Order)",
						"numberOfBytes": "32",
						"value": "t_struct(Order)270_storage"
					},
					"t_mapping(t_uint256,t_uint256)": {
						"encoding": "mapping",
						"key": "t_uint256",
						"label": "mapping(uint256 => uint256)",
						"numberOfBytes": "32",
						"value": "t_uint256"
					},
					"t_struct(Order)270_storage": {
						"encoding": "inplace",
						"label": "struct Market.Order",
						"members": [
							{
								"astId": 255,
								"contract": "nft-market.sol:Market",
								"label": "seller",
								"offset": 0,
								"slot": "0",
								"type": "t_address"
							},
							{
								"astId": 257,
								"contract": "nft-market.sol:Market",
								"label": "isAuction",
								"offset": 20,
								"slot": "0",
								"type": "t_bool"
							},
							{
								"astId": 259,
								"contract": "nft-market.sol:Market",
								"label": "startTime",
								"offset": 0,
								"slot": "1",
								"type": "t_uint256"
							},
							{
								"astId": 261,
								"contract": "nft-market.sol:Market",
								"label": "endTime",
								"offset": 0,
								"slot": "2",
								"type": "t_uint256"
							},
							{
								"astId": 263,
								"contract": "nft-market.sol:Market",
								"label": "highestBid",
								"offset": 0,
								"slot": "3",
								"type": "t_uint256"
							},
							{
								"astId": 265,
								"contract": "nft-market.sol:Market",
								"label": "highestBidder",
								"offset": 0,
								"slot": "4",
								"type": "t_address"
							},
							{
								"astId": 267,
								"contract": "nft-market.sol:Market",
								"label": "tokenId",
								"offset": 0,
								"slot": "5",
								"type": "t_uint256"
							},
							{
								"astId": 269,
								"contract": "nft-market.sol:Market",
								"label": "price",
								"offset": 0,
								"slot": "6",
								"type": "t_uint256"
							}
						],
						"numberOfBytes": "224"
					},
					"t_struct(SellerPreferences)275_storage": {
						"encoding": "inplace",
						"label": "struct Market.SellerPreferences",
						"members": [
							{
								"astId": 272,
								"contract": "nft-market.sol:Market",
								"label": "isAuction",
								"offset": 0,
								"slot": "0",
								"type": "t_bool"
							},
							{
								"astId": 274,
								"contract": "nft-market.sol:Market",
								"label": "duration",
								"offset": 0,
								"slot": "1",
								"type": "t_uint256"
							}
						],
						"numberOfBytes": "64"
					},
					"t_uint256": {
						"encoding": "inplace",
						"label": "uint256",
						"numberOfBytes": "32"
					}
				}
			},
			"userdoc": {
				"kind": "user",
				"methods": {},
				"version": 1
			}
		}
	}
}